:03000000020926CC
:0C092600787FE4F6D8FD75810702096DAA
:03001B0002001AC6
:01001A0032B3
:03002300020E19B1
:100E1900C0E0C0F0C083C082C0D075D000C000C09F
:0D0E290001C002C003C004C005C006C00720
:0D0E3600E59830E008AF991207CA5398FE06
:100E4300D007D006D005D004D003D002D001D00003
:0B0E5300D0D0D082D083D0F0D0E032AD
:04118D007F647E00FD
:10119100E4FDFCC3ED9FEC9E50070DBD00010C80EA
:0111A100F25B
:0111A200222A
:1011A300758E5190FE917401F0A37410F075BD5FBC
:0611B300E490FEA0F02212
:10113900E490FE80F0758901758DFA758BCB43A813
:0E11490008438840758CCB758AEB43881022D2
:100F5B0090FF10E054F04408F090FF02E054F0448E
:100F6B0002F0D28490FFA07420F0A37404F075CC2F
:100F7B000675CEFF75CD98759E0275981043A81017
:010F8B002243
:1000030043B40343B4807F147E0012119175B5018C
:0700130090FE9B744BF022EC
:0A12290090FF00E0540F4430F02263
:0B1208008F99E59830E1FB5398FD2220
:100DD3008FB543B440E5B430E5FB53B4DF12118D56
:100DE300E47800F208F2FB43B440E5B430E5FB538A
:100DF300B4DF7801E225B6F218E235B7F27F147E4C
:100E0300001211910BEBB410DE75B5017800E2FB13
:050E130012118DAF0378
:010E180022B7
:101157001211A3121229121139120F5B1200031276
:0C1167001119D2AF12002612118D80F871
:0411730082230000D3
:1009B200EFC39430400CEFD39439500674D02FFF1C
:1009C2008022EFC39441400CEFD394465006EF24AB
:1009D200C9FF8010EFC39461400AEFD394665004BC
:1009E200EF24A9FFEF540FC454F0FFEDC39430403D
:1009F2000CEDD39439500674D02DFD801EEDC394B6
:100A0200414008EDD394465002800CEDC3946140FE
:100A12000AEDD394665004ED24A9FDED540F4FFF67
:010A220022B1
:0A0A2300789BEBF208EAF208E9F212
:100A2D00081207B100000000789BE2FB08E2FA080B
:100A3D00E24A4B7005FFFEFDFC22789E1207B100C5
:100A4D00000000789BE2FB0808E2F92401F218E2AD
:100A5D00FA3400F21206F4601F789EE2FC08E2FD03
:100A6D0008E2FE08E22401FFE43EFEE43DFDE43C25
:100A7D00FC789E1207A580CB789EE2FC08E2FD086B
:050A8D00E2FE08E2FF9B
:010A92002241
:0A0C1C007802EBF208EAF208E9F2B0
:100C26007808EBF208EAF208E9F27802E2FB08E259
:100C3600FA08E24A4B7004FBFAF922780608E2FF4A
:100C460024FFF218E2FE34FFF2EF4E60177808E256
:100C5600FB0808E2F92401F218E2FA3400F2ED1278
:0E0C6600073A80D77802E2FB08E2FA08E2F9CA
:010C7400225D
:0A01990078A2EBF208EAF208E9F29E
:1001A30078AAEBF208EAF208E9F278A5E2F908E2A4
:1001B300FA08E278ADC9F208EAF208E9F278A2E2B5
:1001C300FB08E2FA08E24A4B600C08E2FB08E2FA99
:1001D30008E24A4B70077B007A0079002278ADE28F
:1001E300FB08E2FA08E2F9C0038A83898278AA0845
:1001F300E2FA08E2F9D3D0E0E99582EA9583402E4A
:1002030008E2FB08E2FA08E2F978A8E2FE08E2FF56
:10021300E92FF9EA3EFAC0038A8389820808E2FAE1
:1002230008E2F9D3D0E0E99582EA9583404EE47879
:10023300B0F208F278A8E2FE08E2FF78B0E2FC0828
:10024300E2FDC39FEC9E40030202D478ADE2FB08BB
:10025300E2FA08E2F98D828C8312070DFF78AAE295
:10026300FB08E2FA08E2F98D828C83EF12074C78DF
:10027300B1E22401F218E23400F280B878A8E2FF78
:1002830008E278B0CFF208EFF278B0E2FE08E2FFBE
:10029300D39400EE9400403978ADE2FB08E2FA080B
:1002A300E2F9EF24FFFFEE34FFFE8F82F58312079E
:1002B3000DFD78AAE2FB08E2FA08E2F98F828E8349
:1002C300ED12074C78B1E224FFF218E234FFF2801A
:0B02D300B878A2E2FB08E2FA08E2F9AA
:0102DE0022FD
:100BC100780B1207A5780BE2FC08E2FD08E2FE08AB
:100BD100E2FF781812077FEF12073A780BE2FC0860
:100BE100E2FD08E2FE08E2FF781012077F900001A3
:100BF100EF12074C780BE2FC08E2FD08E2FE08E286
:100C0100FF780812077F900002EF12074C780B085B
:0B0C11000808E2FF900003EF02074C10
:0A02DF0078AEEBF208EAF208E9F24B
:1002E900081207B1000000001206F4FFE4FCFDFE4D
:1002F90078B11207A578B1E2FC08E2FD08E2FE0830
:10030900E2FF780812079278B11207A578B1E2FBEB
:1003190008E2F908E2FA08E2CBF8C000C001C0021D
:10032900C00378AEE2FB08E2FA08E2F99000011294
:10033900070DFFD003D002D001D000EB4FFFEAFE3A
:10034900E9FDE8FC78B11207A578B1E2FC08E2FD05
:1003590008E2FE08E2FF780812079278B11207A5B1
:1003690078B1E2FB08E2F908E2FA08E2CBF8C0004A
:10037900C001C002C00378AEE2FB08E2FA08E2F964
:1003890090000212070DFFD003D002D001D000EB7C
:100399004FFFEAFEE9FDE8FC78B11207A578B1E262
:1003A900FC08E2FD08E2FE08E2FF780812079278ED
:1003B900B11207A578B1E2FB08E2F908E2FA08E20E
:1003C900CBF8C000C001C002C00378AEE2FB08E26E
:1003D900FA08E2F990000312070DFFD003D002D00A
:1003E90001D000EB4FFFEAFEE9FDE8FC78B1120706
:0E03F900A578B1E2FC08E2FD08E2FE08E2FF92
:0104070022D2
:05001E007848E2FF221A
:0B121300E47848F2FDFC7F04020C753B
:05123B007845E2FF22EE
:0D0CCE00780FEFF208EBF208EAF208E9F205
:100CDB00E4FFFE7847E2B401020F22780FE2FD1227
:100CEB0010F8E4FD1210F87813E2FD1210F87814E6
:100CFB00E2FD1210F87810E2FB08E2FA08E2F908BC
:100D0B00E2FD08E278A0CDF208EDF2120B0BAD0775
:090D1B00AC067F07120C757F0184
:010D240022AC
:060EE50078A8EDF2AC0755
:100EEB00E4FFFE7847E2B401020F22AD041210F8C2
:100EFB007D011210F8E4FD1210F87D011210F87844
:100F0B00A8E27003FD80027D011210F8AD07AC065C
:070F1B007F07120C757F0136
:010F220022AC
:02088700AD07BB
:10088900E4FFFE7847E2B401020F221210F87D025C
:100899001210F8E4FD1210F87D041210F8C006C019
:1008A9000778ADE2FC08E2FD08E2FE08E2FF7818ED
:1008B90012077FAD07D007D0061210F8C006C0078F
:1008C90078ADE2FC08E2FD08E2FE08E2FF781012CA
:1008D900077FAD07D007D0061210F8C006C0077809
:1008E900ADE2FC08E2FD08E2FE08E2FF7808120723
:1008F9007FAD07D007D0061210F8C006C00778AD43
:10090900E2FC080808E2FFE4AD07D007D0061210A0
:0C091900F8AD07AC067F07120C757F01DB
:0109250022AF
:0D0D25007815EFF208EBF208EAF208E9F2A7
:100D3200E4FFFE7847E2B401020F227815E2FD12C9
:100D420010F87D031210F87819E2FD1210F8781AE3
:100D5200E2FD1210F87816E2FB08E2FA08E2F9085E
:100D6200E2FD08E278A0CDF208EDF2120B0BAD071E
:090D7200AC067F07120C757F012D
:010D7B002255
:060F2300781BEDF2AC07A3
:100F2900E4FFFE7847E2B401020F22AD041210F883
:100F39007D041210F8E4FD1210F87D011210F87802
:100F49001BE2FD1210F8AD07AC067F07120C757F86
:010F59000196
:010F5A002274
:02040800AD073E
:10040A009000007847E2B401037F0122AF82AE83F5
:10041A001210F88E838F827D051210F88E838F82D8
:10042A00E4FD1210F88E838F82781DE2FC08E2FD4B
:10043A0008E2FE74FFFFE47BFFFAF9F8C312076EC5
:10044A007017AF82AE837D011210F88E838F827887
:10045A001D080808E2FD020509781DE2FC08E2FD14
:10046A0074FFFFFEE47BFF7AFFF9F8C312076EAF51
:10047A0082AE8370047D0280487D041210F88E8358
:10048A008F82C006C007781DE2FC08E2FD08E2FE82
:10049A0008E2FF781812077FAD07D007D0061210BE
:1004AA00F88E838F82C006C007781DE2FC08E2FD41
:1004BA0008E2FE08E2FF781012077FAD07D007D0E6
:1004CA00061210F88E838F82C006C007781DE2FCE0
:1004DA0008E2FD08E2FE08E2FF780812077FAD078E
:1004EA00D007D0061210F88E838F82C006C0077814
:1004FA001DE2FC080808E2FFE4AD07D007D00612A7
:10050A0010F88E838F82AE83AF82AD07AC067F0769
:05051A00120C757F01C9
:01051F0022B9
:0C11F00078A8ECF208EDF21206F4FF22E1
:0C11FC007821ECF208EDF21206F4FF225C
:0B121E0078ACECF208EDF21202DF22C7
:1007CA0078B9EFF2786BE2FB08E2FA08E2F9C003C3
:1007DA008A838982784908E2FA08E2F9D3D0E0E903
:1007EA009582EA95834021786B08E2FA08E2AE0224
:1007FA00FF784908E2FA08E29FFFEA9EFEC3EF94F7
:10080A000FEE648094805074786BE2FB08E2FA0879
:10081A00E2F9C0038A838982784908E2FA08E2F990
:10082A00C3D0E0E99582EA95835019784908E2FA3B
:10083A0008E2AE02FF786B08E2FA08E2C39FFFEA19
:10084A009E4F6038784908E2FA08E2C3900045955D
:10085A0082EA9583400D784974FEF2087400F20822
:10086A007436F278B9E2FF7849E2FB0808E2F92423
:0D087A0001F218E2FA3400F2EF12073A2200
:10002600E4788DF208F208F208F2C37824E2941F0D
:1000360018E294005021120F8CEFD394004018124E
:100046000B63782308E2FD2401F218E23400F2740F
:100056004C2DF8EFF280D3C37824E2940718E2948B
:10006600005003020198788DE2FE08E2FFC378246F
:10007600E29FFD18E29EFCC3ED9407EC940050034A
:10008600020156744C2FF8E2645560028009744DE3
:100096002FF8E264AA6008788EE22401020137781C
:1000A6008D08E2FD244EF8E26008788EE224020212
:1000B600013774502DF8E2FE74512DF8E27C0024CD
:1000C60000FFEC3ECF2407CF3400FE788FF208EF16
:1000D600F2D39426EE94004007788EE224038051F2
:1000E600788DE2FE08E2FFC37824E29FFD18E29EC7
:1000F600FC788FE2F58308E2F582D39DE5839C5078
:100106004F744C2FF9E4FA7BFEE58224FFFDE5836C
:1001160034FFFC120E5EAD07788F08E2FC788DE2A4
:10012600FE08E2FF2C244BF8E26D600E788EE22486
:1001360003F218E23400F202006C12060C788FE229
:10014600FE08E2FF788EE22FF218E23EF202006C21
:10015600788DE2FE08E2FFC37824E29FFD18E29E56
:10016600FCF208EDF2D39400EC94004025744C2F79
:10017600F978A574FEF208E4F208E9F27823E2FFC2
:1001860008E278A8CFF208EFF27BFE7A00794C12EB
:020196000199CD
:010198002244
:10111900784974FEF2087400F2087436F2786B7438
:10112900FEF2087400F2087436F2784574FFF22270
:1011770090250101030265026602670168026902A0
:021187006A02FA
:031240000212088F
:011246002285
:1011B9001211F0AD077F01120EE5EFB401037F01B3
:0311C900227F0082
:0111CC002200
:100FBB0012121E78A81207A578A8E2FC08E2FD0819
:100FCB00E2FE08E2FF78AD1207A57F03120887EF58
:080FDB00B401037F01227F0035
:010FE30022EB
:100FE40012121E78A81207A578A8E2FC08E2FD08F0
:100FF400E2FE08E2FF78AD1207A57F65120887EFCD
:08100400B401037F01227F000B
:01100C0022C1
:10100D0012121E78A81207A578A8E2FC08E2FD08C6
:10101D00E2FE08E2FF78AD1207A57F66120887EFA2
:08102D00B401037F01227F00E2
:011035002298
:1011CD001211F0AD077F67120EE5EFB401037F0139
:0311DD00227F006E
:0111E00022EC
:1010360012121E78A81207A578A8E2FC08E2FD089D
:10104600E2FE08E2FF78AD1207A57F68120887EF77
:08105600B401037F01227F00B9
:01105E00226F
:10105F0012121E78A81207A578A8E2FC08E2FD0874
:10106F00E2FE08E2FF78AD1207A57F69120887EF4D
:08107F00B401037F01227F0090
:011087002246
:1010880012121E78A81207A578A8E2FC08E2FD084B
:10109800E2FE08E2FF78AD1207A57F6A120887EF23
:0810A800B401037F01227F0067
:0110B000221D
:0A05200078A2EBF208EAF208E9F213
:10052A00EF14602E24FE6040249EB40600400302AD
:10053A00060790054A75F003A4C58325F0C58373A1
:10054A0002058702059C0205B10205C60205DB0207
:10055A0005F078A2E2FB08E2FA08E2F908E2FC08F0
:10056A00E2FD1211B902060378A2E2FB08E2FA08D8
:10057A00E2F908E2FC08E2FD120FBB807C78A2E2F5
:10058A00FB08E2FA08E2F908E2FC08E2FD120FE4CD
:10059A00806778A2E2FB08E2FA08E2F908E2FC08BE
:1005AA00E2FD12100D805278A2E2FB08E2FA08E29C
:1005BA00F908E2FC08E2FD1211CD803D78A2E2FBC7
:1005CA0008E2FA08E2F908E2FC08E2FD12103680B5
:1005DA002878A2E2FB08E2FA08E2F908E2FC08E25B
:1005EA00FD12105F801378A2E2FB08E2FA08E2F932
:1005FA0008E2FC08E2FD12108878A7EFF278A7E279
:01060A00FFF0
:01060B0022CC
:031243007F0822FF
:0F11E1003667736A6E36767300312E302E30000B
:03118900813500AD
:0710F80078B1EEF208EFF2FF
:1010FF002474F9E4FA7BFEED12073AE22401F218A8
:09110F00E23400F2E2FE08E2FF06
:0111180022B4
:080B0300789AE2FF7E007BFFFF
:100B0B00789DEBF208EAF208E9F2789BEEF208EF37
:010B1B00F2E7
:100B1C002474F9E4FA7BFEC002C00108E2F908E291
:100B2C00FA08E278A5C9F208EAF208E9F278A0E23C
:100B3C00FF08E278A8CFF208EFF2D001D002120140
:100B4C009978A0E2FE08E2FF789CE22FF218E23ED0
:060B5C00F2E2FE08E2FFD8
:010B62002270
:100D7C0078B3EBF208EAF208E9F208ECF208EDF2CB
:100D8C0078B3E2FB08E2FA08E24A4B603978B7E242
:100D9C00700218E2603078B608E2FF24FFF218E225
:100DAC00FE34FFF2EF4E601E78B3E2FB08E2FA0865
:100DBC00E2F91206F4FF12124078B5E22401F2189F
:070DCC00E23400F280D022A6
:100E5E0078B3EBF208EAF208E9F208ECF208EDF2E8
:100E6E00E408F2FFFED378B7E29F18E29E402178A5
:100E7E00B3E2FB0808E2F92401F218E2FA3400F2B8
:100E8E001206F4FD78B8E22DF20FBF00010E80D5E8
:040E9E0078B8E2FF3F
:010EA200222D
:070C750078B1ECF208EDF28A
:100C7C00786E7455F20874AAF2E408F208EFF27870
:100C8C00B1E2FC08E2FDEC7872F2ED08F278B2E227
:100C9C002407F218E23400F27BFE7A00796E08E247
:100CAC0024FFFD18E234FFFC120E5EAE0778B1E2B1
:100CBC00FC08E2FD246DF8EFF27BFE7A00796E02FF
:020CCC000D7C9D
:1010D500E4FF7835E2700CFEFD1210F878357401E6
:1010E500F280077E007D011210F8EFFD7C00E4FF21
:0310F500020C7575
:100EA300E4789AF27BFF7A1179E1120A2378A0EEB3
:100EB300F208EFF27A1179E1120B03789AEFF27BE1
:100EC300FF7A1179EA120A2378A0EEF208EFF27A98
:100ED3001179EA120B03789AEFF2FD7C007F01028D
:020EE3000C758C
:08123300E4FDFC7F02020C75D2
:0410B10078A1EFF241
:1010B500121243E4FEEEC39F5013EE25E02425F8FB
:0F10C500E2FD78A1E2FCED6C60030E80E8AF065F
:0110D40022F9
:0A0A9300789AEBF208EAF208E9F2A3
:100A9D001206F408F2FD90000112070D789EF290F7
:100AAD00000212070D789FF208E4F290000312077E
:100ABD000DFF78A0E22FF218E23400F2AF0512100C
:100ACD00B1EF25E02426F8E2FF789EE26F60037F08
:100ADD000022789DE2FF789AE2FB08E2FA08E22410
:100AED0004F9E43AFA789FE2FD08E278A5CDF20820
:050AFD00EDF2120520DE
:010B020022D0
:07060C007891EEF208EFF215
:10061300244FF8E2FFB4090040030206F3900627D3
:10062300F828287302064202064502064802064BD2
:1006330002065E0206F30206640206F30206F002F5
:1006430010D5020EA3021233789108E22452F8E285
:100653007845F2E4FDFC7F03020C7578487401F2DF
:1006630022789108E2FD2450F8E2F8E47999F3E85E
:1006730019F374512DF8E2FF7899E22FF218E2345E
:1006830000F2E47896F208F27898E2FE08E2FFC3FB
:100693007897E29F18E29E505708E2FF789108E2AC
:1006A300FD2FFB2454F8E2F8E47994F3E819F3748A
:1006B300552BF8E2FF7894E22FF218E23400F2743B
:1006C300522DF97BFE7896E2FE08E229F9E43EFA20
:1006D300120A937895EFF27894E22404FF18E23437
:1006E30000FE7897E22FF218E23EF2809B12124648
:0106F30022E4
:100F8C00786BE2FB08E2FA08E2F9C0038A838982F3
:100F9C007849E2FB08E2FA08E2F9D0E06B7008E964
:0F0FAC0065827003EA658360037F01227F002264
:100B63007849E2FB08E2FA08E2F9C0038A83898242
:100B7300786BE2FB08E2FA08E2F9D0E06B7008E96F
:100B830065827003EA65836034786B08E2FA08E2F1
:100B9300C39000459582EA9583400D786B74FEF20D
:100BA300087400F2087436F2786BE2FB0808E2F985
:0D0BB3002401F218E2FA3400F21206F4FFF9
:010BC0002212
:10093200021157E493A3F8E493A34003F68001F273
:1009420008DFF48029E493A3F85407240CC8C333C6
:10095200C4540F4420C8834004F456800146F6DF95
:10096200E4800B0102040810204080901173E47EA1
:10097200019360BCA3FF543F30E509541FFEE4938A
:10098200A360010ECF54C025E060A840B8E493A351
:10099200FAE493A3F8E493A3C8C582C8CAC583CA7C
:1009A200F0A3C8C582C8CAC583CADFE9DEE780BE34
:01118C000062
:1006F400BB010689828A83E0225002E722BBFE0204
:09070400E32289828A83E4932236
:10070D00BB010CE58229F582E5833AF583E02250A1
:10071D0006E92582F8E622BBFE06E92582F8E222EB
:0D072D00E58229F582E5833AF583E4932205
:10073A00BB010689828A83F0225002F722BBFE019E
:02074A00F32298
:10074C00F8BB010DE58229F582E5833AF583E8F0E3
:10075C00225006E92582C8F622BBFE05E92582C88F
:02076C00F22277
:10076E00EB9FF5F0EA9E42F0E99D42F0E89C45F0E1
:01077E002258
:10077F00E8600FECC313FCED13FDEE13FEEF13FF58
:03078F00D8F1227C
:10079200E8600FEFC333FFEE33FEED33FDEC33FCC5
:0307A200D8F12269
:0C07A500ECF208EDF208EEF208EFF22290
:1007B100D083D082E493F208740193F20874029317
:0907C100F208740393F27404734E
:00000001FF
