:03000000021F8C50
:0C1F8C00787FE4F6D8FD758194021FD325
:1014E300045700000000410002004100360C410097
:1014F300374044002E0000000044001200000000AA
:101503004400160000000044004B000000004400AB
:101513003B00000000440052000000004200220093
:101523000142001000004100060041002B00420070
:101533005700004200070000410000084100390045
:1015430041005900015B00015C0041005000410073
:101553000F0041001A014100250A41003A004100F1
:10156300380A41002A0041002C00420004000041D7
:10157300000100028200000280000041000D0041D2
:10158300004F0041002D001070000000000000001B
:10159300000000000000000000016C00016D00016C
:1015A3006F00016E00016B0041000E0042001B0042
:1015B300004A00410000000000000000000041005C
:0215C300030023
:102A02008E098F0A8B0B8A0C890DAF051DEF602191
:102A1200050AE50AAE097002050914F5828E83E4FF
:102A220093FF780BE475F001120C1BEF1209CB80B7
:022A3200D922A7
:102C6C00E4FDFCC3ED9FEC9E50070DBD00010C80F4
:012C7C00F265
:012C7D002234
:102A92008F828E83E4F55AF559F558F557AF82AE19
:102AA20083E4FCFDAB5AAA59A958A857C3120B8359
:082AB200500543BD1080E6222F
:102C7E00E4FDFCC3ED9FEC9E50070DBD00010C80E2
:012C8E00F253
:012C8F002222
:10000300758E5190FE917401F0A37410F075BD5F6D
:0700130090FEA07420F02212
:102BCD00E490FE80F0758901758DFA758BCB43A865
:0E2BDD0008438840758CCB758AEB4388102224
:102A340090FF10E054F04408F090FF02E054F0449A
:102A440002F0D28490FFA07420F0A37404F075CC3B
:102A54000675CEFF75CD98759E0275981043A81023
:012A6400224F
:102C3E0043B40343B4807F147E00122C6C75B5012F
:072C4E0090FE9B744BF02285
:102C090090FF08E054F04408F090FF00E0540F44AE
:0C2C190030F090FF11E054F04403F02272
:0B2CAB008F99E59830E1FB5398FD2263
:10280B008FB543B440E5B430E5FB53B4DF7F647E52
:10281B0000122C6CE4FBFAF943B440E5B430E5FB51
:10282B0053B4DFE5B62BFBE5B73AFA7F147E001203
:10283B002C6C09B910E275B501A9027F647E0012F8
:04284B002C6CAF0141
:01284F002266
:10161F007B017A0079417D0A7F007E2F122A02908A
:10162F000041E0FFE4FCFDFE900009120BD2900098
:10163F0009120BBA7808120BA7900009120BD2905F
:10164F000009120BC6900042E0FFE4FCFDFE120AF7
:10165F0027900009120BD2900009120BBAE47BE815
:10166F007A03F9F8120A42900009120BD2E47F3084
:10167F007E75FDFC900009120BC6C3120B8340143C
:10168F007F007E097D3D7C00900009120BC6D312AE
:10169F000B83400A900009120BDE00009C40900063
:1016AF0043E0900056F070028007900056E0B4FEC1
:1016BF000374FFF0900044E0FF900027E4F0A3EFE5
:1016CF00F0E0F8E4F0E8900027F0900045E0FF909C
:1016DF000027E48FF0120A11900027E0FEA3E0FF2D
:1016EF004E6009D3EF9408EE94074009900027E469
:1016FF00F0A37405F0900046E0900025F090002CC8
:10170F00F0900047E090001DF06006E0D394FF409A
:10171F000690001D7401F0900048E0540190001AEB
:10172F00F07B017A0079037D017F807E2F122A02E0
:09173F00900003E090002AF02262
:10003E00E55B60030206E243B440E5B430E5FB53F2
:10004E00B4DF85B70985B60A900010E475F0011289
:10005E000A11900052120BC6AE09AF0AE4FCFD1253
:10006E000A27900052120BD290003FE0FEA3E0FF51
:10007E00C3950AEE9509500DC3E50A9FF50AE509E9
:10008E009EF509800BC3EF950AF50AEE9509F50961
:10009E00900016120BC6AE09AF0AE4FCFD120A2739
:1000AE00900016120BD2900010E05401FEA3E04E09
:1000BE007061D3900058E09400900057E094004097
:1000CE0017900038E094645042E02402F0E0D3949C
:1000DE006440387464F08033900007E07004A3E04D
:1000EE006401702F900025E0FF900038E0FED39F52
:1000FE004019EE94024004E024FEF0900038E0C374
:10010E009F5008900025E0900038F0900038E0FFF6
:10011E00122694C3900010E09420500302072D4342
:10012E00BD10E4F0A3F0900039E004F090003B1213
:10013E000BBA900052120BC6120A2790003B120BFC
:10014E00D2900039E0C394084037E4F090003B129F
:10015E000BBA7810120B9490003B120BD290003B0E
:10016E00120BBA90003FEE8FF0120A1190003FE092
:10017E00C313F0A3E013F090003B120BDE0000005F
:10018E0000900000E0C394085005E004F080569003
:10019E000057E07002A3E0704C7F0A12280B90000B
:1001AE0026EFF0900051E0FE2402FDE433FCEFD385
:1001BE009DEC6480F8748098501E900026E0240216
:1001CE00FDE433FCEED39DEC6480F8748098500807
:1001DE00900051E0900026F0900026E0900051F043
:1001EE00E4900000F0E4FFFEFDFC900012120BC63E
:1001FE00C3120B837041900016120BBAEF2488FFC6
:10020E00EE3413FEE43DFDE43CFC900012120BD2E2
:10021E00900022E07002A3E0701D7F407E427D0FB1
:10022E00FC900012120BC6D3120B83400A900012E0
:10023E00120BDE000F4240900002E0701690001686
:10024E00120BBA90002E120BD290001E120BDE0073
:10025E0000000190001E120BBA900016120BC6126F
:10026E000A2790002E120BC6C3120B834003020501
:10027E000790001E120BBA90002E120BC6120A2700
:10028E00900016120BC6C3120B8340030205079093
:10029E000002E004F090004B120BBA900016120B05
:1002AE00C6120A2790004B120BD2900002E0FFFB01
:1002BE00E4FAF9F890004B120BBA120ACD90002E08
:1002CE00120BD290002E120BBA7803120B949000E0
:1002DE001E120BD2E47F207E4EFDFC90001E120BF0
:1002EE00C6C3120B83500A90001E120BDE00004E86
:1002FE0020E47F607EEAFDFC90001E120BC6D31236
:10030E000B83400A90001E120BDE0000EA60900084
:10031E002E120BBA900012120BC6D3120B83404C46
:10032E0090002E120BC6900012120BBA120A3490C5
:10033E000052120BD27F807E387D017C00900052DD
:10034E00120BC6D3120B8340089000367406F08051
:10035E0021E47F407E9CFDFC900052120BC6D3120E
:10036E000B8390003640087409F0800690003674B6
:10037E000CF0900036E0FF900002E0C39F407B90AF
:10038E000012120BBA90002E120BC6C3120B835022
:10039E0069900037E094105003020516900036E085
:1003AE00D39409500890002E120BBA804490002E60
:1003BE00120BBAEF24A0FFEE340FFEE43DFDE43C39
:1003CE00FC900012120BC6D3120B83402A9000121F
:1003DE00120BBA90002E120BC6120A2790001212A0
:1003EE000BD2900012120BBAE47B02FAF9F8120A41
:1003FE00CD900012120BD2020507900037E0FF904D
:10040E000002E0C39F5003020516900012120BBAB1
:10041E00EF24A0FFEE340FFEE43DFDE43CFC900023
:10042E002E120BC6D3120B8350030204F790001248
:10043E00120BC690002E120BBA120A3490005212F2
:10044E000BD27F007E127D7A7C0090002E120BC69E
:10045E00C3120B8340030204F77F807E1A7D067C55
:10046E0000900052120BC6C3120B83507C900037C3
:10047E00E09410400280487FE07E937D047C0090E3
:10048E000052120BC6D3120B834008900037741023
:10049E00F0801F7FF07E497D027C00900052120B8F
:1004AE00C6D3120B839000374005740CF080037492
:1004BE0008F0900037E0FF900002E0C39F402A90C2
:1004CE000012120BBA90002E120BC6120A279000C1
:1004DE0012120BD2900012120BBAE47B02FAF9F848
:1004EE00120ACD900012120BD2900037E0FF90004E
:1004FE0002E0C39F4012E48004E4900002F09000FA
:10050E004B120BDE0000000090002BE0D394004055
:10051E0066E014F0900032120BBAEF2470FFEE3446
:10052E0017FEE43DFDE43CFC900012120BC6D31204
:10053E000B83500302069E900032120BBAEF2498E2
:10054E00FFEE343AFEE43DFDE43CFC900016120B47
:10055E00C6C3120B83400302069E900032120BBAE2
:10056E00EF2470FFEE3417FEE43DFDE43CFC9000FA
:10057E0012120BD202069ED3900023E0940090003C
:10058E0022E09400407B74FFF5F0120A11D3900024
:10059E0023E09400900022E0940040657F007E12DC
:1005AE007D7A7C00900012120BC6D3120B83400C86
:1005BE00900009120BDE000C3500804590000912E8
:1005CE000BBA900012120BC6120A27900052120B91
:1005DE00D27F407E547D897C00900052120BC6D390
:1005EE00120B83401C900012120BC6C374409BFF6B
:1005FE0074549AFE748999FDE498FC900009120BCC
:10060E00D2900009120BBA900012120BC6120A27D2
:10061E00900016120BC6D3120B834074900056E056
:10062E00FF900026E0D39F400FD3900023E094006C
:10063E00900022E094004058900057E07002A3E032
:10064E00700C900012120BBA900032120BD2900066
:10065E0057E4F0A304F0786EF690001BE475F001F9
:10066E00120A1190001BE0FEA3E0FFE48F2C8E2BEC
:10067E00F52AF5297F74121EF69000377408F0E4FF
:10068E00900007F0A3F07882F608F67880F608F668
:10069E00900052120BDE00000000900016120BDECE
:1006AE0000000000900057E0FEA3E0FFD39400EEA0
:1006BE009400406B900027E0FCA3E0FDD3EF9DEE8D
:1006CE009C405CE4900057F0A3F0755B01786EF6E9
:1006DE00786BF622900007E4F0A304F0E4F55B904B
:1006EE000004F0A3F0900001F07FFAFE122A92901F
:1006FE00003B120BDE00000000E4900039F0900089
:10070E00377440F090002B7402F09000007406F0E5
:0F071E00E4900002F090004B120BDE0000000090
:01072D0022A9
:1022FF00E4F50A900052120BDE00000000E4F5092D
:10230F0043B440E5B430E5FB53B4DF900052120BF9
:10231F00C6AFB6AEB7E4FCFD120A27900052120BFF
:10232F00D20509E509B480D87F907E01122A9290D8
:10233F000052120BBA780B120B948F09E509D39444
:10234F000C400CE509948D5006E50A9414500A05CB
:09235F000AE50AD39450409B22C8
:012368002252
:10236900900052120BDE00000000E4F509E4F50CC0
:10237900F50D43B440E5B430E5FB53B4DF85B70A46
:1023890085B60B900052120BC6AE0AAF0BE4FCFDEA
:10239900120A27900052120BD2050DE50D700205A5
:1023A9000CB400CEE50CB420C943BD100509E509FC
:1023B900B408BA900052120BBA7810120B9490001C
:0623C9003FEEF0A3EFF06F
:0123CF0022EB
:10269400BF0104E4FE80397E007C007DFF1209FF47
:1026A400AC06AD07E41208CBE4FBFA79C878421211
:1026B40008298F0E8E0D8D0C8C0BE4FFFEFD7C3FE4
:1026C400AB0EAA0DA90CA80B120735120904AE070C
:1026D40090FF9C7410F075DEFF8EDF75DD947F0033
:0126E40022D3
:100F6800122C25120003122C097F64122694122BCE
:100F7800CD122A34122C3E75BBAA90FEA774FFF03E
:100F880053BBF7D2AF7FC87E00122A927F64122625
:100F9800949000507401F07F0A12280B900026EFFD
:100FA800F0900051F0C2AF12161F90002AE004F032
:100FB8007F807E2F122AE17F107E27122C7E9000E0
:100FC8002AE0FF7D807C2F122ABA7F647E00122CD3
:100FD8007ED2AF1222FF900025E0FF900038F01279
:100FE80026947F2C7E01122A9212236990005212B5
:100FF8000BDE0000000090002AE0C394034005E4E3
:10100800F0122B06786DE6D39402502A18E6640194
:101018007024F608067F55122CAB7FAA122CABE47D
:10102800FF122CAB7FB4122CABE4FF122CAB122CAA
:10103800AB7FB3122CAB43BD10E55B700B90001176
:10104800E0541F700312136290001AE064016003F9
:1010580002114EE55C703DF55B755C01900025E082
:10106800900038F090003B120BDE00000000E49086
:101078000039F09000377440F090002B7402F09023
:1010880000007406F0E4900002F090004B120BDEB2
:101098000000000012003ED3900008E09400900089
:1010A80007E094004036900001E0B4012FE4F0908E
:1010B800000775F001120A1190001DE0FFC39000AF
:1010C80008E09F900007E094004011E4F0A3F0903E
:1010D800000EE064016005E4FF122694D3900058E6
:1010E800E09400900057E0940040127881E6640193
:1010F80018467009F608F675F001120A11786FE6BD
:1011080064016003020FFE18E6FF786B6670030245
:101118000FFEA607900057E4F0A304F0E4F508E5F5
:1011280008C394084003020FFEE50825E02470F880
:10113800E6FA08E6FB4A600A90000FE0FD7F7112AC
:101148002018050880D9E4F55C90000FE07007FFCF
:10115800122694020FFE90002CE0FF122694E4F56C
:101168005B900025E0900038F090003B120BDE0009
:10117800000000E4900039F09000377440F09000CF
:101188002B7402F09000007406F0E4900002F090D6
:0C119800004B120BDE00000000020FFEF6
:03001B00021C7351
:101C7300C0E0C0F0C083C082C0D075D000C000C037
:101C830001C002C003C004C005C006C007AF5AAEFE
:101C930059AD58AC57EF2401FFE43EFEE43DFDE4AB
:101CA3003C8F5A8E598D58F557900004E475F00116
:101CB300120A11900004E0FEA3E0FFE4FCFD7B6048
:101CC3007AEAF9F8D3120B6D500C900004E4F0A3F8
:101CD300F090000104F0788306E618700106C378DB
:101CE30083E694E818E694034012786C76017882D0
:101CF300760008760078807600087601D007D00653
:101D0300D005D004D003D002D001D000D0D0D082EF
:071D1300D083D0F0D0E032D4
:0300230002277D34
:10277D00C0E0C0F0C083C082C0D075D000C000C022
:0D278D0001C002C003C004C005C006C007A3
:0F279A00E59830E00AAF9912228F5398FED2AF24
:1027A900D007D006D005D004D003D002D001D00084
:0B27B900D0D0D082D083D0F0D0E0322E
:03003B0002001AA6
:01001A0032B3
:102AE10053BBF7C280E5BB20E3F6D280C2AF75FDD0
:102AF100F075FC0F8EFA8FF975FDD275FC2D75FD01
:052B0100E175FC1E223D
:102ABA0053BBF7C280E5BB20E3F6D280C2AF8FFBDF
:102ACA0075FDF075FC0F8CFA8DF975FDB475FC4B2C
:072ADA0075FDE175FC1E22F1
:0415C50002670000B9
:10221E00EFC39430400CEFD39439500674D02FFF97
:10222E008022EFC39441400CEFD394465006EF2426
:10223E00C9FF8010EFC39461400AEFD39466500437
:10224E00EF24A9FFEF540FC454F0FFEDC3943040B8
:10225E000CEDD39439500674D02DFD801EEDC39431
:10226E00414008EDD394465002800CEDC39461407A
:10227E000AEDD394665004ED24A9FDED540F4207E8
:01228E00222D
:062548008B168A178918AA
:10254E00E4F51CF51BF51AF519E94A4B7005FFFE6B
:10255E00FDFC22E4F51CF51BF51AF5197816E47549
:10256E00F001120C1B120985601AE51C2401FFE410
:10257E00351BFEE4351AFDE435198F1C8E1B8D1AA2
:0C258E00F51980D8AF1CAE1BAD1AAC19BB
:01259A00221E
:062992008B398A3A893BF3
:102998008B3F8A408941E94A4B7004FBFAF922E5EA
:1029A8003E153EAE3D7002153D4E600F783FE47512
:1029B800F001120C1BED1209CB80E4AB39AA3AA93D
:0129C8003BD3
:0129C90022EB
:061A32008B238A248925A4
:101A38008B2B8A2C892D85262E85272F852830E902
:101A48004A4B6008E5284527452670077B007A0041
:101A5800790022D3852F83853082E52D9582E52C68
:101A680095834019E530252AF9E52F3529FA8A8327
:101A78008982D3E52D9582E52C95834038E4F531AC
:101A8800F532C3E532952AE53195295067AB2EAA80
:101A98002FA93085328285318312099EAB2BAA2C5F
:101AA800A92D8532828531831209DD0532E5327030
:101AB800D1053180CD852931852A32D3E53294008C
:101AC800E5319400402EAB2EAA2FA930E53224FF31
:101AD800FFE53134FFFE8F82F58312099EAB2BAAF6
:101AE8002CA92D8F828E831209DDE532153270CB39
:0A1AF800153180C7AB23AA24A925ED
:011B020022C0
:102894008F668E658D648C637818120B94EF120921
:1028A400CBAF66AE65AD64AC637810120B94900048
:1028B40001EF1209DDAF66AE65AD64AC6378081252
:1028C4000B94900002EF1209DDE566FF900003EF20
:0328D4000209DD19
:101E5E00E4F52DF52CF52BF52A120985FFE48F2DCF
:101E6E00F52CF52BF52AAE2CAD2BAC2A7808120BDF
:101E7E00A78F2D8E2C8D2B8C2A90000112099EFF80
:101E8E00E52D4FFFE52CFEE52BFDE52A8F2D8E2C43
:101E9E008D2BF52AFC7808120BA78F2D8E2C8D2BEF
:101EAE008C2A90000212099EFFE52D4FFFE52CFEB5
:101EBE00E52BFDE52A8F2D8E2C8D2BF52AFC78082F
:101ECE00120BA78F2D8E2C8D2B8C2A9000031209AE
:101EDE009EFFE52D4FFFE52CFEE52BFDE52A8F2D10
:071EEE008E2C8D2BF52AFC60
:011EF50022CA
:062CD800900074E0FF22F1
:0C2C9F00E4900074F0FDFC7F040226416C
:062CDE00900071E0FF22EE
:08259B008F5D8B5E8A5F896091
:1025A300E4FDFC900073E0B401037F0122AF05AEAC
:1025B30004AD5D120026AC06E4FD120026AC06E570
:1025C30061FD120026AC06AD62120026AC06AD0713
:1025D300AB5EAA5FA96085612185622212295CAC8A
:0A25E30006AD077F071226417F01B5
:0125ED0022CB
:0426E5008D25AB078D
:1026E900E4FDFC900073E0B401037F0122AF05AE65
:1026F90004AD03120026AC067D01120026AC06E4E7
:10270900FD120026AC067D01120026AC06AD07E5D8
:10271900257003FD8006AF05AE047D01120026ACCD
:0A27290006AD077F071226417F016D
:012733002283
:02201800A90716
:10201A00E4FCF525F526900073E0B401037F012264
:10202A007527557528AAE4F529752AB2F52B752C5A
:10203A00078A2D8B2E892F753001F531753201ED06
:10204A007004F5338003753301E4F536F5377427E8
:10205A002537F8E62CFC0537E53770020536640D9E
:10206A00453670EA8C3475250075260EE4F536F58A
:10207A0037E5261526AE25700215254E60147427FD
:10208A002537F8E6FF122CE40537E53770E3053605
:04209A0080DF7F0163
:01209E00221F
:021BC100A90772
:101BC300E4FCF525F526900073E0B401037F0122C0
:101BD3007527557528AAE4F529752AB2F52B752CB6
:101BE300078A2D8B2E892F753001F531753201ED62
:101BF3007004F533802EBD01057533018026BD02C7
:101C030005753302801EBD03057533038016BD04BD
:101C130005753304800EBD05057533058006BD06C5
:101C230003753306E4F536F53774272537F8E62CC4
:101C3300FC0537E53770020536640D453670EA8CCE
:101C43003475250075260EE4F536F537E526152699
:101C5300AE25700215254E601474272537F8E6FF6C
:0F1C6300122CE40537E5377002053680DF7F016C
:011C7200224F
:021EF600AB0738
:101EF800E4FDFC900073E0B401037F0122AF05AE5E
:101F080004AD03120026AC067D02120026AC06E4DE
:101F1800FD120026AC067D04120026C006C007AFDD
:101F28002CAE2BAD2AAC297818120B94AD07D0072C
:101F3800D006120026C006C007AF2CAE2BAD2AACC7
:101F4800297810120B94AD07D007D006120026C0CE
:101F580006C007AF2CAE2BAD2AAC297808120B941B
:101F6800AD07D007D006120026AC06C007E52CFF47
:101F7800E4AD07D007120026AC06AD077F0712268E
:031F8800417F0195
:011F8B002233
:021B0300AD072C
:101B0500E4FBF52FF530900073E0B401037F01226B
:101B1500788476550876AAE408F60876B208F608B9
:101B2500760AE52D08F608A62E08A605087602E42D
:101B350008F6087604AF2CAE2BAD2AAC297818121E
:101B45000B947890A607AF2CAE2BAD2AAC29781054
:101B5500120B947891A607AF2CAE2BAD2AAC297841
:101B650008120B947892A607E52CFFE408A607F562
:101B750031F53274842532F8E62BFB0532E53270F7
:101B85000205316410453170EA7894A603752F007B
:101B9500753011E4F531F532E5301530AE2F7002B0
:101BA500152F4E601474842532F8E6FF122CE405D7
:0B1BB50032E5327002053180DF7F0155
:011BC0002202
:0825EE008F168B178A1889195A
:1025F600E4FDFC900073E0B401037F0122AF05AE59
:1026060004AD16120026AC067D03120026AC06E5C4
:102616001AFD120026AC06AD1B120026AC06AD074D
:10262600AB17AA18A919851A21851B2212295CAC99
:0A26360006AD077F071226417F0161
:012640002277
:0428D7008D25AB0799
:1028DB00E4FDFC900073E0B401037F0122AF05AE71
:1028EB0004AD03120026AC067D04120026AC06E4F0
:1028FB00FD120026AC067D01120026AC06AD25129A
:0D290B000026AC06AD077F071226417F01B4
:01291800229C
:02186D00AD07C5
:10186F00E4F547F548900073E0B401037F0122AF20
:10187F0048AE471200268E478F487D051200268EF0
:10188F00478F48E4FD1200268E478F4874FFFFE50F
:10189F0045FEE544FDE543FCE47BFFFAF9F8C3128E
:1018AF000B8370117D01AF48AE471200268E478F14
:1018BF0048AD46807E74FFFFFEE544FDE543FCE442
:1018CF007BFF7AFFF9F8C3120B8370047D02803619
:1018DF007D04AF48AE471200268E478F48AF46AE05
:1018EF0045AD44AC437818120B94AD07AF48AE47E3
:1018FF001200268E478F48AF46AE45AD44AC4378B5
:10190F0010120B94AD07AF48AE471200268E478FCB
:10191F0048AF46AE45AD44AC437808120B94AD07C3
:10192F00AF48AE471200268E478F48E546FFE4AD1D
:10193F0007AF481200268E478F48AD48AC477F0748
:05194F001226417F019A
:011954002270
:082CB6008C258D26120985FF13
:012CBE0022F3
:082CBF008C258D26120985FF0A
:012CC70022EA
:072CC8008C288D29121E5E0D
:012CCF0022E2
:10228F008F38D3855583855682E5539582E55295D0
:10229F00834015E5539556FFE5529555FEC3EF94D0
:1022AF0017EE648094805047C3855583855682E529
:1022BF00539582E5529583500DC3E5569553FFE52F
:1022CF005595524F6029C3900071E5539582E552A1
:1022DF009583400D7A00795A7551017552007553E7
:1022EF005A7851E475F001120C1BE5381209CB2214
:10136200E4F509F50AF50BF50CC3E568941FE5678A
:1013720094005024122BEBEFD39400401B1227C48D
:101382000568E568AC6770020567142475F5827418
:10139200003CF583EFF080D1C3E5689407E56794DC
:1013A2000050030214E2C3E568950AFFE567950958
:1013B200FEC3EF9407EE940050030214AB7475253C
:1013C2000AF58274003509F583E06455600A050A5E
:1013D200E50A70D2050980CE7476250AF58274007A
:1013E2003509F583E064AA600A050AE50A70B705C3
:1013F2000980B37477250AF58274003509F583E014
:101402006004740280387479250AF5827400350903
:10141200F583E0FE747A250AF58274003509F583B6
:10142200E07C002400FFEC3ECF2407F50CE43FF5FE
:101432000BD3E50C9426E50B940040097403250AAE
:10144200F50AE4805DC3E568950AFFE5679509FE44
:10145200C3EF950CEE950B40507475250AF9740094
:101462003509FA7B01E50C24FFFDE50B34FFFC1284
:101472002A65E50A250CFDE509350BFC74742DF58A
:101482008274003CF583E06F60097403250AF50A53
:10149200E4800FAF0AAE09120C51E50C250AF50AD9
:1014A200E50B3509F5090213A8C3E568950AF56845
:1014B200E5679509F567D3E5689400E56794004010
:1014C2001F7475250AF974003509752601F52789F7
:1014D2002885672985682A7B017A007975121A3274
:0114E20022E7
:102C250075510175520075535A75540175550075E6
:092C3500565A90007174FFF02260
:05001E00313031320019
:1015C9004100B7004400B300000000014E00014B88
:1015D90000014A00014900014D00014C00014F0082
:1015E900602E00B801010302650466026701680202
:1015F90069026A026B026C026D0371017201730167
:1016090074028202830284028502860287028802AA
:02161900890244
:102B06007F55122CAB7FAA122CABE4FF122CAB7FA5
:102B160004122CABE4FF122CABE4FF122CAB7F03A8
:032B2600022CABD3
:032CE400022CAB14
:1011A400900000E0FD7F011226E590000FE0FD7F36
:1011B400711226E5900025E0FFE48F2CF52BF52A2B
:1011C400F5297F03121EF6900056E0FFB4FF05E4F4
:1011D400F515801EEFB4C8057515028015EFB42807
:1011E40005751503800CEFB414057515048003759B
:1011F4001505AD157F651228D7900027E0FEA3E002
:10120400FFE48F2C8E2BF52AF5297F66121EF690AB
:10121400001AE0FD7F671226E590001DE0FFE48FD1
:101224002CF52BF52AF5297F68121EF6E47B107A3B
:1012340027F9F8900009120BBA120ACDC374329F31
:10124400FFE48F2CF52BF52AF5297F69121EF6E4AD
:10125400752C0AF52BF52AF5297F6A121EF6E4751A
:101264002C0BF52BF52AF5297F6B121EF6E4752C51
:101274000CF52BF52AF5297F6C121EF67BFF7A00FC
:10128400791E751A00751B047F6D1225EE786FE6C2
:10129400FD7F721226E590000EE0FD7F731226E5B5
:1012A40090001BE0FEA3E0FFE48F2C8E2BF52AF5C3
:1012B400297F74121EF67870E6FE08E6FFE48F2C90
:1012C4008E2BF52AF5297F82121EF67872E6FE0827
:1012D400E6FFE48F2C8E2BF52AF5297F83121EF668
:1012E4007874E6FE08E6FFE48F2C8E2BF52AF529A8
:1012F4007F84121EF67876E6FE08E6FFE48F2C8ED5
:101304002BF52AF5297F85121EF67878E6FE08E685
:10131400FFE48F2C8E2BF52AF5297F86121EF67892
:101324007AE6FE08E6FFE48F2C8E2BF52AF5297F5A
:1013340087121EF6787CE6FE08E6FFE48F2C8E2BDF
:10134400F52AF5297F88121EF6787EE6FE08E6FF68
:0E135400E48F2C8E2BF52AF5297F89021EF6D8
:102C5500122CB6900000EFF0FD7F011226E5BF01B2
:062C6500037F01227F0045
:012C6B002246
:10212300122CC88F268E258D248C23054A900025DA
:10213300E0FFE4FCFDFEAB26AA25A924A823C312D5
:102143000B836032E4F54AF527E52725E02470F890
:10215300E6FA08E6FB4A601585262C85252B85249F
:102163002A8523298A2D8B2E7F03121B030527E53E
:1021730027C3940840D3AF26900025EFF090002C9E
:10218300F0121955900025E0FFE48F2CF52BF52A6A
:0F219300F5297F03121EF6BF01037F01227F0093
:0121A200221A
:101D1A00122CBF8F2305499000B7E0B52317E5239E
:101D2A0064057035900056E0FF900026E06F602948
:101D3A00E4F5498024E4F549F524E52425E02470F6
:101D4A00F8E6FA08E6FB4A6007AD237F65121BC175
:101D5A000524E524C3940840E1E5231460101460C7
:101D6A001514601A14601F1460242405702890004A
:101D7A005674FFF0802090005674C8F080189000C6
:101D8A00567428F080109000567414F08008900061
:101D9A0026E0900056F09000B7E523F0121955900E
:101DAA0000B7E0FD7F651228D7BF01037F01227FBC
:011DBA000028
:011DBB002205
:10209F00122CC88F268E258D248C23054D9000275A
:1020AF00E0FEA3E0FFE4FCFDAB26AA25A924A823AC
:1020BF00C3120B836032E4F54DF527E52725E024A5
:1020CF0070F8E6FA08E6FB4A601585262C85252B65
:1020DF0085242A8523298A2D8B2E7F66121B0305C3
:1020EF0027E527C3940840D3900027E525F0A3E503
:1020FF0026F0121955900027E0FEA3E0FFE48F2C85
:10210F008E2BF52AF5297F66121EF6BF01037F017C
:03211F00227F001C
:01212200229A
:1024F200122CB68F23054B90001AE065236024E46A
:10250200F54BF524E52425E02470F8E6FA08E6FB0D
:102512004A6007AD237F671220180524E524C3947F
:102522000840E1E52390001A7003F080037401F083
:1025320012195590001AE0FD7F671226E5BF0103CC
:052542007F01227F0073
:012547002271
:1021A300122CC88F268E258D248C23054C90001D60
:1021B300E0FFE4FCFDFEAB26AA25A924A823C31255
:1021C3000B836032E4F54CF527E52725E02470F80E
:1021D300E6FA08E6FB4A601585262C85252B85241F
:1021E3002A8523298A2D8B2E7F68121B030527E559
:1021F30027C3940840D390001DE526F0121955908B
:10220300001DE0FFE48F2CF52BF52AF5297F6812DA
:0A2213001EF6BF01037F01227F00C9
:01221D00229E
:101DBC00122CC88F268E258D248C23054F9000B3B2
:101DCC00120BBAAB26AA25A924A823C3120B836035
:101DDC0032E4F54FF527E52725E02470F8E6FA08FC
:101DEC00E6FB4A601585262C85252B85242A852320
:101DFC00298A2D8B2E7F69121B030527E527C39497
:101E0C000840D3AF26AE25AD24AC239000B3120B03
:101E1C00D2C374329526FFE49525FEE49524FDE4A7
:101E2C009523FCE47B107A27F9F8120A42900009FA
:101E3C00120BD21219559000B3120BBA8F2C8E2B99
:101E4C008D2A8C297F69121EF6BF01037F01227F28
:011E5C000085
:011E5D002262
:102B2900122CC88F268E258D248C238F2C8E2B8DCD
:102B39002A8C297F6A121EF6BF01037F01227F00BA
:012B49002269
:102B4A00122CC88F268E258D248C238F2C8E2B8DAC
:102B5A002A8C297F6B121EF6BF01037F01227F0098
:012B6A002248
:102B6B00122CC88F268E258D248C238F2C8E2B8D8B
:102B7B002A8C297F6C121EF6BF01037F01227F0076
:012B8B002227
:10243600122CB68F23054E90000FE065236024E42E
:10244600F54EF524E52425E02470F8E6FA08E6FBC7
:102456004A6007AD237F711220180524E524C39432
:102466000840E1E523700690000FF0801190001AF5
:10247600E0B40104786E760190000F7401F09000CC
:102486000FE0FD7F711226E5BF01037F01227F0069
:012496002223
:10273400122CB68F23E523786F666022E4F524E536
:102744002425E02470F8E6FA08E6FB4A6007AD2386
:102754007F721220180524E524C3940840E1E52380
:10276400786F7003F680027601AD237F721226E53E
:08277400BF01037F01227F0079
:01277C00223A
:10285000122CB68F2390000EE065236022E4F5244D
:10286000E52425E02470F8E6FA08E6FB4A6007ADA7
:10287000237F731220180524E524C3940840E190B7
:10288000000EE523F0FD7F731226E5BF01037F01F3
:03289000227F00A4
:012893002222
:061748008B1D8A1E891FA3
:10174E00EF120C2B177D0117AC0317BC6517CC6677
:10175E0017DC6717EB6817FA6918096A18186B18FF
:10176E00276C18367118457218547300001865AB43
:10177E001DAA1EA91FAD21AC20122C558F22E522C9
:10178E006401600302186A90003AE004F0E0C3942A
:10179E0005500302186AE4F0122B0602186AAB1DFC
:1017AE00AA1EA91FAD21AC20122123021861AB1D68
:1017BE00AA1EA91FAD21AC20121D1A021861AB1D65
:1017CE00AA1EA91FAD21AC2012209F021861AB1DCD
:1017DE00AA1EA91FAD21AC201224F28076AB1DAA41
:1017EE001EA91FAD21AC201221A38067AB1DAA1E1E
:1017FE00A91FAD21AC20121DBC8058AB1DAA1EA97D
:10180E001FAD21AC20122B298049AB1DAA1EA91F8A
:10181E00AD21AC20122B4A803AAB1DAA1EA91FADDA
:10182E0021AC20122B6B802BAB1DAA1EA91FAD2144
:10183E00AC20122436801CAB1DAA1EA91FAD21ACF4
:10184E0020122734800DAB1DAA1EA91FAD21AC207E
:0E185E001228508F228000E490003AF0AF2252
:01186C002259
:032CE7007F172232
:101955007F007E2F122AE17F107E27122C7EE47BEA
:10196500E87A03F9F8900009120BBA120ACD780843
:10197500120B947D007C2F122ABA7F647E00122CF4
:101985007EE47BE87A03F9F8900009120BBA120A93
:10199500CDE47D017C2F122ABA7F647E00122C7E55
:1019A500900056E0FF7D027C2F122ABA7F647E00EC
:1019B500122C7E900027E0FF7D037C2F122ABA7F30
:1019C500647E00122C7E900027A3E0FF7D047C2F0F
:1019D500122ABA7F647E00122C7E900025E0FF7DDE
:1019E500057C2F122ABA7F647E00122C7E90001D82
:1019F500E0FF7D067C2F122ABA7F647E00122C7EC2
:101A050090001AE0FF7D077C2F122ABA7F647E00C2
:101A1500122C7E7F807E2F122AE17F107E27122CCA
:0C1A25007E7D807C2FE4FF122ABAD2AF35
:011A31002292
:0F2C90003667736A6E36767300312E302E300041
:03161B000150007B
:10002600749A2FF974003EFA7B01ED1209CB0FBFCB
:0300360000010EB8
:0100390022A4
:06295600AF157E007BFFBF
:0A295C008E1C8F1D8B1E8A1F892020
:10296600749A2FF974003EFA7B01851E26851F276F
:1029760085202885212985222A121A32E522251D3D
:0B298600F51DE521351CF51CFEAF1D02
:012991002223
:102919008B2F8A3089318C328D33E94A4B602DE512
:102929003345326027E5331533AE32700215324E26
:10293900601AAB2FAA30A931120985FF122CE47451
:0D294900012531F531E43530F53080D9221B
:0A2A65008B2F8A3089318C328D33BB
:102A6F00E4FFFDFCC3ED9533EC95325015782FE460
:102A7F0075F001120C1B1209852FFF0DBD00010C03
:022A8F0080E2E3
:012A91002222
:042641008C2D8D2E21
:102645009000947455F0A374AAF0E4A3F0A3EFF0FE
:10265500E52DA3F0E52EA3F02407F52EE4352DF5A1
:102665002D7B017A007994E52E24FFFDE52D34FFBD
:10267500FC122A657493252EF5827400352DF58399
:0F268500EFF07B017A007994AD2EAC2D0229196C
:0423D0008C698D6A1D
:1023D4007402256AF56AE43569F5699000947455C8
:1023E400F0A374AAF0E4A3F0A3EFF0E569A3F0E589
:1023F4006AA3F0A374FFF0A3F07407256AF56AE4F6
:102404003569F5697B017A007994E56A24FFFDE575
:102414006934FFFC122A657493256AF582740035C9
:1024240069F583EFF07B017A007994AD6AAC6902B7
:02243400291964
:102BAD00E4FFE550700AFEFD120026755001800706
:102BBD007E007D01120026EFFD7C00E4FF02264120
:1029CA00E4F5157BFF7A2C79901225488E218F2207
:1029DA007A2C79901229568F157BFF7A2C799912C5
:1029EA0025488E218F227A2C79991229568F15EF34
:0829FA00FD7C007F0102264173
:082CD000E4FDFC7F0202264135
:022B8C008F1C9C
:102B8E00122CE7E4FEEEC39F501275F002EE900099
:0E2B9E00B8120C0FE0651C60030E80E9AF0654
:012BAC002206
:062497008B158A1689175F
:10249D00120985F51890000112099EF51990000298
:1024AD0012099E751B00F51A90000312099E251B3B
:1024BD00F51BE4351AF51AAF18122B8C75F002EFD7
:1024CD009000B9120C0FE0651960037F0022AB1567
:1024DD00E5172404F9E43516FA851A20851B21AF7A
:0424ED001812174862
:0124F10022C8
:040C51008E0D8F0E67
:100C550074782FF58274003EF583E0FF120C2B0C9F
:100C650080000C83010C86020C89030CA2040CA9DC
:100C7500060F64080D44B400000F67022BAD02296E
:100C8500CA022CD0747B250EF5827400350DF583D0
:100C9500E0900071F0E4FDFC7F03022641900074B2
:100CA5007401F0227479250EF5827400350DF583F3
:100CB500E0751400F513747A250EF5827400350D70
:100CC500F583E02514F514E43513F513E4F511F572
:100CD50012C3E5129514E51195134003020F67E55C
:100CE5000E2512FDE50D3511FC747D2DF582740080
:100CF5003CF583E0751000F50F747E2DF5827400C8
:100D05003CF583E02510F510E4350FF50F747B25D0
:100D15000EF97400350DFA7B01E92512F9EA351152
:100D2500FA122497BF0103121955E5102404FFE4B4
:100D3500350FFEEF2512F512EE3511F5118092747F
:100D450079250EF5827400350DF583E0751400F5EF
:100D550013747A250EF5827400350DF583E025149C
:100D6500F514E43513F513747C250EF582740035FE
:100D75000DF583E0F8E47971F7E819F7747D250E30
:100D8500F5827400350DF583E0787126F618E436A2
:100D9500F6747E250EF5827400350DF583E0F8E4D2
:100DA5007973F7E819F7747F250EF5827400350D10
:100DB500F583E0787326F618E436F67480250EF58B
:100DC500827400350DF583E0F8E47975F7E819F7D5
:100DD5007481250EF5827400350DF583E07875264E
:100DE500F618E436F67482250EF5827400350DF595
:100DF50083E0F8E47977F7E819F77483250EF5822F
:100E05007400350DF583E0787726F618E436F67428
:100E150084250EF5827400350DF583E0F8E47979C3
:100E2500F7E819F77485250EF5827400350DF583FD
:100E3500E0787926F618E436F67486250EF5827480
:100E450000350DF583E0F8E4797BF7E819F7748749
:100E5500250EF5827400350DF583E0787B26F618AE
:100E6500E436F67488250EF5827400350DF583E0B9
:100E7500F8E4797DF7E819F77489250EF582740091
:100E8500350DF583E0787D26F618E436F6748A2567
:100E95000EF5827400350DF583E0F8E4797FF7E807
:100EA50019F7748B250EF5827400350DF583E078FE
:100EB5007F26F618E436F67870E6FE08E6FFE48F3E
:100EC5002C8E2BF52AF5297F82121EF67872E6FE06
:100ED50008E6FFE48F2C8E2BF52AF5297F83121E59
:100EE500F67874E6FE08E6FFE48F2C8E2BF52AF5DE
:100EF500297F84121EF67876E6FE08E6FFE48F2C3D
:100F05008E2BF52AF5297F85121EF67878E6FE08E0
:100F1500E6FFE48F2C8E2BF52AF5297F86121EF627
:100F2500787AE6FE08E6FFE48F2C8E2BF52AF52964
:100F35007F87121EF6787CE6FE08E6FFE48F2C8E8E
:100F45002BF52AF5297F88121EF6787EE6FE08E63F
:100F5500FFE48F2C8E2BF52AF5297F89021EF612C8
:020F650011A4D5
:010F67002267
:102BEB00E5548555838556826551700AE553658298
:0E2BFB007004E552658360037F01227F002293
:1027C400AB54AA55A956E551855283855382655465
:1027D400700AE55665827004E55565836028C390E8
:1027E4000071E5569582E5559583400D7A00795A36
:1027F40075540175550075565A7854E475F00112F4
:062804000C1B120985FF08
:01280A0022AB
:10072E00020970E86480F8E933E83360110460F080
:10073E00ED33EC337009E8FCE9FDEAFEEBFF220431
:10074E0060DED3EB9FEA9EE99DE8C2E78CF0C2F72C
:10075E0095F0400CE8CCF8E9CDF9EACEFAEBCFFBF8
:10076E0012093B85D0F05804700320D5B3E804700D
:10077E00075002B2D502097A92D5EC0460F7E4CCA8
:10078E00C0E0C398F8603B94186008400DD0E0FBC1
:10079E00020952E4FBFAC9FC8028E830E406E4C9F9
:1007AE00FBE4CAFCE830E305E4C9CACBFCE8540715
:1007BE006010F8C3E913F9EA13FAEB13FBEC13FC20
:1007CE00D8F130F52FC3E49CFCEF9BFFEE9AFEEDC3
:1007DE0099FDD0E0FBEF4E4D4C701222DB03020967
:1007EE0077EC2CFCEF33FFEE33FEED33FDED30E70F
:1007FE00EB020952EF2BFFEE3AFEED39FDD0E0FB96
:10080E0050130BBB000302097AED13FDEE13FEEF3E
:08081E0013FFEC13FC02095268
:1008260002097AEC5D046005E85904700302097058
:1008360012093B580460F6EC4860F2EC7004FDFEC9
:10084600FF22C860DB2481C85009C39860025006A5
:100856000209779850CAF582E9294B4A7005AB829E
:1008660002096675F0007C1A7880C3EF9BEE9AED5C
:1008760099400DC3EF9BFFEE9AFEED99FDE842F01D
:10088600DC23ACF0D0E0FFD0E0FED0E0FDAB822070
:10089600E7101BEB60BAEC2CFCEF33FFEE33FEEDFA
:1008A60033FD020952E803F830E705C0F075F000A1
:1008B600EF2FFFEE33FEED33FD40B830E7C280AADE
:1008C60075F020800E75F010800575F0087D007EAD
:1008D600007F003392D530D503120B5FEC33401006
:1008E600EF33FFEE33FEED33FDEC33FCD5F0ED22B6
:0E08F600E5F0247EA2D513CC92E7CDCEFF22F2
:10090400EDD2E7CD33EC3392D524814006E4FFFEEB
:10091400FDFC22FCE4CFCECDCC24E0501174FF804A
:10092400EDC3CC13CCCD13CDCE13CECF13CF0470E7
:07093400F030D5DE020B5F7D
:10093B00E9D2E7C933E833F892D5EDD2E7CD33EC02
:07094B0033FC5002B2D5227B
:10095200EC30E7100FBF000C0EBE00080DBD000406
:100962000BEB6014A2D5EB13FCED92E7FD2274FFB2
:10097200FCFDFEFF22E480F8A2D574FF13FC7D800B
:03098200E480EF1F
:101F9800020F68E493A3F8E493A34003F68001F2E8
:101FA80008DFF48029E493A3F85407240CC8C3334A
:101FB800C4540F4420C8834004F456800146F6DF19
:101FC800E4800B01020408102040809014E3E47EB2
:101FD800019360BCA3FF543F30E509541FFEE4930E
:101FE800A360010ECF54C025E060A840B8E493A3D5
:101FF800FAE493A3F8E493A3C8C582C8CAC583CA00
:10200800F0A3C8C582C8CAC583CADFE9DEE780BEB7
:01161E0000CB
:10098500BB010689828A83E0225002E722BBFE0270
:09099500E32289828A83E49322A3
:10099E00BB010CE58229F582E5833AF583E022500E
:1009AE0006E92582F8E622BBFE06E92582F8E22258
:0D09BE00E58229F582E5833AF583E4932272
:1009CB00BB010689828A83F0225002F722BBFE010B
:0209DB00F32205
:1009DD00F8BB010DE58229F582E5833AF583E8F050
:1009ED00225006E92582C8F622BBFE05E92582C8FC
:0209FD00F222E4
:1009FF00EF8DF0A4A8F0CF8CF0A428CE8DF0A42E0C
:020A0F00FE22C5
:100A1100C5F0F8A3E028F0C5F0F8E5821582700270
:060A21001583E038F0220D
:0D0A2700EF2BFFEE3AFEED39FDEC38FC221E
:0E0A3400C3EF9BFFEE9AFEED99FDEC98FC22BD
:100A4200E88FF0A4CC8BF0A42CFCE98EF0A42CFC53
:100A52008AF0EDA42CFCEA8EF0A4CDA8F08BF0A4D1
:100A62002DCC3825F0FDE98FF0A42CCD35F0FCEB30
:100A72008EF0A4FEA9F0EB8FF0A4CFC5F02ECD39F5
:0F0A8200FEE43CFCEAA42DCE35F0FDE43CFC2262
:100A910075F008758200EF2FFFEE33FECD33CDCC1C
:100AA10033CCC58233C5829BED9AEC99E58298409F
:100AB1000CF582EE9BFEED9AFDEC99FC0FD5F0D67C
:100AC100E4CEFBE4CDFAE4CCF9A88222B800C1B9A6
:100AD1000059BA002DEC8BF084CFCECDFCE5F0CBE4
:100AE100F97818EF2FFFEE33FEED33FDEC33FCEB1D
:100AF10033FB10D703994004EB99FB0FD8E5E4F9D8
:100B0100FA227818EF2FFFEE33FEED33FDEC33FCC4
:100B1100C933C910D7059BE99A4007EC9BFCE99AB8
:100B2100F90FD8E0E4C9FAE4CCFB2275F010EF2FFD
:100B3100FFEE33FEED33FDCC33CCC833C810D707FD
:100B41009BEC9AE899400AED9BFDEC9AFCE899F838
:0E0B51000FD5F0DAE4CDFBE4CCFAE4C8F922CB
:0E0B5F00C3E49FFFE49EFEE49DFDE49CFC22A7
:100B6D00EB9FF5F0EA9E42F0E99D42F0EC6480C8FF
:060B7D0064809845F0229F
:100B8300EB9FF5F0EA9E42F0E99D42F0E89C45F0C8
:010B9300223F
:100B9400E8600FECC313FCED13FDEE13FEEF13FF3F
:030BA400D8F12263
:100BA700E8600FEFC333FFEE33FEED33FDEC33FCAC
:030BB700D8F12250
:0C0BBA00E0FCA3E0FDA3E0FEA3E0FF22AE
:0C0BC600E0F8A3E0F9A3E0FAA3E0FB22B2
:0C0BD200ECF0A3EDF0A3EEF0A3EFF02296
:100BDE00A8828583F0D083D082120BF5120BF5120A
:100BEE000BF5120BF5E473E493A3C583C5F0C5832F
:100BFE00C8C582C8F0A3C583C5F0C583C8C582C861
:010C0E0022C3
:0C0C0F00A42582F582E5F03583F58322F0
:100C1B00FAE6FB0808E6F925F0F618E6CA3AF622DA
:100C2B00D083D082F8E4937012740193700DA3A358
:100C3B0093F8740193F5828883E47374029368606C
:060C4B00EFA3A3A380DF6C
:00000001FF
