:03000000021FA735
:0C1FA700787FE4F6D8FD758194021FEEEF
:101531000457000000004100020041003840410012
:10154100370C4400150000000044001100000000A9
:101551004400530000000044004C0000000044001F
:10156100330000000044003C0000000042000F0076
:101571000042002300014100060041002C0042000E
:1015810058000042000700004100000841003A00F5
:1015910041005A00015B00015C0041005100410023
:1015A1000E0041001D014100260A41003B0041009F
:1015B100390A41002B0041002D0042000400004186
:1015C100000100028200000280000041000D004184
:1015D10000500041002E00107000000000000000CB
:1015E100000000000000000000016C00016D00011E
:1015F1006F00016E00016B004A0042000000000014
:091601000000000000410003009C
:1029C7008E098F0A8B0B8A0C890DAF051DEF6026C8
:1029D700050AE50AAE097002050914F5828E83E43B
:1029E70093FFAB0B050DE50DAA0C7002050C14F94E
:0729F700EF120B5980D422FE
:102C8B00E4FDFCC3ED9FEC9E50070DBD00010C80D5
:012C9B00F246
:012C9C002215
:102A90008F828E83E4F55AF559F558F557AF82AE1B
:102AA00083E4FCFDAB5AAA59A958A857C3120CE0FD
:082AB000500543BD1080E62231
:102C9D00E4FDFCC3ED9FEC9E50070DBD00010C80C3
:012CAD00F234
:012CAE002203
:10000300758E5190FE917401F0A37410F075BD5F6D
:0700130090FEA07420F02212
:102BD000E490FE80F0758901758DFA758BCB43A862
:0E2BE00008438840758CCB758AEB4388102221
:102A300090FF10E054F04408F090FF02E054F0449E
:102A400002F0D28490FFA07420F0A37404F075CC3F
:102A50000675CEFF75CD98759E0275981043A81027
:012A60002253
:102C5D0043B40343B4807F147E00122C8B75B501F1
:072C6D0090FE9B744BF02266
:102C0C0090FF08E054F04408F090FF00E0540F44AB
:0C2C1C0030F090FF11E054F04403F0226F
:102C2800900011E0FCA3E0FDA3E0FEA3E0FF120C7E
:012C3800F1AA
:0B2C39008F99E59830E1FB5398FD22D5
:1027CD008FB543B440E5B430E5FB53B4DF7F647E91
:1027DD0000122C8BE4FBFAF943B440E5B430E5FB71
:1027ED0053B4DFE5B62BFBE5B73AFA7F147E001242
:1027FD002C8B09B910E275B501A9027F647E001218
:04280D002C8BAF0160
:0128110022A4
:1013DB007B017A0079427D0A7F007E2F1229C7900C
:1013EB000042E0FFE4FCFDFE900009120D17900097
:1013FB0009E0FCA3E0FDA3E0FEA3E0FF7808120DDB
:10140B0004900009120D17900009E0F8A3E0F9A36E
:10141B00E0FAA3E0FB900043E0FFE4FCFDFEEB2FC2
:10142B00FFEE3AFEED39FDEC38FC900009120D177A
:10143B00900009E0FCA3E0FDA3E0FEA3E0FFE47B4A
:10144B00E87A03F9F8120B9F900009120D17E47F4D
:10145B00307E75FDFC900009E0F8A3E0F9A3E0FAFB
:10146B00A3E0FBC3120CE040177F007E097D3D7C9F
:10147B0000900009E0F8A3A3A3E0D3120CE0400A0C
:10148B00900009120D2300009C40900044E0900056
:10149B0057F070028007900057E0B4FE0374FFF022
:1014AB00900045E0FF900028E4F0A3EFF0E0F8E4B3
:1014BB00F0E8900028F0900046E0FF900029E02F24
:1014CB00F0900028E03400F0E0FEA3E0FF4E60094E
:1014DB00D3EF9408EE94074009900028E4F0A3742E
:1014EB0005F0900047E0900026F090002DF0900062
:1014FB0048E090001EF06006E0D394FF4006900099
:10150B001E7401F0900049E0540190001DF07B0126
:10151B007A0079037D017F807E2F1229C79000030B
:06152B00E090002BF0220D
:10003E00E55B600302096843B440E5B430E5FB5369
:10004E00B4DF85B70985B60A900010E004F070069B
:10005E0090000FE004F0900053E0F8A3E0F9A3E065
:10006E00FAA3E0FBE4FCFDEB250AFFEA3509FEED01
:10007E0039FDEC38FC900053120D17900040E0FE55
:10008E00A3E0FFC3950AEE9509500DC3E50A9FF54F
:10009E000AE5099EF509800BC3EF950AF50AEE9560
:1000AE0009F509900015E0F8A3E0F9A3E0FAA3E042
:1000BE00FBE4FCFDEB250AFFEA3509FEED39FDEC0C
:1000CE0038FC900015120D1790000FE05401FEA39E
:1000DE00E04E7061D3900059E09400900058E09487
:1000EE00004017900039E094645042E02402F0E0A2
:1000FE00D3946440387464F08033900007E0700449
:10010E00A3E06401702F900026E0FF900039E0FE1E
:10011E00D39F4019EE94024004E024FEF090003983
:10012E00E0C39F5008900026E0900039F09000390F
:10013E00E0FF122A61C390000FE0942050030209E1
:10014E00B343BD10E4F0A3F090003AE004F0900049
:10015E003CE0FCA3E0FDA3E0FEA3E0FF900053E033
:10016E00F8A3E0F9A3E0FAA3E0FBEF2BFFEE3AFED3
:10017E00ED39FDEC38FC90003C120D1790003AE082
:10018E00C394084043E4F090003CE0FCA3E0FDA3E0
:10019E00E0FEA3E0FF7810120CF190003C120D1758
:1001AE0090003CA3A3E0FEA3E0FF900041E02FF0FF
:1001BE00900040E03EF0E0C313F0A3E013F0900097
:1001CE003C120D2300000000900000E0C394085084
:1001DE0005E004F08056900058E07002A3E0704CE9
:1001EE007F0A1227CD900027EFF0900052E0FE24F8
:1001FE0002FDE433FCEFD39DEC6480F874809850DC
:10020E001E900027E02402FDE433FCEED39DEC6447
:10021E0080F87480985008900052E0900027F0907B
:10022E000027E0900052F0E4900000F0E4FFFEFDA5
:10023E00FC900011E0F8A3E0F9A3E0FAA3E0FBC301
:10024E00120CE0704F900015E0FCA3E0FDA3E0FE61
:10025E00A3E02488FFEE3413FEE43DFDE43CFC9065
:10026E000011120D17900023E07002A3E070257F9D
:10027E00407E427D0FFC900011E0F8A3E0F9A3E070
:10028E00FAA3E0FBD3120CE0400A900011120D23EA
:10029E00000F4240900002E0701E900015E0FCA39B
:1002AE00E0FDA3E0FEA3E0FF900033120D179000D7
:1002BE001F120D230000000190001FE0FCA3E0FDC3
:1002CE00A3E0FEA3E0FF900015E0F8A3E0F9A3E0A1
:1002DE00FAA3E02FFFEA3EFEE93DFDE83CFC90006C
:1002EE0033E0F8A3E0F9A3E0FAA3E0FBC3120CE0BD
:1002FE0040030206C490001FE0FCA3E0FDA3E0FE55
:10030E00A3E0FF900033E0F8A3A3A3E02FFFEA3EA3
:10031E00FEE93DFDE83CFC900015E0F8A3E0F9A3F2
:10032E00E0FAA3E0FBC3120CE040030206C4900007
:10033E0002E004F090004CE0FCA3E0FDA3E0FEA37D
:10034E00E0FF900015E0F8EF2BFFEE3AFEED39FDE1
:10035E00EC38FC90004C120D17900002E0FBE4FA12
:10036E00F9F890004CE0FCA3E0FDA3E0FEA3E0FF53
:10037E00120C2A900033120D17900033E0FCA3E00C
:10038E00FDA3E0FEA3E0FF7803120CF190001F1214
:10039E000D17E47F207E4EFDFC90001FE0F8A3E0D9
:1003AE00F9A3E0FAA3E0FBC3120CE0500A90001F81
:1003BE00120D2300004E20E47F607EEAFDFC9000CB
:1003CE001FE0F8A3E0F9A3E0FAA3E0FBD3120CE0E0
:1003DE00400A90001F120D230000EA60900033E0E7
:1003EE00FCA3E0FDA3E0FEA3E0FF900011E0F8A364
:1003FE00E0F9A3E0FAA3E0FBD3120CE04073900007
:10040E0033E0F8A3E0F9A3E0FAA3E0FB900011E0DB
:10041E00FCA3E0FDA3E0FEA3E09BFFEE9AFEED99A8
:10042E00FDEC98FC900053120D177F807E387D01F5
:10043E007C00900053E0F8A3E0F9A3E0FAA3E0FB00
:10044E00D3120CE040089000377406F08029E47F48
:10045E00407E9CFDFC900053E0F8A3E0F9A3E0FA87
:10046E00A3E0FBD3120CE090003740087409F08033
:10047E0006900037740CF0900037E0FF900002E019
:10048E00C39F500302055C900011E0FCA3E0FDA3A6
:10049E00E0FEA3E0FF900033E0F8A3E0F9A3E0FA5A
:1004AE00A3E0FB120CE0400302055C900038E094E0
:1004BE001050030206D3900037E0D39409501090E9
:1004CE000033E0FCA3E0FDA3E0FEA3E0FF80769006
:1004DE000033E0FCA3E0FDA3E0FEA3E024A0FFEECA
:1004EE00340FFEE43DFDE43CFC900011E0F8A3E087
:1004FE00F9A3E0FAA3E0FBD3120CE050030206C40A
:10050E00900011E0FCA3E0FDA3E0FEA3E0FF90004D
:10051E0033E0F8A3E0F9A3E0FAA3E0FBEF2BFFEE44
:10052E003AFEED39FDEC38FC900011120D179000DB
:10053E0011E0FCA3E0FDA3E0FEA3E0FFE47B02FAE2
:10054E00F9F8120C2A900011120D170206C4900031
:10055E0038E0FF900002E0C39F50030206D39000E4
:10056E0011E0FCA3E0FDA3E0FEA3E024A0FFEE3427
:10057E000FFEE43DFDE43CFC900033E0F8A3E0F90F
:10058E00A3E0FAA3E0FBD3120CE050030206B490F2
:10059E000011E0F8A3E0F9A3E0FAA3E0FB9000332A
:1005AE00E0FCA3E0FDA3E0FEA3E09BFFEE9AFEEDD0
:1005BE0099FDEC98FC900053120D177F007E127D72
:1005CE007A7C00900033E0F8A3E0F9A3E0FAA3E010
:1005DE00FBC3120CE040030206B47F807E1A7D0638
:1005EE007C00900053E0F8A3E0F9A3E0FAA3E0FB4F
:1005FE00C3120CE040030206B4900038E0941040A1
:10060E000280587FE07E937D047C00900053E0F8DA
:10061E00A3E0F9A3E0FAA3E0FBD3120CE0400890AC
:10062E0000387410F080277FF07E497D027C0090A8
:10063E000053E0F8A3E0F9A3E0FAA3E0FBD3120C19
:10064E00E09000384005740CF080037408F09000C0
:10065E0038E0FF900002E0C39F404B900011E0FC99
:10066E00A3E0FDA3E0FEA3E0FF900033E0F8A3E0DB
:10067E00F9A3E0FAA3E0FBEF2BFFEE3AFEED39FD16
:10068E00EC38FC900011120D17900011E0FCA3E065
:10069E00FDA3E0FEA3E0FFE47B02FAF9F8120C2AB8
:1006AE00900011120D17900038E0FF900002E0C389
:1006BE009F4012E48004E4900002F090004C120D72
:1006CE00230000000090002CE0D39400500302079A
:1006DE0067E014F090002FE0FCA3E0FDA3E0FEA382
:1006EE00E02470FFEE3417FEE43DFDE43CFC900088
:1006FE0011E0F8A3E0F9A3E0FAA3E0FBD3120CE0BB
:10070E0050030208C190002FE0FCA3E0FDA3E0FE21
:10071E00A3E02498FFEE343AFEE43DFDE43CFC9069
:10072E000015E0F8A3E0F9A3E0FAA3E0FBC3120C76
:10073E00E040030208C190002FE0FCA3E0FDA3E01F
:10074E00FEA3E02470FFEE3417FEE43DFDE43CFC16
:10075E00900011120D170208C1D3900024E09400EE
:10076E00900023E094005003020828A3E024FFF039
:10077E00900023E034FFF0D3A3E09400900023E038
:10078E00940050030208287F007E127D7A7C009030
:10079E000011E0F8A3E0F9A3E0FAA3E0FBD3120CFA
:1007AE00E0400C900009120D23000C3500806B9078
:1007BE000009E0FCA3E0FDA3E0FEA3E0FF90001122
:1007CE00E0F8A3E0F9A3E0FAA3E02FFFEA3EFEE98A
:1007DE003DFDE83CFC900053120D177F407E547D8A
:1007EE00897C00900053E0F8A3E0F9A3E0FAA3E0BF
:1007FE00FBD3120CE04023900011E0F8A3E0F9A324
:10080E00E0FAA3E0FB74409BFF74549AFE7489993E
:10081E00FDE498FC900009120D17900009E0FCA36E
:10082E00E0FDA3E0FEA3E0FF900011E0F8A3E0F9E5
:10083E00A3E0FAA3E02FFFEA3EFEE93DFDE83CFC13
:10084E00A3E0F8A3E0F9A3E0FAA3E0FBD3120CE0D7
:10085E004061900057E0FF900027E0D39F400FD3F8
:10086E00900024E09400900023E094004045900016
:10087E0058E07002A3E07014900011E0FCA3E0FDBC
:10088E00A3E0FEA3E0FF90002F120D17900058E496
:10089E00F0A304F0786EF67FDD122C3990003874D8
:1008AE0008F0E4900007F0A3F07882F608F678805E
:1008BE00F608F6900015E0FCA3E0FDA3E0FEA3E031
:1008CE00FFA3120D17900040E0C4F854F0C8A3E047
:1008DE00C4540F48FF122C39900027E0FF122C3918
:1008EE007810122C287808122C28900019E0FCA3FE
:1008FE00E0FDA3E0FEA3E0FF7810120CF1122C39FC
:10090E00900019E0FCA3E0FDA3E0FEA3E0FF780851
:10091E00120CF1122C39900053120D23000000001E
:10092E00900015120D2300000000900058E0FEA369
:10093E00E0FFD39400EE9400406B900028E0FCA3FF
:10094E00E0FDD3EF9DEE9C405CE4900058F0A3F0E8
:10095E00755B01786EF6786BF622900007E4F0A3D3
:10096E0004F0E4F55B900004F0A3F0900001F07F3A
:10097E00FAFE122A9090003C120D2300000000E4B3
:10098E0090003AF09000387440F090002C7402F011
:10099E009000007406F0E4900002F090004C120DEE
:0509AE00230000000021
:0109B3002221
:1021C500E4F50A900053120D2300000000E4F50920
:1021D50043B440E5B430E5FB53B4DF900053E0F879
:1021E500A3E0F9A3E0FAA3E0FBAFB6AEB7E4FCFDCC
:1021F500EB2FFFEA3EFEED39FDEC38FC9000531263
:102205000D170509E509B480C77F907E01122A9054
:10221500900053E0FCA3E0FDA3E0FEA3E0FF780BF4
:10222500120CF18F09E509D3940C400CE509948D46
:102235005006E50A9414500A050AE50AD39450405D
:022245008222F3
:012247002274
:10224800900053120D2300000000E4F509E4F50C9A
:10225800F50D43B440E5B430E5FB53B4DF85B70A68
:1022680085B60B900053E0F8A3E0F9A3E0FAA3E0E9
:10227800FBE4FCFDEB250BFFEA350AFEED39FDEC2E
:1022880038FC900053120D17050DE50D7002050C72
:10229800B400BFE50CB420BA43BD100509E509B484
:1022A80008AB900053E0FCA3E0FDA3E0FEA3E0FF31
:0D22B8007810120CF1900040EEF0A3EFF052
:0122C50022F6
:102A61007E007C007DFF120B8DAC06AD07E4120ADF
:102A710059E4FBFA79C878421209B7120A9290FF19
:0E2A81009C7410F075DEFF8FDF75DD947F0012
:012A8F002224
:100FFE00122C44120003122C0C7F64122A61122B45
:10100E00D0122A30122C5D75BBAA90FEA774FFF089
:10101E0053BBF7D2AF7FC87E00122A907F64122A8C
:10102E00619000517401F07F0A1227CD900027EFD6
:10103E00F0900052F0C2AF1213DB90002BE004F0E0
:10104E007F807E2F122B057F107E27122C9D900005
:10105E002BE0FF7D807C2F122AB87F647E00122C3D
:10106E009DD2AF1221C5900026E0FF900039F012FC
:10107E002A617F2C7E01122A901222489000531270
:10108E000D230000000090002BE0C394034023E4E6
:10109E00F07F55122C397FAA122C39E4FF122C390D
:1010AE007F04122C39E4FF122C39122C397F0312D3
:1010BE002C39786DE6D39402502A18E66401702418
:1010CE00F608067F55122C397FAA122C39E4FF122E
:1010DE002C397FB4122C39E4FF122C39122C397FA3
:1010EE00B3122C3943BD10E55B700B900010E05429
:1010FE001F700312125A90001DE064016003021269
:10110E0004E55C703DF55B755C01900026E0900097
:10111E0039F090003C120D2300000000E490003ADC
:10112E00F09000387440F090002C7402F0900000A3
:10113E007406F0E4900002F090004C120D230000B3
:10114E00000012003ED3900008E09400900007E0EB
:10115E0094004032900001E0B4012BE4F0900008BE
:10116E00E004F07006900007E004F090001EE0FF2F
:10117E00C3900008E09F900007E094004008E4F060
:10118E00A3F0FF122A61D3900059E094009000580A
:10119E00E0940040187881E664011846700FF60856
:1011AE00F6A3E004F07006900058E004F0786FE6C5
:1011BE006401600302109418E6FF786B66700302F8
:1011CE001094A607900058E4F0A304F0E4F508E5A7
:1011DE0008C394084003021094E50825E02470F833
:1011EE00E6FA08E6FB4A600A90000EE0FD7F7112F7
:1011FE002033050880D9E4F55C90000EE07007FFFF
:10120E00122A6102109490002DE0FF122A61E4F57B
:10121E005B900026E0900039F090003C120D230008
:10122E00000000E490003AF09000387440F0900016
:10123E002C7402F09000007406F0E4900002F0901E
:0C124E00004C120D230000000002109460
:03001B00021D269D
:101D2600C0E0C0F0C083C082C0D075D000C000C083
:101D360001C002C003C004C005C006C007AF5AAE4A
:101D460059AD58AC57EF2401F55AE43EF559E43D38
:101D5600F558E43CF557900005E004F07006900055
:101D660004E004F0900004E0FEA3E0FFE4FCFD7B49
:101D7600607AEAF9F8D3120CCA500C900004E4F029
:101D8600A3F090000104F0788306E618700106C3FC
:101D96007883E694E818E694034012786C76017826
:101DA60082760008760078807600087601D007D023
:101DB60006D005D004D003D002D001D000D0D0D0B8
:081DC60082D083D0F0D0E0329E
:030023000227862B
:10278600C0E0C0F0C083C082C0D075D000C000C019
:0D27960001C002C003C004C005C006C0079A
:0F27A300E59830E00AAF991223B25398FED2AFF7
:1027B200D007D006D005D004D003D002D001D0007B
:0B27C200D0D0D082D083D0F0D0E03225
:03003B0002001AA6
:01001A0032B3
:102B050053BBF7C280E5BB20E3F6D280C2AF75FDAB
:102B1500F075FC0F8EFA8FF975FDD275FC2D75FDDC
:052B2500E175FC1E2219
:102AB80053BBF7C280E5BB20E3F6D280C2AF8FFBE1
:102AC80075FDF075FC0F8CFA8DF975FDB475FC4B2E
:072AD80075FDE175FC1E22F3
:04160A000267000073
:10234100EFC39430400CEFD39439500674D02FFF73
:102351008022EFC39441400CEFD394465006EF2402
:10236100C9FF8010EFC39461400AEFD39466500413
:10237100EF24A9FFEF540FC454F0FFEDC394304094
:102381000CEDD39439500674D02DFD801EEDC3940D
:10239100414008EDD394465002800CEDC394614056
:1023A1000AEDD394665004ED24A9FDED540F4207C4
:0123B1002209
:0625A0008B168A17891852
:1025A600E4F51CF51BF51AF519E94A4B7005FFFE13
:1025B600FDFC22E4F51CF51BF51AF519AB160518FA
:1025C600E518AA177002051714F9120B136017E520
:1025D6001C2401F51CE4351BF51BE4351AF51AE439
:0E25E6003519F51980D6AF1CAE1BAD1AAC1915
:0125F40022C4
:0628D9008B398A3A893BAD
:1028DF008B3F8A408941E94A4B7004FBFAF922E5A4
:1028EF003E153EAE3D7002153D4E6014AB3F0541A7
:1028FF00E541AA407002054014F9ED120B5980DF33
:06290F00AB39AA3AA93B16
:01291500229F
:061A34008B238A248925A2
:101A3A008B2B8A2C892D85262E85272F852830E900
:101A4A004A4B6008E5284527452670077B007A003F
:101A5A00790022D3852F83853082E52D9582E52C66
:101A6A0095834019E530252AF9E52F3529FA8A8325
:101A7A008982D3E52D9582E52C95834038E4F531AA
:101A8A00F532C3E532952AE53195295067AB2EAA7E
:101A9A002FA930853282853183120B2CAB2BAA2CCD
:101AAA00A92D853282853183120B6B0532E532709E
:101ABA00D1053180CD852931852A32D3E53294008A
:101ACA00E5319400402EAB2EAA2FA930E53224FF2F
:101ADA00FFE53134FFFE8F82F583120B2CAB2BAA64
:101AEA002CA92D8F828E83120B6BE532153270CBA7
:0A1AFA00153180C7AB23AA24A925EB
:011B040022BE
:102812008F668E658D648C637818120CF1EF120B43
:1028220059AF66AE65AD64AC637810120CF19000DE
:1028320001EF120B6BAF66AE65AD64AC6378081244
:102842000CF1900002EF120B6BE566FF900003EFB4
:03285200020B6B0B
:101E7000E4F52DF52CF52BF52A120B13FFE48F2D2D
:101E8000F52CF52BF52AAE2CAD2BAC2A7808120DCB
:101E9000048F2D8E2C8D2B8C2A900001120B2CFF81
:101EA000E52D4FF52DE52CF52CE52BF52BE52AF549
:101EB0002AAF2DAE2CAD2BFC7808120D048F2D8E81
:101EC0002C8D2B8C2A900002120B2CFFE52D4FF548
:101ED0002DE52CF52CE52BF52BE52AF52AAF2DAEBB
:101EE0002CAD2BFC7808120D048F2D8E2C8D2B8C95
:101EF0002A900003120B2CFFE52D4FF52DE52CF554
:101F00002CE52BF52BE52AF52AAF2DAE2CAD2BFCBD
:011F100022AE
:062CEC00900075E0FF22DC
:0C2CBE00E4900075F0FDFC7F0402269BF2
:062CF200900072E0FF22D9
:0825F5008F5D8B5E8A5F896037
:1025FD00E4FDFC900074E0B401037F0122AF05AE51
:10260D0004AD5D120026AC06E4FD120026AC06E515
:10261D0061FD120026AC06AD62120026AC06AD07B8
:10262D00AB5EAA5FA960856121856222122959AC32
:0A263D0006AD077F0712269B7F0100
:012647002270
:0426EE008D25AB0784
:1026F200E4FDFC900074E0B401037F0122AF05AE5B
:1027020004AD03120026AC067D01120026AC06E4DD
:10271200FD120026AC067D01120026AC06AD07E5CF
:10272200257003FD8006AF05AE047D01120026ACC4
:0A27320006AD077F0712269B7F010A
:01273C00227A
:02203300A907FB
:10203500E4FCF525F526900074E0B401037F012248
:102045007527557528AAE4F529752AB2F52B752C3F
:10205500078A2D8B2E892F753001F531753201EDEB
:102065007004F5338003753301E4F536F5377427CD
:102075002537F8E62CFC0537E53770020536640D83
:10208500453670EA8C3475250075260EE4F536F56F
:1020950037E5261526AE25700215254E60147427E2
:1020A5002537F8E6FF122CF80537E53770E30536D6
:0420B50080DF7F0148
:0120B9002204
:021BC300A90770
:101BC500E4FCF525F526900074E0B401037F0122BD
:101BD5007527557528AAE4F529752AB2F52B752CB4
:101BE500078A2D8B2E892F753001F531753201ED60
:101BF5007004F533802EBD01057533018026BD02C5
:101C050005753302801EBD03057533038016BD04BB
:101C150005753304800EBD05057533058006BD06C3
:101C250003753306E4F536F53774272537F8E62CC2
:101C3500FC0537E53770020536640D453670EA8CCC
:101C45003475250075260EE4F536F537E526152697
:101C5500AE25700215254E601474272537F8E6FF6A
:0F1C6500122CF80537E5377002053680DF7F0156
:011C7400224D
:021F1100AB071C
:101F1300E4FDFC900074E0B401037F0122AF05AE41
:101F230004AD03120026AC067D02120026AC06E4C3
:101F3300FD120026AC067D04120026C006C007AFC2
:101F43002CAE2BAD2AAC297818120CF1AD07D007B3
:101F5300D006120026C006C007AF2CAE2BAD2AACAC
:101F6300297810120CF1AD07D007D006120026C055
:101F730006C007AF2CAE2BAD2AAC297808120CF1A2
:101F8300AD07D007D006120026AC06C007E52CFF2C
:101F9300E4AD07D007120026AC06AD077F07122673
:031FA3009B7F0120
:011FA6002218
:021B0500AD072A
:101B0700E4FBF52FF530900074E0B401037F012268
:101B1700788476550876AAE408F60876B208F608B7
:101B2700760AE52D08F608A62E08A605087602E42B
:101B370008F6087604AF2CAE2BAD2AAC297818121C
:101B47000CF17890A607AF2CAE2BAD2AAC297810F4
:101B5700120CF17891A607AF2CAE2BAD2AAC2978E1
:101B670008120CF17892A607E52CFFE408A607F502
:101B770031F53274842532F8E62BFB0532E53270F5
:101B87000205316410453170EA7894A603752F0079
:101B9700753011E4F531F532E5301530AE2F7002AE
:101BA700152F4E601474842532F8E6FF122CF805C1
:0B1BB70032E5327002053180DF7F0153
:011BC2002200
:082648008F168B178A188919FF
:10265000E4FDFC900074E0B401037F0122AF05AEFD
:1026600004AD16120026AC067D03120026AC06E56A
:102670001AFD120026AC06AD1B120026AC06AD07F3
:10268000AB17AA18A919851A21851B22122959AC42
:0A26900006AD077F0712269B7F01AD
:01269A00221D
:042855008D25AB071B
:10285900E4FDFC900074E0B401037F0122AF05AEF2
:1028690004AD03120026AC067D04120026AC06E472
:10287900FD120026AC067D01120026AC06AD25121C
:0D2889000026AC06AD077F0712269B7F01DD
:01289600221F
:02194C00AD07E5
:10194E00E4F547F548900074E0B401037F0122AF3F
:10195E0048AE471200268E478F487D051200268E10
:10196E00478F48E4FD1200268E478F4874FFFFE52F
:10197E0045FEE544FDE543FCE47BFFFAF9F8C312AE
:10198E000CE070117D01AF48AE471200268E478FD6
:10199E0048AD46807E74FFFFFEE544FDE543FCE462
:1019AE007BFF7AFFF9F8C3120CE070047D028036DB
:1019BE007D04AF48AE471200268E478F48AF46AE25
:1019CE0045AD44AC437818120CF1AD07AF48AE47A5
:1019DE001200268E478F48AF46AE45AD44AC4378D5
:1019EE0010120CF1AD07AF48AE471200268E478F8E
:1019FE0048AF46AE45AD44AC437808120CF1AD0786
:101A0E00AF48AE471200268E478F48E546FFE4AD3D
:101A1E0007AF481200268E478F48AD48AC477F0768
:051A2E0012269B7F0160
:011A33002290
:082CCA008C258D26120B13FF6F
:012CD20022DF
:082CD3008C258D26120B13FF66
:012CDB0022D6
:072CDC008C288D29121E70E7
:012CE30022CE
:1023B2008F38D3855583855682E5539582E55295AC
:1023C200834015E5539556FFE5529555FEC3EF94AC
:1023D20017EE648094805048C3855583855682E504
:1023E200539582E5529583500DC3E5569553FFE50B
:1023F2005595524F602AC3900072E5539582E5527B
:102402009583400975510175520075535BAB5105B7
:1024120053E553AA527002055214F9E538120B59CA
:012422002297
:10125A00E4F509F50AF50BF50CC3E568941FE56793
:10126A0094005024122BEEEFD39400401B122897BF
:10127A000568E568AC6770020567142476F5827420
:10128A00003CF583EFF080D1C3E5689407E56794E5
:10129A000050030213DAC3E568950AFFE56795096A
:1012AA00FEC3EF9407EE940050030213A37476254D
:1012BA000AF58274003509F583E06455600A050A67
:1012CA00E50A70D2050980CE7477250AF582740082
:1012DA003509F583E064AA600A050AE50A70B705CC
:1012EA000980B37478250AF58274003509F583E01C
:1012FA00600474028038747A250AF582740035090C
:10130A00F583E0FE747B250AF58274003509F583BE
:10131A00E07C002400FFEC3ECF2407F50CE43FF507
:10132A000BD3E50C9426E50B940040097403250AB7
:10133A00F50AE4805DC3E568950AFFE5679509FE4D
:10134A00C3EF950CEE950B40507476250AF974009C
:10135A003509FA7B01E50C24FFFDE50B34FFFC128D
:10136A0029FEE50A250CFDE509350BFC74752DF5FA
:10137A008274003CF583E06F60097403250AF50A5C
:10138A00E4800FAF0AAE09120D7AE50C250AF50AB8
:10139A00E50B3509F5090212A0C3E568950AF56857
:1013AA00E5679509F567D3E5689400E56794004019
:1013BA001F7476250AF974003509752601F52789FF
:1013CA002885672985682A7B017A007976121A347A
:0113DA0022F0
:102C440075510175520075535B75540175550075C6
:092C5400565B90007274FFF0223F
:05001E00313031320019
:10160E004100B8004400B400000000014E00014B40
:10161E0000014A00014900014D00014C00014F003C
:10162E005A00B90101030265046602670168026986
:0D163E00026A026B026C026D037101720101
:102B2A007F55122C397FAA122C39E4FF122C397FD7
:102B3A0004122C39E4FF122C39E4FF122C397F03DA
:032B4A00022C3921
:032CF800022C3972
:10176100900000E0FD7F011226EE90000EE0FD7F6B
:10177100711226EE900026E0FFE48F2CF52BF52A5E
:10178100F5297F03121F11900057E0FFB4FF05E414
:10179100F515801EEFB4C8057515028015EFB42844
:1017A10005751503800CEFB41405751504800375D8
:1017B1001505AD157F65122855900028E0FEA3E0C0
:1017C100FFE48F2C8E2BF52AF5297F66121F1190CD
:1017D100001DE0FD7F671226EE90001EE0FFE48F02
:1017E1002CF52BF52AF5297F68121F11E47B107A5D
:1017F10027F9F8900009E0FCA3E0FDA3E0FEA3E0D7
:10180100FF120C2AC374329FFFE48F2CF52BF52AAB
:10181100F5297F69121F11E4752C0AF52BF52AF5BC
:10182100297F6A121F11E4752C0BF52BF52AF52976
:101831007F6B121F11E4752C0CF52BF52AF5297F0E
:101841006C121F117BFF7A00791E751A00751B043B
:0E1851007F6D122648786FE6FD7F720226EE4C
:102C7400122CCA900000EFF0FD7F011226EEBF0176
:062C8400037F01227F0026
:012C8A002227
:1020BA00122CDC8F268E258D248C23054A9000262F
:1020CA00E0FFE4FCFDFEAB26AA25A924A823C3123F
:1020DA000CE06032E4F54AF527E52725E02470F89C
:1020EA00E6FA08E6FB4A601585262C85252B852409
:1020FA002A8523298A2D8B2E7F03121B050527E5A6
:10210A0027C3940840D3AF26900026EFF090001D15
:10211A00E0700590002DEFF012185F900026E0FFA6
:10212A00E48F2CF52BF52AF5297F03121F11BF0125
:06213A00037F01227F007B
:01214000227C
:101DCE00122CD38F2305499000B8E0B52317E523D5
:101DDE0064057035900057E0FF900027E06F602992
:101DEE00E4F5498024E4F549F524E52425E0247042
:101DFE00F8E6FA08E6FB4A6007AD237F65121BC3BF
:101E0E000524E524C3940840E1E523146010146012
:101E1E001514601A14601F14602424057028900095
:101E2E005774FFF0802090005774C8F0801890000F
:101E3E00577428F080109000577414F080089000AA
:101E4E0027E0900057F09000B8E523F012185F904D
:101E5E0000B8E0FD7F65122855BF01037F01227F88
:011E6E000073
:011E6F002250
:10214100122CDC8F268E258D248C23054D900028A2
:10215100E0FEA3E0FFE4FCFDAB26AA25A924A82309
:10216100C3120CE06032E4F54DF527E52725E024A4
:1021710070F8E6FA08E6FB4A601585262C85252BC2
:1021810085242A8523298A2D8B2E7F66121B05051E
:1021910027E527C3940840D3900028E525F0A3E55F
:1021A10026F012185F900028E0FEA3E0FFE48F2CD8
:1021B1008E2BF52AF5297F66121F11BF01037F01BE
:0321C100227F007A
:0121C40022F8
:10254A00122CCA8F23054B90001DE065236024E4FA
:10255A00F54BF524E52425E02470F8E6FA08E6FBB5
:10256A004A6007AD237F671220330524E524C3940C
:10257A000840E1E52390001D7003F080037401F028
:10258A0012185F90001DE0FD7F671226EEBF01035F
:05259A007F01227F001B
:01259F002219
:1022C600122CDC8F268E258D248C23054C90001E27
:1022D600E0FFE4FCFDFEAB26AA25A924A823C31231
:1022E6000CE06032E4F54CF527E52725E02470F88C
:1022F600E6FA08E6FB4A601585262C85252B8524FB
:102306002A8523298A2D8B2E7F68121B050527E532
:1023160027C3940840D390001EE526F012185F905C
:10232600001EE0FFE48F2CF52BF52AF5297F6812B5
:0A2336001F11BF01037F01227F0089
:01234000227A
:101C7500122CDC8F268E258D248C23054F9000B4E5
:101C8500E0FCA3E0FDA3E0FEA3E0FFAB26AA25A9A7
:101C950024A823C3120CE06032E4F54FF527E527AD
:101CA50025E02470F8E6FA08E6FB4A601585262C3F
:101CB50085252B85242A8523298A2D8B2E7F69123C
:101CC5001B050527E527C3940840D3AF26AE25ADF0
:101CD50024AC239000B4120D17C374329526FFE48B
:101CE5009525FEE49524FDE49523FCE47B107A27F5
:101CF500F9F8120B9F900009120D1712185F90004A
:101D0500B4E0FCA3E0FDA3E0FEA3E0F52C8E2B8D53
:101D15002A8C297F69121F11BF01037F01227F00D1
:011D2500229B
:102B4D00122CDC8F268E258D248C238F2C8E2B8D95
:102B5D002A8C297F6A121F11BF01037F01227F007A
:012B6D002245
:102B6E00122CDC8F268E258D248C238F2C8E2B8D74
:102B7E002A8C297F6B121F11BF01037F01227F0058
:012B8E002224
:102B8F00122CDC8F268E258D248C238F2C8E2B8D53
:102B9F002A8C297F6C121F11BF01037F01227F0036
:012BAF002203
:10248900122CCA8F23054E90000EE065236024E4C8
:10249900F54EF524E52425E02470F8E6FA08E6FB74
:1024A9004A6007AD237F711220330524E524C394C4
:1024B9000840E1E523700690000EF0801190001DA0
:1024C900E0B40104786E760190000E7401F090007A
:1024D9000EE0FD7F711226EEBF01037F01227F000E
:0124E90022D0
:10273D00122CCA8F23E523786F666022E4F524E519
:10274D002425E02470F8E6FA08E6FB4A6007AD237D
:10275D007F721220330524E524C3940840E1E5235C
:10276D00786F7003F680027601AD237F721226EE2C
:08277D00BF01037F01227F0070
:012785002231
:06164F008B1D8A1E891F9D
:10165500EF120D5416810116B00316C06516D0663B
:1016650016DF6716EE6816FD69170C6A171B6B17F0
:101675002A6C17397117487200001759AB1DAA1E3D
:10168500A91FAD21AC20122C748F22E522640160C4
:101695000302175E90003BE004F0E0C3940550039D
:1016A50002175EE4F0122B2A02175EAB1DAA1EA9D3
:1016B5001FAD21AC201220BA021755AB1DAA1EA9D9
:1016C5001FAD21AC20121DCE021755AB1DAA1EA9B8
:1016D5001FAD21AC201221418076AB1DAA1EA91F8A
:1016E500AD21AC2012254A8067AB1DAA1EA91FADEE
:1016F50021AC201222C68058AB1DAA1EA91FAD2100
:10170500AC20121C758049AB1DAA1EA91FAD21ACCA
:1017150020122B4D803AAB1DAA1EA91FAD21AC206E
:10172500122B6E802BAB1DAA1EA91FAD21AC20125A
:101735002B8F801CAB1DAA1EA91FAD21AC20122426
:1017450089800DAB1DAA1EA91FAD21AC2012273D16
:0B1755008F228000E490003BF0AF22E8
:011760002266
:032CFB007F0D2228
:10185F007F007E2F122B057F107E27122C9DE47B9D
:10186F00E87A03F9F8900009E0FCA3E0FDA3E0FE9D
:10187F00A3E0FF120C2A7808120CF17D007C2F12C6
:10188F002AB87F647E00122C9DE47BE87A03F9F876
:10189F00900009E0FCA3E0FDA3E0FEA3E0FF120C23
:1018AF002AE47D017C2F122AB87F647E00122C9DC2
:1018BF00900057E0FF7D027C2F122AB87F647E00D4
:1018CF00122C9D900028E0FF7D037C2F122AB87FF9
:1018DF00647E00122C9D900028A3E0FF7D047C2FD6
:1018EF00122AB87F647E00122C9D900026E0FF7DA7
:1018FF00057C2F122AB87F647E00122C9D90001E4B
:10190F00E0FF7D067C2F122AB87F647E00122C9D8B
:10191F0090001DE0FF7D077C2F122AB87F647E00A8
:10192F00122C9D7F807E2F122B057F107E27122C6D
:0C193F009D7D807C2FE4FF122AB8D2AFFF
:01194B002279
:0F2CAF003667736A6E36767300312E302E300022
:03164B000150004B
:10002600749B2FF974003EFA7B01ED120B590FBF3A
:0300360000010EB8
:0100390022A4
:06295300AF157E007BFFC2
:0A2959008E1C8F1D8B1E8A1F892023
:10296300749B2FF974003EFA7B01851E26851F2771
:1029730085202885212985222A121A34E522251D3E
:0B298300F51DE521351CF51CFEAF1D05
:01298E002226
:102916008B2F8A3089318C328D33E94A4B602DE515
:102926003345326027E5331533AE32700215324E29
:10293600601AAB2FAA30A931120B13FF122CF874B0
:0D294600012531F531E43530F53080D9221E
:0A29FE008B2F8A3089318C328D3323
:102A0800E4FFFDFCC3ED9533EC9532501AAB2F056E
:102A180031E531AA307002053014F9120B132FFF7B
:072A28000DBD00010C80DD73
:012A2F002284
:04269B008C2D8D2EC7
:10269F009000957455F0A374AAF0E4A3F0A3EFF0A3
:1026AF00E52DA3F0E52EA3F02407F52EE4352DF547
:1026BF002D7B017A007995E52E24FFFDE52D34FF62
:1026CF00FC1229FE7494252EF5827400352DF583A6
:0F26DF00EFF07B017A007995AD2EAC2D02291614
:042423008C698D6AC9
:102427007402256AF56AE43569F569900095745573
:10243700F0A374AAF0E4A3F0A3EFF0E569A3F0E535
:102447006AA3F0A374FFF0A3F07407256AF56AE4A2
:102457003569F5697B017A007995E56A24FFFDE521
:102467006934FFFC1229FE7494256AF582740035DD
:1024770069F583EFF07B017A007995AD6AAC690263
:02248700291614
:102BB000E4FFE550700AFEFD120026755001800703
:102BC0007E007D01120026EFFD7C00E4FF02269BC3
:10298F00E4F5157BFF7A2C79AF1225A08E218F22CB
:10299F007A2C79AF1229538F157BFF7A2C79B812C5
:1029AF0025A08E218F227A2C79B81229538F15EFFB
:0829BF00FD7C007F0102269B54
:082CE400E4FDFC7F0202269BC7
:022ADF008F1C4A
:102AE100122CFBE4FEEEC39F501775F002EEA424F6
:102AF100B9F582E5F03400F583E0651C60030E80D2
:032B0100E4AF0638
:012B040022AE
:0624EA008B158A1689170C
:1024F000120B13F518900001120B2CF51990000225
:10250000120B2C751B00F51A900003120B2C251BC7
:10251000F51BE4351AF51AAF18122ADF75F002EF31
:10252000A424BAF582E5F03400F583E06519600370
:102530007F0022AB15E5172404F9E43516FA851A55
:0925400020851B21AF1812164F73
:01254900226F
:040D7A008E0D8F0E3D
:100D7E0074792FF58274003EF583E0FF244C7003E6
:100D8E00020E8124B4B409004003020FFD900DA29F
:100D9E00F8282873020DBD020DC0020DC3020DC648
:100DAE00020DDF020FFD020DE6020FFD020FFA0229
:100DBE002BB002298F022CE4747C250EF582740070
:100DCE00350DF583E0900072F0E4FDFC7F03022602
:100DDE009B9000757401F022747A250EF5827400D2
:100DEE00350DF583E0751400F513747B250EF58231
:100DFE007400350DF583E02514F514E43513F51361
:100E0E00E4F511F512C3E5129514E511951340039F
:100E1E00020FFDE50E2512FDE50D3511FC747E2D3C
:100E2E00F58274003CF583E0751000F50F747F2D8C
:100E3E00F58274003CF583E02510F510E4350FF5CE
:100E4E000F747C250EF97400350DFA7B01E925121D
:100E5E00F9EA3511FA1224EABF010312185FE51000
:100E6E002404FFE4350FFEEF2512F512EE3511F5D1
:100E7E00118092747A250EF5827400350DF583E09B
:100E8E00751400F513747B250EF5827400350DF57F
:100E9E0083E02514F514E43513F513747D250EF552
:100EAE00827400350DF583E0F8E47971F7E819F7EF
:100EBE00747E250EF5827400350DF583E07871266B
:100ECE00F618E436F6747F250EF5827400350DF5AE
:100EDE0083E0F8E47973F7E819F77480250EF5824C
:100EEE007400350DF583E0787326F618E436F67443
:100EFE0081250EF5827400350DF583E0F8E47975E1
:100F0E00F7E819F77482250EF5827400350DF58316
:100F1E00E0787526F618E436F67483250EF582749D
:100F2E0000350DF583E0F8E47977F7E819F7748466
:100F3E00250EF5827400350DF583E0787726F618C8
:100F4E00E436F67485250EF5827400350DF583E0D2
:100F5E00F8E47979F7E819F77486250EF5827400AE
:100F6E00350DF583E0787926F618E436F674872584
:100F7E000EF5827400350DF583E0F8E4797BF7E821
:100F8E0019F77488250EF5827400350DF583E07817
:100F9E007B26F618E436F67489250EF58274003534
:100FAE000DF583E0F8E4797DF7E819F7748A250EDC
:100FBE00F5827400350DF583E0787D26F618E4365B
:100FCE00F6748B250EF5827400350DF583E0F8E48A
:100FDE00797FF7E819F7748C250EF5827400350DBC
:0F0FEE00F583E0787F26F618E436F622121761B5
:010FFD0022D1
:102BEE00E5548555838556826551700AE553658295
:0E2BFE007004E552658360037F01227F002290
:10289700E5518552838553826554700AE5566582F2
:1028A7007004E55565836029C3900072E5569582EB
:1028B700E5559583400975540175550075565BAB11
:1028C700540556E556AA557002055514F9120B130F
:0128D700FF01
:0128D80022DD
:1009B400020B08EC5D046005E859047003020AFEAA
:1009C400120AC9580460F6EC4860F2EC7004FDFEAB
:1009D400FF22C860DB2481C85009C3986002500616
:1009E400020B059850CAF582E9294B4A7005AB827F
:1009F400020AF475F0007C1A7880C3EF9BEE9AED3E
:100A040099400DC3EF9BFFEE9AFEED99FDE842F08D
:100A1400DC23ACF0D0E0FFD0E0FED0E0FDAB8220E0
:100A2400E7101BEB60BAEC2CFCEF33FFEE33FEED6A
:100A340033FD020AE0E803F830E705C0F075F00082
:100A4400EF2FFFEE33FEED33FD40B830E7C280AA4E
:100A540075F020800E75F010800575F0087D007E1D
:100A6400007F003392D530D503120CBCEC33401018
:100A7400EF33FFEE33FEED33FDEC33FCD5F0ED2226
:0E0A8400E5F0247EA2D513CC92E7CDCEFF2262
:100A9200EDD2E7CD33EC3392D524814006E4FFFE5C
:100AA200FDFC22FCE4CFCECDCC24E0501174FF80BB
:100AB200EDC3CC13CCCD13CDCE13CECF13CF047058
:070AC200F030D5DE020CBC90
:100AC900E9D2E7C933E833F892D5EDD2E7CD33EC73
:070AD90033FC5002B2D522EC
:100AE000EC30E7100FBF000C0EBE00080DBD000477
:100AF0000BEB6014A2D5EB13FCED92E7FD2274FF23
:100B0000FCFDFEFF22E480F8A2D574FF13FC7D807B
:030B1000E480EF8F
:101FB300020FFEE493A3F8E493A34003F68001F237
:101FC30008DFF48029E493A3F85407240CC8C3332F
:101FD300C4540F4420C8834004F456800146F6DFFE
:101FE300E4800B0102040810204080901531E47E48
:101FF300019360BCA3FF543F30E509541FFEE493F3
:10200300A360010ECF54C025E060A840B8E493A3B9
:10201300FAE493A3F8E493A3C8C582C8CAC583CAE4
:10202300F0A3C8C582C8CAC583CADFE9DEE780BE9C
:01164E00009B
:100B1300BB010689828A83E0225002E722BBFE02E0
:090B2300E32289828A83E4932213
:100B2C00BB010CE58229F582E5833AF583E022507E
:100B3C0006E92582F8E622BBFE06E92582F8E222C8
:0D0B4C00E58229F582E5833AF583E49322E2
:100B5900BB010689828A83F0225002F722BBFE017B
:020B6900F32275
:100B6B00F8BB010DE58229F582E5833AF583E8F0C0
:100B7B00225006E92582C8F622BBFE05E92582C86C
:020B8B00F22254
:100B8D00EF8DF0A4A8F0CF8CF0A428CE8DF0A42E7C
:020B9D00FE2236
:100B9F00E88FF0A4CC8BF0A42CFCE98EF0A42CFCF5
:100BAF008AF0EDA42CFCEA8EF0A4CDA8F08BF0A473
:100BBF002DCC3825F0FDE98FF0A42CCD35F0FCEBD2
:100BCF008EF0A4FEA9F0EB8FF0A4CFC5F02ECD3997
:0F0BDF00FEE43CFCEAA42DCE35F0FDE43CFC2204
:100BEE0075F008758200EF2FFFEE33FECD33CDCCBE
:100BFE0033CCC58233C5829BED9AEC99E582984041
:100C0E000CF582EE9BFEED9AFDEC99FC0FD5F0D61D
:100C1E00E4CEFBE4CDFAE4CCF9A88222B800C1B947
:100C2E000059BA002DEC8BF084CFCECDFCE5F0CB85
:100C3E00F97818EF2FFFEE33FEED33FDEC33FCEBBE
:100C4E0033FB10D703994004EB99FB0FD8E5E4F979
:100C5E00FA227818EF2FFFEE33FEED33FDEC33FC66
:100C6E00C933C910D7059BE99A4007EC9BFCE99A5A
:100C7E00F90FD8E0E4C9FAE4CCFB2275F010EF2F9F
:100C8E00FFEE33FEED33FDCC33CCC833C810D7079F
:100C9E009BEC9AE899400AED9BFDEC9AFCE899F8DA
:0E0CAE000FD5F0DAE4CDFBE4CCFAE4C8F9226D
:0E0CBC00C3E49FFFE49EFEE49DFDE49CFC2249
:100CCA00EB9FF5F0EA9E42F0E99D42F0EC6480C8A1
:060CDA0064809845F02241
:100CE000EB9FF5F0EA9E42F0E99D42F0E89C45F06A
:010CF00022E1
:100CF100E8600FECC313FCED13FDEE13FEEF13FFE1
:030D0100D8F12204
:100D0400E8600FEFC333FFEE33FEED33FDEC33FC4D
:030D1400D8F122F1
:0C0D1700ECF0A3EDF0A3EEF0A3EFF0224F
:100D2300A8828583F0D083D082120D3A120D3A1235
:100D33000D3A120D3AE473E493A3C583C5F0C5835A
:100D4300C8C582C8F0A3C583C5F0C583C8C582C81A
:010D5300227D
:100D5400D083D082F8E4937012740193700DA3A32E
:100D640093F8740193F5828883E473740293686042
:060D7400EFA3A3A380DF42
:00000001FF
