:03000000021F914B
:0C1F9100787FE4F6D8FD758194021FD81B
:1014DB00045700000000410002004100360C41009F
:1014EB00374044002E0000000044001200000000B2
:1014FB004400160000000044004B000000004400B4
:10150B003B0000000044005200000000420022009B
:10151B000142001000004100060041002B00420078
:10152B00570000420007000041000008410039004D
:10153B0041005900015B00015C004100500041007B
:10154B000F0041001A014100250A41003A004100F9
:10155B00380A41002A0041002C00420004000041DF
:10156B00000100028200000280000041000D0041DA
:10157B00004F0041002D0010700000000000000023
:10158B00000000000000000000016C00016D000174
:10159B006F00016E00016B0041000E0042001B004A
:1015AB00004A004100000000000000000000410064
:0215BB0003002B
:1029AA008E098F0A8B0B8A0C890DAF051DEF6026E5
:1029BA00050AE50AAE097002050914F5828E83E458
:1029CA0093FFAB0B050DE50DAA0C7002050C14F96B
:0729DA00EF120B1880D4225C
:102C6900E4FDFCC3ED9FEC9E50070DBD00010C80F7
:012C7900F268
:012C7A002237
:102A73008F828E83E4F55AF559F558F557AF82AE38
:102A830083E4FCFDAB5AAA59A958A857C3120C9F5B
:082A9300500543BD1080E6224E
:102C7B00E4FDFCC3ED9FEC9E50070DBD00010C80E5
:012C8B00F256
:012C8C002225
:10000300758E5190FE917401F0A37410F075BD5F6D
:0700130090FEA07420F02212
:102BB300E490FE80F0758901758DFA758BCB43A87F
:0E2BC30008438840758CCB758AEB438810223E
:102A130090FF10E054F04408F090FF02E054F044BB
:102A230002F0D28490FFA07420F0A37404F075CC5C
:102A33000675CEFF75CD98759E0275981043A81044
:012A43002270
:102C240043B40343B4807F147E00122C6975B5014C
:072C340090FE9B744BF0229F
:102BEF0090FF08E054F04408F090FF00E0540F44C9
:0C2BFF0030F090FF11E054F04403F0228D
:0B2CA8008F99E59830E1FB5398FD2266
:1027B0008FB543B440E5B430E5FB53B4DF7F647EAE
:1027C00000122C69E4FBFAF943B440E5B430E5FBB0
:1027D00053B4DFE5B62BFBE5B73AFA7F147E00125F
:1027E0002C6909B910E275B501A9027F647E001257
:0427F0002C69AF01A0
:0127F40022C2
:101385007B017A0079417D0A7F007E2F1229AA9080
:101395000041E0FFE4FCFDFE900009120CD6900030
:1013A50009E0FCA3E0FDA3E0FEA3E0FF7808120C32
:1013B500C3900009120CD6900009E0F8A3E0F9A348
:1013C500E0FAA3E0FB900042E0FFE4FCFDFEEB2F1A
:1013D500FFEE3AFEED39FDEC38FC900009120CD613
:1013E500900009E0FCA3E0FDA3E0FEA3E0FFE47BA1
:1013F500E87A03F9F8120B5E900009120CD6E47F27
:10140500307E75FDFC900009E0F8A3E0F9A3E0FA51
:10141500A3E0FBC3120C9F40177F007E097D3D7C36
:1014250000900009E0F8A3A3A3E0D3120C9F400AA3
:10143500900009120CE200009C40900043E09000EF
:1014450056F070028007900056E0B4FE0374FFF07A
:10145500900044E0FF900027E4F0A3EFF0E0F8E40B
:10146500F0E8900027F0900045E0FF900028E02F7D
:10147500F0900027E03400F0E0FEA3E0FF4E6009A5
:10148500D3EF9408EE94074009900027E4F0A37485
:1014950005F0900046E0900025F090002CF09000BB
:1014A50047E090001DF06006E0D394FF40069000F1
:1014B5001D7401F0900048E0540190001AF07B0182
:1014C5007A0079037D017F807E2F1229AA9000037F
:0614D500E090002AF02265
:10003E00E55B600302092743B440E5B430E5FB53AA
:10004E00B4DF85B70985B60A900011E004F070069A
:10005E00900010E004F0900052E0F8A3E0F9A3E065
:10006E00FAA3E0FBE4FCFDEB250AFFEA3509FEED01
:10007E0039FDEC38FC900052120CD690003FE0FE99
:10008E00A3E0FFC3950AEE9509500DC3E50A9FF54F
:10009E000AE5099EF509800BC3EF950AF50AEE9560
:1000AE0009F509900016E0F8A3E0F9A3E0FAA3E041
:1000BE00FBE4FCFDEB250AFFEA3509FEED39FDEC0C
:1000CE0038FC900016120CD6900010E05401FEA3DE
:1000DE00E04E7061D3900058E09400900057E09489
:1000EE00004017900038E094645042E02402F0E0A3
:1000FE00D3946440387464F08033900007E0700449
:10010E00A3E06401702F900025E0FF900038E0FE20
:10011E00D39F4019EE94024004E024FEF090003884
:10012E00E0C39F5008900025E0900038F090003812
:10013E00E0FF122A44C3900010E0942050030209FD
:10014E007243BD10E4F0A3F0900039E004F090008B
:10015E003BE0FCA3E0FDA3E0FEA3E0FF900052E035
:10016E00F8A3E0F9A3E0FAA3E0FBEF2BFFEE3AFED3
:10017E00ED39FDEC38FC90003B120CD6900039E0C6
:10018E00C394084043E4F090003BE0FCA3E0FDA3E1
:10019E00E0FEA3E0FF7810120CB090003B120CD6DC
:1001AE0090003BA3A3E0FEA3E0FF900040E02FF001
:1001BE0090003FE03EF0E0C313F0A3E013F0900098
:1001CE003B120CE200000000900000E0C3940850C7
:1001DE0005E004F08056900057E07002A3E0704CEA
:1001EE007F0A1227B0900026EFF0900051E0FE2417
:1001FE0002FDE433FCEFD39DEC6480F874809850DC
:10020E001E900026E02402FDE433FCEED39DEC6448
:10021E0080F87480985008900051E0900026F0907D
:10022E000026E0900051F0E4900000F0E4FFFEFDA7
:10023E00FC900012E0F8A3E0F9A3E0FAA3E0FBC300
:10024E00120C9F704F900016E0FCA3E0FDA3E0FEA1
:10025E00A3E02488FFEE3413FEE43DFDE43CFC9065
:10026E000012120CD6900022E07002A3E070257FDF
:10027E00407E427D0FFC900012E0F8A3E0F9A3E06F
:10028E00FAA3E0FBD3120C9F400A900012120CE26C
:10029E00000F4240900002E0701E900016E0FCA39A
:1002AE00E0FDA3E0FEA3E0FF90002E120CD690001E
:1002BE001E120CE20000000190001EE0FCA3E0FD07
:1002CE00A3E0FEA3E0FF900016E0F8A3E0F9A3E0A0
:1002DE00FAA3E02FFFEA3EFEE93DFDE83CFC90006C
:1002EE002EE0F8A3E0F9A3E0FAA3E0FBC3120C9F03
:1002FE0040030206C490001EE0FCA3E0FDA3E0FE56
:10030E00A3E0FF90002EE0F8A3A3A3E02FFFEA3EA8
:10031E00FEE93DFDE83CFC900016E0F8A3E0F9A3F1
:10032E00E0FAA3E0FBC3120C9F40030206C4900048
:10033E0002E004F090004BE0FCA3E0FDA3E0FEA37E
:10034E00E0FF900016E0F8EF2BFFEE3AFEED39FDE0
:10035E00EC38FC90004B120CD6900002E0FBE4FA55
:10036E00F9F890004BE0FCA3E0FDA3E0FEA3E0FF54
:10037E00120BE990002E120CD690002EE0FCA3E09A
:10038E00FDA3E0FEA3E0FF7803120CB090001E1256
:10039E000CD6E47F207E4EFDFC90001EE0F8A3E01C
:1003AE00F9A3E0FAA3E0FBC3120C9F500A90001EC3
:1003BE00120CE200004E20E47F607EEAFDFC90000D
:1003CE001EE0F8A3E0F9A3E0FAA3E0FBD3120C9F22
:1003DE00400A90001E120CE20000EA6090002EE02F
:1003EE00FCA3E0FDA3E0FEA3E0FF900012E0F8A363
:1003FE00E0F9A3E0FAA3E0FBD3120C9F4073900048
:10040E002EE0F8A3E0F9A3E0FAA3E0FB900012E0DF
:10041E00FCA3E0FDA3E0FEA3E09BFFEE9AFEED99A8
:10042E00FDEC98FC900052120CD67F807E387D0138
:10043E007C00900052E0F8A3E0F9A3E0FAA3E0FB01
:10044E00D3120C9F40089000367406F08029E47F8A
:10045E00407E9CFDFC900052E0F8A3E0F9A3E0FA88
:10046E00A3E0FBD3120C9F90003640087409F08075
:10047E0006900036740CF0900036E0FF900002E01B
:10048E00C39F500302055C900012E0FCA3E0FDA3A5
:10049E00E0FEA3E0FF90002EE0F8A3E0F9A3E0FA5F
:1004AE00A3E0FB120C9F400302055C900037E09422
:1004BE001050030206D3900036E0D39409501090EA
:1004CE00002EE0FCA3E0FDA3E0FEA3E0FF8076900B
:1004DE00002EE0FCA3E0FDA3E0FEA3E024A0FFEECF
:1004EE00340FFEE43DFDE43CFC900012E0F8A3E086
:1004FE00F9A3E0FAA3E0FBD3120C9F50030206C44B
:10050E00900012E0FCA3E0FDA3E0FEA3E0FF90004C
:10051E002EE0F8A3E0F9A3E0FAA3E0FBEF2BFFEE49
:10052E003AFEED39FDEC38FC900012120CD690001C
:10053E0012E0FCA3E0FDA3E0FEA3E0FFE47B02FAE1
:10054E00F9F8120BE9900012120CD60206C49000B4
:10055E0037E0FF900002E0C39F50030206D39000E5
:10056E0012E0FCA3E0FDA3E0FEA3E024A0FFEE3426
:10057E000FFEE43DFDE43CFC90002EE0F8A3E0F914
:10058E00A3E0FAA3E0FBD3120C9F50030206B49033
:10059E000012E0F8A3E0F9A3E0FAA3E0FB90002E2E
:1005AE00E0FCA3E0FDA3E0FEA3E09BFFEE9AFEEDD0
:1005BE0099FDEC98FC900052120CD67F007E127DB5
:1005CE007A7C0090002EE0F8A3E0F9A3E0FAA3E015
:1005DE00FBC3120C9F40030206B47F807E1A7D0679
:1005EE007C00900052E0F8A3E0F9A3E0FAA3E0FB50
:1005FE00C3120C9F40030206B4900037E0941040E3
:10060E000280587FE07E937D047C00900052E0F8DB
:10061E00A3E0F9A3E0FAA3E0FBD3120C9F400890ED
:10062E0000377410F080277FF07E497D027C0090A9
:10063E000052E0F8A3E0F9A3E0FAA3E0FBD3120C1A
:10064E009F9000374005740CF080037408F0900002
:10065E0037E0FF900002E0C39F404B900012E0FC99
:10066E00A3E0FDA3E0FEA3E0FF90002EE0F8A3E0E0
:10067E00F9A3E0FAA3E0FBEF2BFFEE3AFEED39FD16
:10068E00EC38FC900012120CD6900012E0FCA3E0A5
:10069E00FDA3E0FEA3E0FFE47B02FAF9F8120BE9FA
:1006AE00900012120CD6900037E0FF900002E0C3CB
:1006BE009F4012E48004E4900002F090004B120C74
:1006CE00E20000000090002BE0D3940050030207DC
:1006DE0067E014F0900032E0FCA3E0FDA3E0FEA37F
:1006EE00E02470FFEE3417FEE43DFDE43CFC900088
:1006FE0012E0F8A3E0F9A3E0FAA3E0FBD3120C9FFB
:10070E0050030208E3900032E0FCA3E0FDA3E0FEFC
:10071E00A3E02498FFEE343AFEE43DFDE43CFC9069
:10072E000016E0F8A3E0F9A3E0FAA3E0FBC3120C75
:10073E009F40030208E3900032E0FCA3E0FDA3E03B
:10074E00FEA3E02470FFEE3417FEE43DFDE43CFC16
:10075E00900012120CD60208E3D3900023E094000E
:10076E00900022E094005003020828A3E024FFF03A
:10077E00900022E034FFF0D3A3E09400900022E03A
:10078E00940050030208287F007E127D7A7C009030
:10079E000012E0F8A3E0F9A3E0FAA3E0FBD3120CF9
:1007AE009F400C900009120CE2000C3500806B90FB
:1007BE000009E0FCA3E0FDA3E0FEA3E0FF90001221
:1007CE00E0F8A3E0F9A3E0FAA3E02FFFEA3EFEE98A
:1007DE003DFDE83CFC900052120CD67F407E547DCD
:1007EE00897C00900052E0F8A3E0F9A3E0FAA3E0C0
:1007FE00FBD3120C9F4023900012E0F8A3E0F9A364
:10080E00E0FAA3E0FB74409BFF74549AFE7489993E
:10081E00FDE498FC900009120CD6900009E0FCA3B0
:10082E00E0FDA3E0FEA3E0FF900012E0F8A3E0F9E4
:10083E00A3E0FAA3E02FFFEA3EFEE93DFDE83CFC13
:10084E00A3E0F8A3E0F9A3E0FAA3E0FBD3120C9F18
:10085E0050030208E3900056E0FF900026E0D39F7D
:10086E00400FD3900023E09400900022E0940040CB
:10087E0064900057E07002A3E07014900012E0FC48
:10088E00A3E0FDA3E0FEA3E0FF900032120CD69091
:10089E000057E4F0A304F0786EF690001CE004F02C
:1008AE00700690001BE004F090001BE0FEA3E0FF3A
:1008BE00E48F2C8E2BF52AF5297F74121EFB9000E7
:1008CE00377408F0E4900007F0A3F07882F608F68B
:1008DE007880F608F6900052120CE20000000090AC
:1008EE000016120CE200000000900057E0FEA3E09C
:1008FE00FFD39400EE9400406B900027E0FCA3E041
:10090E00FDD3EF9DEE9C405CE4900057F0A3F07594
:10091E005B01786EF6786BF622900007E4F0A30484
:10092E00F0E4F55B900004F0A3F0900001F07FFA84
:10093E00FE122A7390003B120CE200000000E490BD
:10094E000039F09000377440F090002B7402F09054
:10095E0000007406F0E4900002F090004B120CE2DE
:04096E000000000085
:010972002262
:10212800E4F50A900052120CE200000000E4F50900
:1021380043B440E5B430E5FB53B4DF900052E0F817
:10214800A3E0F9A3E0FAA3E0FBAFB6AEB7E4FCFD69
:10215800EB2FFFEA3EFEED39FDEC38FC9000521201
:102168000CD60509E509B480C77F907E01122A7351
:10217800900052E0FCA3E0FDA3E0FEA3E0FF780B93
:10218800120CB08F09E509D3940C400CE509948D25
:102198005006E50A9414500A050AE50AD3945040FB
:0221A800822291
:0121AA002212
:10222B00900052120CE200000000E4F509E4F50CFA
:10223B00F50D43B440E5B430E5FB53B4DF85B70A85
:10224B0085B60B900052E0F8A3E0F9A3E0FAA3E007
:10225B00FBE4FCFDEB250BFFEA350AFEED39FDEC4B
:10226B0038FC900052120CD6050DE50D7002050CD2
:10227B00B400BFE50CB420BA43BD100509E509B4A1
:10228B0008AB900052E0FCA3E0FDA3E0FEA3E0FF4F
:0D229B007810120CB090003FEEF0A3EFF0B1
:0122A8002213
:102A44007E007C007DFF120B4CAC06AD07E4120A3D
:102A540018E4FBFA79C87842120976120A5190FFF9
:0E2A64009C7410F075DEFF8FDF75DD947F002F
:012A72002241
:100FBD00122C0B120003122BEF7F64122A44122BFA
:100FCD00B3122A13122C2475BBAA90FEA774FFF03E
:100FDD0053BBF7D2AF7FC87E00122A737F64122AEB
:100FED00449000507401F07F0A1227B0900026EF54
:100FFD00F0900051F0C2AF12138590002AE004F07A
:10100D007F807E2F122AE87F107E27122C7B900086
:10101D002AE0FF7D807C2F122A9B7F647E00122C9C
:10102D007BD2AF122128900025E0FF900038F012FE
:10103D002A447F2C7E01122A7312222B9000521209
:10104D000CE20000000090002AE0C394034005E488
:10105D00F0122B0D786DE6D39402502A18E6640138
:10106D007024F608067F55122CA87FAA122CA8E42E
:10107D00FF122CA87FB4122CA8E4FF122CA8122C5E
:10108D00A87FB3122CA843BD10E55B700B90001127
:10109D00E0541F700312120490001AE06401600303
:1010AD000211AEE55C703DF55B755C01900025E0CD
:1010BD00900038F090003B120CE200000000E4902C
:1010CD000039F09000377440F090002B7402F090CE
:1010DD0000007406F0E4900002F090004B120CE258
:1010ED000000000012003ED3900008E09400900034
:1010FD0007E09400403B900001E0B40134E4F0902F
:10110D000008E004F07006900007E004F090001D68
:10111D00E0FFC3900008E09F900007E094004011AD
:10112D00E4F0A3F090000EE064016005E4FF122AE4
:10113D0044D3900058E09400900057E0940040187C
:10114D007881E664011846700FF608F6A3E004F006
:10115D007006900057E004F0786FE66401600302BA
:10116D00105318E6FF786B667003021053A60790B4
:10117D000057E4F0A304F0E4F508E508C394084033
:10118D0003021053E50825E02470F8E6FA08E6FBA3
:10119D004A600A90000FE0FD7F7112201D05088046
:1011AD00D9E4F55C90000FE07007FF122A4402109D
:1011BD005390002CE0FF122A44E4F55B900025E0EB
:1011CD00900038F090003B120CE200000000E4901B
:1011DD000039F09000377440F090002B7402F090BD
:1011ED0000007406F0E4900002F090004B120CE247
:0711FD000000000002105386
:03001B00021D10B3
:101D1000C0E0C0F0C083C082C0D075D000C000C099
:101D200001C002C003C004C005C006C007AF5AAE60
:101D300059AD58AC57EF2401F55AE43EF559E43D4E
:101D4000F558E43CF557900005E004F0700690006B
:101D500004E004F0900004E0FEA3E0FFE4FCFD7B5F
:101D6000607AEAF9F8D3120C89500C900004E4F080
:101D7000A3F090000104F0788306E618700106C312
:101D80007883E694E818E694034012786C7601783C
:101D900082760008760078807600087601D007D039
:101DA00006D005D004D003D002D001D000D0D0D0CE
:081DB00082D083D0F0D0E032B4
:0300230002276948
:10276900C0E0C0F0C083C082C0D075D000C000C036
:0D27790001C002C003C004C005C006C007B7
:0F278600E59830E00AAF991223955398FED2AF31
:10279500D007D006D005D004D003D002D001D00098
:0B27A500D0D0D082D083D0F0D0E03242
:03003B0002001AA6
:01001A0032B3
:102AE80053BBF7C280E5BB20E3F6D280C2AF75FDC9
:102AF800F075FC0F8EFA8FF975FDD275FC2D75FDFA
:052B0800E175FC1E2236
:102A9B0053BBF7C280E5BB20E3F6D280C2AF8FFBFE
:102AAB0075FDF075FC0F8CFA8DF975FDB475FC4B4B
:072ABB0075FDE175FC1E2210
:0415BD0002670000C1
:10232400EFC39430400CEFD39439500674D02FFF90
:102334008022EFC39441400CEFD394465006EF241F
:10234400C9FF8010EFC39461400AEFD39466500430
:10235400EF24A9FFEF540FC454F0FFEDC3943040B1
:102364000CEDD39439500674D02DFD801EEDC3942A
:10237400414008EDD394465002800CEDC394614073
:102384000AEDD394665004ED24A9FDED540F4207E1
:012394002226
:062583008B168A1789186F
:10258900E4F51CF51BF51AF519E94A4B7005FFFE30
:10259900FDFC22E4F51CF51BF51AF519AB16051817
:1025A900E518AA177002051714F9120AD26017E57F
:1025B9001C2401F51CE4351BF51BE4351AF51AE456
:0E25C9003519F51980D6AF1CAE1BAD1AAC1932
:0125D70022E1
:0628BC008B398A3A893BCA
:1028C2008B3F8A408941E94A4B7004FBFAF922E5C1
:1028D2003E153EAE3D7002153D4E6014AB3F0541C4
:1028E200E541AA407002054014F9ED120B1880DF91
:0628F200AB39AA3AA93B34
:0128F80022BD
:061A1E008B238A248925B8
:101A24008B2B8A2C892D85262E85272F852830E916
:101A34004A4B6008E5284527452670077B007A0055
:101A4400790022D3852F83853082E52D9582E52C7C
:101A540095834019E530252AF9E52F3529FA8A833B
:101A64008982D3E52D9582E52C95834038E4F531C0
:101A7400F532C3E532952AE53195295067AB2EAA94
:101A84002FA930853282853183120AEBAB2BAA2C25
:101A9400A92D853282853183120B2A0532E53270F5
:101AA400D1053180CD852931852A32D3E5329400A0
:101AB400E5319400402EAB2EAA2FA930E53224FF45
:101AC400FFE53134FFFE8F82F583120AEBAB2BAABC
:101AD4002CA92D8F828E83120B2AE532153270CBFE
:0A1AE400153180C7AB23AA24A92501
:011AEE0022D5
:1027F5008F668E658D648C637818120CB0EF120BA2
:1028050018AF66AE65AD64AC637810120CB090007D
:1028150001EF120B2AAF66AE65AD64AC63780812A2
:102825000CB0900002EF120B2AE566FF900003EF53
:03283500020B2A69
:101E5A00E4F52DF52CF52BF52A120AD2FFE48F2D85
:101E6A00F52CF52BF52AAE2CAD2BAC2A7808120CE2
:101E7A00C38F2D8E2C8D2B8C2A900001120AEBFF1A
:101E8A00E52D4FF52DE52CF52CE52BF52BE52AF55F
:101E9A002AAF2DAE2CAD2BFC7808120CC38F2D8ED9
:101EAA002C8D2B8C2A900002120AEBFFE52D4FF5A0
:101EBA002DE52CF52CE52BF52BE52AF52AAF2DAED1
:101ECA002CAD2BFC7808120CC38F2D8E2C8D2B8CED
:101EDA002A900003120AEBFFE52D4FF52DE52CF5AC
:101EEA002CE52BF52BE52AF52AAF2DAE2CAD2BFCD4
:011EFA0022C5
:062CD500900074E0FF22F4
:0C2C9C00E4900074F0FDFC7F0402267E32
:062CDB00900071E0FF22F1
:0825D8008F5D8B5E8A5F896054
:1025E000E4FDFC900073E0B401037F0122AF05AE6F
:1025F00004AD5D120026AC06E4FD120026AC06E533
:1026000061FD120026AC06AD62120026AC06AD07D5
:10261000AB5EAA5FA96085612185622212293CAC6C
:0A26200006AD077F0712267E7F013A
:01262A00228D
:0426D1008D25AB07A1
:1026D500E4FDFC900073E0B401037F0122AF05AE79
:1026E50004AD03120026AC067D01120026AC06E4FB
:1026F500FD120026AC067D01120026AC06AD07E5ED
:10270500257003FD8006AF05AE047D01120026ACE1
:0A27150006AD077F0712267E7F0144
:01271F002297
:02201D00A90711
:10201F00E4FCF525F526900073E0B401037F01225F
:10202F007527557528AAE4F529752AB2F52B752C55
:10203F00078A2D8B2E892F753001F531753201ED01
:10204F007004F5338003753301E4F536F5377427E3
:10205F002537F8E62CFC0537E53770020536640D99
:10206F00453670EA8C3475250075260EE4F536F585
:10207F0037E5261526AE25700215254E60147427F8
:10208F002537F8E6FF122CE10537E53770E3053603
:04209F0080DF7F015E
:0120A300221A
:021BAD00A90786
:101BAF00E4FCF525F526900073E0B401037F0122D4
:101BBF007527557528AAE4F529752AB2F52B752CCA
:101BCF00078A2D8B2E892F753001F531753201ED76
:101BDF007004F533802EBD01057533018026BD02DB
:101BEF0005753302801EBD03057533038016BD04D2
:101BFF0005753304800EBD05057533058006BD06DA
:101C0F0003753306E4F536F53774272537F8E62CD8
:101C1F00FC0537E53770020536640D453670EA8CE2
:101C2F003475250075260EE4F536F537E5261526AD
:101C3F00AE25700215254E601474272537F8E6FF80
:0F1C4F00122CE10537E5377002053680DF7F0183
:011C5E002263
:021EFB00AB0733
:101EFD00E4FDFC900073E0B401037F0122AF05AE59
:101F0D0004AD03120026AC067D02120026AC06E4D9
:101F1D00FD120026AC067D04120026C006C007AFD8
:101F2D002CAE2BAD2AAC297818120CB0AD07D0070A
:101F3D00D006120026C006C007AF2CAE2BAD2AACC2
:101F4D00297810120CB0AD07D007D006120026C0AC
:101F5D0006C007AF2CAE2BAD2AAC297808120CB0F9
:101F6D00AD07D007D006120026AC06C007E52CFF42
:101F7D00E4AD07D007120026AC06AD077F07122689
:031F8D007E7F0153
:011F9000222E
:021AEF00AD0741
:101AF100E4FBF52FF530900073E0B401037F012280
:101B0100788476550876AAE408F60876B208F608CD
:101B1100760AE52D08F608A62E08A605087602E441
:101B210008F6087604AF2CAE2BAD2AAC2978181232
:101B31000CB07890A607AF2CAE2BAD2AAC2978104B
:101B4100120CB07891A607AF2CAE2BAD2AAC297838
:101B510008120CB07892A607E52CFFE408A607F559
:101B610031F53274842532F8E62BFB0532E532700B
:101B71000205316410453170EA7894A603752F008F
:101B8100753011E4F531F532E5301530AE2F7002C4
:101B9100152F4E601474842532F8E6FF122CE105EE
:0B1BA10032E5327002053180DF7F0169
:011BAC002216
:08262B008F168B178A1889191C
:10263300E4FDFC900073E0B401037F0122AF05AE1B
:1026430004AD16120026AC067D03120026AC06E587
:102653001AFD120026AC06AD1B120026AC06AD0710
:10266300AB17AA18A919851A21851B2212293CAC7C
:0A26730006AD077F0712267E7F01E7
:01267D00223A
:042838008D25AB0738
:10283C00E4FDFC900073E0B401037F0122AF05AE10
:10284C0004AD03120026AC067D04120026AC06E48F
:10285C00FD120026AC067D01120026AC06AD251239
:0D286C000026AC06AD077F0712267E7F0117
:01287900223C
:02193600AD07FB
:10193800E4F547F548900073E0B401037F0122AF56
:1019480048AE471200268E478F487D051200268E26
:10195800478F48E4FD1200268E478F4874FFFFE545
:1019680045FEE544FDE543FCE47BFFFAF9F8C312C4
:101978000C9F70117D01AF48AE471200268E478F2D
:1019880048AD46807E74FFFFFEE544FDE543FCE478
:101998007BFF7AFFF9F8C3120C9F70047D02803632
:1019A8007D04AF48AE471200268E478F48AF46AE3B
:1019B80045AD44AC437818120CB0AD07AF48AE47FC
:1019C8001200268E478F48AF46AE45AD44AC4378EB
:1019D80010120CB0AD07AF48AE471200268E478FE5
:1019E80048AF46AE45AD44AC437808120CB0AD07DD
:1019F800AF48AE471200268E478F48E546FFE4AD54
:101A080007AF481200268E478F48AD48AC477F077E
:051A180012267E7F0193
:011A1D0022A6
:082CB3008C258D26120AD2FFC8
:012CBB0022F6
:082CBC008C258D26120AD2FFBF
:012CC40022ED
:072CC5008C288D29121E5A14
:012CCC0022E5
:102395008F38D3855583855682E5539582E55295C9
:1023A500834015E5539556FFE5529555FEC3EF94C9
:1023B50017EE648094805048C3855583855682E521
:1023C500539582E5529583500DC3E5569553FFE528
:1023D5005595524F602AC3900071E5539582E55299
:1023E5009583400975510175520075535AAB5105D6
:1023F50053E553AA527002055214F9E538120B1829
:0124050022B4
:10120400E4F509F50AF50BF50CC3E568941FE567E9
:1012140094005024122BD1EFD39400401B12287A4F
:101224000568E568AC6770020567142475F5827477
:10123400003CF583EFF080D1C3E5689407E567943B
:10124400005003021384C3E568950AFFE567950916
:10125400FEC3EF9407EE9400500302134D747525FA
:101264000AF58274003509F583E06455600A050ABD
:10127400E50A70D2050980CE7476250AF5827400D9
:101284003509F583E064AA600A050AE50A70B70522
:101294000980B37477250AF58274003509F583E073
:1012A4006004740280387479250AF5827400350963
:1012B400F583E0FE747A250AF58274003509F58316
:1012C400E07C002400FFEC3ECF2407F50CE43FF55E
:1012D4000BD3E50C9426E50B940040097403250A0E
:1012E400F50AE4805DC3E568950AFFE5679509FEA4
:1012F400C3EF950CEE950B40507475250AF97400F4
:101304003509FA7B01E50C24FFFDE50B34FFFC12E3
:1013140029E1E50A250CFDE509350BFC74742DF56E
:101324008274003CF583E06F60097403250AF50AB2
:10133400E4800FAF0AAE09120D39E50C250AF50A4F
:10134400E50B3509F50902124AC3E568950AF56803
:10135400E5679509F567D3E5689400E5679400406F
:101364001F7475250AF974003509752601F5278956
:101374002885672985682A7B017A007975121A1EE7
:011384002246
:102C0B0075510175520075535A7554017555007500
:092C1B00565A90007174FFF0227A
:05001E00313031320019
:1015C1004100B7004400B300000000014E00014B90
:1015D10000014A00014900014D00014C00014F008A
:1015E1005E00B801010302650466026701680269D1
:1015F100026A026B026C026D037101720173017464
:0116010002E6
:102B0D007F55122CA87FAA122CA8E4FF122CA87FA7
:102B1D0004122CA8E4FF122CA8E4FF122CA87F03AA
:032B2D00022CA8CF
:032CE100022CA81A
:10172B00900000E0FD7F011226D190000FE0FD7FBD
:10173B00711226D1900025E0FFE48F2CF52BF52AB2
:10174B00F5297F03121EFB900056E0FFB4FF05E462
:10175B00F515801EEFB4C8057515028015EFB4287A
:10176B0005751503800CEFB414057515048003750E
:10177B001505AD157F65122838900027E0FEA3E014
:10178B00FFE48F2C8E2BF52AF5297F66121EFB901A
:10179B00001AE0FD7F671226D190001DE0FFE48F59
:1017AB002CF52BF52AF5297F68121EFBE47B107AAA
:1017BB0027F9F8900009E0FCA3E0FDA3E0FEA3E00D
:1017CB00FF120BE9C374329FFFE48F2CF52BF52A24
:1017DB00F5297F69121EFBE4752C0AF52BF52AF50A
:1017EB00297F6A121EFBE4752C0BF52BF52AF529C4
:1017FB007F6B121EFBE4752C0CF52BF52AF5297F5C
:10180B006C121EFB7BFF7A00791E751A00751B0488
:10181B007F6D12262B786FE6FD7F721226D190001A
:10182B000EE0FD7F731226D190001BE0FEA3E0FFBC
:0E183B00E48F2C8E2BF52AF5297F74021EFBFC
:102C3B00122CB3900000EFF0FD7F011226D1BF01E3
:062C4B00037F01227F005F
:012C51002260
:1021AB00122CC58F268E258D248C23054A90002555
:1021BB00E0FFE4FCFDFEAB26AA25A924A823C3124D
:1021CB000C9F6032E4F54AF527E52725E02470F8EB
:1021DB00E6FA08E6FB4A601585262C85252B852417
:1021EB002A8523298A2D8B2E7F03121AEF0527E5CB
:1021FB0027C3940840D3AF26900025EFF090002C16
:10220B00F0121849900025E0FFE48F2CF52BF52AEE
:0F221B00F5297F03121EFBBF01037F01227F0005
:01222A002291
:101DB800122CBC8F2305499000B7E0B52317E52303
:101DC80064057035900056E0FF900026E06F6029AA
:101DD800E4F5498024E4F549F524E52425E0247058
:101DE800F8E6FA08E6FB4A6007AD237F65121BADEB
:101DF8000524E524C3940840E1E523146010146029
:101E08001514601A14601F146024240570289000AB
:101E18005674FFF0802090005674C8F08018900027
:101E2800567428F080109000567414F080089000C2
:101E380026E0900056F09000B7E523F0121849907C
:101E480000B7E0FD7F65122838BF01037F01227FBC
:011E58000089
:011E59002266
:1020A400122CC58F268E258D248C23054D90002758
:1020B400E0FEA3E0FFE4FCFDAB26AA25A924A823A7
:1020C400C3120C9F6032E4F54DF527E52725E02483
:1020D40070F8E6FA08E6FB4A601585262C85252B60
:1020E40085242A8523298A2D8B2E7F66121AEF05D3
:1020F40027E527C3940840D3900027E525F0A3E5FE
:1021040026F0121849900027E0FEA3E0FFE48F2C8C
:102114008E2BF52AF5297F66121EFBBF01037F0172
:03212400227F0017
:012127002295
:10252D00122CB38F23054B90001AE065236024E431
:10253D00F54BF524E52425E02470F8E6FA08E6FBD2
:10254D004A6007AD237F6712201D0524E524C3943F
:10255D000840E1E52390001A7003F080037401F048
:10256D0012184990001AE0FD7F671226D1BF0103B2
:05257D007F01227F0038
:012582002236
:1022A900122CC58F268E258D248C23054C90001D5C
:1022B900E0FFE4FCFDFEAB26AA25A924A823C3124E
:1022C9000C9F6032E4F54CF527E52725E02470F8EA
:1022D900E6FA08E6FB4A601585262C85252B852418
:1022E9002A8523298A2D8B2E7F68121AEF0527E567
:1022F90027C3940840D390001DE526F01218499091
:10230900001DE0FFE48F2CF52BF52AF5297F6812D3
:0A2319001EFBBF01037F01227F00BD
:012323002297
:101C5F00122CC58F268E258D248C23054F9000B313
:101C6F00E0FCA3E0FDA3E0FEA3E0FFAB26AA25A9BD
:101C7F0024A823C3120C9F6032E4F54FF527E52704
:101C8F0025E02470F8E6FA08E6FB4A601585262C55
:101C9F0085252B85242A8523298A2D8B2E7F691252
:101CAF001AEF0527E527C3940840D3AF26AE25AD1D
:101CBF0024AC239000B3120CD6C374329526FFE4E4
:101CCF009525FEE49524FDE49523FCE47B107A270B
:101CDF00F9F8120B5E900009120CD61218499000F9
:101CEF00B3E0FCA3E0FDA3E0FEA3E0F52C8E2B8D6B
:101CFF002A8C297F69121EFBBF01037F01227F00FF
:011D0F0022B1
:102B3000122CC58F268E258D248C238F2C8E2B8DC9
:102B40002A8C297F6A121EFBBF01037F01227F00AE
:012B50002262
:102B5100122CC58F268E258D248C238F2C8E2B8DA8
:102B61002A8C297F6B121EFBBF01037F01227F008C
:012B71002241
:102B7200122CC58F268E258D248C238F2C8E2B8D87
:102B82002A8C297F6C121EFBBF01037F01227F006A
:012B92002220
:10246C00122CB38F23054E90000FE065236024E4FB
:10247C00F54EF524E52425E02470F8E6FA08E6FB91
:10248C004A6007AD237F7112201D0524E524C394F7
:10249C000840E1E523700690000FF0801190001ABF
:1024AC00E0B40104786E760190000F7401F0900096
:1024BC000FE0FD7F711226D1BF01037F01227F0047
:0124CC0022ED
:10272000122CB38F23E523786F666022E4F524E54D
:102730002425E02470F8E6FA08E6FB4A6007AD239A
:102740007F7212201D0524E524C3940840E1E5238F
:10275000786F7003F680027601AD237F721226D166
:08276000BF01037F01227F008D
:01276800224E
:102C5200122CB390000EEFF0FD7F731226D1BF014C
:062C6200037F01227F0048
:012C68002249
:061606008B1D8A1E891FE6
:10160C00EF120D13163B01166A03167A65168A66DD
:10161C00169A6716A96816B86916C76A16D66B1695
:10162C00E56C16F47117037217127300001723ABD5
:10163C001DAA1EA91FAD21AC20122C3B8F22E52226
:10164C006401600302172890003AE004F0E0C394B0
:10165C00055003021728E4F0122B0D021728AB1DBE
:10166C00AA1EA91FAD21AC201221AB02171FAB1D66
:10167C00AA1EA91FAD21AC20121DB802171FAB1D4D
:10168C00AA1EA91FAD21AC201220A402171FAB1D4E
:10169C00AA1EA91FAD21AC2012252D8076AB1DAA48
:1016AC001EA91FAD21AC201222A98067AB1DAA1E5A
:1016BC00A91FAD21AC20121C5F8058AB1DAA1EA91E
:1016CC001FAD21AC20122B308049AB1DAA1EA91FC7
:1016DC00AD21AC20122B51803AAB1DAA1EA91FAD17
:1016EC0021AC20122B72802BAB1DAA1EA91FAD2181
:1016FC00AC2012246C801CAB1DAA1EA91FAD21AC02
:10170C0020122720800DAB1DAA1EA91FAD21AC20D5
:0E171C00122C528F228000E490003AF0AF228F
:01172A00229C
:032CE4007F0F223D
:101849007F007E2F122AE87F107E27122C7BE47BF3
:10185900E87A03F9F8900009E0FCA3E0FDA3E0FEB3
:10186900A3E0FF120BE97808120CB07D007C2F125F
:101879002A9B7F647E00122C7BE47BE87A03F9F8CB
:10188900900009E0FCA3E0FDA3E0FEA3E0FF120B3A
:10189900E9E47D017C2F122A9B7F647E00122C7B58
:1018A900900056E0FF7D027C2F122A9B7F647E0008
:1018B900122C7B900027E0FF7D037C2F122A9B7F4F
:1018C900647E00122C7B900027A3E0FF7D047C2F0F
:1018D900122A9B7F647E00122C7B900025E0FF7DFD
:1018E900057C2F122A9B7F647E00122C7B90001DA1
:1018F900E0FF7D067C2F122A9B7F647E00122C7BE1
:1019090090001AE0FF7D077C2F122A9B7F647E00DE
:10191900122C7B7F807E2F122AE87F107E27122CC3
:0C1929007B7D807C2FE4FF122A9BD2AF54
:01193500228F
:0F2C8D003667736A6E36767300312E302E300044
:0316020001500094
:10002600749A2FF974003EFA7B01ED120B180FBF7C
:0300360000010EB8
:0100390022A4
:06293600AF157E007BFFDF
:0A293C008E1C8F1D8B1E8A1F892040
:10294600749A2FF974003EFA7B01851E26851F278F
:1029560085202885212985222A121A1EE522251D71
:0B296600F51DE521351CF51CFEAF1D22
:012971002243
:1028F9008B2F8A3089318C328D33E94A4B602DE533
:102909003345326027E5331533AE32700215324E46
:10291900601AAB2FAA30A931120AD2FF122CE17426
:0D292900012531F531E43530F53080D9223B
:0A29E1008B2F8A3089318C328D3340
:1029EB00E4FFFDFCC3ED9533EC9532501AAB2F058C
:1029FB0031E531AA307002053014F9120AD22FFFDB
:072A0B000DBD00010C80DD90
:012A120022A1
:04267E008C2D8D2EE4
:102682009000947455F0A374AAF0E4A3F0A3EFF0C1
:10269200E52DA3F0E52EA3F02407F52EE4352DF564
:1026A2002D7B017A007994E52E24FFFDE52D34FF80
:1026B200FC1229E17493252EF5827400352DF583E1
:0F26C200EFF07B017A007994AD2EAC2D0228F950
:042406008C698D6AE6
:10240A007402256AF56AE43569F569900094745591
:10241A00F0A374AAF0E4A3F0A3EFF0E569A3F0E552
:10242A006AA3F0A374FFF0A3F07407256AF56AE4BF
:10243A003569F5697B017A007994E56A24FFFDE53F
:10244A006934FFFC1229E17493256AF58274003518
:10245A0069F583EFF07B017A007994AD6AAC690281
:02246A0028F94F
:102B9300E4FFE550700AFEFD120026755001800720
:102BA3007E007D01120026EFFD7C00E4FF02267EFD
:10297200E4F5157BFF7A2C798D1225838E218F2227
:102982007A2C798D1229368F157BFF7A2C79961243
:1029920025838E218F227A2C79961229368F15EF74
:0829A200FD7C007F0102267E8E
:082CCD00E4FDFC7F0202267EFB
:022AC2008F1C67
:102AC400122CE4E4FEEEC39F501775F002EEA4242A
:102AD400B8F582E5F03400F583E0651C60030E80F0
:032AE400E4AF0656
:012AE70022CC
:0624CD008B158A16891729
:1024D300120AD2F518900001120AEBF519900002C6
:1024E300120AEB751B00F51A900003120AEB251B69
:1024F300F51BE4351AF51AAF18122AC275F002EF6C
:10250300A424B9F582E5F03400F583E0651960038E
:102513007F0022AB15E5172404F9E43516FA851A72
:0925230020851B21AF18121606D9
:01252C00228C
:040D39008E0D8F0E7E
:100D3D0074782FF58274003EF583E0FF244C700328
:100D4D00020E4024B4B409004003020FBC900D61A3
:100D5D00F8282873020D7C020D7F020D82020D858D
:100D6D00020D9E020FBC020DA5020FBC020FB902AF
:100D7D002B93022972022CCD747B250EF582740003
:100D8D00350DF583E0900071F0E4FDFC7F03022644
:100D9D007E9000747401F0227479250EF582740032
:100DAD00350DF583E0751400F513747A250EF58273
:100DBD007400350DF583E02514F514E43513F513A2
:100DCD00E4F511F512C3E5129514E51195134003E1
:100DDD00020FBCE50E2512FDE50D3511FC747D2DC0
:100DED00F58274003CF583E0751000F50F747E2DCF
:100DFD00F58274003CF583E02510F510E4350FF510
:100E0D000F747B250EF97400350DFA7B01E925125F
:100E1D00F9EA3511FA1224CDBF0103121849E51074
:100E2D002404FFE4350FFEEF2512F512EE3511F512
:100E3D001180927479250EF5827400350DF583E0DD
:100E4D00751400F513747A250EF5827400350DF5C1
:100E5D0083E02514F514E43513F513747C250EF594
:100E6D00827400350DF583E0F8E47971F7E819F730
:100E7D00747D250EF5827400350DF583E0787126AD
:100E8D00F618E436F6747E250EF5827400350DF5F0
:100E9D0083E0F8E47973F7E819F7747F250EF5828E
:100EAD007400350DF583E0787326F618E436F67484
:100EBD0080250EF5827400350DF583E0F8E4797523
:100ECD00F7E819F77481250EF5827400350DF58359
:100EDD00E0787526F618E436F67482250EF58274E0
:100EED0000350DF583E0F8E47977F7E819F77483A9
:100EFD00250EF5827400350DF583E0787726F6180A
:100F0D00E436F67484250EF5827400350DF583E014
:100F1D00F8E47979F7E819F77485250EF5827400F0
:100F2D00350DF583E0787926F618E436F6748625C6
:100F3D000EF5827400350DF583E0F8E4797BF7E862
:100F4D0019F77487250EF5827400350DF583E07859
:100F5D007B26F618E436F67488250EF58274003576
:100F6D000DF583E0F8E4797DF7E819F77489250E1E
:100F7D00F5827400350DF583E0787D26F618E4369C
:100F8D00F6748A250EF5827400350DF583E0F8E4CC
:100F9D00797FF7E819F7748B250EF5827400350DFE
:0F0FAD00F583E0787F26F618E436F62212172B2C
:010FBC002212
:102BD100E5548555838556826551700AE5536582B2
:0E2BE1007004E552658360037F01227F0022AD
:10287A00E5518552838553826554700AE55665820F
:10288A007004E55565836029C3900071E556958209
:10289A00E5559583400975540175550075565AAB2F
:1028AA00540556E556AA557002055514F9120AD26E
:0128BA00FF1E
:0128BB0022FA
:10097300020AC7EC5D046005E859047003020ABD6E
:10098300120A88580460F6EC4860F2EC7004FDFE2D
:10099300FF22C860DB2481C85009C3986002500657
:1009A300020AC49850CAF582E9294B4A7005AB8202
:1009B300020AB375F0007C1A7880C3EF9BEE9AEDC0
:1009C30099400DC3EF9BFFEE9AFEED99FDE842F0CF
:1009D300DC23ACF0D0E0FFD0E0FED0E0FDAB822022
:1009E300E7101BEB60BAEC2CFCEF33FFEE33FEEDAC
:1009F30033FD020A9FE803F830E705C0F075F00005
:100A0300EF2FFFEE33FEED33FD40B830E7C280AA8F
:100A130075F020800E75F010800575F0087D007E5E
:100A2300007F003392D530D503120C7BEC3340109A
:100A3300EF33FFEE33FEED33FDEC33FCD5F0ED2267
:0E0A4300E5F0247EA2D513CC92E7CDCEFF22A3
:100A5100EDD2E7CD33EC3392D524814006E4FFFE9D
:100A6100FDFC22FCE4CFCECDCC24E0501174FF80FC
:100A7100EDC3CC13CCCD13CDCE13CECF13CF047099
:070A8100F030D5DE020C7B12
:100A8800E9D2E7C933E833F892D5EDD2E7CD33ECB4
:070A980033FC5002B2D5222D
:100A9F00EC30E7100FBF000C0EBE00080DBD0004B8
:100AAF000BEB6014A2D5EB13FCED92E7FD2274FF64
:100ABF00FCFDFEFF22E480F8A2D574FF13FC7D80BD
:030ACF00E480EFD1
:101F9D00020FBDE493A3F8E493A34003F68001F28E
:101FAD0008DFF48029E493A3F85407240CC8C33345
:101FBD00C4540F4420C8834004F456800146F6DF14
:101FCD00E4800B01020408102040809014DBE47EB5
:101FDD00019360BCA3FF543F30E509541FFEE49309
:101FED00A360010ECF54C025E060A840B8E493A3D0
:101FFD00FAE493A3F8E493A3C8C582C8CAC583CAFB
:10200D00F0A3C8C582C8CAC583CADFE9DEE780BEB2
:0116050000E4
:100AD200BB010689828A83E0225002E722BBFE0222
:090AE200E32289828A83E4932255
:100AEB00BB010CE58229F582E5833AF583E02250C0
:100AFB0006E92582F8E622BBFE06E92582F8E2220A
:0D0B0B00E58229F582E5833AF583E4932223
:100B1800BB010689828A83F0225002F722BBFE01BC
:020B2800F322B6
:100B2A00F8BB010DE58229F582E5833AF583E8F001
:100B3A00225006E92582C8F622BBFE05E92582C8AD
:020B4A00F22295
:100B4C00EF8DF0A4A8F0CF8CF0A428CE8DF0A42EBD
:020B5C00FE2277
:100B5E00E88FF0A4CC8BF0A42CFCE98EF0A42CFC36
:100B6E008AF0EDA42CFCEA8EF0A4CDA8F08BF0A4B4
:100B7E002DCC3825F0FDE98FF0A42CCD35F0FCEB13
:100B8E008EF0A4FEA9F0EB8FF0A4CFC5F02ECD39D8
:0F0B9E00FEE43CFCEAA42DCE35F0FDE43CFC2245
:100BAD0075F008758200EF2FFFEE33FECD33CDCCFF
:100BBD0033CCC58233C5829BED9AEC99E582984082
:100BCD000CF582EE9BFEED9AFDEC99FC0FD5F0D65F
:100BDD00E4CEFBE4CDFAE4CCF9A88222B800C1B989
:100BED000059BA002DEC8BF084CFCECDFCE5F0CBC7
:100BFD00F97818EF2FFFEE33FEED33FDEC33FCEB00
:100C0D0033FB10D703994004EB99FB0FD8E5E4F9BA
:100C1D00FA227818EF2FFFEE33FEED33FDEC33FCA7
:100C2D00C933C910D7059BE99A4007EC9BFCE99A9B
:100C3D00F90FD8E0E4C9FAE4CCFB2275F010EF2FE0
:100C4D00FFEE33FEED33FDCC33CCC833C810D707E0
:100C5D009BEC9AE899400AED9BFDEC9AFCE899F81B
:0E0C6D000FD5F0DAE4CDFBE4CCFAE4C8F922AE
:0E0C7B00C3E49FFFE49EFEE49DFDE49CFC228A
:100C8900EB9FF5F0EA9E42F0E99D42F0EC6480C8E2
:060C990064809845F02282
:100C9F00EB9FF5F0EA9E42F0E99D42F0E89C45F0AB
:010CAF002222
:100CB000E8600FECC313FCED13FDEE13FEEF13FF22
:030CC000D8F12246
:100CC300E8600FEFC333FFEE33FEED33FDEC33FC8F
:030CD300D8F12233
:0C0CD600ECF0A3EDF0A3EEF0A3EFF02291
:100CE200A8828583F0D083D082120CF9120CF912FB
:100CF2000CF9120CF9E473E493A3C583C5F0C58320
:100D0200C8C582C8F0A3C583C5F0C583C8C582C85B
:010D120022BE
:100D1300D083D082F8E4937012740193700DA3A36F
:100D230093F8740193F5828883E473740293686083
:060D3300EFA3A3A380DF83
:00000001FF
