:03000000021F8E4E
:0C1F8E00787FE4F6D8FD758194021FD521
:1014E300045700000000410002004100360C410097
:1014F300374044002E0000000044001200000000AA
:101503004400160000000044004B000000004400AB
:101513003B00000000440052000000004200220093
:101523000142001000004100060041002B00420070
:101533005700004200070000410000084100390045
:1015430041005900015B00015C0041005000410073
:101553000F0041001A014100250A41003A004100F1
:10156300380A41002A0041002C00420004000041D7
:10157300000100028200000280000041000D0041D2
:10158300004F0041002D001070000000000000001B
:10159300000000000000000000016C00016D00016C
:1015A3006F00016E00016B0041000E0042001B0042
:1015B300004A00410000000000000000000041005C
:0215C300030023
:102A04008E098F0A8B0B8A0C890DAF051DEF60218F
:102A1400050AE50AAE097002050914F5828E83E4FD
:102A240093FF780BE475F001120C1BEF1209CB80B5
:022A3400D922A5
:102C6E00E4FDFCC3ED9FEC9E50070DBD00010C80F2
:012C7E00F263
:012C7F002232
:102A94008F828E83E4F55AF559F558F557AF82AE17
:102AA40083E4FCFDAB5AAA59A958A857C3120B8357
:082AB400500543BD1080E6222D
:102C8000E4FDFCC3ED9FEC9E50070DBD00010C80E0
:012C9000F251
:012C91002220
:10000300758E5190FE917401F0A37410F075BD5F6D
:0700130090FEA07420F02212
:102BCF00E490FE80F0758901758DFA758BCB43A863
:0E2BDF0008438840758CCB758AEB4388102222
:102A360090FF10E054F04408F090FF02E054F04498
:102A460002F0D28490FFA07420F0A37404F075CC39
:102A56000675CEFF75CD98759E0275981043A81021
:012A6600224D
:102C400043B40343B4807F147E00122C6E75B5012B
:072C500090FE9B744BF02283
:102C0B0090FF08E054F04408F090FF00E0540F44AC
:0C2C1B0030F090FF11E054F04403F02270
:0B2CAD008F99E59830E1FB5398FD2261
:10280D008FB543B440E5B430E5FB53B4DF7F647E50
:10281D0000122C6EE4FBFAF943B440E5B430E5FB4D
:10282D0053B4DFE5B62BFBE5B73AFA7F147E001201
:10283D002C6E09B910E275B501A9027F647E0012F4
:04284D002C6EAF013D
:012851002264
:10161F007B017A0079417D0A7F007E2F122A049088
:10162F000041E0FFE4FCFDFE900009120BD2900098
:10163F0009120BBA7808120BA7900009120BD2905F
:10164F000009120BC6900042E0FFE4FCFDFE120AF7
:10165F0027900009120BD2900009120BBAE47BE815
:10166F007A03F9F8120A42900009120BD2E47F3084
:10167F007E75FDFC900009120BC6C3120B8340143C
:10168F007F007E097D3D7C00900009120BC6D312AE
:10169F000B83400A900009120BDE00009C40900063
:1016AF0043E0900056F070028007900056E0B4FEC1
:1016BF000374FFF0900044E0FF900027E4F0A3EFE5
:1016CF00F0E0F8E4F0E8900027F0900045E0FF909C
:1016DF000027E48FF0120A11900027E0FEA3E0FF2D
:1016EF004E6009D3EF9408EE94074009900027E469
:1016FF00F0A37405F0900046E0900025F090002CC8
:10170F00F0900047E090001DF06006E0D394FF409A
:10171F000690001D7401F0900048E0F45401900011
:10172F001AF07B017A0079037D017F807E2F122AC8
:0A173F0004900003E090002AF0225D
:10003E00E55B60030206E243B440E5B430E5FB53F2
:10004E00B4DF85B70985B60A900010E475F0011289
:10005E000A11900052120BC6AE09AF0AE4FCFD1253
:10006E000A27900052120BD290003FE0FEA3E0FF51
:10007E00C3950AEE9509500DC3E50A9FF50AE509E9
:10008E009EF509800BC3EF950AF50AEE9509F50961
:10009E00900016120BC6AE09AF0AE4FCFD120A2739
:1000AE00900016120BD2900010E05401FEA3E04E09
:1000BE007061D3900058E09400900057E094004097
:1000CE0017900038E094645042E02402F0E0D3949C
:1000DE006440387464F08033900007E07004A3E04D
:1000EE006401702F900025E0FF900038E0FED39F52
:1000FE004019EE94024004E024FEF0900038E0C374
:10010E009F5008900025E0900038F0900038E0FFF6
:10011E00122696C3900010E09420500302072D4340
:10012E00BD10E4F0A3F0900039E004F090003B1213
:10013E000BBA900052120BC6120A2790003B120BFC
:10014E00D2900039E0C394084037E4F090003B129F
:10015E000BBA7810120B9490003B120BD290003B0E
:10016E00120BBA90003FEE8FF0120A1190003FE092
:10017E00C313F0A3E013F090003B120BDE0000005F
:10018E0000900000E0C394085005E004F080569003
:10019E000057E07002A3E0704C7F0A12280D900009
:1001AE0026EFF0900051E0FE2402FDE433FCEFD385
:1001BE009DEC6480F8748098501E900026E0240216
:1001CE00FDE433FCEED39DEC6480F8748098500807
:1001DE00900051E0900026F0900026E0900051F043
:1001EE00E4900000F0E4FFFEFDFC900012120BC63E
:1001FE00C3120B837041900016120BBAEF2488FFC6
:10020E00EE3413FEE43DFDE43CFC900012120BD2E2
:10021E00900022E07002A3E0701D7F407E427D0FB1
:10022E00FC900012120BC6D3120B83400A900012E0
:10023E00120BDE000F4240900002E0701690001686
:10024E00120BBA90002E120BD290001E120BDE0073
:10025E0000000190001E120BBA900016120BC6126F
:10026E000A2790002E120BC6C3120B834003020501
:10027E000790001E120BBA90002E120BC6120A2700
:10028E00900016120BC6C3120B8340030205079093
:10029E000002E004F090004B120BBA900016120B05
:1002AE00C6120A2790004B120BD2900002E0FFFB01
:1002BE00E4FAF9F890004B120BBA120ACD90002E08
:1002CE00120BD290002E120BBA7803120B949000E0
:1002DE001E120BD2E47F207E4EFDFC90001E120BF0
:1002EE00C6C3120B83500A90001E120BDE00004E86
:1002FE0020E47F607EEAFDFC90001E120BC6D31236
:10030E000B83400A90001E120BDE0000EA60900084
:10031E002E120BBA900012120BC6D3120B83404C46
:10032E0090002E120BC6900012120BBA120A3490C5
:10033E000052120BD27F807E387D017C00900052DD
:10034E00120BC6D3120B8340089000367406F08051
:10035E0021E47F407E9CFDFC900052120BC6D3120E
:10036E000B8390003640087409F0800690003674B6
:10037E000CF0900036E0FF900002E0C39F407B90AF
:10038E000012120BBA90002E120BC6C3120B835022
:10039E0069900037E094105003020516900036E085
:1003AE00D39409500890002E120BBA804490002E60
:1003BE00120BBAEF24A0FFEE340FFEE43DFDE43C39
:1003CE00FC900012120BC6D3120B83402A9000121F
:1003DE00120BBA90002E120BC6120A2790001212A0
:1003EE000BD2900012120BBAE47B02FAF9F8120A41
:1003FE00CD900012120BD2020507900037E0FF904D
:10040E000002E0C39F5003020516900012120BBAB1
:10041E00EF24A0FFEE340FFEE43DFDE43CFC900023
:10042E002E120BC6D3120B8350030204F790001248
:10043E00120BC690002E120BBA120A3490005212F2
:10044E000BD27F007E127D7A7C0090002E120BC69E
:10045E00C3120B8340030204F77F807E1A7D067C55
:10046E0000900052120BC6C3120B83507C900037C3
:10047E00E09410400280487FE07E937D047C0090E3
:10048E000052120BC6D3120B834008900037741023
:10049E00F0801F7FF07E497D027C00900052120B8F
:1004AE00C6D3120B839000374005740CF080037492
:1004BE0008F0900037E0FF900002E0C39F402A90C2
:1004CE000012120BBA90002E120BC6120A279000C1
:1004DE0012120BD2900012120BBAE47B02FAF9F848
:1004EE00120ACD900012120BD2900037E0FF90004E
:1004FE0002E0C39F4012E48004E4900002F09000FA
:10050E004B120BDE0000000090002BE0D394004055
:10051E0066E014F0900032120BBAEF2470FFEE3446
:10052E0017FEE43DFDE43CFC900012120BC6D31204
:10053E000B83500302069E900032120BBAEF2498E2
:10054E00FFEE343AFEE43DFDE43CFC900016120B47
:10055E00C6C3120B83400302069E900032120BBAE2
:10056E00EF2470FFEE3417FEE43DFDE43CFC9000FA
:10057E0012120BD202069ED3900023E0940090003C
:10058E0022E09400407B74FFF5F0120A11D3900024
:10059E0023E09400900022E0940040657F007E12DC
:1005AE007D7A7C00900012120BC6D3120B83400C86
:1005BE00900009120BDE000C3500804590000912E8
:1005CE000BBA900012120BC6120A27900052120B91
:1005DE00D27F407E547D897C00900052120BC6D390
:1005EE00120B83401C900012120BC6C374409BFF6B
:1005FE0074549AFE748999FDE498FC900009120BCC
:10060E00D2900009120BBA900012120BC6120A27D2
:10061E00900016120BC6D3120B834074900056E056
:10062E00FF900026E0D39F400FD3900023E094006C
:10063E00900022E094004058900057E07002A3E032
:10064E00700C900012120BBA900032120BD2900066
:10065E0057E4F0A304F0786EF690001BE475F001F9
:10066E00120A1190001BE0FEA3E0FFE48F2C8E2BEC
:10067E00F52AF5297F74121EF89000377408F0E4FD
:10068E00900007F0A3F07882F608F67880F608F668
:10069E00900052120BDE00000000900016120BDECE
:1006AE0000000000900057E0FEA3E0FFD39400EEA0
:1006BE009400406B900027E0FCA3E0FDD3EF9DEE8D
:1006CE009C405CE4900057F0A3F0755B01786EF6E9
:1006DE00786BF622900007E4F0A304F0E4F55B904B
:1006EE000004F0A3F0900001F07FFAFE122A94901D
:1006FE00003B120BDE00000000E4900039F0900089
:10070E00377440F090002B7402F09000007406F0E5
:0F071E00E4900002F090004B120BDE0000000090
:01072D0022A9
:10230100E4F50A900052120BDE00000000E4F5092A
:1023110043B440E5B430E5FB53B4DF900052120BF7
:10232100C6AFB6AEB7E4FCFD120A27900052120BFD
:10233100D20509E509B480D87F907E01122A9490D4
:102341000052120BBA780B120B948F09E509D39442
:102351000C400CE509948D5006E50A9414500A05C9
:092361000AE50AD39450409B22C6
:01236A002250
:10236B00900052120BDE00000000E4F509E4F50CBE
:10237B00F50D43B440E5B430E5FB53B4DF85B70A44
:10238B0085B60B900052120BC6AE0AAF0BE4FCFDE8
:10239B00120A27900052120BD2050DE50D700205A3
:1023AB000CB400CEE50CB420C943BD100509E509FA
:1023BB00B408BA900052120BBA7810120B9490001A
:0623CB003FEEF0A3EFF06D
:0123D10022E9
:10269600BF0104E4FE80397E007C007DFF1209FF45
:1026A600AC06AD07E41208CBE4FBFA79C87842120F
:1026B60008298F0E8E0D8D0C8C0BE4FFFEFD7C3FE2
:1026C600AB0EAA0DA90CA80B120735120904AE070A
:1026D60090FF9C7410F075DEFF8EDF75DD947F0031
:0126E60022D1
:100F6800122C27120003122C0B7F64122696122BC8
:100F7800CF122A36122C4075BBAA90FEA774FFF038
:100F880053BBF7D2AF7FC87E00122A947F64122623
:100F9800969000507401F07F0A12280D900026EFF9
:100FA800F0900051F0C2AF12161F90002AE004F032
:100FB8007F807E2F122AE37F107E27122C809000DC
:100FC8002AE0FF7D807C2F122ABC7F647E00122CD1
:100FD80080D2AF122301900025E0FF900038F01274
:100FE80026967F2C7E01122A9412236B90005212AF
:100FF8000BDE0000000090002AE0C394034005E4E3
:10100800F0122B08786DE6D39402502A18E6640192
:101018007024F608067F55122CAD7FAA122CADE479
:10102800FF122CAD7FB4122CADE4FF122CAD122CA4
:10103800AD7FB3122CAD43BD10E55B700B90001172
:10104800E0541F700312136290001AE064016003F9
:1010580002114EE55C703DF55B755C01900025E082
:10106800900038F090003B120BDE00000000E49086
:101078000039F09000377440F090002B7402F09023
:1010880000007406F0E4900002F090004B120BDEB2
:101098000000000012003ED3900008E09400900089
:1010A80007E094004036900001E0B4012FE4F0908E
:1010B800000775F001120A1190001DE0FFC39000AF
:1010C80008E09F900007E094004011E4F0A3F0903E
:1010D800000EE064016005E4FF122696D3900058E4
:1010E800E09400900057E0940040127881E6640193
:1010F80018467009F608F675F001120A11786FE6BD
:1011080064016003020FFE18E6FF786B6670030245
:101118000FFEA607900057E4F0A304F0E4F508E5F5
:1011280008C394084003020FFEE50825E02470F880
:10113800E6FA08E6FB4A600A90000FE0FD7F7112AC
:10114800201A050880D9E4F55C90000FE07007FFCD
:10115800122696020FFE90002CE0FF122696E4F568
:101168005B900025E0900038F090003B120BDE0009
:10117800000000E4900039F09000377440F09000CF
:101188002B7402F09000007406F0E4900002F090D6
:0C119800004B120BDE00000000020FFEF6
:03001B00021C754F
:101C7500C0E0C0F0C083C082C0D075D000C000C035
:101C850001C002C003C004C005C006C007AF5AAEFC
:101C950059AD58AC57EF2401FFE43EFEE43DFDE4A9
:101CA5003C8F5A8E598D58F557900004E475F00114
:101CB500120A11900004E0FEA3E0FFE4FCFD7B6046
:101CC5007AEAF9F8D3120B6D500C900004E4F0A3F6
:101CD500F090000104F0788306E618700106C378D9
:101CE50083E694E818E694034012786C76017882CE
:101CF500760008760078807600087601D007D00651
:101D0500D005D004D003D002D001D000D0D0D082ED
:071D1500D083D0F0D0E032D2
:0300230002277F32
:10277F00C0E0C0F0C083C082C0D075D000C000C020
:0D278F0001C002C003C004C005C006C007A1
:0F279C00E59830E00AAF991222915398FED2AF20
:1027AB00D007D006D005D004D003D002D001D00082
:0B27BB00D0D0D082D083D0F0D0E0322C
:03003B0002001AA6
:01001A0032B3
:102AE30053BBF7C280E5BB20E3F6D280C2AF75FDCE
:102AF300F075FC0F8EFA8FF975FDD275FC2D75FDFF
:052B0300E175FC1E223B
:102ABC0053BBF7C280E5BB20E3F6D280C2AF8FFBDD
:102ACC0075FDF075FC0F8CFA8DF975FDB475FC4B2A
:072ADC0075FDE175FC1E22EF
:0415C50002670000B9
:10222000EFC39430400CEFD39439500674D02FFF95
:102230008022EFC39441400CEFD394465006EF2424
:10224000C9FF8010EFC39461400AEFD39466500435
:10225000EF24A9FFEF540FC454F0FFEDC3943040B6
:102260000CEDD39439500674D02DFD801EEDC3942F
:10227000414008EDD394465002800CEDC394614078
:102280000AEDD394665004ED24A9FDED540F4207E6
:01229000222B
:06254A008B168A178918A8
:10255000E4F51CF51BF51AF519E94A4B7005FFFE69
:10256000FDFC22E4F51CF51BF51AF5197816E47547
:10257000F001120C1B120985601AE51C2401FFE40E
:10258000351BFEE4351AFDE435198F1C8E1B8D1AA0
:0C259000F51980D8AF1CAE1BAD1AAC19B9
:01259C00221C
:062994008B398A3A893BF1
:10299A008B3F8A408941E94A4B7004FBFAF922E5E8
:1029AA003E153EAE3D7002153D4E600F783FE47510
:1029BA00F001120C1BED1209CB80E4AB39AA3AA93B
:0129CA003BD1
:0129CB0022E9
:061A34008B238A248925A2
:101A3A008B2B8A2C892D85262E85272F852830E900
:101A4A004A4B6008E5284527452670077B007A003F
:101A5A00790022D3852F83853082E52D9582E52C66
:101A6A0095834019E530252AF9E52F3529FA8A8325
:101A7A008982D3E52D9582E52C95834038E4F531AA
:101A8A00F532C3E532952AE53195295067AB2EAA7E
:101A9A002FA93085328285318312099EAB2BAA2C5D
:101AAA00A92D8532828531831209DD0532E532702E
:101ABA00D1053180CD852931852A32D3E53294008A
:101ACA00E5319400402EAB2EAA2FA930E53224FF2F
:101ADA00FFE53134FFFE8F82F58312099EAB2BAAF4
:101AEA002CA92D8F828E831209DDE532153270CB37
:0A1AFA00153180C7AB23AA24A925EB
:011B040022BE
:102896008F668E658D648C637818120B94EF12091F
:1028A600CBAF66AE65AD64AC637810120B94900046
:1028B60001EF1209DDAF66AE65AD64AC6378081250
:1028C6000B94900002EF1209DDE566FF900003EF1E
:0328D6000209DD17
:101E6000E4F52DF52CF52BF52A120985FFE48F2DCD
:101E7000F52CF52BF52AAE2CAD2BAC2A7808120BDD
:101E8000A78F2D8E2C8D2B8C2A90000112099EFF7E
:101E9000E52D4FFFE52CFEE52BFDE52A8F2D8E2C41
:101EA0008D2BF52AFC7808120BA78F2D8E2C8D2BED
:101EB0008C2A90000212099EFFE52D4FFFE52CFEB3
:101EC000E52BFDE52A8F2D8E2C8D2BF52AFC78082D
:101ED000120BA78F2D8E2C8D2B8C2A9000031209AC
:101EE0009EFFE52D4FFFE52CFEE52BFDE52A8F2D0E
:071EF0008E2C8D2BF52AFC5E
:011EF70022C8
:062CDA00900074E0FF22EF
:0C2CA100E4900074F0FDFC7F0402264368
:062CE000900071E0FF22EC
:08259D008F5D8B5E8A5F89608F
:1025A500E4FDFC900073E0B401037F0122AF05AEAA
:1025B50004AD5D120026AC06E4FD120026AC06E56E
:1025C50061FD120026AC06AD62120026AC06AD0711
:1025D500AB5EAA5FA96085612185622212295EAC86
:0A25E50006AD077F071226437F01B1
:0125EF0022C9
:0426E7008D25AB078B
:1026EB00E4FDFC900073E0B401037F0122AF05AE63
:1026FB0004AD03120026AC067D01120026AC06E4E5
:10270B00FD120026AC067D01120026AC06AD07E5D6
:10271B00257003FD8006AF05AE047D01120026ACCB
:0A272B0006AD077F071226437F0169
:012735002281
:02201A00A90714
:10201C00E4FCF525F526900073E0B401037F012262
:10202C007527557528AAE4F529752AB2F52B752C58
:10203C00078A2D8B2E892F753001F531753201ED04
:10204C007004F5338003753301E4F536F5377427E6
:10205C002537F8E62CFC0537E53770020536640D9C
:10206C00453670EA8C3475250075260EE4F536F588
:10207C0037E5261526AE25700215254E60147427FB
:10208C002537F8E6FF122CE60537E53770E3053601
:04209C0080DF7F0161
:0120A000221D
:021BC300A90770
:101BC500E4FCF525F526900073E0B401037F0122BE
:101BD5007527557528AAE4F529752AB2F52B752CB4
:101BE500078A2D8B2E892F753001F531753201ED60
:101BF5007004F533802EBD01057533018026BD02C5
:101C050005753302801EBD03057533038016BD04BB
:101C150005753304800EBD05057533058006BD06C3
:101C250003753306E4F536F53774272537F8E62CC2
:101C3500FC0537E53770020536640D453670EA8CCC
:101C45003475250075260EE4F536F537E526152697
:101C5500AE25700215254E601474272537F8E6FF6A
:0F1C6500122CE60537E5377002053680DF7F0168
:011C7400224D
:021EF800AB0736
:101EFA00E4FDFC900073E0B401037F0122AF05AE5C
:101F0A0004AD03120026AC067D02120026AC06E4DC
:101F1A00FD120026AC067D04120026C006C007AFDB
:101F2A002CAE2BAD2AAC297818120B94AD07D0072A
:101F3A00D006120026C006C007AF2CAE2BAD2AACC5
:101F4A00297810120B94AD07D007D006120026C0CC
:101F5A0006C007AF2CAE2BAD2AAC297808120B9419
:101F6A00AD07D007D006120026AC06C007E52CFF45
:101F7A00E4AD07D007120026AC06AD077F0712268C
:031F8A00437F0191
:011F8D002231
:021B0500AD072A
:101B0700E4FBF52FF530900073E0B401037F012269
:101B1700788476550876AAE408F60876B208F608B7
:101B2700760AE52D08F608A62E08A605087602E42B
:101B370008F6087604AF2CAE2BAD2AAC297818121C
:101B47000B947890A607AF2CAE2BAD2AAC29781052
:101B5700120B947891A607AF2CAE2BAD2AAC29783F
:101B670008120B947892A607E52CFFE408A607F560
:101B770031F53274842532F8E62BFB0532E53270F5
:101B87000205316410453170EA7894A603752F0079
:101B9700753011E4F531F532E5301530AE2F7002AE
:101BA700152F4E601474842532F8E6FF122CE605D3
:0B1BB70032E5327002053180DF7F0153
:011BC2002200
:0825F0008F168B178A18891958
:1025F800E4FDFC900073E0B401037F0122AF05AE57
:1026080004AD16120026AC067D03120026AC06E5C2
:102618001AFD120026AC06AD1B120026AC06AD074B
:10262800AB17AA18A919851A21851B2212295EAC95
:0A26380006AD077F071226437F015D
:012642002275
:0428D9008D25AB0797
:1028DD00E4FDFC900073E0B401037F0122AF05AE6F
:1028ED0004AD03120026AC067D04120026AC06E4EE
:1028FD00FD120026AC067D01120026AC06AD251298
:0D290D000026AC06AD077F071226437F01B0
:01291A00229A
:02186E00AD07C4
:10187000E4F547F548900073E0B401037F0122AF1F
:1018800048AE471200268E478F487D051200268EEF
:10189000478F48E4FD1200268E478F4874FFFFE50E
:1018A00045FEE544FDE543FCE47BFFFAF9F8C3128D
:1018B0000B8370117D01AF48AE471200268E478F13
:1018C00048AD46807E74FFFFFEE544FDE543FCE441
:1018D0007BFF7AFFF9F8C3120B8370047D02803618
:1018E0007D04AF48AE471200268E478F48AF46AE04
:1018F00045AD44AC437818120B94AD07AF48AE47E2
:101900001200268E478F48AF46AE45AD44AC4378B3
:1019100010120B94AD07AF48AE471200268E478FCA
:1019200048AF46AE45AD44AC437808120B94AD07C2
:10193000AF48AE471200268E478F48E546FFE4AD1C
:1019400007AF481200268E478F48AD48AC477F0747
:051950001226437F0197
:01195500226F
:082CB8008C258D26120985FF11
:012CC00022F1
:082CC1008C258D26120985FF08
:012CC90022E8
:072CCA008C288D29121E6009
:012CD10022E0
:102291008F38D3855583855682E5539582E55295CE
:1022A100834015E5539556FFE5529555FEC3EF94CE
:1022B10017EE648094805047C3855583855682E527
:1022C100539582E5529583500DC3E5569553FFE52D
:1022D1005595524F6029C3900071E5539582E5529F
:1022E1009583400D7A00795A7551017552007553E5
:1022F1005A7851E475F001120C1BE5381209CB2212
:10136200E4F509F50AF50BF50CC3E568941FE5678A
:1013720094005024122BEDEFD39400401B1227C689
:101382000568E568AC6770020567142475F5827418
:10139200003CF583EFF080D1C3E5689407E56794DC
:1013A2000050030214E2C3E568950AFFE567950958
:1013B200FEC3EF9407EE940050030214AB7475253C
:1013C2000AF58274003509F583E06455600A050A5E
:1013D200E50A70D2050980CE7476250AF58274007A
:1013E2003509F583E064AA600A050AE50A70B705C3
:1013F2000980B37477250AF58274003509F583E014
:101402006004740280387479250AF5827400350903
:10141200F583E0FE747A250AF58274003509F583B6
:10142200E07C002400FFEC3ECF2407F50CE43FF5FE
:101432000BD3E50C9426E50B940040097403250AAE
:10144200F50AE4805DC3E568950AFFE5679509FE44
:10145200C3EF950CEE950B40507475250AF9740094
:101462003509FA7B01E50C24FFFDE50B34FFFC1284
:101472002A67E50A250CFDE509350BFC74742DF588
:101482008274003CF583E06F60097403250AF50A53
:10149200E4800FAF0AAE09120C51E50C250AF50AD9
:1014A200E50B3509F5090213A8C3E568950AF56845
:1014B200E5679509F567D3E5689400E56794004010
:1014C2001F7475250AF974003509752601F52789F7
:1014D2002885672985682A7B017A007975121A3472
:0114E20022E7
:102C270075510175520075535A75540175550075E4
:092C3700565A90007174FFF0225E
:05001E00313031320019
:1015C9004100B7004400B300000000014E00014B88
:1015D90000014A00014900014D00014C00014F0082
:1015E900602E00B801010302650466026701680202
:1015F90069026A026B026C026D0371017201730167
:1016090074028202830284028502860287028802AA
:02161900890244
:102B08007F55122CAD7FAA122CADE4FF122CAD7F9D
:102B180004122CADE4FF122CADE4FF122CAD7F03A0
:032B2800022CADCF
:032CE600022CAD10
:1011A400900000E0FD7F011226E790000FE0FD7F34
:1011B400711226E7900025E0FFE48F2CF52BF52A29
:1011C400F5297F03121EF8900056E0FFB4FF05E4F2
:1011D400F515801EEFB4C8057515028015EFB42807
:1011E40005751503800CEFB414057515048003759B
:1011F4001505AD157F651228D9900027E0FEA3E000
:10120400FFE48F2C8E2BF52AF5297F66121EF890A9
:10121400001AE0FD7F671226E790001DE0FFE48FCF
:101224002CF52BF52AF5297F68121EF8E47B107A39
:1012340027F9F8900009120BBA120ACDC374329F31
:10124400FFE48F2CF52BF52AF5297F69121EF8E4AB
:10125400752C0AF52BF52AF5297F6A121EF8E47518
:101264002C0BF52BF52AF5297F6B121EF8E4752C4F
:101274000CF52BF52AF5297F6C121EF87BFF7A00FA
:10128400791E751A00751B047F6D1225F0786FE6C0
:10129400FD7F721226E790000EE0FD7F731226E7B1
:1012A40090001BE0FEA3E0FFE48F2C8E2BF52AF5C3
:1012B400297F74121EF87870E6FE08E6FFE48F2C8E
:1012C4008E2BF52AF5297F82121EF87872E6FE0825
:1012D400E6FFE48F2C8E2BF52AF5297F83121EF866
:1012E4007874E6FE08E6FFE48F2C8E2BF52AF529A8
:1012F4007F84121EF87876E6FE08E6FFE48F2C8ED3
:101304002BF52AF5297F85121EF87878E6FE08E683
:10131400FFE48F2C8E2BF52AF5297F86121EF87890
:101324007AE6FE08E6FFE48F2C8E2BF52AF5297F5A
:1013340087121EF8787CE6FE08E6FFE48F2C8E2BDD
:10134400F52AF5297F88121EF8787EE6FE08E6FF66
:0E135400E48F2C8E2BF52AF5297F89021EF8D6
:102C5700122CB8900000EFF0FD7F011226E7BF01AC
:062C6700037F01227F0043
:012C6D002244
:10212500122CCA8F268E258D248C23054A900025D6
:10213500E0FFE4FCFDFEAB26AA25A924A823C312D3
:102145000B836032E4F54AF527E52725E02470F88E
:10215500E6FA08E6FB4A601585262C85252B85249D
:102165002A8523298A2D8B2E7F03121B050527E53A
:1021750027C3940840D3AF26900025EFF090002C9C
:10218500F0121956900025E0FFE48F2CF52BF52A67
:0F219500F5297F03121EF8BF01037F01227F008F
:0121A4002218
:101D1C00122CC18F2305499000B7E0B52317E5239A
:101D2C0064057035900056E0FF900026E06F602946
:101D3C00E4F5498024E4F549F524E52425E02470F4
:101D4C00F8E6FA08E6FB4A6007AD237F65121BC371
:101D5C000524E524C3940840E1E5231460101460C5
:101D6C001514601A14601F14602424057028900048
:101D7C005674FFF0802090005674C8F080189000C4
:101D8C00567428F080109000567414F0800890005F
:101D9C0026E0900056F09000B7E523F0121956900B
:101DAC0000B7E0FD7F651228D9BF01037F01227FB8
:011DBC000026
:011DBD002203
:1020A100122CCA8F268E258D248C23054D90002756
:1020B100E0FEA3E0FFE4FCFDAB26AA25A924A823AA
:1020C100C3120B836032E4F54DF527E52725E024A3
:1020D10070F8E6FA08E6FB4A601585262C85252B63
:1020E10085242A8523298A2D8B2E7F66121B0505BF
:1020F10027E527C3940840D3900027E525F0A3E501
:1021010026F0121956900027E0FEA3E0FFE48F2C81
:102111008E2BF52AF5297F66121EF8BF01037F0178
:03212100227F001A
:012124002298
:1024F400122CB88F23054B90001AE065236024E466
:10250400F54BF524E52425E02470F8E6FA08E6FB0B
:102514004A6007AD237F6712201A0524E524C3947B
:102524000840E1E52390001A7003F080037401F081
:1025340012195690001AE0FD7F671226E7BF0103C7
:052544007F01227F0071
:01254900226F
:1021A500122CCA8F268E258D248C23054C90001D5C
:1021B500E0FFE4FCFDFEAB26AA25A924A823C31253
:1021C5000B836032E4F54CF527E52725E02470F80C
:1021D500E6FA08E6FB4A601585262C85252B85241D
:1021E5002A8523298A2D8B2E7F68121B050527E555
:1021F50027C3940840D390001DE526F01219569088
:10220500001DE0FFE48F2CF52BF52AF5297F6812D8
:0A2215001EF8BF01037F01227F00C5
:01221F00229C
:101DBE00122CCA8F268E258D248C23054F9000B3AE
:101DCE00120BBAAB26AA25A924A823C3120B836033
:101DDE0032E4F54FF527E52725E02470F8E6FA08FA
:101DEE00E6FB4A601585262C85252B85242A85231E
:101DFE00298A2D8B2E7F69121B050527E527C39493
:101E0E000840D3AF26AE25AD24AC239000B3120B01
:101E1E00D2C374329526FFE49525FEE49524FDE4A5
:101E2E009523FCE47B107A27F9F8120A42900009F8
:101E3E00120BD21219569000B3120BBA8F2C8E2B96
:101E4E008D2A8C297F69121EF8BF01037F01227F24
:011E5E000083
:011E5F002260
:102B2B00122CCA8F268E258D248C238F2C8E2B8DC9
:102B3B002A8C297F6A121EF8BF01037F01227F00B6
:012B4B002267
:102B4C00122CCA8F268E258D248C238F2C8E2B8DA8
:102B5C002A8C297F6B121EF8BF01037F01227F0094
:012B6C002246
:102B6D00122CCA8F268E258D248C238F2C8E2B8D87
:102B7D002A8C297F6C121EF8BF01037F01227F0072
:012B8D002225
:10243800122CB88F23054E90000FE065236024E42A
:10244800F54EF524E52425E02470F8E6FA08E6FBC5
:102458004A6007AD237F7112201A0524E524C3942E
:102468000840E1E523700690000FF0801190001AF3
:10247800E0B40104786E760190000F7401F09000CA
:102488000FE0FD7F711226E7BF01037F01227F0065
:012498002221
:10273600122CB88F23E523786F666022E4F524E532
:102746002425E02470F8E6FA08E6FB4A6007AD2384
:102756007F7212201A0524E524C3940840E1E5237C
:10276600786F7003F680027601AD237F721226E73A
:08277600BF01037F01227F0077
:01277E002238
:10285200122CB88F2390000EE065236022E4F52449
:10286200E52425E02470F8E6FA08E6FB4A6007ADA5
:10287200237F7312201A0524E524C3940840E190B3
:10288200000EE523F0FD7F731226E7BF01037F01EF
:03289200227F00A2
:012895002220
:061749008B1D8A1E891FA2
:10174F00EF120C2B177E0117AD0317BD6517CD6672
:10175F0017DD6717EC6817FB69180A6A18196B18F9
:10176F00286C18377118467218557300001866AB3D
:10177F001DAA1EA91FAD21AC20122C578F22E522C6
:10178F006401600302186B90003AE004F0E0C39428
:10179F0005500302186BE4F0122B0802186BAB1DF7
:1017AF00AA1EA91FAD21AC20122125021862AB1D64
:1017BF00AA1EA91FAD21AC20121D1C021862AB1D61
:1017CF00AA1EA91FAD21AC201220A1021862AB1DC9
:1017DF00AA1EA91FAD21AC201224F48076AB1DAA3E
:1017EF001EA91FAD21AC201221A58067AB1DAA1E1B
:1017FF00A91FAD21AC20121DBE8058AB1DAA1EA97A
:10180F001FAD21AC20122B2B8049AB1DAA1EA91F87
:10181F00AD21AC20122B4C803AAB1DAA1EA91FADD7
:10182F0021AC20122B6D802BAB1DAA1EA91FAD2141
:10183F00AC20122438801CAB1DAA1EA91FAD21ACF1
:10184F0020122736800DAB1DAA1EA91FAD21AC207B
:0E185F001228528F228000E490003AF0AF224F
:01186D002258
:032CE9007F172230
:101956007F007E2F122AE37F107E27122C80E47BE5
:10196600E87A03F9F8900009120BBA120ACD780842
:10197600120B947D007C2F122ABC7F647E00122CF1
:1019860080E47BE87A03F9F8900009120BBA120A90
:10199600CDE47D017C2F122ABC7F647E00122C8050
:1019A600900056E0FF7D027C2F122ABC7F647E00E9
:1019B600122C80900027E0FF7D037C2F122ABC7F2B
:1019C600647E00122C80900027A3E0FF7D047C2F0C
:1019D600122ABC7F647E00122C80900025E0FF7DD9
:1019E600057C2F122ABC7F647E00122C8090001D7D
:1019F600E0FF7D067C2F122ABC7F647E00122C80BD
:101A060090001AE0F4FF7D077C2F122ABC7F647ECB
:101A160000122C807F807E2F122AE37F107E2712F1
:0D1A26002C807D807C2FE4FF122ABCD2AF03
:011A33002290
:0F2C92003667736A6E36767300312E302E30003F
:03161B000150007B
:10002600749A2FF974003EFA7B01ED1209CB0FBFCB
:0300360000010EB8
:0100390022A4
:06295800AF157E007BFFBD
:0A295E008E1C8F1D8B1E8A1F89201E
:10296800749A2FF974003EFA7B01851E26851F276D
:1029780085202885212985222A121A34E522251D39
:0B298800F51DE521351CF51CFEAF1D00
:012993002221
:10291B008B2F8A3089318C328D33E94A4B602DE510
:10292B003345326027E5331533AE32700215324E24
:10293B00601AAB2FAA30A931120985FF122CE6744D
:0D294B00012531F531E43530F53080D92219
:0A2A67008B2F8A3089318C328D33B9
:102A7100E4FFFDFCC3ED9533EC95325015782FE45E
:102A810075F001120C1B1209852FFF0DBD00010C01
:022A910080E2E1
:012A93002220
:042643008C2D8D2E1F
:102647009000947455F0A374AAF0E4A3F0A3EFF0FC
:10265700E52DA3F0E52EA3F02407F52EE4352DF59F
:102667002D7B017A007994E52E24FFFDE52D34FFBB
:10267700FC122A677493252EF5827400352DF58395
:0F268700EFF07B017A007994AD2EAC2D02291B68
:0423D2008C698D6A1B
:1023D6007402256AF56AE43569F5699000947455C6
:1023E600F0A374AAF0E4A3F0A3EFF0E569A3F0E587
:1023F6006AA3F0A374FFF0A3F07407256AF56AE4F4
:102406003569F5697B017A007994E56A24FFFDE573
:102416006934FFFC122A677493256AF582740035C5
:1024260069F583EFF07B017A007994AD6AAC6902B5
:02243600291B60
:102BAF00E4FFE550700AFEFD120026755001800704
:102BBF007E007D01120026EFFD7C00E4FF0226431C
:1029CC00E4F5157BFF7A2C799212254A8E218F2201
:1029DC007A2C79921229588F157BFF7A2C799B12BD
:1029EC00254A8E218F227A2C799B1229588F15EF2C
:0829FC00FD7C007F010226436F
:082CD200E4FDFC7F0202264331
:022B8E008F1C9A
:102B9000122CE9E4FEEEC39F501275F002EE900095
:0E2BA000B8120C0FE0651C60030E80E9AF0652
:012BAE002204
:062499008B158A1689175D
:10249F00120985F51890000112099EF51990000296
:1024AF0012099E751B00F51A90000312099E251B39
:1024BF00F51BE4351AF51AAF18122B8E75F002EFD3
:1024CF009000B9120C0FE0651960037F0022AB1565
:1024DF00E5172404F9E43516FA851A20851B21AF78
:0424EF00181217495F
:0124F30022C6
:040C51008E0D8F0E67
:100C550074782FF58274003EF583E0FF120C2B0C9F
:100C650080000C83010C86020C89030CA2040CA9DC
:100C7500060F64080D44B400000F67022BAF02296C
:100C8500CC022CD2747B250EF5827400350DF583CC
:100C9500E0900071F0E4FDFC7F03022643900074B0
:100CA5007401F0227479250EF5827400350DF583F3
:100CB500E0751400F513747A250EF5827400350D70
:100CC500F583E02514F514E43513F513E4F511F572
:100CD50012C3E5129514E51195134003020F67E55C
:100CE5000E2512FDE50D3511FC747D2DF582740080
:100CF5003CF583E0751000F50F747E2DF5827400C8
:100D05003CF583E02510F510E4350FF50F747B25D0
:100D15000EF97400350DFA7B01E92512F9EA351152
:100D2500FA122499BF0103121956E5102404FFE4B1
:100D3500350FFEEF2512F512EE3511F5118092747F
:100D450079250EF5827400350DF583E0751400F5EF
:100D550013747A250EF5827400350DF583E025149C
:100D6500F514E43513F513747C250EF582740035FE
:100D75000DF583E0F8E47971F7E819F7747D250E30
:100D8500F5827400350DF583E0787126F618E436A2
:100D9500F6747E250EF5827400350DF583E0F8E4D2
:100DA5007973F7E819F7747F250EF5827400350D10
:100DB500F583E0787326F618E436F67480250EF58B
:100DC500827400350DF583E0F8E47975F7E819F7D5
:100DD5007481250EF5827400350DF583E07875264E
:100DE500F618E436F67482250EF5827400350DF595
:100DF50083E0F8E47977F7E819F77483250EF5822F
:100E05007400350DF583E0787726F618E436F67428
:100E150084250EF5827400350DF583E0F8E47979C3
:100E2500F7E819F77485250EF5827400350DF583FD
:100E3500E0787926F618E436F67486250EF5827480
:100E450000350DF583E0F8E4797BF7E819F7748749
:100E5500250EF5827400350DF583E0787B26F618AE
:100E6500E436F67488250EF5827400350DF583E0B9
:100E7500F8E4797DF7E819F77489250EF582740091
:100E8500350DF583E0787D26F618E436F6748A2567
:100E95000EF5827400350DF583E0F8E4797FF7E807
:100EA50019F7748B250EF5827400350DF583E078FE
:100EB5007F26F618E436F67870E6FE08E6FFE48F3E
:100EC5002C8E2BF52AF5297F82121EF87872E6FE04
:100ED50008E6FFE48F2C8E2BF52AF5297F83121E59
:100EE500F87874E6FE08E6FFE48F2C8E2BF52AF5DC
:100EF500297F84121EF87876E6FE08E6FFE48F2C3B
:100F05008E2BF52AF5297F85121EF87878E6FE08DE
:100F1500E6FFE48F2C8E2BF52AF5297F86121EF825
:100F2500787AE6FE08E6FFE48F2C8E2BF52AF52964
:100F35007F87121EF8787CE6FE08E6FFE48F2C8E8C
:100F45002BF52AF5297F88121EF8787EE6FE08E63D
:100F5500FFE48F2C8E2BF52AF5297F89021EF812C6
:020F650011A4D5
:010F67002267
:102BED00E5548555838556826551700AE553658296
:0E2BFD007004E552658360037F01227F002291
:1027C600AB54AA55A956E551855283855382655463
:1027D600700AE55665827004E55565836028C390E6
:1027E6000071E5569582E5559583400D7A00795A34
:1027F60075540175550075565A7854E475F00112F2
:062806000C1B120985FF06
:01280C0022A9
:10072E00020970E86480F8E933E83360110460F080
:10073E00ED33EC337009E8FCE9FDEAFEEBFF220431
:10074E0060DED3EB9FEA9EE99DE8C2E78CF0C2F72C
:10075E0095F0400CE8CCF8E9CDF9EACEFAEBCFFBF8
:10076E0012093B85D0F05804700320D5B3E804700D
:10077E00075002B2D502097A92D5EC0460F7E4CCA8
:10078E00C0E0C398F8603B94186008400DD0E0FBC1
:10079E00020952E4FBFAC9FC8028E830E406E4C9F9
:1007AE00FBE4CAFCE830E305E4C9CACBFCE8540715
:1007BE006010F8C3E913F9EA13FAEB13FBEC13FC20
:1007CE00D8F130F52FC3E49CFCEF9BFFEE9AFEEDC3
:1007DE0099FDD0E0FBEF4E4D4C701222DB03020967
:1007EE0077EC2CFCEF33FFEE33FEED33FDED30E70F
:1007FE00EB020952EF2BFFEE3AFEED39FDD0E0FB96
:10080E0050130BBB000302097AED13FDEE13FEEF3E
:08081E0013FFEC13FC02095268
:1008260002097AEC5D046005E85904700302097058
:1008360012093B580460F6EC4860F2EC7004FDFEC9
:10084600FF22C860DB2481C85009C39860025006A5
:100856000209779850CAF582E9294B4A7005AB829E
:1008660002096675F0007C1A7880C3EF9BEE9AED5C
:1008760099400DC3EF9BFFEE9AFEED99FDE842F01D
:10088600DC23ACF0D0E0FFD0E0FED0E0FDAB822070
:10089600E7101BEB60BAEC2CFCEF33FFEE33FEEDFA
:1008A60033FD020952E803F830E705C0F075F000A1
:1008B600EF2FFFEE33FEED33FD40B830E7C280AADE
:1008C60075F020800E75F010800575F0087D007EAD
:1008D600007F003392D530D503120B5FEC33401006
:1008E600EF33FFEE33FEED33FDEC33FCD5F0ED22B6
:0E08F600E5F0247EA2D513CC92E7CDCEFF22F2
:10090400EDD2E7CD33EC3392D524814006E4FFFEEB
:10091400FDFC22FCE4CFCECDCC24E0501174FF804A
:10092400EDC3CC13CCCD13CDCE13CECF13CF0470E7
:07093400F030D5DE020B5F7D
:10093B00E9D2E7C933E833F892D5EDD2E7CD33EC02
:07094B0033FC5002B2D5227B
:10095200EC30E7100FBF000C0EBE00080DBD000406
:100962000BEB6014A2D5EB13FCED92E7FD2274FFB2
:10097200FCFDFEFF22E480F8A2D574FF13FC7D800B
:03098200E480EF1F
:101F9A00020F68E493A3F8E493A34003F68001F2E6
:101FAA0008DFF48029E493A3F85407240CC8C33348
:101FBA00C4540F4420C8834004F456800146F6DF17
:101FCA00E4800B01020408102040809014E3E47EB0
:101FDA00019360BCA3FF543F30E509541FFEE4930C
:101FEA00A360010ECF54C025E060A840B8E493A3D3
:101FFA00FAE493A3F8E493A3C8C582C8CAC583CAFE
:10200A00F0A3C8C582C8CAC583CADFE9DEE780BEB5
:01161E0000CB
:10098500BB010689828A83E0225002E722BBFE0270
:09099500E32289828A83E49322A3
:10099E00BB010CE58229F582E5833AF583E022500E
:1009AE0006E92582F8E622BBFE06E92582F8E22258
:0D09BE00E58229F582E5833AF583E4932272
:1009CB00BB010689828A83F0225002F722BBFE010B
:0209DB00F32205
:1009DD00F8BB010DE58229F582E5833AF583E8F050
:1009ED00225006E92582C8F622BBFE05E92582C8FC
:0209FD00F222E4
:1009FF00EF8DF0A4A8F0CF8CF0A428CE8DF0A42E0C
:020A0F00FE22C5
:100A1100C5F0F8A3E028F0C5F0F8E5821582700270
:060A21001583E038F0220D
:0D0A2700EF2BFFEE3AFEED39FDEC38FC221E
:0E0A3400C3EF9BFFEE9AFEED99FDEC98FC22BD
:100A4200E88FF0A4CC8BF0A42CFCE98EF0A42CFC53
:100A52008AF0EDA42CFCEA8EF0A4CDA8F08BF0A4D1
:100A62002DCC3825F0FDE98FF0A42CCD35F0FCEB30
:100A72008EF0A4FEA9F0EB8FF0A4CFC5F02ECD39F5
:0F0A8200FEE43CFCEAA42DCE35F0FDE43CFC2262
:100A910075F008758200EF2FFFEE33FECD33CDCC1C
:100AA10033CCC58233C5829BED9AEC99E58298409F
:100AB1000CF582EE9BFEED9AFDEC99FC0FD5F0D67C
:100AC100E4CEFBE4CDFAE4CCF9A88222B800C1B9A6
:100AD1000059BA002DEC8BF084CFCECDFCE5F0CBE4
:100AE100F97818EF2FFFEE33FEED33FDEC33FCEB1D
:100AF10033FB10D703994004EB99FB0FD8E5E4F9D8
:100B0100FA227818EF2FFFEE33FEED33FDEC33FCC4
:100B1100C933C910D7059BE99A4007EC9BFCE99AB8
:100B2100F90FD8E0E4C9FAE4CCFB2275F010EF2FFD
:100B3100FFEE33FEED33FDCC33CCC833C810D707FD
:100B41009BEC9AE899400AED9BFDEC9AFCE899F838
:0E0B51000FD5F0DAE4CDFBE4CCFAE4C8F922CB
:0E0B5F00C3E49FFFE49EFEE49DFDE49CFC22A7
:100B6D00EB9FF5F0EA9E42F0E99D42F0EC6480C8FF
:060B7D0064809845F0229F
:100B8300EB9FF5F0EA9E42F0E99D42F0E89C45F0C8
:010B9300223F
:100B9400E8600FECC313FCED13FDEE13FEEF13FF3F
:030BA400D8F12263
:100BA700E8600FEFC333FFEE33FEED33FDEC33FCAC
:030BB700D8F12250
:0C0BBA00E0FCA3E0FDA3E0FEA3E0FF22AE
:0C0BC600E0F8A3E0F9A3E0FAA3E0FB22B2
:0C0BD200ECF0A3EDF0A3EEF0A3EFF02296
:100BDE00A8828583F0D083D082120BF5120BF5120A
:100BEE000BF5120BF5E473E493A3C583C5F0C5832F
:100BFE00C8C582C8F0A3C583C5F0C583C8C582C861
:010C0E0022C3
:0C0C0F00A42582F582E5F03583F58322F0
:100C1B00FAE6FB0808E6F925F0F618E6CA3AF622DA
:100C2B00D083D082F8E4937012740193700DA3A358
:100C3B0093F8740193F5828883E47374029368606C
:060C4B00EFA3A3A380DF6C
:00000001FF
