:0300000002208952
:0C208900787FE4F6D8FD7581940220D029
:1015D300045700000000410002004100360C4100A6
:1015E300374044002E0000000044001200000000B9
:1015F3004400160000000044004B000000004400BB
:101603003B000000004400520000000042002200A2
:101613000142001000004100060041002B0042007F
:101623005700004200070000410000084100390054
:1016330041005900015B00015C0041005000410082
:101643000F0041001A014100250A41003A00410000
:10165300380A41002A0041002C00420004000041E6
:10166300000100028200000280000041000D0041E1
:10167300004F0041002D001070000000000000002A
:10168300000000000000000000016C00016D00017B
:101693006F00016E00016B0041000E0042001B0051
:1016A300004A00410000000000000000000041006B
:0216B300030032
:102AF3008E098F0A8B0B8A0C890DAF051DEF60269B
:102B0300050AE50AAE097002050914F5828E83E40D
:102B130093FFAB0B050DE50DAA0C7002050C14F920
:072B2300EF120C1080D42218
:102D8300E4FDFCC3ED9FEC9E50070DBD00010C80DC
:012D9300F24D
:012D9400221C
:102B8D008F828E83E4F55AF559F558F557AF82AE1D
:102B9D0083E4FCFDAB5AAA59A958A857C3120D9747
:082BAD00500543BD1080E62233
:102D9500E4FDFCC3ED9FEC9E50070DBD00010C80CA
:012DA500F23B
:012DA600220A
:10000300758E5190FE917401F0A37410F075BD5F6D
:0700130090FEA07420F02212
:102CCD00E490FE80F0758901758DFA758BCB43A864
:0E2CDD0008438840758CCB758AEB4388102223
:102B5C0090FF10E054F04408F090FF02E054F04471
:102B6C0002F0D28490FFA07420F0A37404F075CC12
:102B7C000675CEFF75CD98759E0275981043A810FA
:012B8C002226
:102D3E0043B40343B4807F147E00122D8375B50116
:072D4E0090FE9B744BF02284
:102D090090FF08E054F04408F090FF00E0540F44AD
:0C2D190030F090FF11E054F04403F02271
:0B2DC2008F99E59830E1FB5398FD224B
:1028F9008FB543B440E5B430E5FB53B4DF7F647E64
:1029090000122D83E4FBFAF943B440E5B430E5FB4A
:1029190053B4DFE5B62BFBE5B73AFA7F147E001214
:102929002D8309B910E275B501A9027F647E0012F1
:042939002D83AF013A
:01293D002277
:10147D007B017A0079417D0A7F007E2F122AF3903D
:10148D000041E0FFE4FCFDFE900009120DCE90003E
:10149D0009E0FCA3E0FDA3E0FEA3E0FF7808120D38
:1014AD00BB900009120DCE900009E0F8A3E0F9A35E
:1014BD00E0FAA3E0FB900042E0FFE4FCFDFEEB2F21
:1014CD00FFEE3AFEED39FDEC38FC900009120DCE21
:1014DD00900009E0FCA3E0FDA3E0FEA3E0FFE47BA8
:1014ED00E87A03F9F8120C56900009120DCEE47F3C
:1014FD00307E75FDFC900009E0F8A3E0F9A3E0FA59
:10150D00A3E0FBC3120D9740177F007E097D3D7C44
:10151D0000900009E0F8A3A3A3E0D3120D97400AB1
:10152D00900009120DDA00009C40900043E09000FD
:10153D0056F070028007900056E0B4FE0374FFF081
:10154D00900044E0FF900027E4F0A3EFF0E0F8E412
:10155D00F0E8900027F0900045E0FF900028E02F84
:10156D00F0900027E03400F0E0FEA3E0FF4E6009AC
:10157D00D3EF9408EE94074009900027E4F0A3748C
:10158D0005F0900046E0900025F090002CF09000C2
:10159D0047E090001DF06006E0D394FF40069000F8
:1015AD001D7401F0900048E0540190001AF07B0189
:1015BD007A0079037D017F807E2F122AF39000033C
:0615CD00E090002AF0226C
:10003E00E55B600302092743B440E5B430E5FB53AA
:10004E00B4DF85B70985B60A900011E004F070069A
:10005E00900010E004F0900052E0F8A3E0F9A3E065
:10006E00FAA3E0FBE4FCFDEB250AFFEA3509FEED01
:10007E0039FDEC38FC900052120DCE90003FE0FEA0
:10008E00A3E0FFC3950AEE9509500DC3E50A9FF54F
:10009E000AE5099EF509800BC3EF950AF50AEE9560
:1000AE0009F509900016E0F8A3E0F9A3E0FAA3E041
:1000BE00FBE4FCFDEB250AFFEA3509FEED39FDEC0C
:1000CE0038FC900016120DCE900010E05401FEA3E5
:1000DE00E04E7061D3900058E09400900057E09489
:1000EE00004017900038E094645042E02402F0E0A3
:1000FE00D3946440387464F08033900007E0700449
:10010E00A3E06401702F900025E0FF900038E0FE20
:10011E00D39F4019EE94024004E024FEF090003884
:10012E00E0C39F5008900025E0900038F090003812
:10013E00E0FF1227C9C3900010E09420500302097B
:10014E007243BD10E4F0A3F0900039E004F090008B
:10015E003BE0FCA3E0FDA3E0FEA3E0FF900052E035
:10016E00F8A3E0F9A3E0FAA3E0FBEF2BFFEE3AFED3
:10017E00ED39FDEC38FC90003B120DCE900039E0CD
:10018E00C394084043E4F090003BE0FCA3E0FDA3E1
:10019E00E0FEA3E0FF7810120DA890003B120DCEEA
:1001AE0090003BA3A3E0FEA3E0FF900040E02FF001
:1001BE0090003FE03EF0E0C313F0A3E013F0900098
:1001CE003B120DDA00000000900000E0C3940850CE
:1001DE0005E004F08056900057E07002A3E0704CEA
:1001EE007F0A1228F9900026EFF0900051E0FE24CD
:1001FE0002FDE433FCEFD39DEC6480F874809850DC
:10020E001E900026E02402FDE433FCEED39DEC6448
:10021E0080F87480985008900051E0900026F0907D
:10022E000026E0900051F0E4900000F0E4FFFEFDA7
:10023E00FC900012E0F8A3E0F9A3E0FAA3E0FBC300
:10024E00120D97704F900016E0FCA3E0FDA3E0FEA8
:10025E00A3E02488FFEE3413FEE43DFDE43CFC9065
:10026E000012120DCE900022E07002A3E070257FE6
:10027E00407E427D0FFC900012E0F8A3E0F9A3E06F
:10028E00FAA3E0FBD3120D97400A900012120DDA7A
:10029E00000F4240900002E0701E900016E0FCA39A
:1002AE00E0FDA3E0FEA3E0FF90002E120DCE900025
:1002BE001E120DDA0000000190001EE0FCA3E0FD0E
:1002CE00A3E0FEA3E0FF900016E0F8A3E0F9A3E0A0
:1002DE00FAA3E02FFFEA3EFEE93DFDE83CFC90006C
:1002EE002EE0F8A3E0F9A3E0FAA3E0FBC3120D970A
:1002FE0040030206C490001EE0FCA3E0FDA3E0FE56
:10030E00A3E0FF90002EE0F8A3A3A3E02FFFEA3EA8
:10031E00FEE93DFDE83CFC900016E0F8A3E0F9A3F1
:10032E00E0FAA3E0FBC3120D9740030206C490004F
:10033E0002E004F090004BE0FCA3E0FDA3E0FEA37E
:10034E00E0FF900016E0F8EF2BFFEE3AFEED39FDE0
:10035E00EC38FC90004B120DCE900002E0FBE4FA5C
:10036E00F9F890004BE0FCA3E0FDA3E0FEA3E0FF54
:10037E00120CE190002E120DCE90002EE0FCA3E0A8
:10038E00FDA3E0FEA3E0FF7803120DA890001E125D
:10039E000DCEE47F207E4EFDFC90001EE0F8A3E023
:1003AE00F9A3E0FAA3E0FBC3120D97500A90001ECA
:1003BE00120DDA00004E20E47F607EEAFDFC900014
:1003CE001EE0F8A3E0F9A3E0FAA3E0FBD3120D9729
:1003DE00400A90001E120DDA0000EA6090002EE036
:1003EE00FCA3E0FDA3E0FEA3E0FF900012E0F8A363
:1003FE00E0F9A3E0FAA3E0FBD3120D97407390004F
:10040E002EE0F8A3E0F9A3E0FAA3E0FB900012E0DF
:10041E00FCA3E0FDA3E0FEA3E09BFFEE9AFEED99A8
:10042E00FDEC98FC900052120DCE7F807E387D013F
:10043E007C00900052E0F8A3E0F9A3E0FAA3E0FB01
:10044E00D3120D9740089000367406F08029E47F91
:10045E00407E9CFDFC900052E0F8A3E0F9A3E0FA88
:10046E00A3E0FBD3120D9790003640087409F0807C
:10047E0006900036740CF0900036E0FF900002E01B
:10048E00C39F500302055C900012E0FCA3E0FDA3A5
:10049E00E0FEA3E0FF90002EE0F8A3E0F9A3E0FA5F
:1004AE00A3E0FB120D97400302055C900037E09429
:1004BE001050030206D3900036E0D39409501090EA
:1004CE00002EE0FCA3E0FDA3E0FEA3E0FF8076900B
:1004DE00002EE0FCA3E0FDA3E0FEA3E024A0FFEECF
:1004EE00340FFEE43DFDE43CFC900012E0F8A3E086
:1004FE00F9A3E0FAA3E0FBD3120D9750030206C452
:10050E00900012E0FCA3E0FDA3E0FEA3E0FF90004C
:10051E002EE0F8A3E0F9A3E0FAA3E0FBEF2BFFEE49
:10052E003AFEED39FDEC38FC900012120DCE900023
:10053E0012E0FCA3E0FDA3E0FEA3E0FFE47B02FAE1
:10054E00F9F8120CE1900012120DCE0206C49000C2
:10055E0037E0FF900002E0C39F50030206D39000E5
:10056E0012E0FCA3E0FDA3E0FEA3E024A0FFEE3426
:10057E000FFEE43DFDE43CFC90002EE0F8A3E0F914
:10058E00A3E0FAA3E0FBD3120D9750030206B4903A
:10059E000012E0F8A3E0F9A3E0FAA3E0FB90002E2E
:1005AE00E0FCA3E0FDA3E0FEA3E09BFFEE9AFEEDD0
:1005BE0099FDEC98FC900052120DCE7F007E127DBC
:1005CE007A7C0090002EE0F8A3E0F9A3E0FAA3E015
:1005DE00FBC3120D9740030206B47F807E1A7D0680
:1005EE007C00900052E0F8A3E0F9A3E0FAA3E0FB50
:1005FE00C3120D9740030206B4900037E0941040EA
:10060E000280587FE07E937D047C00900052E0F8DB
:10061E00A3E0F9A3E0FAA3E0FBD3120D97400890F4
:10062E0000377410F080277FF07E497D027C0090A9
:10063E000052E0F8A3E0F9A3E0FAA3E0FBD3120D19
:10064E00979000374005740CF080037408F090000A
:10065E0037E0FF900002E0C39F404B900012E0FC99
:10066E00A3E0FDA3E0FEA3E0FF90002EE0F8A3E0E0
:10067E00F9A3E0FAA3E0FBEF2BFFEE3AFEED39FD16
:10068E00EC38FC900012120DCE900012E0FCA3E0AC
:10069E00FDA3E0FEA3E0FFE47B02FAF9F8120CE101
:1006AE00900012120DCE900037E0FF900002E0C3D2
:1006BE009F4012E48004E4900002F090004B120D73
:1006CE00DA0000000090002BE0D3940050030207E4
:1006DE0067E014F0900032E0FCA3E0FDA3E0FEA37F
:1006EE00E02470FFEE3417FEE43DFDE43CFC900088
:1006FE0012E0F8A3E0F9A3E0FAA3E0FBD3120D9702
:10070E0050030208E3900032E0FCA3E0FDA3E0FEFC
:10071E00A3E02498FFEE343AFEE43DFDE43CFC9069
:10072E000016E0F8A3E0F9A3E0FAA3E0FBC3120D74
:10073E009740030208E3900032E0FCA3E0FDA3E043
:10074E00FEA3E02470FFEE3417FEE43DFDE43CFC16
:10075E00900012120DCE0208E3D3900023E0940015
:10076E00900022E094005003020828A3E024FFF03A
:10077E00900022E034FFF0D3A3E09400900022E03A
:10078E00940050030208287F007E127D7A7C009030
:10079E000012E0F8A3E0F9A3E0FAA3E0FBD3120DF8
:1007AE0097400C900009120DDA000C3500806B900A
:1007BE000009E0FCA3E0FDA3E0FEA3E0FF90001221
:1007CE00E0F8A3E0F9A3E0FAA3E02FFFEA3EFEE98A
:1007DE003DFDE83CFC900052120DCE7F407E547DD4
:1007EE00897C00900052E0F8A3E0F9A3E0FAA3E0C0
:1007FE00FBD3120D974023900012E0F8A3E0F9A36B
:10080E00E0FAA3E0FB74409BFF74549AFE7489993E
:10081E00FDE498FC900009120DCE900009E0FCA3B7
:10082E00E0FDA3E0FEA3E0FF900012E0F8A3E0F9E4
:10083E00A3E0FAA3E02FFFEA3EFEE93DFDE83CFC13
:10084E00A3E0F8A3E0F9A3E0FAA3E0FBD3120D971F
:10085E0050030208E3900056E0FF900026E0D39F7D
:10086E00400FD3900023E09400900022E0940040CB
:10087E0064900057E07002A3E07014900012E0FC48
:10088E00A3E0FDA3E0FEA3E0FF900032120DCE9098
:10089E000057E4F0A304F0786EF690001CE004F02C
:1008AE00700690001BE004F090001BE0FEA3E0FF3A
:1008BE00E48F2C8E2BF52AF5297F74121FF39000EE
:1008CE00377408F0E4900007F0A3F07882F608F68B
:1008DE007880F608F6900052120DDA0000000090B3
:1008EE000016120DDA00000000900057E0FEA3E0A3
:1008FE00FFD39400EE9400406B900027E0FCA3E041
:10090E00FDD3EF9DEE9C405CE4900057F0A3F07594
:10091E005B01786EF6786BF622900007E4F0A30484
:10092E00F0E4F55B900004F0A3F0900001F07FFA84
:10093E00FE122B8D90003B120DDA00000000E490A9
:10094E000039F09000377440F090002B7402F09054
:10095E0000007406F0E4900002F090004B120DDAE5
:04096E000000000085
:010972002262
:10222000E4F50A900052120DDA00000000E4F5090E
:1022300043B440E5B430E5FB53B4DF900052E0F81E
:10224000A3E0F9A3E0FAA3E0FBAFB6AEB7E4FCFD70
:10225000EB2FFFEA3EFEED39FDEC38FC9000521208
:102260000DCE0509E509B480C77F907E01122B8D44
:10227000900052E0FCA3E0FDA3E0FEA3E0FF780B9A
:10228000120DA88F09E509D3940C400CE509948D33
:102290005006E50A9414500A050AE50AD394504002
:0222A000822298
:0122A2002219
:10232300900052120DDA00000000E4F509E4F50C08
:10233300F50D43B440E5B430E5FB53B4DF85B70A8C
:1023430085B60B900052E0F8A3E0F9A3E0FAA3E00E
:10235300FBE4FCFDEB250BFFEA350AFEED39FDEC52
:1023630038FC900052120DCE050DE50D7002050CE0
:10237300B400BFE50CB420BA43BD100509E509B4A8
:1023830008AB900052E0FCA3E0FDA3E0FEA3E0FF56
:0D2393007810120DA890003FEEF0A3EFF0BF
:0123A000221A
:1027C900BF0104E4FE80397E007C007DFF120C44C9
:1027D900AC06AD07E4120B10E4FBFA79C878421293
:1027E9000A6E8F0E8E0D8D0C8C0BE4FFFEFD7C3F67
:1027F900AB0EAA0DA90CA80B12097A120B49AE0748
:1028090090FF9C7410F075DEFF8EDF75DD947F00FC
:01281900229C
:1010B500122D25120003122D097F641227C9122C47
:1010C500CD122B5C122D3E75BBAA90FEA774FFF0C6
:1010D50053BBF7D2AF7FC87E00122B8D7F641227DA
:1010E500C99000507401F07F0A1228F9900026EF8C
:1010F500F0900051F0C2AF12147D90002AE004F088
:101105007F807E2F122C027F107E27122D95900056
:101115002AE0FF7D807C2F122BB57F647E00122D87
:1011250095D2AF122220900025E0FF900038F012F2
:1011350027C97F2C7E01122B8D122323900052127A
:101145000DDA0000000090002AE0C394034005E496
:10115500F0122C27786DE6D39402502A18E6640124
:101165007024F608067F55122DC27FAA122DC2E4FF
:10117500FF122DC27FB4122DC2E4FF122DC2122D13
:10118500C27FB3122DC243BD10E55B700B900011F9
:10119500E0541F70031212FC90001AE06401600312
:1011A5000212A6E55C703DF55B755C01900025E0DB
:1011B500900038F090003B120DDA00000000E4903A
:1011C5000039F09000377440F090002B7402F090D5
:1011D50000007406F0E4900002F090004B120DDA66
:1011E5000000000012003ED3900008E0940090003B
:1011F50007E09400403B900001E0B40134E4F09036
:101205000008E004F07006900007E004F090001D6F
:10121500E0FFC3900008E09F900007E094004011B4
:10122500E4F0A3F090000EE064016005E4FF1227EE
:10123500C9D3900058E09400900057E094004018FE
:101245007881E664011846700FF608F6A3E004F00D
:101255007006900057E004F0786FE66401600302C1
:10126500114B18E6FF786B66700302114BA60790C9
:101275000057E4F0A304F0E4F508E508C39408403A
:101285000302114BE50825E02470F8E6FA08E6FBB1
:101295004A600A90000FE0FD7F7112211505088054
:1012A500D9E4F55C90000FE07007FF1227C9021121
:1012B5004B90002CE0FF1227C9E4F55B900025E078
:1012C500900038F090003B120DDA00000000E49029
:1012D5000039F09000377440F090002B7402F090C4
:1012E50000007406F0E4900002F090004B120DDA55
:0712F5000000000002114B94
:03001B00021E08BA
:101E0800C0E0C0F0C083C082C0D075D000C000C0A0
:101E180001C002C003C004C005C006C007AF5AAE67
:101E280059AD58AC57EF2401F55AE43EF559E43D55
:101E3800F558E43CF557900005E004F07006900072
:101E480004E004F0900004E0FEA3E0FFE4FCFD7B66
:101E5800607AEAF9F8D3120D81500C900004E4F08E
:101E6800A3F090000104F0788306E618700106C319
:101E78007883E694E818E694034012786C76017843
:101E880082760008760078807600087601D007D040
:101E980006D005D004D003D002D001D000D0D0D0D5
:081EA80082D083D0F0D0E032BB
:030023000228B2FE
:1028B200C0E0C0F0C083C082C0D075D000C000C0EC
:0D28C20001C002C003C004C005C006C0076D
:0F28CF00E59830E00AAF9912248D5398FED2AFEE
:1028DE00D007D006D005D004D003D002D001D0004E
:0B28EE00D0D0D082D083D0F0D0E032F8
:03003B0002001AA6
:01001A0032B3
:102C020053BBF7C280E5BB20E3F6D280C2AF75FDAD
:102C1200F075FC0F8EFA8FF975FDD275FC2D75FDDE
:052C2200E175FC1E221B
:102BB50053BBF7C280E5BB20E3F6D280C2AF8FFBE3
:102BC50075FDF075FC0F8CFA8DF975FDB475FC4B30
:072BD50075FDE175FC1E22F5
:0416B50002670000C8
:10241C00EFC39430400CEFD39439500674D02FFF97
:10242C008022EFC39441400CEFD394465006EF2426
:10243C00C9FF8010EFC39461400AEFD39466500437
:10244C00EF24A9FFEF540FC454F0FFEDC3943040B8
:10245C000CEDD39439500674D02DFD801EEDC39431
:10246C00414008EDD394465002800CEDC39461407A
:10247C000AEDD394665004ED24A9FDED540F4207E8
:01248C00222D
:06267B008B168A17891876
:10268100E4F51CF51BF51AF519E94A4B7005FFFE37
:10269100FDFC22E4F51CF51BF51AF519AB1605181E
:1026A100E518AA177002051714F9120BCA6017E58D
:1026B1001C2401F51CE4351BF51BE4351AF51AE45D
:0E26C1003519F51980D6AF1CAE1BAD1AAC1939
:0126CF0022E8
:062A05008B398A3A893B7F
:102A0B008B3F8A408941E94A4B7004FBFAF922E576
:102A1B003E153EAE3D7002153D4E6014AB3F054179
:102A2B00E541AA407002054014F9ED120C1080DF4D
:062A3B00AB39AA3AA93BE9
:012A41002272
:061B16008B238A248925BF
:101B1C008B2B8A2C892D85262E85272F852830E91D
:101B2C004A4B6008E5284527452670077B007A005C
:101B3C00790022D3852F83853082E52D9582E52C83
:101B4C0095834019E530252AF9E52F3529FA8A8342
:101B5C008982D3E52D9582E52C95834038E4F531C7
:101B6C00F532C3E532952AE53195295067AB2EAA9B
:101B7C002FA930853282853183120BE3AB2BAA2C33
:101B8C00A92D853282853183120C220532E5327003
:101B9C00D1053180CD852931852A32D3E5329400A7
:101BAC00E5319400402EAB2EAA2FA930E53224FF4C
:101BBC00FFE53134FFFE8F82F583120BE3AB2BAACA
:101BCC002CA92D8F828E83120C22E532153270CB0C
:0A1BDC00153180C7AB23AA24A92508
:011BE60022DC
:10293E008F668E658D648C637818120DA8EF120C5D
:10294E0010AF66AE65AD64AC637810120DA8900042
:10295E0001EF120C22AF66AE65AD64AC637808125F
:10296E000DA8900002EF120C22E566FF900003EF17
:03297E00020C2226
:101F5200E4F52DF52CF52BF52A120BCAFFE48F2D93
:101F6200F52CF52BF52AAE2CAD2BAC2A7808120DE8
:101F7200BB8F2D8E2C8D2B8C2A900001120BE3FF30
:101F8200E52D4FF52DE52CF52CE52BF52BE52AF566
:101F92002AAF2DAE2CAD2BFC7808120DBB8F2D8EE7
:101FA2002C8D2B8C2A900002120BE3FFE52D4FF5AE
:101FB2002DE52CF52CE52BF52BE52AF52AAF2DAED8
:101FC2002CAD2BFC7808120DBB8F2D8E2C8D2B8CFB
:101FD2002A900003120BE3FFE52D4FF52DE52CF5BA
:101FE2002CE52BF52BE52AF52AAF2DAE2CAD2BFCDB
:011FF20022CC
:062DEF00900074E0FF22D9
:0C2DB600E4900074F0FDFC7F040227761E
:062DF500900071E0FF22D6
:0826D0008F5D8B5E8A5F89605B
:1026D800E4FDFC900073E0B401037F0122AF05AE76
:1026E80004AD5D120026AC06E4FD120026AC06E53A
:1026F80061FD120026AC06AD62120026AC06AD07DD
:10270800AB5EAA5FA960856121856222122A85AC29
:0A27180006AD077F071227767F0148
:012722002294
:04281A008D25AB0756
:10281E00E4FDFC900073E0B401037F0122AF05AE2E
:10282E0004AD03120026AC067D01120026AC06E4B0
:10283E00FD120026AC067D01120026AC06AD07E5A2
:10284E00257003FD8006AF05AE047D01120026AC97
:0A285E0006AD077F071227767F0101
:01286800224D
:02211500A90718
:10211700E4FCF525F526900073E0B401037F012266
:102127007527557528AAE4F529752AB2F52B752C5C
:10213700078A2D8B2E892F753001F531753201ED08
:102147007004F5338003753301E4F536F5377427EA
:102157002537F8E62CFC0537E53770020536640DA0
:10216700453670EA8C3475250075260EE4F536F58C
:1021770037E5261526AE25700215254E60147427FF
:102187002537F8E6FF122DFB0537E53770E30536EF
:0421970080DF7F0165
:01219B002221
:021CA500A9078D
:101CA700E4FCF525F526900073E0B401037F0122DB
:101CB7007527557528AAE4F529752AB2F52B752CD1
:101CC700078A2D8B2E892F753001F531753201ED7D
:101CD7007004F533802EBD01057533018026BD02E2
:101CE70005753302801EBD03057533038016BD04D9
:101CF70005753304800EBD05057533058006BD06E1
:101D070003753306E4F536F53774272537F8E62CDF
:101D1700FC0537E53770020536640D453670EA8CE9
:101D27003475250075260EE4F536F537E5261526B4
:101D3700AE25700215254E601474272537F8E6FF87
:0F1D4700122DFB0537E5377002053680DF7F016F
:011D5600226A
:021FF300AB073A
:101FF500E4FDFC900073E0B401037F0122AF05AE60
:1020050004AD03120026AC067D02120026AC06E4E0
:10201500FD120026AC067D04120026C006C007AFDF
:102025002CAE2BAD2AAC297818120DA8AD07D00718
:10203500D006120026C006C007AF2CAE2BAD2AACC9
:10204500297810120DA8AD07D007D006120026C0BA
:1020550006C007AF2CAE2BAD2AAC297808120DA807
:10206500AD07D007D006120026AC06C007E52CFF49
:10207500E4AD07D007120026AC06AD077F0712278F
:03208500767F0162
:012088002235
:021BE700AD0748
:101BE900E4FBF52FF530900073E0B401037F012287
:101BF900788476550876AAE408F60876B208F608D5
:101C0900760AE52D08F608A62E08A605087602E448
:101C190008F6087604AF2CAE2BAD2AAC2978181239
:101C29000DA87890A607AF2CAE2BAD2AAC29781059
:101C3900120DA87891A607AF2CAE2BAD2AAC297846
:101C490008120DA87892A607E52CFFE408A607F567
:101C590031F53274842532F8E62BFB0532E5327012
:101C69000205316410453170EA7894A603752F0096
:101C7900753011E4F531F532E5301530AE2F7002CB
:101C8900152F4E601474842532F8E6FF122DFB05DA
:0B1C990032E5327002053180DF7F0170
:011CA400221D
:082723008F168B178A18891923
:10272B00E4FDFC900073E0B401037F0122AF05AE22
:10273B0004AD16120026AC067D03120026AC06E58E
:10274B001AFD120026AC06AD1B120026AC06AD0717
:10275B00AB17AA18A919851A21851B22122A85AC39
:0A276B0006AD077F071227767F01F5
:012775002241
:042981008D25AB07EE
:10298500E4FDFC900073E0B401037F0122AF05AEC6
:1029950004AD03120026AC067D04120026AC06E445
:1029A500FD120026AC067D01120026AC06AD2512EF
:0D29B5000026AC06AD077F071227767F01D4
:0129C20022F2
:021A2E00AD0702
:101A3000E4F547F548900073E0B401037F0122AF5D
:101A400048AE471200268E478F487D051200268E2D
:101A5000478F48E4FD1200268E478F4874FFFFE54C
:101A600045FEE544FDE543FCE47BFFFAF9F8C312CB
:101A70000D9770117D01AF48AE471200268E478F3B
:101A800048AD46807E74FFFFFEE544FDE543FCE47F
:101A90007BFF7AFFF9F8C3120D9770047D02803640
:101AA0007D04AF48AE471200268E478F48AF46AE42
:101AB00045AD44AC437818120DA8AD07AF48AE470A
:101AC0001200268E478F48AF46AE45AD44AC4378F2
:101AD00010120DA8AD07AF48AE471200268E478FF3
:101AE00048AF46AE45AD44AC437808120DA8AD07EB
:101AF000AF48AE471200268E478F48E546FFE4AD5B
:101B000007AF481200268E478F48AD48AC477F0785
:051B10001227767F01A1
:011B150022AD
:082DCD008C258D26120BCAFFB4
:012DD50022DB
:082DD6008C258D26120BCAFFAB
:012DDE0022D2
:072DDF008C288D29121F5200
:012DE60022CA
:10248D008F38D3855583855682E5539582E55295D0
:10249D00834015E5539556FFE5529555FEC3EF94D0
:1024AD0017EE648094805048C3855583855682E528
:1024BD00539582E5529583500DC3E5569553FFE52F
:1024CD005595524F602AC3900071E5539582E552A0
:1024DD009583400975510175520075535AAB5105DD
:1024ED0053E553AA527002055214F9E538120C1037
:0124FD0022BC
:1012FC00E4F509F50AF50BF50CC3E568941FE567F1
:10130C0094005024122CEBEFD39400401B1229C3F1
:10131C000568E568AC6770020567142475F582747E
:10132C00003CF583EFF080D1C3E5689407E5679442
:10133C0000500302147CC3E568950AFFE567950924
:10134C00FEC3EF9407EE9400500302144574752508
:10135C000AF58274003509F583E06455600A050AC4
:10136C00E50A70D2050980CE7476250AF5827400E0
:10137C003509F583E064AA600A050AE50A70B70529
:10138C000980B37477250AF58274003509F583E07A
:10139C006004740280387479250AF582740035096A
:1013AC00F583E0FE747A250AF58274003509F5831D
:1013BC00E07C002400FFEC3ECF2407F50CE43FF565
:1013CC000BD3E50C9426E50B940040097403250A15
:1013DC00F50AE4805DC3E568950AFFE5679509FEAB
:1013EC00C3EF950CEE950B40507475250AF97400FB
:1013FC003509FA7B01E50C24FFFDE50B34FFFC12EB
:10140C002B2AE50A250CFDE509350BFC74742DF52A
:10141C008274003CF583E06F60097403250AF50AB9
:10142C00E4800FAF0AAE09120E31E50C250AF50A5D
:10143C00E50B3509F509021342C3E568950AF56811
:10144C00E5679509F567D3E5689400E56794004076
:10145C001F7475250AF974003509752601F527895D
:10146C002885672985682A7B017A007975121B16F5
:01147C00224D
:102D250075510175520075535A75540175550075E5
:092D3500565A90007174FFF0225F
:05001E00313031320019
:1016B9004100B7004400B300000000014E00014B97
:1016C90000014A00014900014D00014C00014F0091
:1016D9005E00B801010302650466026701680269D8
:1016E900026A026B026C026D03710172017301746B
:0116F90002EE
:102C27007F55122DC27FAA122DC2E4FF122DC27F3B
:102C370004122DC2E4FF122DC2E4FF122DC27F033E
:032C4700022DC299
:032DFB00022DC2E4
:10182300900000E0FD7F0112281A90000FE0FD7F79
:101833007112281A900025E0FFE48F2CF52BF52A6E
:10184300F5297F03121FF3900056E0FFB4FF05E470
:10185300F515801EEFB4C8057515028015EFB42881
:1018630005751503800CEFB4140575150480037515
:101873001505AD157F65122981900027E0FEA3E0D1
:10188300FFE48F2C8E2BF52AF5297F66121FF39028
:10189300001AE0FD7F6712281A90001DE0FFE48F15
:1018A3002CF52BF52AF5297F68121FF3E47B107AB8
:1018B30027F9F8900009E0FCA3E0FDA3E0FEA3E014
:1018C300FF120CE1C374329FFFE48F2CF52BF52A32
:1018D300F5297F69121FF3E4752C0AF52BF52AF518
:1018E300297F6A121FF3E4752C0BF52BF52AF529D2
:1018F3007F6B121FF3E4752C0CF52BF52AF5297F6A
:101903006C121FF37BFF7A00791E751A00751B0496
:101913007F6D122723786FE6FD7F7212281A9000DD
:101923000EE0FD7F7312281A90001BE0FEA3E0FF78
:0E193300E48F2C8E2BF52AF5297F74021FF30A
:102D5500122DCD900000EFF0FD7F0112281ABF0162
:062D6500037F01227F0044
:012D6B002245
:1022A300122DDF8F268E258D248C23054A90002541
:1022B300E0FFE4FCFDFEAB26AA25A924A823C31254
:1022C3000D976032E4F54AF527E52725E02470F8F9
:1022D300E6FA08E6FB4A601585262C85252B85241E
:1022E3002A8523298A2D8B2E7F03121BE70527E5D9
:1022F30027C3940840D3AF26900025EFF090002C1D
:10230300F0121941900025E0FFE48F2CF52BF52AFC
:0F231300F5297F03121FF3BF01037F01227F0013
:012322002298
:101EB000122DD68F2305499000B7E0B52317E523EF
:101EC00064057035900056E0FF900026E06F6029B1
:101ED000E4F5498024E4F549F524E52425E024705F
:101EE000F8E6FA08E6FB4A6007AD237F65121CA5F9
:101EF0000524E524C3940840E1E523146010146030
:101F00001514601A14601F146024240570289000B2
:101F10005674FFF0802090005674C8F0801890002E
:101F2000567428F080109000567414F080089000C9
:101F300026E0900056F09000B7E523F0121941908A
:101F400000B7E0FD7F65122981BF01037F01227F79
:011F50000090
:011F5100226D
:10219C00122DDF8F268E258D248C23054D90002744
:1021AC00E0FEA3E0FFE4FCFDAB26AA25A924A823AE
:1021BC00C3120D976032E4F54DF527E52725E02491
:1021CC0070F8E6FA08E6FB4A601585262C85252B67
:1021DC0085242A8523298A2D8B2E7F66121BE705E1
:1021EC0027E527C3940840D3900027E525F0A3E505
:1021FC0026F0121941900027E0FEA3E0FFE48F2C9B
:10220C008E2BF52AF5297F66121FF3BF01037F0180
:03221C00227F001E
:01221F00229C
:10262500122DCD8F23054B90001AE065236024E41D
:10263500F54BF524E52425E02470F8E6FA08E6FBD9
:102645004A6007AD237F671221150524E524C3944D
:102655000840E1E52390001A7003F080037401F04F
:1026650012194190001AE0FD7F6712281ABF010375
:052675007F01227F003F
:01267A00223D
:1023A100122DDF8F268E258D248C23054C90001D48
:1023B100E0FFE4FCFDFEAB26AA25A924A823C31255
:1023C1000D976032E4F54CF527E52725E02470F8F8
:1023D100E6FA08E6FB4A601585262C85252B85241F
:1023E1002A8523298A2D8B2E7F68121BE70527E575
:1023F10027C3940840D390001DE526F0121941909F
:10240100001DE0FFE48F2CF52BF52AF5297F6812DA
:0A2411001FF3BF01037F01227F00CB
:01241B00229E
:101D5700122DDF8F268E258D248C23054F9000B3FF
:101D6700E0FCA3E0FDA3E0FEA3E0FFAB26AA25A9C4
:101D770024A823C3120D976032E4F54FF527E52712
:101D870025E02470F8E6FA08E6FB4A601585262C5C
:101D970085252B85242A8523298A2D8B2E7F691259
:101DA7001BE70527E527C3940840D3AF26AE25AD2B
:101DB70024AC239000B3120DCEC374329526FFE4F2
:101DC7009525FEE49524FDE49523FCE47B107A2712
:101DD700F9F8120C56900009120DCE121941900015
:101DE700B3E0FCA3E0FDA3E0FEA3E0F52C8E2B8D72
:101DF7002A8C297F69121FF3BF01037F01227F000D
:011E070022B8
:102C4A00122DDF8F268E258D248C238F2C8E2B8D93
:102C5A002A8C297F6A121FF3BF01037F01227F009A
:012C6A002247
:102C6B00122DDF8F268E258D248C238F2C8E2B8D72
:102C7B002A8C297F6B121FF3BF01037F01227F0078
:012C8B002226
:102C8C00122DDF8F268E258D248C238F2C8E2B8D51
:102C9C002A8C297F6C121FF3BF01037F01227F0056
:012CAC002205
:10256400122DCD8F23054E90000FE065236024E4E7
:10257400F54EF524E52425E02470F8E6FA08E6FB98
:102584004A6007AD237F711221150524E524C39405
:102594000840E1E523700690000FF0801190001AC6
:1025A400E0B40104786E760190000F7401F090009D
:1025B4000FE0FD7F7112281ABF01037F01227F0003
:0125C40022F4
:10286900122DCD8F23E523786F666022E4F524E5E8
:102879002425E02470F8E6FA08E6FB4A6007AD2350
:102889007F721221150524E524C3940840E1E5234C
:10289900786F7003F680027601AD237F7212281AD1
:0828A900BF01037F01227F0043
:0128B1002204
:102D6C00122DCD90000EEFF0FD7F7312281ABF01CB
:062D7C00037F01227F002D
:012D8200222E
:0616FE008B1D8A1E891FEE
:10170400EF120E0B17330117620317726517826607
:1017140017926717A16817B06917BF6A17CE6B17BE
:10172400DD6C17EC7117FB72180A730000181BAB01
:101734001DAA1EA91FAD21AC20122D558F22E52212
:101744006401600302182090003AE004F0E0C394BE
:10175400055003021820E4F0122C27021820AB1DB8
:10176400AA1EA91FAD21AC201222A3021817AB1D7B
:10177400AA1EA91FAD21AC20121EB0021817AB1D62
:10178400AA1EA91FAD21AC2012219C021817AB1D63
:10179400AA1EA91FAD21AC201226258076AB1DAA56
:1017A4001EA91FAD21AC201223A18067AB1DAA1E68
:1017B400A91FAD21AC20121D578058AB1DAA1EA92C
:1017C4001FAD21AC20122C4A8049AB1DAA1EA91FB3
:1017D400AD21AC20122C6B803AAB1DAA1EA91FAD03
:1017E40021AC20122C8C802BAB1DAA1EA91FAD216D
:1017F400AC20122564801CAB1DAA1EA91FAD21AC10
:1018040020122869800DAB1DAA1EA91FAD21AC2092
:0E181400122D6C8F228000E490003AF0AF227B
:0118220022A3
:032DFE007F0F2222
:101941007F007E2F122C027F107E27122D95E47BC3
:10195100E87A03F9F8900009E0FCA3E0FDA3E0FEBA
:10196100A3E0FF120CE17808120DA87D007C2F1274
:101971002BB57F647E00122D95E47BE87A03F9F89C
:10198100900009E0FCA3E0FDA3E0FEA3E0FF120C40
:10199100E1E47D017C2F122BB57F647E00122D9531
:1019A100900056E0FF7D027C2F122BB57F647E00F4
:1019B100122D95900027E0FF7D037C2F122BB57F20
:1019C100647E00122D95900027A3E0FF7D047C2FFB
:1019D100122BB57F647E00122D95900025E0FF7DCE
:1019E100057C2F122BB57F647E00122D9590001D72
:1019F100E0FF7D067C2F122BB57F647E00122D95B2
:101A010090001AE0FF7D077C2F122BB57F647E00CA
:101A1100122D957F807E2F122C027F107E27122D92
:0C1A2100957D807C2FE4FF122BB5D2AF26
:011A2D002296
:0F2DA7003667736A6E36767300312E302E300029
:0316FA000150009C
:10002600749A2FF974003EFA7B01ED120C100FBF83
:0300360000010EB8
:0100390022A4
:062A7F00AF157E007BFF95
:0A2A85008E1C8F1D8B1E8A1F8920F6
:102A8F00749A2FF974003EFA7B01851E26851F2745
:102A9F0085202885212985222A121B16E522251D2E
:0B2AAF00F51DE521351CF51CFEAF1DD8
:012ABA0022F9
:102A42008B2F8A3089318C328D33E94A4B602DE5E8
:102A52003345326027E5331533AE32700215324EFC
:102A6200601AAB2FAA30A931120BCAFF122DFB74C8
:0D2A7200012531F531E43530F53080D922F1
:0A2B2A008B2F8A3089318C328D33F5
:102B3400E4FFFDFCC3ED9533EC9532501AAB2F0541
:102B440031E531AA307002053014F9120BCA2FFF97
:072B54000DBD00010C80DD46
:012B5B002257
:042776008C2D8D2EEB
:10277A009000947455F0A374AAF0E4A3F0A3EFF0C8
:10278A00E52DA3F0E52EA3F02407F52EE4352DF56B
:10279A002D7B017A007994E52E24FFFDE52D34FF87
:1027AA00FC122B2A7493252EF5827400352DF5839D
:0F27BA00EFF07B017A007994AD2EAC2D022A420C
:0424FE008C698D6AEE
:102502007402256AF56AE43569F569900094745598
:10251200F0A374AAF0E4A3F0A3EFF0E569A3F0E559
:102522006AA3F0A374FFF0A3F07407256AF56AE4C6
:102532003569F5697B017A007994E56A24FFFDE546
:102542006934FFFC122B2A7493256AF582740035D4
:1025520069F583EFF07B017A007994AD6AAC690288
:022562002A420B
:102CAD00E4FFE550700AFEFD120026755001800705
:102CBD007E007D01120026EFFD7C00E4FF022776E9
:102ABB00E4F5157BFF7A2D79A712267B8E218F22C9
:102ACB007A2D79A7122A7F8F157BFF7A2D79B01279
:102ADB00267B8E218F227A2D79B0122A7F8F15EFCC
:082AEB00FD7C007F010227764B
:082DE700E4FDFC7F02022776E7
:022BDC008F1C4C
:102BDE00122DFEE4FEEEC39F501775F002EEA424F4
:102BEE00B8F582E5F03400F583E0651C60030E80D5
:032BFE00E4AF063B
:012C010022B0
:0625C5008B158A16891730
:1025CB00120BCAF518900001120BE3F519900002DB
:1025DB00120BE3751B00F51A900003120BE3251B7E
:1025EB00F51BE4351AF51AAF18122BDC75F002EF58
:1025FB00A424B9F582E5F03400F583E06519600396
:10260B007F0022AB15E5172404F9E43516FA851A79
:09261B0020851B21AF181216FEE8
:012624002293
:040E31008E0D8F0E85
:100E350074782FF58274003EF583E0FF244C70032F
:100E4500020F3824B4B4090040030210B4900E59BF
:100E5500F8282873020E74020E77020E7A020E7DB0
:100E6500020E960210B4020E9D0210B40210B102D9
:100E75002CAD022ABB022DE7747B250EF58274008A
:100E8500350DF583E0900071F0E4FDFC7F0302274A
:100E9500769000747401F0227479250EF582740041
:100EA500350DF583E0751400F513747A250EF5827A
:100EB5007400350DF583E02514F514E43513F513A9
:100EC500E4F511F512C3E5129514E51195134003E8
:100ED5000210B4E50E2512FDE50D3511FC747D2DCE
:100EE500F58274003CF583E0751000F50F747E2DD6
:100EF500F58274003CF583E02510F510E4350FF517
:100F05000F747B250EF97400350DFA7B01E9251266
:100F1500F9EA3511FA1225C5BF0103121941E51089
:100F25002404FFE4350FFEEF2512F512EE3511F519
:100F35001180927479250EF5827400350DF583E0E4
:100F4500751400F513747A250EF5827400350DF5C8
:100F550083E02514F514E43513F513747C250EF59B
:100F6500827400350DF583E0F8E47971F7E819F737
:100F7500747D250EF5827400350DF583E0787126B4
:100F8500F618E436F6747E250EF5827400350DF5F7
:100F950083E0F8E47973F7E819F7747F250EF58295
:100FA5007400350DF583E0787326F618E436F6748B
:100FB50080250EF5827400350DF583E0F8E479752A
:100FC500F7E819F77481250EF5827400350DF58360
:100FD500E0787526F618E436F67482250EF58274E7
:100FE50000350DF583E0F8E47977F7E819F77483B0
:100FF500250EF5827400350DF583E0787726F61811
:10100500E436F67484250EF5827400350DF583E01B
:10101500F8E47979F7E819F77485250EF5827400F7
:10102500350DF583E0787926F618E436F6748625CD
:101035000EF5827400350DF583E0F8E4797BF7E869
:1010450019F77487250EF5827400350DF583E07860
:101055007B26F618E436F67488250EF5827400357D
:101065000DF583E0F8E4797DF7E819F77489250E25
:10107500F5827400350DF583E0787D26F618E436A3
:10108500F6748A250EF5827400350DF583E0F8E4D3
:10109500797FF7E819F7748B250EF5827400350D05
:0F10A500F583E0787F26F618E436F6221218233A
:0110B4002219
:102CEB00E5548555838556826551700AE553658297
:0E2CFB007004E552658360037F01227F002292
:1029C300E5518552838553826554700AE5566582C5
:1029D3007004E55565836029C3900071E5569582BF
:1029E300E5559583400975540175550075565AABE5
:1029F300540556E556AA557002055514F9120BCA2B
:012A0300FFD3
:012A040022AF
:10097300020BB5E86480F8E933E83360110460F0F2
:10098300ED33EC337009E8FCE9FDEAFEEBFF2204EA
:1009930060DED3EB9FEA9EE99DE8C2E78CF0C2F7E5
:1009A30095F0400CE8CCF8E9CDF9EACEFAEBCFFBB1
:1009B300120B8085D0F05804700320D5B3E804707F
:1009C300075002B2D5020BBF92D5EC0460F7E4CC1A
:1009D300C0E0C398F8603B94186008400DD0E0FB7A
:1009E300020B97E4FBFAC9FC8028E830E406E4C96B
:1009F300FBE4CAFCE830E305E4C9CACBFCE85407CE
:100A03006010F8C3E913F9EA13FAEB13FBEC13FCD8
:100A1300D8F130F52FC3E49CFCEF9BFFEE9AFEED7B
:100A230099FDD0E0FBEF4E4D4C701222DB03020B1D
:100A3300BCEC2CFCEF33FFEE33FEED33FDED30E782
:100A4300EB020B97EF2BFFEE3AFEED39FDD0E0FB07
:100A530050130BBB0003020BBFED13FDEE13FEEFB0
:080A630013FFEC13FC020B97DA
:100A6B00020BBFEC5D046005E859047003020BB583
:100A7B00120B80580460F6EC4860F2EC7004FDFE3B
:100A8B00FF22C860DB2481C85009C398600250065E
:100A9B00020BBC9850CAF582E9294B4A7005AB8210
:100AAB00020BAB75F0007C1A7880C3EF9BEE9AEDCE
:100ABB0099400DC3EF9BFFEE9AFEED99FDE842F0D6
:100ACB00DC23ACF0D0E0FFD0E0FED0E0FDAB822029
:100ADB00E7101BEB60BAEC2CFCEF33FFEE33FEEDB3
:100AEB0033FD020B97E803F830E705C0F075F00013
:100AFB00EF2FFFEE33FEED33FD40B830E7C280AA97
:100B0B0075F020800E75F010800575F0087D007E65
:100B1B00007F003392D530D503120D73EC334010A8
:100B2B00EF33FFEE33FEED33FDEC33FCD5F0ED226E
:0E0B3B00E5F0247EA2D513CC92E7CDCEFF22AA
:100B4900EDD2E7CD33EC3392D524814006E4FFFEA4
:100B5900FDFC22FCE4CFCECDCC24E0501174FF8003
:100B6900EDC3CC13CCCD13CDCE13CECF13CF0470A0
:070B7900F030D5DE020D7320
:100B8000E9D2E7C933E833F892D5EDD2E7CD33ECBB
:070B900033FC5002B2D52234
:100B9700EC30E7100FBF000C0EBE00080DBD0004BF
:100BA7000BEB6014A2D5EB13FCED92E7FD2274FF6B
:100BB700FCFDFEFF22E480F8A2D574FF13FC7D80C4
:030BC700E480EFD8
:102095000210B5E493A3F8E493A34003F68001F29C
:1020A50008DFF48029E493A3F85407240CC8C3334C
:1020B500C4540F4420C8834004F456800146F6DF1B
:1020C500E4800B01020408102040809015D3E47EC3
:1020D500019360BCA3FF543F30E509541FFEE49310
:1020E500A360010ECF54C025E060A840B8E493A3D7
:1020F500FAE493A3F8E493A3C8C582C8CAC583CA02
:10210500F0A3C8C582C8CAC583CADFE9DEE780BEB9
:0116FD0000EC
:100BCA00BB010689828A83E0225002E722BBFE0229
:090BDA00E32289828A83E493225C
:100BE300BB010CE58229F582E5833AF583E02250C7
:100BF30006E92582F8E622BBFE06E92582F8E22211
:0D0C0300E58229F582E5833AF583E493222A
:100C1000BB010689828A83F0225002F722BBFE01C3
:020C2000F322BD
:100C2200F8BB010DE58229F582E5833AF583E8F008
:100C3200225006E92582C8F622BBFE05E92582C8B4
:020C4200F2229C
:100C4400EF8DF0A4A8F0CF8CF0A428CE8DF0A42EC4
:020C5400FE227E
:100C5600E88FF0A4CC8BF0A42CFCE98EF0A42CFC3D
:100C66008AF0EDA42CFCEA8EF0A4CDA8F08BF0A4BB
:100C76002DCC3825F0FDE98FF0A42CCD35F0FCEB1A
:100C86008EF0A4FEA9F0EB8FF0A4CFC5F02ECD39DF
:0F0C9600FEE43CFCEAA42DCE35F0FDE43CFC224C
:100CA50075F008758200EF2FFFEE33FECD33CDCC06
:100CB50033CCC58233C5829BED9AEC99E582984089
:100CC5000CF582EE9BFEED9AFDEC99FC0FD5F0D666
:100CD500E4CEFBE4CDFAE4CCF9A88222B800C1B990
:100CE5000059BA002DEC8BF084CFCECDFCE5F0CBCE
:100CF500F97818EF2FFFEE33FEED33FDEC33FCEB07
:100D050033FB10D703994004EB99FB0FD8E5E4F9C1
:100D1500FA227818EF2FFFEE33FEED33FDEC33FCAE
:100D2500C933C910D7059BE99A4007EC9BFCE99AA2
:100D3500F90FD8E0E4C9FAE4CCFB2275F010EF2FE7
:100D4500FFEE33FEED33FDCC33CCC833C810D707E7
:100D55009BEC9AE899400AED9BFDEC9AFCE899F822
:0E0D65000FD5F0DAE4CDFBE4CCFAE4C8F922B5
:0E0D7300C3E49FFFE49EFEE49DFDE49CFC2291
:100D8100EB9FF5F0EA9E42F0E99D42F0EC6480C8E9
:060D910064809845F02289
:100D9700EB9FF5F0EA9E42F0E99D42F0E89C45F0B2
:010DA7002229
:100DA800E8600FECC313FCED13FDEE13FEEF13FF29
:030DB800D8F1224D
:100DBB00E8600FEFC333FFEE33FEED33FDEC33FC96
:030DCB00D8F1223A
:0C0DCE00ECF0A3EDF0A3EEF0A3EFF02298
:100DDA00A8828583F0D083D082120DF1120DF11210
:100DEA000DF1120DF1E473E493A3C583C5F0C58335
:100DFA00C8C582C8F0A3C583C5F0C583C8C582C863
:010E0A0022C5
:100E0B00D083D082F8E4937012740193700DA3A376
:100E1B0093F8740193F5828883E47374029368608A
:060E2B00EFA3A3A380DF8A
:00000001FF
