:03000000021CE0FF
:0C1CE000787FE4F6D8FD75819E021D2778
:100F4A000457000000004100060041003C0C41002B
:100F5A003F40440034000000004400170000000035
:100F6A0044001B000000004400530000000044003D
:100F7A00430000000044005D000000004200280019
:100F8A0001420015000041000B00410031004200FF
:100F9A0067000042000C00004100000841004100C7
:100FAA0041006900015B00015C0041005B004100F7
:100FBA00140041001F0141002B0A41004200410078
:100FCA00400A41003000410032004200090000415D
:100FDA00000200028A00000288000041001200415B
:100FEA00005A0041003300107700000000000000A2
:100FFA0000000000000000000001720001730001FF
:10100A0075000174000171004100130042002000C4
:10101A000041005900420003000041000100410064
:10102A002700410007004200570001440063000006
:10103A00000042003D00004100620041000500023C
:10104A008C00000187000176004A00490000000078
:0A105A000000000000004100080043
:10148700EF24A0FFEE340FFEE43DFDE43CFC120424
:10149700D6D3020493E4900041F090003F7440F0EB
:1014A7009000317402F09000007406F0E49000069A
:1014B700F0900053229000341204D6C30204939094
:1014C70000171204CA9000341204D6120337900092
:1014D700171204E29000170204CAE4FCFD12033756
:1014E70090005D0204E29000381204CAEF2470FFF6
:1014F700EE3417FEE43DFDE43CFC22E475F0010206
:10150700032190003FE0FF900006E0C39F22D390A5
:101517000029E09400900028E09400221204CA9069
:10152700001B1204D602033790000E1204E290004B
:101537000E0204CA7F0A1224D690002CEFF02290E4
:1015470000340204CAD3900068E09400900067E07A
:1015570094002290002BE0900040F02290001702A8
:1015670004E2F09000430204CA900061E0FF90009B
:101577002CE09F2290000E0204E290005D0204D648
:10158700D39DEC6480F874809822E47B02FAF9F822
:091597000203DD9000170204D6E6
:1027F1008E098F0A8B0B8A0C890DAF051DEF6021A5
:10280100050AE50AAE097002050914F5828E83E412
:1028110093FF780BE475F00112052BEF1202DB80B8
:02282100D922BA
:102A6F00E4FDFCC3ED9FEC9E50070DBD00010C80F3
:012A7F00F264
:012A80002233
:102883008F828E83E4F55AF559F558F557AF82AE2A
:1028930083E4FCFDAB5AAA59A958A857C312049361
:0828A300500543BD1080E62240
:102A8100E4FDFCC3ED9FEC9E50070DBD00010C80E1
:012A9100F252
:012A92002221
:102A1300758E5190FE917401F0A37410F075BD5F33
:072A230090FEA07420F022D8
:10299F00E490FE80F0758901758DFA758BCB43A895
:0E29AF0008438840758CCB758AEB4388102254
:1028230090FF10E054F04408F090FF02E054F044AD
:1028330002F0D28490FFA07420F0A37404F075CC4E
:102843000675CEFF75CD98759E0275981043A81036
:012853002262
:102A2A0043B40343B4807F147E00122A6F75B50144
:072A3A0090FE9B744BF0229B
:1029DB0090FF08E054F04408F090FF00E0540F44DF
:0C29EB0030F090FF11E054F04403F022A3
:0B2AAE008F99E59830E1FB5398FD2262
:1024D6008FB543B440E5B430E5FB53B4DF7F647E8B
:1024E60000122A6FE4FBFAF943B440E5B430E5FB89
:1024F60053B4DFE5B62BFBE5B73AFA7F147E00123C
:102506002A6F09B910E275B501A9027F647E00122F
:042516002A6FAF0178
:01251A00229E
:101223007B017A0079497D0A7F007E2F1227F19096
:101233000049E0FFE4FCFDFE12152F78081204B705
:1012430012157B90000E1204D690004AE0FFE4FCD6
:10125300FDFE12033712152FE47BE87A03F9F81227
:10126300035212157BE47F307E75FDFC90000E1255
:1012730014BF40107F007E097D3D7C0090000E125C
:101283001495400A90000E1204EE00009C4090005A
:101293004BE0900061F070028007900061E0B4FEC3
:1012A3000374FFF090004CE0FF90002DE4F0A3EFF7
:1012B300F0E0F8E4F0E890002DF090004DE0FF90AE
:1012C300002DE48FF012032190002DE0FEA3E0FF38
:1012D3004E6009D3EF9408EE9407400990002DE483
:1012E300F0A37405F090004EE090002BF0900032D4
:1012F300F090004FE0900022F06006E0D394FF40AE
:10130300069000227401F0900050E07876F61460A5
:101313001214601F2402702A90001F7401F09000C1
:10132300148019E490001FF0900014F0900007045B
:10133300F0800FE490001FF090001404F0E490009C
:1013430007F07B017A0079087D017F807E2F1227C9
:0A135300F1900008E0900030F02255
:10056100E55B6003020A2D43B440E5B430E5FB537B
:10057100B4DF85B70985B60A900015121502121568
:1005810081AE09AF0A1214E1900047E0FEA3E0FF3B
:10059100C3950AEE9509500DC3E50A9FF50AE509D1
:1005A1009EF509800BC3EF950AF50AEE9509F50949
:1005B10090001B1204D6AE09AF0AE4FCFD1203370A
:1005C10090001B1204E2900015E05401FEA3E04EDE
:1005D100705212154C4017900040E09464503DE079
:1005E1002402F0E0D3946440337464F0802E9000D0
:1005F1000CE07004A3E06401702A90002BE0FF90EE
:100601000040E0FED39F4014EE94024004E024FE3B
:10061100F0900040E0C39F500312155A900040E053
:10062100FF121FCAC3900015E094205003020A5C18
:1006310043BD10E4F0A3F0900041E004121569906D
:10064100005D1215299000431204E2900041E0C3BD
:1006510094084030E412156978101204A490004304
:100661001204E212156A900047EE8FF012032190F6
:100671000047E0C313F0A3E013F09000431204EE2F
:1006810000000000900000E0C394085005E004F071
:100691008043900067E07002A3E0703912153B902F
:1006A100005CE0FE2402FDE433FCEF1215875018D4
:1006B10090002CE02402FDE433FCEE121587500873
:1006C10090005CE090002CF090002CE090005CF039
:1006D100E4900000F0E4FFFEFDFC9000171214BF4F
:1006E100703690001B1204CAEF2488FFEE341312F7
:1006F10014FA121563900028E07002A3E070197FCC
:10070100407E427D0FFC900017121495400A900024
:10071100171204EE000F4240900006E070169000A0
:100721001B1204CA9000341204E29000231204EE5A
:10073100000000019000231215231214BC40030293
:1007410008E39000231204CA900034121529900086
:100751001B1214BF40030208E3900006E004F0906E
:1007610000531215239000531204E2900006E0FF9B
:10077100FBE4FAF9F89000531204CA1203DD900069
:10078100341204E212154678031204A490002312D5
:1007910004E2E47F207E4EFDFC9000231214BF5042
:1007A1000A9000231204EE00004E20E47F607EEAEE
:1007B100FDFC900023121495400A9000231204EED0
:1007C1000000EA60121546900017121495403E9001
:1007D10000341204D61214DB1203441214E77F8092
:1007E1007E387D017C0090005D12149540089000D8
:1007F1003C7406F0801DE47F407E9CFDFC90005D12
:1008010012149590003C40087409F0800690003C59
:10081100740CF090003C12150C40381214DB1214C9
:10082100BC503090003FE0941050030208F2900059
:100831003CE0D394095005121546801112154690DB
:10084100001712148740091214C61215911215636C
:100851000208E312150950030208F21214DB90009A
:1008610034121487407412159A1215461203441259
:1008710014E77F007E127D7A7C001214BC505B7FEE
:10088100807E1A7D067C0090005D1214BF504B9053
:10089100003FE09410400280387FE07E937D047C2D
:1008A1000090005D121495400890003F7410F08094
:1008B1001B7FF07E497D027C0090005D12149590B3
:1008C100003F4005740CF080037408F012150940D4
:1008D100091214C61215911215631215094012E47A
:1008E1008004E4900006F09000531204EE00000032
:1008F10000900031E0D394004035E014F01214ED83
:1009010090001712149550030209E990003812045F
:10091100CAEF2498FFEE343A1214FA90001B121415
:10092100BF40030209E91214ED1215630209E9122D
:100931001515405774FFF5F0120321121515404BA0
:100941007F007E127D7A7C00900017121495400C76
:1009510090000E1204EE000C3500802F1215351296
:10096100159A1214E47F407E547D897C0090005DCD
:10097100121495401612159AC374409BFF74549A31
:10098100FE748999FDE498FC12157B1215359000CF
:100991001712152990001B121495404CD312157093
:1009A10040051215154041900067E07002A3E07008
:1009B100091214DB9000381204E2900067E4F0A3FE
:1009C10004F07874F690002012150290002774014B
:1009D100F090003F7408F0E490000CF0A3F0788AE6
:1009E100F608F67888F608F690005D1204EE00002D
:1009F100000090001B1204EE00000000900067E070
:100A0100FEA3E0FFD39400EE9400404F90002DE050
:100A1100FCA3E0FDD3EF9DEE9C4040E4900067F025
:100A2100A3F0755B017874F67871F62290000CE4FE
:100A3100F0A304F0E4F55B900009F0A3F09000024C
:100A4100F07FFAFE1228839000431204EE000000AA
:0B0A51000012149C1204EE00000000D4
:010A5C002277
:1020FF00E4F50A90005D1204EE00000000E4F5091B
:10210F0043B440E5B430E5FB53B4DF121581AFB6ED
:10211F00AEB71214E10509E509B480E47F907E01A2
:10212F0012288390005D1204CA780B1204A48F0941
:10213F00E509D3940C400CE509948D5006E50A94FB
:0D214F0014500A050AE50AD3945040A72257
:01215C002260
:10215D0090005D1204EE00000000E4F509E4F50CBA
:10216D00F50D43B440E5B430E5FB53B4DF85B70A54
:10217D0085B60B121581AE0AAF0B1214E1050DE5F4
:10218D000D7002050CB400DAE50CB420D543BD107A
:10219D000509E509B408C690005D1204CA7810124D
:0A21AD0004A4900047EEF0A3EFF049
:0121B7002205
:101FCA00EF700790005904F08010BF6407E4900096
:101FDA0059F080069000597402F0BF0104E4FE80B3
:101FEA00397E007C007DFF12030FAC06AD07E412B8
:101FFA0001DBE4FBFA79C878421201398F0E8E0DA3
:10200A008D0C8C0BE4FFFEFD7C3FAB0EAA0DA90CD8
:10201A00A80B120045120214AE0790FF9C7410F030
:0A202A0075DEFF8EDF75DD947F0088
:012034002289
:100A5D00120026122A131229DB7F64121FCA1229D3
:100A6D009F122823122A2A75BBAA90FEA774FFF0A5
:100A7D0053BBF7D2AF7FC87E001228837F64121F4D
:100A8D00CA90005B7401F012153B90005CF0C2AF90
:100A9D00121223900030E004F07F807E2F1228F890
:100AAD007F107E27122A81900030E0FF7D807C2F01
:100ABD001228AB7F647E00122A81D2AF1220FF90E4
:100ACD00002BE0FF900040F0121FCA7F2C7E011218
:100ADD00288312215D90005D1204EE000000007F5E
:100AED00807EEE7D367C009000631214BF40109026
:100AFD0000631204EE000000009000627401F0909B
:100B0D000062E06029E4F0788D06E6187001067841
:100B1D008CE6FE08E6FFD3900058E09F900057E06A
:100B2D009E500BE4FF121FCAE4788CF608F6900075
:100B3D0007E06401701F7887E6601AE4F6C31215AA
:100B4D0070500D7F64121FCA9000057401F080056E
:100B5D00E4FF121FCA900030E0C394034005E4F097
:100B6D0012291D7872E6B4011DE4F6900059E0FDDE
:100B7D007F7612275412153BE48F2CF52BF52AF5B1
:100B8D00297F77121E76900001E0B4012690002790
:100B9D00E0B4011FE4900001F0900027F0900020D8
:100BAD00E0FEA3E0FFE48F2C8E2BF52AF5297F7450
:100BBD00121E767873E6D39402502A18E6640170FB
:100BCD0024F608067F55122AAE7FAA122AAEE4FF3C
:100BDD00122AAE7FB4122AAEE4FF122AAE122AAE4A
:100BED007FB3122AAE43BD10E55B700B900016E08B
:100BFD00541F70031210C290001FE06401600302C5
:100C0D000CD1E55C701CF55B755C0112155A9000FA
:100C1D00431204EE0000000012149C1204EE0000BA
:100C2D000000120561D390000DE0940090000CE0DF
:100C3D0094004033900002E0B4012CE4F090000CDD
:100C4D00121503900022E0FFC390000DE09F90006D
:100C5D000CE094004011E4F0A3F0900013E0640167
:100C6D006005E4FF121FCA12154C400F7889E66427
:100C7D000118467006F608F61215037875E664013C
:100C8D006003020AEC18E6FF7871667003020AEC45
:100C9D00A607900067E4F0A304F0E4F508E508C3A7
:100CAD0094084003020AECE50825E02477F8E6FAFB
:100CBD0008E6FB4A600A900014E0FD7F71121D6C7E
:100CCD00050880D9E4F55C900007E06003020AECAA
:100CDD00900014E07007FF121FCA020AEC90003258
:100CED00E0FF121FCAE4F55B12155A90004312047F
:100CFD00EE0000000012149C1204EE000000000231
:020D0D000AECEE
:03000B00020021CF
:0100210032AC
:03001B000215A02B
:1015A000C0E0C0F0C083C082C0D075D000C000C011
:1015B00001C002C003C004C005C006C007AF5AAED8
:1015C00059AD58AC57EF2401FFE43EFEE43DFDE485
:1015D0003C8F5A8E598D58F557900009121502907C
:1015E0000009E0FEA3E0FFE4FCFD7B607AEAF9F885
:1015F000D312047D500C900009E4F0A3F090000297
:1016000004F0788B06E618700106C3788BE694E840
:1016100018E69403401278727601788A760008768C
:101620000078887600087601900003121502C390B6
:101630000004E0944C900003E094044009E4F0A31B
:10164000F090000104F0900005E060159000631236
:1016500004CAEF2401FFE43E1214FA90006312045E
:10166000E290003D121502C390003EE094E8900025
:101670003DE09403400878877601E4F0A3F0D007BA
:10168000D006D005D004D003D002D001D000D0D0F5
:09169000D082D083D0F0D0E0320A
:0300230002248F25
:10248F00C0E0C0F0C083C082C0D075D000C000C013
:0D249F0001C002C003C004C005C006C00794
:0F24AC00E59830E00AAF991224445398FED2AF5E
:1024BB00D007D006D005D004D003D002D001D00075
:0B24CB00D0D0D082D083D0F0D0E0321F
:03003B000200229E
:0100220032AB
:1028F80053BBF7C280E5BB20E3F6D280C2AF75FDBB
:10290800F075FC0F8EFA8FF975FDD275FC2D75FDEB
:05291800E175FC1E2228
:1028AB0053BBF7C280E5BB20E3F6D280C2AF8FFBF0
:1028BB0075FDF075FC0F8CFA8DF975FDB475FC4B3D
:0728CB0075FDE175FC1E2202
:04106400026D000019
:1018F0001202AEFFE52D4FFFE52CFEE52BFDE52A9C
:101900008F2D8E2C8D2BF52AFC78081204B78F2D85
:101910008E2C8D2B22AF2CAE2BAD2AAC291204A419
:10192000AD0722AB07E4FDFC900083E022AF2CAEB4
:101930002BAD2AAC290204A4855583855682E55334
:101940009582E552958322C3E56E950AFFE56D9574
:1019500009FEC3EF22AC06AD077F0722E475F00154
:1019600002052BAF6CAE6BAD6AAC690204A4FEE558
:1019700044FDE543FCE47BFF22E4F51CF51BF51A6E
:10198000F519221202AEAB25AA26A92722AF05AE71
:1019900004AD032275510175520075536A22748596
:0819A000250AF9740035092243
:101EEC00EFC39430400CEFD39439500674D02FFFCD
:101EFC008022EFC39441400CEFD394465006EF245C
:101F0C00C9FF8010EFC39461400AEFD3946650046C
:101F1C00EF24A9FFEF540FC454F0FFEDC3943040ED
:101F2C000CEDD39439500674D02DFD801EEDC39466
:101F3C00414008EDD394465002800CEDC3946140AF
:101F4C000AEDD394665004ED24A9FDED540F42071D
:011F5C002262
:06251B008B168A178918D7
:10252100121979E94A4B7005FFFEFDFC2212197957
:10253100781612195C120295601AE51C2401FFE459
:10254100351BFEE4351AFDE435198F1C8E1B8D1ADF
:0C255100F51980DCAF1CAE1BAD1AAC19F4
:01255D00225B
:06278A008B398A3A893BFD
:102790008B3F8A408941E94A4B7004FBFAF922E5F4
:1027A0003E153EAE3D7002153D4E600B783F12194E
:0D27B0005CED1202DB80E8AB39AA3AA93BD0
:0127BD0022F9
:06176A008B1D8A1E891F81
:101770008B258A26892785202885212985222AE903
:101780004A4B6008E5224521452070077B007A001E
:10179000790022D3852983852A82E5279582E5264B
:1017A00095834019E52A2524F9E5293523FA8A830A
:1017B0008982D3E5279582E52695834032E4F52B8F
:1017C000F52CC3E52C9524E52B9523505BAB28AA7B
:1017D00029A92A852C82852B83121983852C828541
:1017E0002B831202ED052CE52C70D7052B80D385B9
:1017F000232B85242CD3E52C9400E52B9400402842
:10180000AB28AA29A92AE52C24FFFFE52B34FFFEEB
:101810008F82F5831219838F828E831202EDE52C5D
:0E182000152C70D1152B80CDAB1DAA1EA91F53
:01182E002297
:1027BE008F6C8E6B8D6A8C6978181204A4EF1202DE
:1027CE00DB7810121963900001EF1202ED780812F7
:1027DE001963900002EF1202EDE56CFF900003EF1B
:0327EE000202EDF7
:1023F900E4F52DF52CF52BF52A120295FFE48F2D26
:10240900F52CF52BF52AAE2CAD2BAC2A1219098C1B
:102419002A9000011218F08C2A9000021218F08CF0
:102429002A9000031202AEFFE52D4FFFE52CFEE5D1
:0A2439002BFDE52A12190EF52AFC0E
:012443002276
:062AD300900084E0FF22E8
:0C2AA200E4900084F0FDFC7F040226DCC0
:062AD900900081E0FF22E5
:082361008F5D8B5E8A5F8960CD
:10236900121925B401037F0122AF05AE04AD5D1238
:10237900000EAC06E4FD12000EAC06E561FD12008C
:102389000EAC06AD6212000EAC06AD07AB5EAA5FDD
:10239900A96085611B85621C1228541219551226E1
:0323A900DC7F01D5
:0123AC00220E
:0225A1008D2586
:1025A300121923B401037F012212198D1225D5E4D8
:1025B300FD1225D5AD07E5257003FD8006AF05AEF9
:1025C300047D0112000EAC06AD077F071226DC7FE7
:0125D3000106
:0E25D4002212000EAC067D0112000EAC062293
:021D6C00A907C5
:101D6E00E4FCF525F526900083E0B401037F012203
:101D7E007527557528AAE4F529752AB2F52B752C09
:101D8E00078A2D8B2E892F753001F531753201EDB5
:101D9E007004F5338003753301E4F536F537742797
:101DAE002537F8E62CFC0537E53770020536640D4D
:101DBE00453670EA8C3475250075260EE4F536F539
:101DCE0037E5261526AE25700215254E60147427AC
:101DDE002537F8E6FF12001E0537E53770E30536A6
:041DEE0080DF7F0112
:011DF20022CE
:0219A800A9078D
:1019AA00E4FCF525F526900083E0B401037F0122CB
:1019BA007527557528AAE4F529752AB2F52B752CD1
:1019CA00078A2D8B2E892F753001F531753201ED7D
:1019DA007004F533802EBD01057533018026BD02E2
:1019EA0005753302801EBD03057533038016BD04D9
:1019FA0005753304800EBD05057533058006BD06E1
:101A0A0003753306E4F536F53774272537F8E62CDF
:101A1A00FC0537E53770020536640D453670EA8CE9
:101A2A003475250075260EE4F536F537E5261526B4
:101A3A00AE25700215254E601474272537F8E6FF87
:0F1A4A0012001E0537E5377002053680DF7F0179
:011A5900226A
:101E7600121923B401037F012212198D12000EAC30
:101E8600067D0212000EAC06E4FD12000EAC067DC5
:101E96000412000EC006C0077818121915D007D014
:101EA6000612000EC006C0077810121915D007D00A
:101EB6000612000EC006C007AF2CAE2BAD2AAC2909
:101EC60078081204A4AD07D007D00612000EAC069F
:101ED600C007E52CFFE4AD07D00712000E12195516
:051EE6001226DC7F0163
:011EEB0022D4
:021A5A00AD07D6
:101A5C00E4FBF52FF530900083E0B401037F012205
:101A6C00788E76550876AAE408F60876B208F60859
:101A7C00760AE52D08F608A62E08A605087602E4D7
:101A8C0008F6087604781812192D789AA60778109B
:101A9C0012192D789BA607AF2CAE2BAD2AAC29784A
:101AAC00081204A4789CA607E52CFFE408A607F509
:101ABC0031F532748E2532F8E62BFB0532E53270A7
:101ACC000205316410453170EA789EA603752F002B
:101ADC00753011E4F531F532E5301530AE2F70026A
:101AEC00152F4E6014748E2532F8E6FF12001E0579
:0B1AFC0032E5327002053180DF7F010F
:011B070022BB
:0823AD008F638B648A65896669
:1023B500121925B401037F0122AF05AE04AD6312E6
:1023C500000EAC067D0312000EAC06E567FD12009B
:1023D5000EAC06AD6812000EAC06AD07AB64AA657F
:1023E500A96685671B85681C122854121955122683
:0323F500DC7F0189
:0123F80022C2
:022754008D25D1
:10275600121923B401037F012212198D12000EAC47
:10276600067D0412000EAC06E4FD12000EAC067DDA
:102776000112000EAC06AD2512000E1219551226D6
:03278600DC7F01F4
:01278900222D
:02182F00AD0703
:10183100E4F547F548900083E0B401037F012212EB
:1018410018D07D051218E8E4FD1218E874FFFFE5D1
:101851004512196EFAF9F8C312049370097D011249
:1018610018D0AD46803D74FFFF12196E7AFFF9F86A
:10187100C312049370047D0280197D041218DC7870
:10188100181218B7AF46AE45AD44AC4378101204F8
:10189100A4AD071218DC78081218B7E546FFE4ADCD
:1018A10007AF4812000E8E478F48AD48AC477F07FF
:0518B1001226DC7F019E
:1018B60022AF46AE45AD44AC431204A4AD07AF48D3
:1018C600AE4712000E8E478F4822AF48AE47120031
:1018D6000E8E478F4822AF48AE4712000E8E478FB6
:0A18E600482212000E8E478F4822A0
:082AB9008C258D26120295FF09
:012AC10022F2
:082AC2008C258D26120295FF00
:012ACA0022E9
:070003008C288D291223F95E
:01000A0022D3
:102444008F38D31219384015E5539556FFE5529548
:1024540055FEC3EF9417EE64809480502DC3121977
:1024640038500DC3E5569553FFE55595524F601A04
:10247400C390008112193E40077A00796A121994B8
:0B248400785112195CE5381202DB22CF
:1010C200E4F509F50AF50BF50CC3E56E941FE56D21
:1010D200940050241229BDEFD39400401B12262302
:1010E200056EE56EAC6D7002056D142485F5827493
:1010F200003CF583EFF080D1C3E56E9407E56D9473
:101102000050030212221219479407EE9400500372
:101112000211F17485250AF58274003509F583E020
:101122006455600A050AE50A70DC050980D87486F0
:10113200250AF58274003509F583E064AA600A0580
:101142000AE50A70C1050980BD7487250AF5827413
:10115200003509F583E06004740280387489250A39
:10116200F58274003509F583E0FE748A250AF5825A
:1011720074003509F583E07C002400FFEC3ECF24A7
:1011820007F50CE43FF50BD3E50C9426E50B940030
:1011920040097403250AF50AE4804D121947950C9B
:1011A200EE950B404A12199EFA7B01E50C24FFFDD5
:1011B200E50B34FFFC1228D2E50A250CFDE50935C2
:1011C2000BFC74842DF58274003CF583E06F60099A
:1011D2007403250AF50AE4800FAF0AAE09120D0F57
:1011E200E50C250AF50AE50B3509F509021108C3D4
:1011F200E56E950AF56EE56D9509F56DD3E56E948C
:1012020000E56D9400401912199E752001F521899F
:1012120022856D23856E247B017A00798512176AF7
:0112220022A9
:1000260012199475540175550075566A90008174BD
:03003600FFF022B6
:101068004100C7004400C300000000014E00014BCE
:1010780000014A00014900014D00014C00014F00E8
:10108800603200C8010102040302650466026701B8
:1010980068026902710172017301740275017604B4
:1010A800770282028302840285028602870288020E
:0610B80089029601970277
:10226C00E6FE08E6FFE48F2C8E2BF52AF52922AB2F
:10227C001DAA1EA91FAD21AC202225E02477F8E66B
:10228C00FA08E6FB4A2290002BE0FFE48F2CF52B9A
:10229C00F52AF529227BE87A03E4F9F890000E126E
:1022AC0004CA0203DD90002DE0FEA3E022E0FFE46F
:0722BC00FCFDFEC3020493C8
:10291D007F55122AAE7FAA1229367F04122936E47A
:10292D00FF122AAE7F03022AAE122AAEE4FF122A4C
:02293D00AE22C8
:03001E00022AAE05
:10135D00900000E0FD7F011225A1900014E0FD7FBB
:10136D00711225A11222927F03121E76900061E068
:10137D00FFB4FF05E4F515801EEFB4C80575150221
:10138D008015EFB42805751503800CEFB4140575A1
:10139D0015048003751505AD157F651227541222AE
:1013AD00B11222707F66121E7690001FE0FD7F67DE
:1013BD001225A19000221222957F68121E767B10B5
:1013CD007A271222A5C374329F1222967F69121EAC
:1013DD00767875E6FD7F721225A1900013E0FD7FF2
:1013ED00731225A1900020E0FEA3E01222707F74FD
:1013FD00121E76787712226C7F82121E7678791201
:10140D00226C7F83121E76787B12226C7F84121ED3
:10141D0076787D12226C7F85121E76787F12226C73
:10142D007F86121E76788112226C7F87121E767847
:10143D008312226C7F88121E76788512226C7F892A
:10144D00121E76900007E0FD7F961225A1900057A1
:10145D00E0FEA3E01222707F97121E76900059E0F5
:10146D00FD7F761227547876E6FD7F021227549081
:0A147D00002C1222957F77021E76E4
:102A4100122AB9900000EFF0FD7F011225A1BF010C
:062A5100037F01227F005B
:012A5700225C
:1022C300122AC27876EFF614601214601F2402708B
:1022D3002A90001F7401F09000148019E490001FED
:1022E300F0900014F090000704F0800FE490001FBA
:1022F300F090001404F0E4900007F0121B087876C5
:0F230300E6FD7F02122754BF01037F01227F00F6
:0123120022A8
:102035001200038F268E258D248C23054A90002BB4
:10204500AB26AA25A924A8231222B9602AE4F54AB9
:10205500F527E527122286601585262C85252B85F3
:10206500242A8523298A2D8B2E7F03121A5A0527A8
:10207500E527C3940840DBAF2690002BEFF09000D6
:1020850032F0121B081222927F03121E76BF010343
:052095007F01227F0025
:01209A002223
:101BAC00122AC28F2305499000C7E0B52317E523FD
:101BBC006405702D900061E0FF90002CE06F6021B7
:101BCC00E4F549801CE4F549F524E52412228660ED
:101BDC0007AD237F651219A80524E524C39408409A
:101BEC00E9E52314601014601514601A14601F14B6
:101BFC0060242405702890006174FFF08020900010
:101C0C006174C8F080189000617428F08010900006
:101C1C00617414F0800890002CE0900061F090004A
:101C2C00C7E523F0121B089000C7E0FD7F65122763
:091C3C0054BF01037F01227F0067
:011C4500227C
:101F5D001200038F268E258D248C23054D1222B160
:101F6D00FFE4FCFDAB26AA25A924A823C3120493E4
:101F7D00602AE4F54DF527E52712228660158526A2
:101F8D002C85252B85242A8523298A2D8B2E7F664A
:101F9D00121A5A0527E527C3940840DB90002DE55A
:101FAD0025F0A3E526F0121B081222B11222707F34
:0C1FBD0066121E76BF01037F01227F0028
:011FC90022F5
:10231300122AB98F23054B90001FE06523601CE44C
:10232300F54BF524E5241222866007AD237F67125F
:102333001D6C0524E524C3940840E9E52390001FA0
:102343007003F080037401F0121B0890001FE0FD7E
:0D2353007F671225A1BF01037F01227F00DB
:01236000225A
:10209B001200038F268E258D248C23054C90002255
:1020AB00AB26AA25A924A8231222B9602AE4F54C51
:1020BB00F527E527122286601585262C85252B858D
:1020CB00242A8523298A2D8B2E7F68121A5A0527DD
:1020DB00E527C3940840DB900022E526F0121B088D
:1020EB009000221222957F68121E76BF01037F019A
:0320FB00227F0041
:0120FE0022BF
:101C46001200038F268E258D248C23054F9000C30A
:101C56001204CAAB26AA25A924A823C3120493609A
:101C66002AE4F54FF527E527122286601585262CEE
:101C760085252B85242A8523298A2D8B2E7F69127B
:101C86001A5A0527E527C3940840DBAF26AE25ADD3
:101C960024AC239000C31204E2C374329526FFE4F9
:101CA6009525FEE49524FDE49523FCE47B107A2734
:101CB600F9F812035290000E1204E2121B0890006B
:101CC600C31204CA8F2C8E2B8D2A8C297F69121E73
:091CD60076BF01037F01227F00AB
:011CDF0022E2
:10221300122AB98F23054E900014E06523601CE455
:10222300F54EF524E5241222866007AD237F711253
:102233001D6C0524E524C3940840E9E5237006904A
:102243000014F0801190001FE0B40104787476014B
:102253009000147401F0900014E0FD7F711225A129
:08226300BF01037F01227F008F
:01226B002250
:1025E200122AB98F23E523787566601AE4F524E58B
:1025F200241222866007AD237F72121D6C0524E52A
:1026020024C3940840E9E52378757003F6800276C6
:1026120001AD237F721225A1BF01037F01227F003A
:012622002295
:1026A000122AB98F23900013E06523601AE4F52401
:1026B000E5241222866007AD237F73121D6C05246A
:1026C000E524C3940840E9900013E523F0FD7F73EF
:0B26D0001225A1BF01037F01227F0043
:0126DB0022DC
:10298000122AB9EF6016E4900020F0A3F090002026
:0E299000E0FEA3E01222707F74121E767F011B
:01299E002216
:102A5800122AB9900007EFF0FD7F961225A1BF0159
:062A6800037F01227F0044
:012A6E002245
:1029F700120003900057EEF0A3EFF01222717F97B9
:0B2A0700121E76BF01037F01227F003A
:012A120022A1
:061699008B1D8A1E891F53
:10169F00EF12053B16D10116F60216FF0317086568
:1016AF00171166171A67172268172A6917327117E9
:1016BF003A72174273174A75175296175A970000C6
:1016CF00176712227B122A418F22E52264016003E1
:1016DF00021767900042E004F0E0C394054079E4FC
:1016EF00F012291D02176712227B1222C302176004
:1016FF0012227B12203502176012227B121BAC02C2
:10170F00176012227B121F5D02176012227B1223B9
:10171F0013803E12227B12209B803612227B121CDA
:10172F0046802E12227B122213802612227B122534
:10173F00E2801E12227B1226A0801612227B122913
:10174F0080800E12227B122A58800612227B1229C9
:0A175F00F78F22E4900042F0AF2261
:01176900225D
:032ADF007F19223A
:101B08007F00121B921222A178081204A47D0012F1
:101B18001B9F1222A1E47D01121B9F9000617D0290
:101B2800121B6690002D7D03121B6690002DA37D6D
:101B380004121B7590002B7D05121B75900022E086
:101B48007D06121B847876E67D07121B847F80123F
:0D1B58001B927D807C2FE4FF1228ABD2AFE2
:101B650022E0FF7C2F1228AB7F647E00122A81229F
:101B7500E0FF7C2F1228AB7F647E00122A8122FFB2
:101B85007C2F1228AB7F647E00122A81227E2F12C1
:101B950028F87F107E27122A81227C2F1228AB7FFE
:071BA500647E00122A812278
:0F2A93003667736A6E36767300312E302E300040
:0310BE00015000DE
:101DF300E6FE08E6FFE48F2C8E2BF52AF5292274E4
:101E030089250EF5827400350DF583E0751400F510
:101E130013748A250EF5827400350DF583E02514BD
:101E2300F514E43513F51322350DF583E0F8E422B8
:101E3300E026F618E436F6229000A47455F0A37455
:101E4300AAF0E4A3F0A3EFF022F583EFF07B017A8D
:101E53000079A42274AA2FF974003EFA7B0122E4CC
:101E630075F00112052B0202952570F570E4356FAC
:031E7300F56F22E6
:0C000E00121E57ED1202DB0FBF00010EA6
:01001A0022C3
:0A2854008E168F178B188A19891A47
:10285E00121E57851820851921851A22851B23855E
:10286E001C2412176AE51C2517F517E51B3516F5FE
:04287E0016FEAF177C
:012882002233
:102663008B2F8A3089318C328D33E94A4B602DE5CB
:102673003345326027E5331533AE32700215324EDF
:10268300601AAB2FAA30A931120295FF12001E74F3
:0D269300012531F531E43530F53080D922D4
:0A28D2008B2F8A3089318C328D3350
:1028DC00E4FFFDFCC3ED9533EC9532500E782F12CE
:0B28EC001E622FFF0DBD00010C80E9F3
:0128F70022BE
:0426DC008C2D8D2E86
:1026E000121E3BE52DA3F0E52EA3F02407F52EE402
:1026F000352DF52D121E50E52E24FFFDE52D34FF5E
:10270000FC1228D274A3252EF5827400352D121EDA
:082710004CAD2EAC2D02266336
:04255E008C6F8D7081
:102562007402121E6C121E3BE56FA3F0E570A3F01D
:10257200A374FFF0A3F07407121E6C121E50E570D4
:1025820024FFFDE56F34FFFC1228D274A32570F5F9
:0F259200827400356F121E4CAD70AC6F02266361
:10296000E4FFE550700AFEFD12000E75500180076D
:102970007E007D0112000EEFFD7C00E4FF0226DCEC
:10271800E4F5157A2A79931227447A2A79931228AC
:10272800548F157A2A799C1227447A2A799C122880
:0C273800548F15EFFD7C007F010226DCB1
:102744007BFF12251B8E1B8F1CAF157E007BFF2287
:082ACB00E4FDFC7F020226DCA1
:02293F008F1CEB
:10294100122ADFE4FEEEC39F501275F002EE9000F2
:0E295100C812051FE0651C60030E80E9AF068A
:01295F002255
:0621B8008B158A16891741
:1021BE00120295F5189000011202AEF51990000268
:1021CE001202AE751B00F51A9000031202AE251B0B
:1021DE00F51BE4351AF51AAF1812293F75F002EF08
:1021EE009000C912051FE0651960037F0022AB1530
:1021FE00E5172404F9E43516FA851A20851B21AF5C
:04220E0018121699F3
:0122120022A9
:040D0F008E0D8F0EA8
:100D130074882FF58274003EF583E0FF12053B0DC6
:100D23003E000D41010D44020D47030D60040D67A4
:100D3300060F46080DDDB400000F490229600227A3
:100D430018022ACB748B250EF5827400350DF583BA
:100D5300E0900081F0E4FDFC7F030226DC90008438
:100D63007401F022121E02E4F511F512C3E5129587
:100D730014E51195134003020F49E50E2512FDE515
:100D83000D3511FC748D2DF58274003CF583E075EF
:100D93001000F50F748E2DF58274003CF583E02569
:100DA30010F510E4350FF50F748B250EF97400352B
:100DB3000DFA7B01E92512F9EA3511FA1221B8BFC0
:100DC3000103121B08E5102404FFE4350FFEEF2591
:100DD30012F512EE3511F5118092121E02748C2554
:100DE3000EF5827400121E2B7978F7E819F7748DCB
:100DF300250EF5827400350DF5837878121E337451
:100E03008E250EF5827400121E2B797AF7E819F7F6
:100E1300748F250EF5827400350DF583787A121ED2
:100E2300337490250EF5827400121E2B797CF7E83B
:100E330019F77491250EF5827400350DF583E0786A
:100E43007C121E347492250EF5827400121E2B79C7
:100E53007EF7E819F77493250EF5827400350DF5C6
:100E630083E0787E121E347494250EF5827400128A
:100E73001E2B7980F7E819F77495250EF582740017
:100E8300350DF583E07880121E347496250EF582B5
:100E93007400121E2B7982F7E819F77497250EF563
:100EA300827400350DF583E07882121E3474982520
:100EB3000EF5827400121E2B7984F7E819F77499E2
:100EC300250EF5827400350DF583E07884121E3407
:100ED300749A250EF5827400121E2B7986F7E81991
:100EE300F7749B250EF5827400350DF583E0788643
:100EF300121E347877121DF37F82121E76787912D0
:100F03001DF37F83121E76787B121DF37F84121EDE
:100F130076787D121DF37F85121E76787F121DF37E
:100F23007F86121E767881121DF37F87121E7678D4
:100F330083121DF37F88121E767885121DF37F8935
:060F4300021E7612135D90
:010F49002285
:1029BD00E5548555838556826551700AE5536582C8
:0E29CD007004E552658360037F01227F0022C3
:10262300AB54AA55A956E551855283855382655407
:10263300700AE55665827004E55565836021C39091
:102643000081E5569582E5559583400D7A00796AB8
:0F26530075540175550075566A7854121E62FF52
:012662002255
:10003E00020280E86480F8E933E83360110460F06E
:10004E00ED33EC337009E8FCE9FDEAFEEBFF220428
:10005E0060DED3EB9FEA9EE99DE8C2E78CF0C2F723
:10006E0095F0400CE8CCF8E9CDF9EACEFAEBCFFBEF
:10007E0012024B85D0F05804700320D5B3E80470FB
:10008E00075002B2D502028A92D5EC0460F7E4CC96
:10009E00C0E0C398F8603B94186008400DD0E0FBB8
:1000AE00020262E4FBFAC9FC8028E830E406E4C9E7
:1000BE00FBE4CAFCE830E305E4C9CACBFCE854070C
:1000CE006010F8C3E913F9EA13FAEB13FBEC13FC17
:1000DE00D8F130F52FC3E49CFCEF9BFFEE9AFEEDBA
:1000EE0099FDD0E0FBEF4E4D4C701222DB03020265
:1000FE0087EC2CFCEF33FFEE33FEED33FDED30E7F6
:10010E00EB020262EF2BFFEE3AFEED39FDD0E0FB83
:10011E0050130BBB000302028AED13FDEE13FEEF2C
:08012E0013FFEC13FC02026256
:1001360002028AEC5D046005E8590470030202803D
:1001460012024B580460F6EC4860F2EC7004FDFEB7
:10015600FF22C860DB2481C85009C398600250069C
:100166000202879850CAF582E9294B4A7005AB828C
:1001760002027675F0007C1A7880C3EF9BEE9AED4A
:1001860099400DC3EF9BFFEE9AFEED99FDE842F014
:10019600DC23ACF0D0E0FFD0E0FED0E0FDAB822067
:1001A600E7101BEB60BAEC2CFCEF33FFEE33FEEDF1
:1001B60033FD020262E803F830E705C0F075F0008F
:1001C600EF2FFFEE33FEED33FD40B830E7C280AAD5
:1001D60075F020800E75F010800575F0087D007EA4
:1001E600007F003392D530D50312046FEC334010F4
:1001F600EF33FFEE33FEED33FDEC33FCD5F0ED22AD
:0E020600E5F0247EA2D513CC92E7CDCEFF22E8
:10021400EDD2E7CD33EC3392D524814006E4FFFEE2
:10022400FDFC22FCE4CFCECDCC24E0501174FF8041
:10023400EDC3CC13CCCD13CDCE13CECF13CF0470DE
:07024400F030D5DE02046F6B
:10024B00E9D2E7C933E833F892D5EDD2E7CD33ECF9
:07025B0033FC5002B2D52272
:10026200EC30E7100FBF000C0EBE00080DBD0004FD
:100272000BEB6014A2D5EB13FCED92E7FD2274FFA9
:10028200FCFDFEFF22E480F8A2D574FF13FC7D8002
:03029200E480EF16
:101CEC00020A5DE493A3F8E493A34003F68001F2A7
:101CFC0008DFF48029E493A3F85407240CC8C333F9
:101D0C00C4540F4420C8834004F456800146F6DFC7
:101D1C00E4800B0102040810204080900F4AE47EFE
:101D2C00019360BCA3FF543F30E509541FFEE493BC
:101D3C00A360010ECF54C025E060A840B8E493A383
:101D4C00FAE493A3F8E493A3C8C582C8CAC583CAAE
:101D5C00F0A3C8C582C8CAC583CADFE9DEE780BE66
:0110C100002E
:10029500BB010689828A83E0225002E722BBFE0267
:0902A500E32289828A83E493229A
:1002AE00BB010CE58229F582E5833AF583E0225005
:1002BE0006E92582F8E622BBFE06E92582F8E2224F
:0D02CE00E58229F582E5833AF583E4932269
:1002DB00BB010689828A83F0225002F722BBFE0102
:0202EB00F322FC
:1002ED00F8BB010DE58229F582E5833AF583E8F047
:1002FD00225006E92582C8F622BBFE05E92582C8F3
:02030D00F222DA
:10030F00EF8DF0A4A8F0CF8CF0A428CE8DF0A42E02
:02031F00FE22BC
:10032100C5F0F8A3E028F0C5F0F8E5821582700267
:060331001583E038F02204
:0D033700EF2BFFEE3AFEED39FDEC38FC2215
:0E034400C3EF9BFFEE9AFEED99FDEC98FC22B4
:10035200E88FF0A4CC8BF0A42CFCE98EF0A42CFC4A
:100362008AF0EDA42CFCEA8EF0A4CDA8F08BF0A4C8
:100372002DCC3825F0FDE98FF0A42CCD35F0FCEB27
:100382008EF0A4FEA9F0EB8FF0A4CFC5F02ECD39EC
:0F039200FEE43CFCEAA42DCE35F0FDE43CFC2259
:1003A10075F008758200EF2FFFEE33FECD33CDCC13
:1003B10033CCC58233C5829BED9AEC99E582984096
:1003C1000CF582EE9BFEED9AFDEC99FC0FD5F0D673
:1003D100E4CEFBE4CDFAE4CCF9A88222B800C1B99D
:1003E1000059BA002DEC8BF084CFCECDFCE5F0CBDB
:1003F100F97818EF2FFFEE33FEED33FDEC33FCEB14
:1004010033FB10D703994004EB99FB0FD8E5E4F9CE
:10041100FA227818EF2FFFEE33FEED33FDEC33FCBB
:10042100C933C910D7059BE99A4007EC9BFCE99AAF
:10043100F90FD8E0E4C9FAE4CCFB2275F010EF2FF4
:10044100FFEE33FEED33FDCC33CCC833C810D707F4
:100451009BEC9AE899400AED9BFDEC9AFCE899F82F
:0E0461000FD5F0DAE4CDFBE4CCFAE4C8F922C2
:0E046F00C3E49FFFE49EFEE49DFDE49CFC229E
:10047D00EB9FF5F0EA9E42F0E99D42F0EC6480C8F6
:06048D0064809845F02296
:10049300EB9FF5F0EA9E42F0E99D42F0E89C45F0BF
:0104A3002236
:1004A400E8600FECC313FCED13FDEE13FEEF13FF36
:0304B400D8F1225A
:1004B700E8600FEFC333FFEE33FEED33FDEC33FCA3
:0304C700D8F12247
:0C04CA00E0FCA3E0FDA3E0FEA3E0FF22A5
:0C04D600E0F8A3E0F9A3E0FAA3E0FB22A9
:0C04E200ECF0A3EDF0A3EEF0A3EFF0228D
:1004EE00A8828583F0D083D08212050512050512ED
:1004FE000505120505E473E493A3C583C5F0C58312
:10050E00C8C582C8F0A3C583C5F0C583C8C582C857
:01051E0022BA
:0C051F00A42582F582E5F03583F58322E7
:10052B00FAE6FB0808E6F925F0F618E6CA3AF622D1
:10053B00D083D082F8E4937012740193700DA3A34F
:10054B0093F8740193F5828883E473740293686063
:06055B00EFA3A3A380DF63
:00000001FF
