:03000000021CAC33
:0C1CAC00787FE4F6D8FD75819E021CF3E1
:100F4A000457000000004100060041003C0C41002B
:100F5A003F40440034000000004400170000000035
:100F6A0044001B000000004400530000000044003D
:100F7A00430000000044005D000000004200280019
:100F8A0001420015000041000B00410031004200FF
:100F9A0067000042000C00004100000841004100C7
:100FAA0041006900015B00015C0041005B004100F7
:100FBA00140041001F0141002B0A41004200410078
:100FCA00400A41003000410032004200090000415D
:100FDA00000200028A00000288000041001200415B
:100FEA00005A0041003300107700000000000000A2
:100FFA0000000000000000000001720001730001FF
:10100A0075000174000171004100130042002000C4
:10101A000041005900420003000041000100410064
:10102A002700410007004200570001440063000006
:10103A00000042003D00004100620041000500023C
:10104A008C00000187000176004A00490000000078
:0A105A000000000000004100080043
:10134D00EF24A0FFEE340FFEE43DFDE43CFC12045F
:10135D00D6D3020493E4900041F090003F7440F026
:10136D009000317402F09000007406F0E4900006D5
:10137D00F0900053229000341204D6C302049390CF
:10138D0000171204CA9000341204D61203379000CD
:10139D00171204E29000170204CAE4FCFD12033791
:1013AD0090005D0204E29000381204CAEF2470FF31
:1013BD00EE3417FEE43DFDE43CFC22E475F0010241
:1013CD00032190003FE0FF900006E0C39F22D390E1
:1013DD000029E09400900028E09400221204CA90A5
:1013ED00001B1204D602033790000E1204E2900087
:1013FD000E0204CA7F0A1224A290002CEFF0229054
:10140D0000340204CAD3900068E09400900067E0B5
:10141D0094002290002BE0900040F02290001702E3
:10142D0004E2F09000430204CA900061E0FF9000D6
:10143D002CE09F2290000E0204E290005D0204D683
:10144D00D39DEC6480F874809822E47B02FAF9F85D
:09145D000203DD9000170204D621
:1027BD008E098F0A8B0B8A0C890DAF051DEF6021D9
:1027CD00050AE50AAE097002050914F5828E83E447
:1027DD0093FF780BE475F00112052BEF1202DB80ED
:0227ED00D922EF
:102A3B00E4FDFCC3ED9FEC9E50070DBD00010C8027
:012A4B00F298
:012A4C002267
:10284F008F828E83E4F55AF559F558F557AF82AE5E
:10285F0083E4FCFDAB5AAA59A958A857C312049395
:08286F00500543BD1080E62274
:102A4D00E4FDFCC3ED9FEC9E50070DBD00010C8015
:012A5D00F286
:012A5E002255
:1029DF00758E5190FE917401F0A37410F075BD5F68
:0729EF0090FEA07420F0220D
:10296B00E490FE80F0758901758DFA758BCB43A8C9
:0E297B0008438840758CCB758AEB4388102288
:1027EF0090FF10E054F04408F090FF02E054F044E2
:1027FF0002F0D28490FFA07420F0A37404F075CC83
:10280F000675CEFF75CD98759E0275981043A8106A
:01281F002296
:1029F60043B40343B4807F147E00122A3B75B501AD
:072A060090FE9B744BF022CF
:1029A70090FF08E054F04408F090FF00E0540F4413
:0C29B70030F090FF11E054F04403F022D7
:0B2A7A008F99E59830E1FB5398FD2296
:1024A2008FB543B440E5B430E5FB53B4DF7F647EBF
:1024B20000122A3BE4FBFAF943B440E5B430E5FBF1
:1024C20053B4DFE5B62BFBE5B73AFA7F147E001270
:1024D2002A3B09B910E275B501A9027F647E001298
:0424E2002A3BAF01E1
:0124E60022D3
:101466007B017A0079497D0A7F007E2F1227BD9085
:101476000049E0FFE4FCFDFE1213F578081204B7FC
:1014860012144190000E1204D690004AE0FFE4FCCC
:10149600FDFE1203371213F5E47BE87A03F9F8121E
:1014A6000352121441E47F307E75FDFC90000E124B
:1014B600138540107F007E097D3D7C0090000E1252
:1014C600135B400A90000E1204EE00009C40900050
:1014D6004BE0900061F070028007900061E0B4FE7E
:1014E6000374FFF090004CE0FF90002DE4F0A3EFB2
:1014F600F0E0F8E4F0E890002DF090004DE0FF9069
:10150600002DE48FF012032190002DE0FEA3E0FFF2
:101516004E6009D3EF9408EE9407400990002DE43D
:10152600F0A37405F090004EE090002BF09000328E
:10153600F090004FE0900022F06006E0D394FF4068
:10154600069000227401F0900050E07876F67B0158
:101556007A0079087D017F807E2F1227BD900008D2
:06156600E0900030F022CD
:10056100E55B6003020A2D43B440E5B430E5FB537B
:10057100B4DF85B70985B60A9000151213C81214A5
:1005810047AE09AF0A1213A7900047E0FEA3E0FFB0
:10059100C3950AEE9509500DC3E50A9FF50AE509D1
:1005A1009EF509800BC3EF950AF50AEE9509F50949
:1005B10090001B1204D6AE09AF0AE4FCFD1203370A
:1005C10090001B1204E2900015E05401FEA3E04EDE
:1005D10070521214124017900040E09464503DE0B4
:1005E1002402F0E0D3946440337464F0802E9000D0
:1005F1000CE07004A3E06401702A90002BE0FF90EE
:100601000040E0FED39F4014EE94024004E024FE3B
:10061100F0900040E0C39F5003121420900040E08E
:10062100FF121F96C3900015E094205003020A5C4C
:1006310043BD10E4F0A3F0900041E00412142F90A8
:10064100005D1213EF9000431204E2900041E0C3F9
:1006510094084030E412142F78101204A49000433F
:100661001204E2121430900047EE8FF01203219031
:100671000047E0C313F0A3E013F09000431204EE2F
:1006810000000000900000E0C394085005E004F071
:100691008043900067E07002A3E07039121401906A
:1006A100005CE0FE2402FDE433FCEF12144D50180F
:1006B10090002CE02402FDE433FCEE12144D5008AE
:1006C10090005CE090002CF090002CE090005CF039
:1006D100E4900000F0E4FFFEFDFC9000171213858A
:1006E100703690001B1204CAEF2488FFEE341312F7
:1006F10013C0121429900028E07002A3E070197F42
:10070100407E427D0FFC90001712135B400A90005F
:10071100171204EE000F4240900006E070169000A0
:100721001B1204CA9000341204E29000231204EE5A
:10073100000000019000231213E91213824003020A
:1007410008E39000231204CA9000341213EF9000C2
:100751001B12138540030208E3900006E004F090A9
:1007610000531213E99000531204E2900006E0FFD7
:10077100FBE4FAF9F89000531204CA1203DD900069
:10078100341204E212140C78031204A49000231210
:1007910004E2E47F207E4EFDFC900023121385507D
:1007A1000A9000231204EE00004E20E47F607EEAEE
:1007B100FDFC90002312135B400A9000231204EE0B
:1007C1000000EA6012140C90001712135B403E9077
:1007D10000341204D61213A11203441213AD7F8008
:1007E1007E387D017C0090005D12135B4008900013
:1007F1003C7406F0801DE47F407E9CFDFC90005D12
:1008010012135B90003C40087409F0800690003C94
:10081100740CF090003C1213D240381213A1121341
:1008210082503090003FE0941050030208F2900093
:100831003CE0D39409500512140C801112140C9051
:10084100001712134D400912138C12145712142958
:100851000208E31213CF50030208F21213A1900011
:100861003412134D407412146012140C120344120A
:1008710013AD7F007E127D7A7C00121382505B7F64
:10088100807E1A7D067C0090005D121385504B908E
:10089100003FE09410400280387FE07E937D047C2D
:1008A1000090005D12135B400890003F7410F080CF
:1008B1001B7FF07E497D027C0090005D12135B90EE
:1008C100003F4005740CF080037408F01213CF4010
:1008D1000912138C1214571214291213CF4012E467
:1008E1008004E4900006F09000531204EE00000032
:1008F10000900031E0D394004035E014F01213B3BE
:1009010090001712135B50030209E990003812049A
:10091100CAEF2498FFEE343A1213C090001B121351
:100921008540030209E91213B31214290209E912DD
:1009310013DB405774FFF5F01203211213DB404B18
:100941007F007E127D7A7C0090001712135B400CB1
:1009510090000E1204EE000C3500802F1213FB12D2
:1009610014601213AA7F407E547D897C0090005D43
:1009710012135B4016121460C374409BFF74549AA7
:10098100FE748999FDE498FC1214411213FB900046
:10099100171213EF90001B12135B404CD312143645
:1009A10040051213DB4041900067E07002A3E07044
:1009B100091213A19000381204E2900067E4F0A339
:1009C10004F07874F69000201213C8900027740187
:1009D100F090003F7408F0E490000CF0A3F0788AE6
:1009E100F608F67888F608F690005D1204EE00002D
:1009F100000090001B1204EE00000000900067E070
:100A0100FEA3E0FFD39400EE9400404F90002DE050
:100A1100FCA3E0FDD3EF9DEE9C4040E4900067F025
:100A2100A3F0755B017874F67871F62290000CE4FE
:100A3100F0A304F0E4F55B900009F0A3F09000024C
:100A4100F07FFAFE12284F9000431204EE000000DE
:0B0A5100001213621204EE000000000F
:010A5C002277
:1020CB00E4F50A90005D1204EE00000000E4F5094F
:1020DB0043B440E5B430E5FB53B4DF121447AFB65D
:1020EB00AEB71213A70509E509B480E47F907E0112
:1020FB0012284F90005D1204CA780B1204A48F09AA
:10210B00E509D3940C400CE509948D5006E50A942F
:0D211B0014500A050AE50AD3945040A7228B
:012128002294
:1021290090005D1204EE00000000E4F509E4F50CEE
:10213900F50D43B440E5B430E5FB53B4DF85B70A88
:1021490085B60B121447AE0AAF0B1213A7050DE59E
:102159000D7002050CB400DAE50CB420D543BD10AE
:102169000509E509B408C690005D1204CA78101281
:0A21790004A4900047EEF0A3EFF07D
:012183002239
:101F9600EF700790005904F08010BF6407E49000CA
:101FA60059F080069000597402F0BF0104E4FE80E7
:101FB600397E007C007DFF12030FAC06AD07E412EC
:101FC60001DBE4FBFA79C878421201398F0E8E0DD7
:101FD6008D0C8C0BE4FFFEFD7C3FAB0EAA0DA90C0D
:101FE600A80B120045120214AE0790FF9C7410F065
:0A1FF60075DEFF8EDF75DD947F00BD
:0120000022BD
:100A5D001200261229DF1229A77F64121F96122970
:100A6D006B1227EF1229F675BBAA90FEA774FFF043
:100A7D0053BBF7D2AF7FC87E0012284F7F64121F81
:100A8D009690005B7401F012140190005CF0C2AFFF
:100A9D00121466900030E004F07F807E2F1228C47F
:100AAD007F107E27122A4D900030E0FF7D807C2F35
:100ABD001228777F647E00122A4DD2AF1220CB9080
:100ACD00002BE0FF900040F0121F967F2C7E01124C
:100ADD00284F12212990005D1204EE000000007FC6
:100AED00807EEE7D367C0090006312138540109061
:100AFD0000631204EE000000009000627401F0909B
:100B0D000062E06029E4F0788D06E6187001067841
:100B1D008CE6FE08E6FFD3900058E09F900057E06A
:100B2D009E500BE4FF121F96E4788CF608F69000A9
:100B3D0007E06401701F7887E6601AE4F6C31214AB
:100B4D0036500D7F64121F969000057401F08005DC
:100B5D00E4FF121F96900030E0C394034005E4F0CB
:100B6D001228E97872E6B4011DE4F6900059E0FD13
:100B7D007F76122720121401E48F2CF52BF52AF520
:100B8D00297F77121E42900001E0B40126900027C4
:100B9D00E0B4011FE4900001F0900027F0900020D8
:100BAD00E0FEA3E0FFE48F2C8E2BF52AF5297F7450
:100BBD00121E427873E6D39402502A18E66401702F
:100BCD0024F608067F55122A7A7FAA122A7AE4FFA4
:100BDD00122A7A7FB4122A7AE4FF122A7A122A7A1A
:100BED007FB3122A7A43BD10E55B700B900016E0BF
:100BFD00541F70031210C290001FE06401600302C5
:100C0D000CD1E55C701CF55B755C01121420900035
:100C1D00431204EE000000001213621204EE0000F5
:100C2D000000120561D390000DE0940090000CE0DF
:100C3D0094004033900002E0B4012CE4F090000CDD
:100C4D001213C9900022E0FFC390000DE09F9000A9
:100C5D000CE094004011E4F0A3F0900013E0640167
:100C6D006005E4FF121F96121412400F7889E66496
:100C7D000118467006F608F61213C97875E6640178
:100C8D006003020AEC18E6FF7871667003020AEC45
:100C9D00A607900067E4F0A304F0E4F508E508C3A7
:100CAD0094084003020AECE50825E02477F8E6FAFB
:100CBD0008E6FB4A600A900014E0FD7F71121D38B2
:100CCD00050880D9E4F55C900007E06003020AECAA
:100CDD00900014E07007FF121F96020AEC9000328C
:100CED00E0FF121F96E4F55B1214209000431204EE
:100CFD00EE000000001213621204EE00000000026C
:020D0D000AECEE
:03000B00020021CF
:0100210032AC
:03001B0002156C5F
:10156C00C0E0C0F0C083C082C0D075D000C000C045
:10157C0001C002C003C004C005C006C007AF5AAE0C
:10158C0059AD58AC57EF2401FFE43EFEE43DFDE4B9
:10159C003C8F5A8E598D58F5579000091213C890EC
:1015AC000009E0FEA3E0FFE4FCFD7B607AEAF9F8B9
:1015BC00D312047D500C900009E4F0A3F0900002CB
:1015CC0004F0788B06E618700106C3788BE694E875
:1015DC0018E69403401278727601788A76000876C1
:1015EC0000788876000876019000031213C8C39027
:1015FC000004E0944C900003E094044009E4F0A350
:10160C00F090000104F0900005E06015900063126A
:10161C0004CAEF2401FFE43E1213C09000631204CD
:10162C00E290003D1213C8C390003EE094E8900095
:10163C003DE09403400878877601E4F0A3F0D007EE
:10164C00D006D005D004D003D002D001D000D0D029
:09165C00D082D083D0F0D0E0323E
:0300230002245B59
:10245B00C0E0C0F0C083C082C0D075D000C000C047
:0D246B0001C002C003C004C005C006C007C8
:0F247800E59830E00AAF991224105398FED2AFC6
:10248700D007D006D005D004D003D002D001D000A9
:0B249700D0D0D082D083D0F0D0E03253
:03003B000200229E
:0100220032AB
:1028C40053BBF7C280E5BB20E3F6D280C2AF75FDEF
:1028D400F075FC0F8EFA8FF975FDD275FC2D75FD20
:0528E400E175FC1E225D
:1028770053BBF7C280E5BB20E3F6D280C2AF8FFB24
:1028870075FDF075FC0F8CFA8DF975FDB475FC4B71
:0728970075FDE175FC1E2236
:04106400026D000019
:1018BC001202AEFFE52D4FFFE52CFEE52BFDE52AD0
:1018CC008F2D8E2C8D2BF52AFC78081204B78F2DBA
:1018DC008E2C8D2B22AF2CAE2BAD2AAC291204A44E
:1018EC00AD0722AB07E4FDFC900083E022AF2CAEE9
:1018FC002BAD2AAC290204A4855583855682E55369
:10190C009582E552958322C3E56E950AFFE56D95A8
:10191C0009FEC3EF22AC06AD077F0722E475F00188
:10192C0002052BAF6CAE6BAD6AAC690204A4FEE58C
:10193C0044FDE543FCE47BFF22E4F51CF51BF51AA2
:10194C00F519221202AEAB25AA26A92722AF05AEA5
:10195C0004AD032275510175520075536A227485CA
:08196C00250AF9740035092277
:101EB800EFC39430400CEFD39439500674D02FFF01
:101EC8008022EFC39441400CEFD394465006EF2490
:101ED800C9FF8010EFC39461400AEFD394665004A1
:101EE800EF24A9FFEF540FC454F0FFEDC394304022
:101EF8000CEDD39439500674D02DFD801EEDC3949B
:101F0800414008EDD394465002800CEDC3946140E3
:101F18000AEDD394665004ED24A9FDED540F420751
:011F28002296
:0624E7008B168A1789180C
:1024ED00121945E94A4B7005FFFEFDFC22121945F4
:1024FD007816121928120295601AE51C2401FFE4C2
:10250D00351BFEE4351AFDE435198F1C8E1B8D1A13
:0C251D00F51980DCAF1CAE1BAD1AAC1928
:01252900228F
:062756008B398A3A893B31
:10275C008B3F8A408941E94A4B7004FBFAF922E528
:10276C003E153EAE3D7002153D4E600B783F121982
:0D277C0028ED1202DB80E8AB39AA3AA93B38
:01278900222D
:061736008B1D8A1E891FB5
:10173C008B258A26892785202885212985222AE937
:10174C004A4B6008E5224521452070077B007A0052
:10175C00790022D3852983852A82E5279582E5267F
:10176C0095834019E52A2524F9E5293523FA8A833E
:10177C008982D3E5279582E52695834032E4F52BC3
:10178C00F52CC3E52C9524E52B9523505BAB28AAAF
:10179C0029A92A852C82852B8312194F852C8285A9
:1017AC002B831202ED052CE52C70D7052B80D385ED
:1017BC00232B85242CD3E52C9400E52B9400402876
:1017CC00AB28AA29A92AE52C24FFFFE52B34FFFE20
:1017DC008F82F58312194F8F828E831202EDE52CC6
:0E17EC00152C70D1152B80CDAB1DAA1EA91F88
:0117FA0022CC
:10278A008F6C8E6B8D6A8C6978181204A4EF120212
:10279A00DB781012192F900001EF1202ED7808125F
:1027AA00192F900002EF1202EDE56CFF900003EF83
:0327BA000202ED2B
:1023C500E4F52DF52CF52BF52A120295FFE48F2D5A
:1023D500F52CF52BF52AAE2CAD2BAC2A1218D58C85
:1023E5002A9000011218BC8C2A9000021218BC8C8D
:1023F5002A9000031202AEFFE52D4FFFE52CFEE506
:0A2405002BFDE52A1218DAF52AFC77
:01240F0022AA
:062A9F00900084E0FF221C
:0C2A6E00E4900084F0FDFC7F040226A828
:062AA500900081E0FF2219
:08232D008F5D8B5E8A5F896001
:102335001218F1B401037F0122AF05AE04AD5D12A1
:10234500000EAC06E4FD12000EAC06E561FD1200C0
:102355000EAC06AD6212000EAC06AD07AB5EAA5F11
:10236500A96085611B85621C12282012192112267D
:03237500A87F013D
:012378002242
:02256D008D25BA
:10256F001218EFB401037F01221219591225A1E4A9
:10257F00FD1225A1AD07E5257003FD8006AF05AE61
:10258F00047D0112000EAC06AD077F071226A87F4F
:01259F00013A
:0E25A0002212000EAC067D0112000EAC0622C7
:021D3800A907F9
:101D3A00E4FCF525F526900083E0B401037F012237
:101D4A007527557528AAE4F529752AB2F52B752C3D
:101D5A00078A2D8B2E892F753001F531753201EDE9
:101D6A007004F5338003753301E4F536F5377427CB
:101D7A002537F8E62CFC0537E53770020536640D81
:101D8A00453670EA8C3475250075260EE4F536F56D
:101D9A0037E5261526AE25700215254E60147427E0
:101DAA002537F8E6FF12001E0537E53770E30536DA
:041DBA0080DF7F0146
:011DBE002202
:02197400A907C1
:10197600E4FCF525F526900083E0B401037F0122FF
:101986007527557528AAE4F529752AB2F52B752C05
:10199600078A2D8B2E892F753001F531753201EDB1
:1019A6007004F533802EBD01057533018026BD0216
:1019B60005753302801EBD03057533038016BD040D
:1019C60005753304800EBD05057533058006BD0615
:1019D60003753306E4F536F53774272537F8E62C14
:1019E600FC0537E53770020536640D453670EA8C1E
:1019F6003475250075260EE4F536F537E5261526E9
:101A0600AE25700215254E601474272537F8E6FFBB
:0F1A160012001E0537E5377002053680DF7F01AD
:011A2500229E
:101E42001218EFB401037F012212195912000EACCD
:101E5200067D0212000EAC06E4FD12000EAC067DF9
:101E62000412000EC006C00778181218E1D007D07D
:101E72000612000EC006C00778101218E1D007D073
:101E82000612000EC006C007AF2CAE2BAD2AAC293D
:101E920078081204A4AD07D007D00612000EAC06D3
:101EA200C007E52CFFE4AD07D00712000E1219217E
:051EB2001226A87F01CB
:011EB7002208
:021A2600AD070A
:101A2800E4FBF52FF530900083E0B401037F012239
:101A3800788E76550876AAE408F60876B208F6088D
:101A4800760AE52D08F608A62E08A605087602E40B
:101A580008F608760478181218F9789AA607781004
:101A68001218F9789BA607AF2CAE2BAD2AAC2978B3
:101A7800081204A4789CA607E52CFFE408A607F53D
:101A880031F532748E2532F8E62BFB0532E53270DB
:101A98000205316410453170EA789EA603752F005F
:101AA800753011E4F531F532E5301530AE2F70029E
:101AB800152F4E6014748E2532F8E6FF12001E05AD
:0B1AC80032E5327002053180DF7F0143
:011AD30022F0
:082379008F638B648A6589669D
:102381001218F1B401037F0122AF05AE04AD63124F
:10239100000EAC067D0312000EAC06E567FD1200CF
:1023A1000EAC06AD6812000EAC06AD07AB64AA65B3
:1023B100A96685671B85681C12282012192112261F
:0323C100A87F01F1
:0123C40022F6
:022720008D2505
:102722001218EFB401037F012212195912000EACE4
:10273200067D0412000EAC06E4FD12000EAC067D0E
:102742000112000EAC06AD2512000E12192112263E
:03275200A87F015C
:012755002261
:0217FB00AD0738
:1017FD00E4F547F548900083E0B401037F01221220
:10180D00189C7D051218B4E4FD1218B474FFFFE5A1
:10181D004512193AFAF9F8C312049370097D0112B1
:10182D00189CAD46803D74FFFF12193A7AFFF9F806
:10183D00C312049370047D0280197D041218A878D8
:10184D0018121883AF46AE45AD44AC437810120460
:10185D00A4AD071218A87808121883E546FFE4AD69
:10186D0007AF4812000E8E478F48AD48AC477F0733
:05187D001226A87F0106
:1018820022AF46AE45AD44AC431204A4AD07AF4807
:10189200AE4712000E8E478F4822AF48AE47120065
:1018A2000E8E478F4822AF48AE4712000E8E478FEA
:0A18B200482212000E8E478F4822D4
:082A85008C258D26120295FF3D
:012A8D002226
:082A8E008C258D26120295FF34
:012A9600221D
:070003008C288D291223C592
:01000A0022D3
:102410008F38D31219044015E5539556FFE55295B0
:1024200055FEC3EF9417EE64809480502DC31219AB
:1024300004500DC3E5569553FFE55595524F601A6C
:10244000C390008112190A40077A00796A12196054
:0B2450007851121928E5381202DB2237
:1010C200E4F509F50AF50BF50CC3E56E941FE56D21
:1010D20094005024122989EFD39400401B1225EF6B
:1010E200056EE56EAC6D7002056D142485F5827493
:1010F200003CF583EFF080D1C3E56E9407E56D9473
:101102000050030212221219139407EE94005003A6
:101112000211F17485250AF58274003509F583E020
:101122006455600A050AE50A70DC050980D87486F0
:10113200250AF58274003509F583E064AA600A0580
:101142000AE50A70C1050980BD7487250AF5827413
:10115200003509F583E06004740280387489250A39
:10116200F58274003509F583E0FE748A250AF5825A
:1011720074003509F583E07C002400FFEC3ECF24A7
:1011820007F50CE43FF50BD3E50C9426E50B940030
:1011920040097403250AF50AE4804D121913950CCF
:1011A200EE950B404A12196AFA7B01E50C24FFFD09
:1011B200E50B34FFFC12289EE50A250CFDE50935F6
:1011C2000BFC74842DF58274003CF583E06F60099A
:1011D2007403250AF50AE4800FAF0AAE09120D0F57
:1011E200E50C250AF50AE50B3509F509021108C3D4
:1011F200E56E950AF56EE56D9509F56DD3E56E948C
:1012020000E56D9400401912196A752001F52189D3
:1012120022856D23856E247B017A0079851217362B
:0112220022A9
:1000260012196075540175550075566A90008174F1
:03003600FFF022B6
:101068004100C7004400C300000000014E00014BCE
:1010780000014A00014900014D00014C00014F00E8
:10108800603200C8010102040302650466026701B8
:1010980068026902710172017301740275017604B4
:1010A800770282028302840285028602870288020E
:0610B80089029601970277
:10223800E6FE08E6FFE48F2C8E2BF52AF52922AB63
:102248001DAA1EA91FAD21AC202225E02477F8E69F
:10225800FA08E6FB4A2290002BE0FFE48F2CF52BCE
:10226800F52AF529227BE87A03E4F9F890000E12A2
:1022780004CA0203DD90002DE0FEA3E022E0FFE4A3
:07228800FCFDFEC3020493FC
:1028E9007F55122A7A7FAA1229027F04122902E44B
:1028F900FF122A7A7F03022A7A122A7AE4FF122A1D
:022909007A2230
:03001E00022A7A39
:10122300900000E0FD7F0112256D900014E0FD7F2A
:101233007112256D12225E7F03121E42900061E03F
:10124300FFB4FF05E4F515801EEFB4C8057515025C
:101253008015EFB42805751503800CEFB4140575DC
:1012630015048003751505AD157F6512272012221D
:101273007D12223C7F66121E4290001FE0FD7F67B5
:1012830012256D9000221222617F68121E427B108C
:101293007A27122271C374329F1222627F69121E4F
:1012A300427875E6FD7F7212256D900013E0FD7F95
:1012B3007312256D900020E0FEA3E012223C7F74A0
:1012C300121E4278771222387F82121E42787912D8
:1012D30022387F83121E42787B1222387F84121EAB
:1012E30042787D1222387F85121E42787F1222387F
:1012F3007F86121E4278811222387F87121E42781F
:10130300831222387F88121E4278851222387F8901
:10131300121E42900007E0FD7F9612256D90005744
:10132300E0FEA3E012223C7F97121E42900059E098
:10133300FD7F761227207876E6FD7F021227209024
:0A134300002C1222617F77021E4287
:102A0D00122A85900000EFF0FD7F0112256DBF01A8
:062A1D00037F01227F008F
:012A23002290
:10228F00122A8E7876EFF614601214601F240270F3
:10229F002A90001F7401F09000148019E490001F21
:1022AF00F0900014F090000704F0800FE490001FEE
:1022BF00F090001404F0E4900007F0121AD478762E
:0F22CF00E6FD7F02122720BF01037F01227F005F
:0122DE0022DD
:102001001200038F268E258D248C23054A90002BE8
:10201100AB26AA25A924A823122285602AE4F54A21
:10202100F527E527122252601585262C85252B855B
:10203100242A8523298A2D8B2E7F03121A26052710
:10204100E527C3940840DBAF2690002BEFF090000A
:1020510032F0121AD412225E7F03121E42BF010314
:052061007F01227F0059
:012066002257
:101B7800122A8E8F2305499000C7E0B52317E52365
:101B88006405702D900061E0FF90002CE06F6021EB
:101B9800E4F549801CE4F549F524E5241222526055
:101BA80007AD237F651219740524E524C394084002
:101BB800E9E52314601014601514601A14601F14EA
:101BC80060242405702890006174FFF08020900044
:101BD8006174C8F080189000617428F0801090003B
:101BE800617414F0800890002CE0900061F090007F
:101BF800C7E523F0121AD49000C7E0FD7F651227CD
:091C080020BF01037F01227F00CF
:011C110022B0
:101F29001200038F268E258D248C23054D12227DC8
:101F3900FFE4FCFDAB26AA25A924A823C312049318
:101F4900602AE4F54DF527E527122252601585260A
:101F59002C85252B85242A8523298A2D8B2E7F667E
:101F6900121A260527E527C3940840DB90002DE5C2
:101F790025F0A3E526F0121AD412227D12223C7F05
:0C1F890066121E42BF01037F01227F0090
:011F95002229
:1022DF00122A858F23054B90001FE06523601CE4B5
:1022EF00F54BF524E5241222526007AD237F6712C8
:1022FF001D380524E524C3940840E9E52390001F09
:10230F007003F080037401F0121AD490001FE0FDE7
:0D231F007F6712256DBF01037F01227F0043
:01232C00228E
:102067001200038F268E258D248C23054C90002289
:10207700AB26AA25A924A823122285602AE4F54CB9
:10208700F527E527122252601585262C85252B85F5
:10209700242A8523298A2D8B2E7F68121A26052745
:1020A700E527C3940840DB900022E526F0121AD4F6
:1020B7009000221222617F68121E42BF01037F0136
:0320C700227F0075
:0120CA0022F3
:101C12001200038F268E258D248C23054F9000C33E
:101C22001204CAAB26AA25A924A823C312049360CE
:101C32002AE4F54FF527E527122252601585262C56
:101C420085252B85242A8523298A2D8B2E7F6912AF
:101C52001A260527E527C3940840DBAF26AE25AD3B
:101C620024AC239000C31204E2C374329526FFE42D
:101C72009525FEE49524FDE49523FCE47B107A2768
:101C8200F9F812035290000E1204E2121AD49000D4
:101C9200C31204CA8F2C8E2B8D2A8C297F69121EA7
:091CA20042BF01037F01227F0013
:011CAB002216
:1021DF00122A858F23054E900014E06523601CE4BE
:1021EF00F54EF524E5241222526007AD237F7112BC
:1021FF001D380524E524C3940840E9E523700690B3
:10220F000014F0801190001FE0B40104787476017F
:10221F009000147401F0900014E0FD7F7112256D91
:08222F00BF01037F01227F00C3
:012237002284
:1025AE00122A858F23E523787566601AE4F524E5F3
:1025BE00241222526007AD237F72121D380524E5C6
:1025CE0024C3940840E9E52378757003F6800276FB
:1025DE0001AD237F7212256DBF01037F01227F00A3
:0125EE0022CA
:10266C00122A858F23900013E06523601AE4F52469
:10267C00E5241222526007AD237F73121D38052406
:10268C00E524C3940840E9900013E523F0FD7F7323
:0B269C0012256DBF01037F01227F00AB
:0126A7002210
:10294C00122A85EF6016E4900020F0A3F09000208E
:0E295C00E0FEA3E012223C7F74121E427F01B7
:01296A00224A
:102A2400122A85900007EFF0FD7F9612256DBF01F5
:062A3400037F01227F0078
:012A3A002279
:1029C300120003900057EEF0A3EFF012223D7F9721
:0B29D300121E42BF01037F01227F00A3
:0129DE0022D6
:061665008B1D8A1E891F87
:10166B00EF12053B169D0116C20216CB0316D4656D
:10167B0016DD6616E66716EE6816F66916FE711726
:10168B000672170E73171675171E961726970000FE
:10169B001733122247122A0D8F22E52264016003B1
:1016AB00021733900042E004F0E0C394054079E464
:1016BB00F01228E902173312224712228F02172C3D
:1016CB0012224712200102172C122247121B7802FA
:1016DB00172C122247121F2902172C1222471222F3
:1016EB00DF803E1222471220678036122247121CDF
:1016FB0012802E1222471221DF802612224712253A
:10170B00AE801E12224712266C8016122247122917
:10171B004C800E122247122A2480061222471229CD
:0A172B00C38F22E4900042F0AF22C9
:011735002291
:032AAB007F19226E
:101AD4007F00121B5E12226D78081204A47D00128E
:101AE4001B6B12226DE47D01121B6B9000617D0261
:101AF400121B3290002D7D03121B3290002DA37D0A
:101B040004121B4190002B7D05121B41900022E022
:101B14007D06121B507876E67D07121B507F8012DB
:0D1B24001B5E7D807C2FE4FF122877D2AF7E
:101B310022E0FF7C2F1228777F647E00122A4D223B
:101B4100E0FF7C2F1228777F647E00122A4D22FF4E
:101B51007C2F1228777F647E00122A4D227E2F125D
:101B610028C47F107E27122A4D227C2F1228777FCE
:071B7100647E00122A4D22E0
:0F2A5F003667736A6E36767300312E302E300074
:0310BE00015000DE
:101DBF00E6FE08E6FFE48F2C8E2BF52AF529227418
:101DCF0089250EF5827400350DF583E0751400F545
:101DDF0013748A250EF5827400350DF583E02514F2
:101DEF00F514E43513F51322350DF583E0F8E422ED
:101DFF00E026F618E436F6229000A47455F0A3748A
:101E0F00AAF0E4A3F0A3EFF022F583EFF07B017AC1
:101E1F000079A42274AA2FF974003EFA7B0122E400
:101E2F0075F00112052B0202952570F570E4356FE0
:031E3F00F56F221A
:0C000E00121E23ED1202DB0FBF00010EDA
:01001A0022C3
:0A2820008E168F178B188A19891A7B
:10282A00121E23851820851921851A22851B2385C6
:10283A001C24121736E51C2517F517E51B3516F566
:04284A0016FEAF17B0
:01284E002267
:10262F008B2F8A3089318C328D33E94A4B602DE5FF
:10263F003345326027E5331533AE32700215324E13
:10264F00601AAB2FAA30A931120295FF12001E7427
:0D265F00012531F531E43530F53080D92208
:0A289E008B2F8A3089318C328D3384
:1028A800E4FFFDFCC3ED9533EC9532500E782F1202
:0B28B8001E2E2FFF0DBD00010C80E95B
:0128C30022F2
:0426A8008C2D8D2EBA
:1026AC00121E07E52DA3F0E52EA3F02407F52EE46A
:1026BC00352DF52D121E1CE52E24FFFDE52D34FFC6
:1026CC00FC12289E74A3252EF5827400352D121E43
:0826DC0018AD2EAC2D02262FD3
:04252A008C6F8D70B5
:10252E007402121E38121E07E56FA3F0E570A3F0B9
:10253E00A374FFF0A3F07407121E38121E1CE57070
:10254E0024FFFDE56F34FFFC12289E74A32570F561
:0F255E00827400356F121E18AD70AC6F02262FFD
:10292C00E4FFE550700AFEFD12000E7550018007A1
:10293C007E007D0112000EEFFD7C00E4FF0226A854
:1026E400E4F5157A2A795F1227107A2A795F12287D
:1026F400208F157A2A79681227107A2A7968122885
:0C270400208F15EFFD7C007F010226A84D
:102710007BFF1224E78E1B8F1CAF157E007BFF22F0
:082A9700E4FDFC7F020226A809
:02290B008F1C1F
:10290D00122AABE4FEEEC39F501275F002EE90005A
:0E291D00C812051FE0651C60030E80E9AF06BE
:01292B002289
:062184008B158A16891775
:10218A00120295F5189000011202AEF5199000029C
:10219A001202AE751B00F51A9000031202AE251B3F
:1021AA00F51BE4351AF51AAF1812290B75F002EF70
:1021BA009000C912051FE0651960037F0022AB1564
:1021CA00E5172404F9E43516FA851A20851B21AF90
:0421DA00181216655C
:0121DE0022DE
:040D0F008E0D8F0EA8
:100D130074882FF58274003EF583E0FF12053B0DC6
:100D23003E000D41010D44020D47030D60040D67A4
:100D3300060F46080DDDB400000F4902292C0226D8
:100D4300E4022A97748B250EF5827400350DF58322
:100D5300E0900081F0E4FDFC7F030226A89000846C
:100D63007401F022121DCEE4F511F512C3E51295BC
:100D730014E51195134003020F49E50E2512FDE515
:100D83000D3511FC748D2DF58274003CF583E075EF
:100D93001000F50F748E2DF58274003CF583E02569
:100DA30010F510E4350FF50F748B250EF97400352B
:100DB3000DFA7B01E92512F9EA3511FA122184BFF4
:100DC3000103121AD4E5102404FFE4350FFEEF25C6
:100DD30012F512EE3511F5118092121DCE748C2589
:100DE3000EF5827400121DF77978F7E819F7748D00
:100DF300250EF5827400350DF5837878121DFF7486
:100E03008E250EF5827400121DF7797AF7E819F72B
:100E1300748F250EF5827400350DF583787A121DD3
:100E2300FF7490250EF5827400121DF7797CF7E8A4
:100E330019F77491250EF5827400350DF583E0786A
:100E43007C121E007492250EF5827400121DF77930
:100E53007EF7E819F77493250EF5827400350DF5C6
:100E630083E0787E121E007494250EF582740012BE
:100E73001DF77980F7E819F77495250EF58274004C
:100E8300350DF583E07880121E007496250EF582E9
:100E93007400121DF77982F7E819F77497250EF598
:100EA300827400350DF583E07882121E0074982554
:100EB3000EF5827400121DF77984F7E819F7749917
:100EC300250EF5827400350DF583E07884121E003B
:100ED300749A250EF5827400121DF77986F7E819C6
:100EE300F7749B250EF5827400350DF583E0788643
:100EF300121E007877121DBF7F82121E427879126C
:100F03001DBF7F83121E42787B121DBF7F84121E7A
:100F130042787D121DBF7F85121E42787F121DBF4E
:100F23007F86121E427881121DBF7F87121E427870
:100F330083121DBF7F88121E427885121DBF7F89D1
:060F4300021E42121223FF
:010F49002285
:10298900E5548555838556826551700AE5536582FC
:0E2999007004E552658360037F01227F0022F7
:1025EF00AB54AA55A956E55185528385538265543C
:1025FF00700AE55665827004E55565836021C390C6
:10260F000081E5569582E5559583400D7A00796AEC
:0F261F0075540175550075566A7854121E2EFFBA
:01262E002289
:10003E00020280E86480F8E933E83360110460F06E
:10004E00ED33EC337009E8FCE9FDEAFEEBFF220428
:10005E0060DED3EB9FEA9EE99DE8C2E78CF0C2F723
:10006E0095F0400CE8CCF8E9CDF9EACEFAEBCFFBEF
:10007E0012024B85D0F05804700320D5B3E80470FB
:10008E00075002B2D502028A92D5EC0460F7E4CC96
:10009E00C0E0C398F8603B94186008400DD0E0FBB8
:1000AE00020262E4FBFAC9FC8028E830E406E4C9E7
:1000BE00FBE4CAFCE830E305E4C9CACBFCE854070C
:1000CE006010F8C3E913F9EA13FAEB13FBEC13FC17
:1000DE00D8F130F52FC3E49CFCEF9BFFEE9AFEEDBA
:1000EE0099FDD0E0FBEF4E4D4C701222DB03020265
:1000FE0087EC2CFCEF33FFEE33FEED33FDED30E7F6
:10010E00EB020262EF2BFFEE3AFEED39FDD0E0FB83
:10011E0050130BBB000302028AED13FDEE13FEEF2C
:08012E0013FFEC13FC02026256
:1001360002028AEC5D046005E8590470030202803D
:1001460012024B580460F6EC4860F2EC7004FDFEB7
:10015600FF22C860DB2481C85009C398600250069C
:100166000202879850CAF582E9294B4A7005AB828C
:1001760002027675F0007C1A7880C3EF9BEE9AED4A
:1001860099400DC3EF9BFFEE9AFEED99FDE842F014
:10019600DC23ACF0D0E0FFD0E0FED0E0FDAB822067
:1001A600E7101BEB60BAEC2CFCEF33FFEE33FEEDF1
:1001B60033FD020262E803F830E705C0F075F0008F
:1001C600EF2FFFEE33FEED33FD40B830E7C280AAD5
:1001D60075F020800E75F010800575F0087D007EA4
:1001E600007F003392D530D50312046FEC334010F4
:1001F600EF33FFEE33FEED33FDEC33FCD5F0ED22AD
:0E020600E5F0247EA2D513CC92E7CDCEFF22E8
:10021400EDD2E7CD33EC3392D524814006E4FFFEE2
:10022400FDFC22FCE4CFCECDCC24E0501174FF8041
:10023400EDC3CC13CCCD13CDCE13CECF13CF0470DE
:07024400F030D5DE02046F6B
:10024B00E9D2E7C933E833F892D5EDD2E7CD33ECF9
:07025B0033FC5002B2D52272
:10026200EC30E7100FBF000C0EBE00080DBD0004FD
:100272000BEB6014A2D5EB13FCED92E7FD2274FFA9
:10028200FCFDFEFF22E480F8A2D574FF13FC7D8002
:03029200E480EF16
:101CB800020A5DE493A3F8E493A34003F68001F2DB
:101CC80008DFF48029E493A3F85407240CC8C3332D
:101CD800C4540F4420C8834004F456800146F6DFFC
:101CE800E4800B0102040810204080900F4AE47E33
:101CF800019360BCA3FF543F30E509541FFEE493F1
:101D0800A360010ECF54C025E060A840B8E493A3B7
:101D1800FAE493A3F8E493A3C8C582C8CAC583CAE2
:101D2800F0A3C8C582C8CAC583CADFE9DEE780BE9A
:0110C100002E
:10029500BB010689828A83E0225002E722BBFE0267
:0902A500E32289828A83E493229A
:1002AE00BB010CE58229F582E5833AF583E0225005
:1002BE0006E92582F8E622BBFE06E92582F8E2224F
:0D02CE00E58229F582E5833AF583E4932269
:1002DB00BB010689828A83F0225002F722BBFE0102
:0202EB00F322FC
:1002ED00F8BB010DE58229F582E5833AF583E8F047
:1002FD00225006E92582C8F622BBFE05E92582C8F3
:02030D00F222DA
:10030F00EF8DF0A4A8F0CF8CF0A428CE8DF0A42E02
:02031F00FE22BC
:10032100C5F0F8A3E028F0C5F0F8E5821582700267
:060331001583E038F02204
:0D033700EF2BFFEE3AFEED39FDEC38FC2215
:0E034400C3EF9BFFEE9AFEED99FDEC98FC22B4
:10035200E88FF0A4CC8BF0A42CFCE98EF0A42CFC4A
:100362008AF0EDA42CFCEA8EF0A4CDA8F08BF0A4C8
:100372002DCC3825F0FDE98FF0A42CCD35F0FCEB27
:100382008EF0A4FEA9F0EB8FF0A4CFC5F02ECD39EC
:0F039200FEE43CFCEAA42DCE35F0FDE43CFC2259
:1003A10075F008758200EF2FFFEE33FECD33CDCC13
:1003B10033CCC58233C5829BED9AEC99E582984096
:1003C1000CF582EE9BFEED9AFDEC99FC0FD5F0D673
:1003D100E4CEFBE4CDFAE4CCF9A88222B800C1B99D
:1003E1000059BA002DEC8BF084CFCECDFCE5F0CBDB
:1003F100F97818EF2FFFEE33FEED33FDEC33FCEB14
:1004010033FB10D703994004EB99FB0FD8E5E4F9CE
:10041100FA227818EF2FFFEE33FEED33FDEC33FCBB
:10042100C933C910D7059BE99A4007EC9BFCE99AAF
:10043100F90FD8E0E4C9FAE4CCFB2275F010EF2FF4
:10044100FFEE33FEED33FDCC33CCC833C810D707F4
:100451009BEC9AE899400AED9BFDEC9AFCE899F82F
:0E0461000FD5F0DAE4CDFBE4CCFAE4C8F922C2
:0E046F00C3E49FFFE49EFEE49DFDE49CFC229E
:10047D00EB9FF5F0EA9E42F0E99D42F0EC6480C8F6
:06048D0064809845F02296
:10049300EB9FF5F0EA9E42F0E99D42F0E89C45F0BF
:0104A3002236
:1004A400E8600FECC313FCED13FDEE13FEEF13FF36
:0304B400D8F1225A
:1004B700E8600FEFC333FFEE33FEED33FDEC33FCA3
:0304C700D8F12247
:0C04CA00E0FCA3E0FDA3E0FEA3E0FF22A5
:0C04D600E0F8A3E0F9A3E0FAA3E0FB22A9
:0C04E200ECF0A3EDF0A3EEF0A3EFF0228D
:1004EE00A8828583F0D083D08212050512050512ED
:1004FE000505120505E473E493A3C583C5F0C58312
:10050E00C8C582C8F0A3C583C5F0C583C8C582C857
:01051E0022BA
:0C051F00A42582F582E5F03583F58322E7
:10052B00FAE6FB0808E6F925F0F618E6CA3AF622D1
:10053B00D083D082F8E4937012740193700DA3A34F
:10054B0093F8740193F5828883E473740293686063
:06055B00EFA3A3A380DF63
:00000001FF
