:0300000002169E47
:0C169E00787FE4F6D8FD7581630216E544
:10160F00044C0000000041005A004100844041009A
:10161F00830C4400660000000044006200000000DC
:10162F0044009900000000440093000000004400B3
:10163F007F000000004400870000000042006000AF
:10164F0000420072000141005B0041007A0042003D
:10165F009E000041005908410085004100A0000193
:10166F005000015100410097004100750A4100866A
:0A167F000046008D0000000000008E
:101E5D008E0A8F0B8B0C8A0D890EAF051DEF602638
:101E6D00050BE50BAE0A7002050A14F5828E83E4AC
:101E7D0093FFAB0C050EE50EAA0D7002050D14F9BE
:071E8D00EF120A5F80D4226E
:1020E600E4FDFCC3ED9FEC9E50070DBD00010C8086
:0120F600F2F7
:0120F70022C6
:101F53008F828E83E4F54FF54EF54DF54CAF82AE8F
:101F630083E4FCFDAB4FAA4EA94DA84CC3120BBE94
:081F7300500543BD1080E62279
:1020F800E4FDFCC3ED9FEC9E50070DBD00010C8074
:01210800F2E4
:0121090022B3
:10000300758E5190FE917401F0A37410F075BD5F6D
:0700130090FEA07420F02212
:10202D00E490FE80F0758901758DFA758BCB43A810
:0E203D0008438840758CCB758AEB43881022CF
:101EC60090FF10E054F04408F090FF02E054F04414
:101ED60002F0D28490FFA07420F0A37404F075CCB5
:101EE6000675CEFF75CD98759E0275981043A8109D
:011EF60022C9
:1020BC0043B40343B4807F147E001220E675B5014F
:0720CC0090FE9B744BF02213
:101EF70090FF00E054F04408F0E0540F4430F090B5
:101F0700FF02E0540F4480F0A3E054F04403F0E0F4
:0F1F1700540F4420F090FF11E0540F4480F0224B
:10208700900062E0FCA3E0FDA3E0FEA3E0FF120BDB
:01209700CF79
:0B2098008F99E59830E1FB5398FD2282
:101C22008FB543B440E5B430E5FB53B4DF7F647E47
:101C3200001220E6E4FBFAF943B440E5B430E5FBD8
:101C420053B4DFE5B62BFBE5B73AFA7F147E0012F8
:101C520020E609B910E275B501A9027F647E00127F
:041C620020E6AF01C8
:011C6600225B
:100DA6007B017A00798D7D067F007E2F121E5D9075
:100DB600008DE0FFE4FCFDFE90005C120BF5900058
:100DC6005CE0FCA3E0FDA3E0FEA3E0FF7808120BC5
:100DD600E290005C120BF590005CE0F8A3E0F9A34A
:100DE600E0FAA3E0FB90008EE0FFE4FCFDFEEB2FB3
:100DF600FFEE3AFEED39FDEC38FC90005C120BF587
:100E060090005CE0FCA3E0FDA3E0FEA3E0FFE47B32
:100E1600E87A03F9F8120A9390005C120BF5E47F66
:100E2600307E75FDFC90005CE0F8A3E0F9A3E0FAE3
:100E3600A3E0FBC3120BBE40177F007E097D3D7CFD
:100E46000090005CE0F8A3A3A3E0D3120BBE400A17
:100E560090005C120C01003D090090008FE09000AC
:100E66009DF07002800790009DE0B4FE0374FFF0D1
:100E7600900090E0FF900077E4F0A3EFF0E0F8E454
:100E8600F0E8900077F0900091E0FF900078E02F76
:100E9600F0900077E03400F0E0FEA3E0FF4E60093A
:100EA600D3EF9408EE94074009900077E4F0A3741A
:100EB60005F0900077E0FEA3E07802C333CE33CE90
:100EC600D8F9F0EE900077F0900092E0900075F07F
:010ED60022F9
:10003E00E550600302095743B440E5B430E5FB5385
:10004E00B4DF85B70C85B60D900061E004F0700644
:10005E00900060E004F0900099E0F8A3E0F9A3E0CE
:10006E00FAA3E0FBE4FCFDEB250DFFEA350CFEEDFB
:10007E0039FDEC38FC900099120BF590008BE0FEE8
:10008E00A3E0FFC3950DEE950C500DC3E50D9FF546
:10009E000DE50C9EF50C800BC3EF950DF50DEE9551
:1000AE000CF50C900066E0F8A3E0F9A3E0FAA3E0EB
:1000BE00FBE4FCFDEB250DFFEA350CFEED39FDEC06
:1000CE0038FC900066120BF5C3900060E09420504F
:1000DE00030209A343BD10E4F0A3F0900085E004F1
:1000EE00F0900087E0FCA3E0FDA3E0FEA3E0FF900C
:1000FE000099E0F8A3E0F9A3E0FAA3E0FBEF2BFFF1
:10010E00EE3AFEED39FDEC38FC900087120BF590BF
:10011E000085E0C394084043E4F0900087E0FCA320
:10012E00E0FDA3E0FEA3E0FF7810120BCF90008756
:10013E00120BF5900087A3A3E0FEA3E0FF90008CC6
:10014E00E02FF090008BE03EF0E0C313F0A3E0133D
:10015E00F0900087120C0100000000900059E0C3DF
:10016E0094085005E004F0805690009EE07002A3C3
:10017E00E0704C7F07121C22900076EFF0900098F2
:10018E00E0FE2402FDE433FCEFD39DEC6480F874B2
:10019E008098501E900076E02402FDE433FCEED3EE
:1001AE009DEC6480F87480985008900098E0900060
:1001BE0076F0900076E0900098F0E4900059F0E42C
:1001CE00FFFEFDFC900062E0F8A3E0F9A3E0FAA3C5
:1001DE00E0FBC3120BBE704F900066E0FCA3E0FD87
:1001EE00A3E0FEA3E02488FFEE3413FEE43DFDE41D
:1001FE003CFC900062120BF5900072E07002A3E0DE
:10020E0070257F407E427D0FFC900062E0F8A3E0F7
:10021E00F9A3E0FAA3E0FBD3120BBE400A900062F2
:10022E00120C01000F424090005AE0701E900066C2
:10023E00E0FCA3E0FDA3E0FEA3E0FF90007F120B25
:10024E00F590006E120C010000000190006EE0FCB3
:10025E00A3E0FDA3E0FEA3E0FF900066E0F8A3E0BC
:10026E00F9A3E0FAA3E02FFFEA3EFEE93DFDE83CEC
:10027E00FC90007FE0F8A3E0F9A3E0FAA3E0FBC353
:10028E00120BBE400302065790006EE0FCA3E0FD89
:10029E00A3E0FEA3E0FF90007FE0F8A3A3A3E02F6E
:1002AE00FFEA3EFEE93DFDE83CFC900066E0F8A367
:1002BE00E0F9A3E0FAA3E0FBC3120BBE4003020673
:1002CE005790005AE004F0900093E0FCA3E0FDA3E9
:1002DE00E0FEA3E0FF900066E0F8EF2BFFEE3AFEA3
:1002EE00ED39FDEC38FC900093120BF590005AE0BE
:1002FE00FBE4FAF9F8900093E0FCA3E0FDA3E0FE26
:10030E00A3E0FF120B1E90007F120BF590007FE012
:10031E00FCA3E0FDA3E0FEA3E0FF7803120BCF9059
:10032E00006E120BF5E47F207E4EFDFC90006EE019
:10033E00F8A3E0F9A3E0FAA3E0FBC3120BBE500A48
:10034E0090006E120C0100004E20E47F607EEAFDEC
:10035E00FC90006EE0F8A3E0F9A3E0FAA3E0FBD373
:10036E00120BBE400A90006E120C010000EA609063
:10037E00007FE0FCA3E0FDA3E0FEA3E0FF9000629F
:10038E00E0F8A3E0F9A3E0FAA3E0FBD3120BBE4022
:10039E007390007FE0F8A3E0F9A3E0FAA3E0FB90EE
:1003AE000062E0FCA3E0FDA3E0FEA3E09BFFEE9A5B
:1003BE00FEED99FDEC98FC900099120BF57F807E76
:1003CE00387D017C00900099E0F8A3E0F9A3E0FAF3
:1003DE00A3E0FBD3120BBE40089000837406F0809E
:1003EE0029E47F407E9CFDFC900099E0F8A3E0F9A3
:1003FE00A3E0FAA3E0FBD3120BBE90008340087477
:10040E0009F08006900083740CF0900083E0FF905A
:10041E00005AE0C39F50030204EF900062E0FCA379
:10042E00E0FDA3E0FEA3E0FF90007FE0F8A3E0F97B
:10043E00A3E0FAA3E0FB120BBE40030204EF900010
:10044E0084E094105003020666900083E0D3940972
:10045E00501090007FE0FCA3E0FDA3E0FEA3E0FFC0
:10046E00807690007FE0FCA3E0FDA3E0FEA3E024F5
:10047E00A0FFEE340FFEE43DFDE43CFC900062E094
:10048E00F8A3E0F9A3E0FAA3E0FBD3120BBE5003EE
:10049E00020657900062E0FCA3E0FDA3E0FEA3E09D
:1004AE00FF90007FE0F8A3E0F9A3E0FAA3E0FBEFF2
:1004BE002BFFEE3AFEED39FDEC38FC900062120B8C
:1004CE00F5900062E0FCA3E0FDA3E0FEA3E0FFE4F4
:1004DE007B02FAF9F8120B1E900062120BF502065F
:1004EE0057900084E0FF90005AE0C39F500302062D
:1004FE0066900062E0FCA3E0FDA3E0FEA3E024A072
:10050E00FFEE340FFEE43DFDE43CFC90007FE0F88E
:10051E00A3E0F9A3E0FAA3E0FBD3120BBE50030253
:10052E000647900062E0F8A3E0F9A3E0FAA3E0FB2F
:10053E0090007FE0FCA3E0FDA3E0FEA3E09BFFEEB6
:10054E009AFEED99FDEC98FC900099120BF57F0048
:10055E007E127D7A7C0090007FE0F8A3E0F9A3E0A4
:10056E00FAA3E0FBC3120BBE40030206477F807E58
:10057E001A7D067C00900099E0F8A3E0F9A3E0FA5A
:10058E00A3E0FBC3120BBE4003020647900084E0BB
:10059E009410400280587FE07E937D047C00900092
:1005AE0099E0F8A3E0F9A3E0FAA3E0FBD3120BBEA7
:1005BE0040089000847410F080277FF07E497D0201
:1005CE007C00900099E0F8A3E0F9A3E0FAA3E0FB29
:1005DE00D3120BBE9000844005740CF08003740897
:1005EE00F0900084E0FF90005AE0C39F404B9000D3
:1005FE0062E0FCA3E0FDA3E0FEA3E0FF90007FE03D
:10060E00F8A3E0F9A3E0FAA3E0FBEF2BFFEE3AFE2E
:10061E00ED39FDEC38FC900062120BF5900062E0B3
:10062E00FCA3E0FDA3E0FEA3E0FFE47B02FAF9F8F1
:10063E00120B1E900062120BF5900084E0FF9000EA
:10064E005AE0C39F4012E48004E490005AF09000F8
:10065E0093120C010000000090007AE0D394005039
:10066E00030206F8E014F0A3E0FCA3E0FDA3E0FE15
:10067E00A3E02470FFEE3417FEE43DFDE43CFC9055
:10068E000062E0F8A3E0F9A3E0FAA3E0FBD3120BBB
:10069E00BE50030208AE90007BE0FCA3E0FDA3E099
:1006AE00FEA3E02498FFEE343AFEE43DFDE43CFC6C
:1006BE00900066E0F8A3E0F9A3E0FAA3E0FBC31212
:1006CE000BBE40030208AE90007BE0FCA3E0FDA34E
:1006DE00E0FEA3E02470FFEE3417FEE43DFDE43CA3
:1006EE00FC900062120BF50208AED3900073E094FA
:1006FE0000900072E0940050030207B9A3E024FFBB
:10070E00F0900072E034FFF0D3A3E09400900072FA
:10071E00E0940050030207B97F007E127D7A7C00C0
:10072E00900062E0F8A3E0F9A3E0FAA3E0FBD31295
:10073E000BBE400C90005C120C01000C3500806B5F
:10074E0090005CE0FCA3E0FDA3E0FEA3E0FF9000C0
:10075E0062E0F8A3E0F9A3E0FAA3E02FFFEA3EFE81
:10076E00E93DFDE83CFC900099120BF57F407E546C
:10077E007D897C00900099E0F8A3E0F9A3E0FAA34C
:10078E00E0FBD3120BBE4023900062E0F8A3E0F929
:10079E00A3E0FAA3E0FB74409BFF74549AFE7489A5
:1007AE0099FDE498FC90005C120BF590005CE0FC67
:1007BE00A3E0FDA3E0FEA3E0FF900062E0F8A3E05B
:1007CE00F9A3E0FAA3E02FFFEA3EFEE93DFDE83C87
:1007DE00FCA3E0F8A3E0F9A3E0FAA3E0FBD3120B2D
:1007EE00BE50030208AE90009DE0FF900076E0D36D
:1007FE009F4012D3900073E09400900072E094003A
:10080E0050030208AE90009EE07002A3E0701490B8
:10081E000062E0FCA3E0FDA3E0FEA3E0FF90007BFE
:10082E00120BF590009EE4F0A304F07F64121FED0E
:10083E007FAA122098E47BE87A03F9F890005CE036
:10084E00FCA3E0FDA3E0FEA3E0FF120B1E7808124E
:10085E000BCF122098E47BE87A03F9F890005CE065
:10086E00FCA3E0FDA3E0FEA3E0FF120B1E122098F6
:10087E0090009DE0FF122098900077E01313543FF4
:10088E00FF122098E0FEA3E07802CEC313CE13D859
:10089E00F9FF1220987FAA1220989000847408F015
:1008AE00900066E0FCA3E0FDA3E0FEA3E0FFA31230
:1008BE000BF590008BE0C4F854F0C8A3E0C4540FBD
:1008CE0048FF1220987810122087780812208790FF
:1008DE00006AE0FCA3E0FDA3E0FEA3E0FF781012A7
:1008EE000BCF12209890006AE0FCA3E0FDA3E0FE7F
:1008FE00A3E0FF7808120BCF122098900099120CEB
:10090E000100000000900066120C0100000000D3F0
:10091E0090009FE0940090009EE094004077A3E04A
:10092E0004F0700690009EE004F0900077E0FEA3C5
:10093E00E0FFD390009FE09F90009EE09E4056E423
:10094E00F0A3F0755001F55122E4F550E551700811
:10095E007551017F55122098900075E0FF121FED22
:10096E007FFA7E00121F53900087120C01000000C8
:10097E0000E4900085F09000847440F090007A744A
:10098E0002F09000597406F0E4A3F0900093120C5C
:05099E00010000000053
:0109A3002231
:10172A00E4F50B900099120C0100000000E4F50AA0
:10173A0043B440E5B430E5FB53B4DF900099E0F8D8
:10174A00A3E0F9A3E0FAA3E0FBAFB6AEB7E4FCFD71
:10175A00EB2FFFEA3EFEED39FDEC38FC90009912C2
:10176A000BF5050AE50AB480C77F907E01121F5364
:10177A00900099E0FCA3E0FDA3E0FEA3E0FF780B54
:10178A00120BCF8F0AE50AD3940C400CE50A948D0C
:10179A005006E50B94145009050BE50BD394504001
:0117AA0082BC
:0117AB00221B
:1017AC00900099120C0100000000E4F50AE4F50E1B
:1017BC00F50F43B440E5B430E5FB53B4DF85B70C0B
:1017CC0085B60D900099E0F8A3E0F9A3E0FAA3E048
:1017DC00FBE4FCFDEB250DFFEA350CFEED39FDECD1
:1017EC0038FC900099120BF5050FE50F7002050EF1
:1017FC00B400BFE50EB420BA43BD10050AE50AB427
:10180C0008AB900099E0FCA3E0FDA3E0FEA3E0FF91
:0D181C007810120BCF90008BEEF0A3EFF0D0
:01182900229C
:101FED00EF75F0FFA475F06484FCE41209AE1209DC
:0F1FFD00E290FF9C7405F075DEFF8FDF75DD94B9
:01200C0022B1
:10182A001220A3120003121EF77F64121FED12206A
:10183A002D121EC61220BCD2A375BBAA90FEA77495
:10184A00FFF053BBF7D2AF7FC87E00121F537F64ED
:10185A00121FED9000977401F07F07121C2290006E
:10186A0076EFF0900098F0C2AF120DA6D2AF121721
:10187A002A900075E0FF121FED7F2C7E01121F5384
:10188A001217AC900099120C0100000000D2A34379
:0E189A00BD10C2A3120C32D2A312003E80F188
:03001B0002204B75
:10204B00C0E0C0D0E54F2401F54FE4354EF54EE42A
:0E205B00354DF54DE4354CF54CD0D0D0E0328B
:03002300021BDBE2
:101BDB00C0E0C0F0C083C082C0D075D000C000C0D0
:0D1BEB0001C002C003C004C005C006C00751
:0F1BF800E59830E00AAF991219195398FED2AF51
:101C0700D007D006D005D004D003D002D001D00031
:0B1C1700D0D0D082D083D0F0D0E032DB
:03003B0002001AA6
:01001A0032B3
:101FC80053BBF7C280E5BB20E3F6D280C2AF75FDF4
:101FD800F075FC0F8EFA8FF975FDD275FC2D75FD25
:051FE800E175FC1E2262
:101F7B0053BBF7C280E5BB20E3F6D280C2AF8FFB29
:101F8B0075FDF075FC0F8CFA8DF975FDB475FC4B76
:071F9B0075FDE175FC1E223B
:0416890002620000F9
:1018A800EFC39430400CEFD39439500674D02FFF17
:1018B8008022EFC39441400CEFD394465006EF24A6
:1018C800C9FF8010EFC39461400AEFD394665004B7
:1018D800EF24A9FFEF540FC454F0FFEDC394304038
:1018E8000CEDD39439500674D02DFD801EEDC394B1
:1018F800414008EDD394465002800CEDC3946140FA
:101908000AEDD394665004ED24A9FDED540F420767
:0119180022AC
:0619EA008B178A18891911
:1019F000E4F51DF51CF51BF51AE94A4B7005FFFED1
:101A0000FDFC22E4F51DF51CF51BF51AAB170519B5
:101A1000E519AA187002051814F9120A196017E5D9
:101A20001D2401F51DE4351CF51CE4351BF51BE4F4
:0E1A3000351AF51A80D6AF1DAE1CAD1BAC1AD0
:011A3E002285
:061D6F008B358A3689372E
:101D75008B3B8A3C893DE94A4B7004FBFAF922E525
:101D85003A153AAE39700215394E6014AB3B053D34
:101D9500E53DAA3C7002053C14F9ED120A5F80DFAF
:061DA500AB35AA36A93798
:011DAB002215
:06129E008B1E8A1F89204F
:1012A4008B268A27892885212985222A85232BE9CB
:1012B4004A4B6008E5234522452170077B007A00EC
:1012C400790022D3852A83852B82E5289582E52718
:1012D40095834019E52B2525F9E52A3524FA8A83D7
:1012E4008982D3E5289582E52795834038E4F52C57
:1012F400F52DC3E52D9525E52C95245067AB29AA3A
:101304002AA92B852D82852C83120A32AB26AA2783
:10131400A928852D82852C83120A71052DE52D704F
:10132400D1052C80CD85242C85252DD3E52D940045
:10133400E52C9400402EAB29AA2AA92BE52D24FFE5
:10134400FFE52C34FFFE8F82F583120A32AB26AA06
:1013540027A9288F828E83120A71E52D152D70CB53
:0A136400152C80C7AB1EAA1FA9209C
:01136E00225C
:101C67008F618E608D5F8C5E7818120BCFEF120A32
:101C77005FAF61AE60AD5FAC5E7810120BCF9000C6
:101C870001EF120A71AF61AE60AD5FAC5E7808120A
:101C97000BCF900002EF120A71E561FF900003EF8E
:031CA700020A71BD
:1014D800E4F52DF52CF52BF52A120A19FFE48F2DCA
:1014E800F52CF52BF52AAE2CAD2BAC2A7808120B6F
:1014F800E28F2D8E2C8D2B8C2A900001120A32FF40
:10150800E52D4FF52DE52CF52CE52BF52BE52AF5EA
:101518002AAF2DAE2CAD2BFC7808120BE28F2D8E46
:101528002C8D2B8C2A900002120A32FFE52D4FF5E4
:101538002DE52CF52CE52BF52BE52AF52AAF2DAE5C
:101548002CAD2BFC7808120BE28F2D8E2C8D2B8C5A
:101558002A900003120A32FFE52D4FF52DE52CF5F0
:101568002CE52BF52BE52AF52AAF2DAE2CAD2BFC5F
:011578002250
:0621520090001AE0FF22DC
:0C211900E490001AF0FDFC7F04021B3A69
:06215800900017E0FF22D9
:081A94008F528B538A548955CF
:101A9C00E4FDFC900019E0B401037F0122AF05AE18
:101AAC0004AD52120026AC06E4FD120026AC06E58D
:101ABC0056FD120026AC06AD57120026AC06AD073B
:101ACC00AB53AA54A95585561C85571D121DEFAC56
:0A1ADC0006AD077F07121B3A7F01D9
:011AE60022DD
:041B8C008D24AB07F2
:101B9000E4FDFC900019E0B401037F0122AF05AE23
:101BA00004AD03120026AC067D01120026AC06E44B
:101BB000FD120026AC067D01120026AC06AD07E53D
:101BC000247003FD8006AF05AE047D01120026AC33
:0A1BD00006AD077F07121B3A7F01E4
:011BDA0022E8
:02157900AB07BE
:10157B00E4FDFC900019E0B401037F0122AF05AE3E
:10158B0004AD03120026AC067D02120026AC06E465
:10159B00FD120026AC067D04120026C006C007AF64
:1015AB002CAE2BAD2AAC297818120BCFAD07D00778
:1015BB00D006120026C006C007AF2CAE2BAD2AAC4E
:1015CB00297810120BCFAD07D007D006120026C01A
:1015DB0006C007AF2CAE2BAD2AAC297808120BCF67
:1015EB00AD07D007D006120026AC06C007E52CFFCE
:1015FB00E4AD07D007120026AC06AD077F07121B20
:03160B003A7F0122
:01160E0022B9
:081AE7008F588B598A5A895B64
:101AEF00E4FDFC900019E0B401037F0122AF05AEC5
:101AFF0004AD58120026AC067D03120026AC06E595
:101B0F005CFD120026AC06AD5D120026AC06AD07DB
:101B1F00AB59AA5AA95B855C1C855D1D121DEFACE4
:0A1B2F0006AD077F07121B3A7F0185
:011B39002289
:041CAA008D25AB07D2
:101CAE00E4FDFC900019E0B401037F0122AF05AE04
:101CBE0004AD03120026AC067D04120026AC06E429
:101CCE00FD120026AC067D01120026AC06AD2512D3
:0D1CDE000026AC06AD077F07121B3A7F0100
:011CEB0022D6
:0210D100AD0769
:1010D300E4F543F544900019E0B401037F0122AF26
:1010E30044AE431200268E438F447D051200268EA4
:1010F300438F44E4FD1200268E438F4474FFFFE5C3
:1011030041FEE540FDE53FFCE47BFFFAF9F8C3123D
:101113000BBE70117D01AF44AE431200268E438F88
:1011230044AD42807E74FFFFFEE540FDE53FFCE4F5
:101133007BFF7AFFF9F8C3120BBE70047D02803681
:101143007D04AF44AE431200268E438F44AF42AEBC
:1011530041AD40AC3F7818120BCFAD07AF44AE435F
:101163001200268E438F44AF42AE41AD40AC3F7870
:1011730010120BCFAD07AF44AE431200268E438F40
:1011830044AF42AE41AD40AC3F7808120BCFAD0740
:10119300AF44AE431200268E438F44E542FFE4ADD5
:1011A30007AF441200268E438F44AD44AC437F0700
:0511B300121B3A7F0150
:0111B8002214
:092130008C248D25120A19FF22EE
:092139008C258D26120A19FF22E3
:082142008C288D291214D8220B
:101919008F34D3854A83854B82E5489582E547957F
:10192900834015E548954BFFE547954AFEC3EF947B
:1019390017EE648094805048C3854A83854B82E5BD
:10194900489582E5479583500DC3E54B9548FFE5DA
:101959004A95474F602AC3900017E5489582E547A5
:1019690095834009754601754700754800AB4605E2
:1019790048E548AA477002054714F9E534120A5F99
:01198900223B
:100C3200E4F50AF50BF50CF50DC3E563941FE562C7
:100C420094005024122069EFD39400401B121CEC34
:100C52000563E563AC627002056214241BF58274BD
:100C6200003CF583EFF080D1C3E5639407E562941D
:100C7200005003020DA5C3E563950BFFE562950ADB
:100C8200FEC3EF9407EE94005003020D6FAF0B7496
:100C92001B2FF582E43400F583E06455600A050BEE
:100CA200E50B70D2050A80CE741C2FF582E4340065
:100CB200F583E064AA600A050BE50B70B9050A80AA
:100CC200B5741D250BF582E43400F583E0600474ED
:100CD200028036AD0B741F2DF582E43400F583E0FB
:100CE200FE74202DF582E43400F583E07C002400BC
:100CF200FFEC3ECF2407F50DE43FF50CD3E50D9450
:100D020026E50C940040097403250BF50BE480568C
:100D1200C3E563950BFFE562950AFEC3EF950DEE01
:100D2200950C4049741B250BF97400350AFA7B01B6
:100D3200E50D24FFFDE50C34FFFC121E94E50B25A6
:100D42000D241AF582E43400F583E06F6009740320
:100D5200250BF50BE4800FAF0BAE0A120FDBE50D8E
:100D6200250BF50BE50C350AF50A020C78C3E56391
:100D7200950BF563E562950AF562D3E5639400E5A8
:100D8200629400401E741B250BF9E43400752101A6
:100D9200F52289238562248563257B017A00791BEC
:030DA20012129E8C
:010DA500222B
:1020A300754601754700754800754901754A007505
:0920B3004B0090001774FFF022AD
:0D168D004A00A10101030235043702650285
:0B2125008F99E59830E1FB5398FD22F4
:100ED700900097E0FD7F01121B8C900075E0FFE406
:100EE7008F2CF52BF52AF5297F0312157990009D94
:100EF700E0FFB4FF05E4F517801EEFB4C8057517CA
:100F0700028015EFB42805751703800CEFB414059C
:100F17007517048003751705AD177F35121CAA9046
:100F27000077E0FEA3E07802CEC313CE13D8F9FF13
:100F3700E48F2C8E2BF52AF5297F371215797F4000
:100F47007E4B7D4C7C0090005CE0F8A3E0F9A3E0C9
:100F5700FAA3E0FBC3120BBE700575160180667F0E
:100F6700007ED47D307C0090005CE0F8A3E0F9A31C
:100F7700E0FAA3E0FBC3120BBE70057516028045AD
:100F87007F807E847D1E7C0090005CE0F8A3E0F902
:100F9700A3E0FAA3E0FBC3120BBE7005751603802E
:100FA700247F407E427D0F7C0090005CE0F8A3E048
:100FB700F9A3E0FAA3E0FBC3120BBE700575160494
:100FC7008003751605E485162CF52BF52AF5297F80
:040FD7006502157921
:1020D300122130AD077F01121B8CBF01037F012248
:0220E3007F007C
:0120E50022D8
:101F26001221428F278E268D258C24900075EFF086
:101F360012136F85272C85262B85252A8524297F34
:0C1F460003121579BF01037F01227F0008
:011F5200226C
:101A3F001221398F24E52414601014601514601AD4
:101A4F0014601F1460242405702890009D74FFF00B
:101A5F00802090009D74C8F0801890009D7428F02D
:101A6F00801090009D7414F08008900076E0900034
:101A7F009DF012136FAD247F35121CAABF01037F97
:041A8F0001227F00B1
:011A93002230
:101D2E001221428F278E268D258C24E47F04FEFD02
:101D3E00FCAB27AA26A925A824120A93900077EEB9
:101D4E00F0A3EFF012136F85272C85262B85252AFD
:101D5E008524297F37121579BF01037F01227F0069
:011D6E002252
:1011B9001221428F278E268D258C24E47F05FEFD82
:1011C900FCAB27AA26A925A824D3120BBE4006E406
:1011D9007527058016E4FFFEFDFCAB27AA26A92585
:1011E900A824C3120BBE7009752701F526F525F54C
:1011F90024E47F01FEFDFCAB27AA26A925A824C368
:10120900120BBE700C90005C120C01004C4B40801C
:1012190067E47F02FEFDFCAB27AA26A925A824C303
:10122900120BBE700C90005C120C010030D40080CF
:1012390047E47F03FEFDFCAB27AA26A925A824C302
:10124900120BBE700C90005C120C01001E84808091
:1012590027E47F04FEFDFCAB27AA26A925A824C301
:10126900120BBE90005C7009120C01000F42408005
:1012790007120C0100061A8012136F85272C852688
:101289002B85252A8524297F65121579BF01037FBE
:0412990001227F00AF
:01129D00222E
:10136F007F007E2F121FC87F107E271220F8E47B8C
:10137F00E87A03F9F890005CE0FCA3E0FDA3E0FE3F
:10138F00A3E0FF120B1E7808120BCF7D007C2F12EB
:10139F001F7B7F647E001220F8E47BE87A03F9F864
:1013AF0090005CE0FCA3E0FDA3E0FEA3E0FF120BC6
:1013BF001EE47D017C2F121F7B7F647E001220F8BC
:1013CF0090009DE0FF7D027C2F121F7B7F647E00CB
:1013DF001220F8900077E01313543FFF7D037C2F0A
:1013EF00121F7B7F647E001220F8900077E0FEA32F
:1013FF00E07802CEC313CE13D8F9FF7D047C2F12F1
:10140F001F7B7F647E001220F8900075E0FF7D0542
:0E141F007C2F121F7B7F647E001220F8D2AF5C
:01142D00229C
:06142E008B1E8A1F8920BD
:10143400EF24FD605B24CE606624FE607124D260DC
:101444007C246460030214D5AB1EAA1FA920AD221C
:10145400AC211220D38F23E523640170749000869D
:10146400E004F0E0C394054068E4F07F551220984E
:101474007FAA122098E4FF1220987F04122098E497
:10148400FF122098E4FF1220987F031220988041D5
:10149400AB1EAA1FA920AD22AC21121F26802BABA4
:1014A4001EAA1FA920AD22AC21121A3F801CAB1E1C
:1014B400AA1FA920AD22AC21121D2E800DAB1EAA9D
:1014C4001FA920AD22AC211211B98F23E49000860C
:0314D400F0AF2353
:0114D70022F2
:03001E007F052239
:0F210A0032636F307461717300312E302E3000EC
:03169A0001450007
:1000260074402FF974003EFA7B01ED120A5F0FBF90
:0300360000010EB8
:0100390022A4
:061DE900AF167E007BFF37
:0A1DEF008E178F188B198A1A891BB2
:101DF90074402FF974003EFA7B01851921851A2256
:101E0900851B23851C24851D2512129EE51D251879
:0B1E1900F518E51C3517F517FEAF1893
:011E2400229B
:101DAC008B2F8A3089318C328D33E94A4B602DE58B
:101DBC003345326027E5331533AE32700215324E9F
:101DCC00601AAB2FAA30A931120A19FF12212574FF
:0D1DDC00012531F531E43530F53080D92294
:0A1E94008B2F8A3089318C328D3398
:101E9E00E4FFFDFCC3ED9533EC9532501AAB2F05E4
:101EAE0031E531AA307002053014F9120A192FFFEC
:071EBE000DBD00010C80DDE9
:011EC50022FA
:041B3A008C2D8D2E33
:101B3E0090003A7455F0A374AAF0E4A3F0A3EFF06A
:101B4E00E52DA3F0E52EA3F02407F52EE4352DF5B3
:101B5E002D7B017A00793AE52E24FFFDE52D34FF29
:101B6E00FC121E947439252EF582E43400F583EFB1
:0E1B7E00F07B017A00793AAD2EAC2D021DAC41
:10200D00E4FFE545700AFEFD1200267545018007C7
:10201D007E007D01120026EFFD7C00E4FF021B3ADD
:101E2500E4F5167BFF7A21790A1219EA8E1C8F1DBB
:101E35007A21790A121DE98F167BFF7A217913120F
:101E450019EA8E1C8F1D7A217913121DE98F16EF61
:081E5500FD7C007F01021B3A35
:08214A00E4FDFC7F02021B3AD8
:021FA2008F1D91
:101FA40012001EE4FEEEC39F501775F002EEA42447
:101FB400A1F582E5F03400F583E0651D60030E8031
:031FC400E4AF0681
:011FC70022F7
:06198A008B168A17891874
:10199000120A19F519900001120A32F51A90000284
:1019A000120A32751C00F51B900003120A32251C26
:1019B000F51CE4351BF51BAF19121FA275F002EFE1
:1019C000A424A2F582E5F03400F583E0651A6003F3
:1019D0007F0022AB16E5182404F9E43517FA851BBD
:0919E00021851C22AF1912142EFE
:0119E90022DB
:040FDB008E0E8F0FD8
:100FDF00741E2FF582E43400F583E0FFB40900405E
:100FEF00030210D0900FFAF8282873021015021080
:100FFF001802101B02101E0210360210D002103DF4
:10100F000210D00210CD02200D021E2502214A74BB
:10101F0021250FF582E43400F583E0900017F0E40A
:10102F00FDFC7F03021B3A90001A7401F022AD0FF2
:10103F00741F2DF582E43400F583E0751500F51467
:10104F0074202DF582E43400F583E02515F515E4C1
:10105F003514F514E4F512F513C3E5139515E512E0
:10106F009514505DE50F2513FD2423F582E434001C
:10107F00F583E0751100F51074242DF582E434002A
:10108F00F583E02511F511E43510F5107421250FC6
:10109F00F97400350EFA7B01E92513F9EA3512FAD6
:1010AF0012198ABF010312136FE5112404FFE435EF
:1010BF0010FEEF2513F513EE3512F512809B120E6D
:0110CF00D749
:0110D00022FD
:10206900E549854A83854B826546700AE54865825C
:0E2079007004E547658360037F01227F00222B
:101CEC00E5468547838548826549700AE54B6582E0
:101CFC007004E54A65836029C3900017E54B958213
:101D0C00E54A95834009754901754A00754B00AB4E
:101D1C0049054BE54BAA4A7002054A14F9120A19F7
:011D2C00FFB7
:011D2D002293
:1009A40075F020800E75F010800575F0087D007ECE
:1009B400007F003392D530D503120BB0EC334010D6
:1009C400EF33FFEE33FEED33FDEC33FCD5F0ED22D7
:0E09D400E5F0247EA2D513CC92E7CDCEFF2213
:1009E200EDD2E7CD33EC3392D524814006E4FFFE0D
:1009F200FDFC22FCE4CFCECDCC24E0501174FF806C
:100A0200EDC3CC13CCCD13CDCE13CECF13CF047008
:070A1200F030D5DE020BB04D
:1016AA0002182AE493A3F8E493A34003F68001F214
:1016BA0008DFF48029E493A3F85407240CC8C33341
:1016CA00C4540F4420C8834004F456800146F6DF10
:1016DA00E4800B010204081020408090160FE47E7B
:1016EA00019360BCA3FF543F30E509541FFEE49305
:1016FA00A360010ECF54C025E060A840B8E493A3CC
:10170A00FAE493A3F8E493A3C8C582C8CAC583CAF6
:10171A00F0A3C8C582C8CAC583CADFE9DEE780BEAE
:01169D00004C
:100A1900BB010689828A83E0225002E722BBFE02DB
:090A2900E32289828A83E493220E
:100A3200BB010CE58229F582E5833AF583E0225079
:100A420006E92582F8E622BBFE06E92582F8E222C3
:0D0A5200E58229F582E5833AF583E49322DD
:100A5F00BB010689828A83F0225002F722BBFE0176
:020A6F00F32270
:100A7100F8BB010DE58229F582E5833AF583E8F0BB
:100A8100225006E92582C8F622BBFE05E92582C867
:020A9100F2224F
:100A9300E88FF0A4CC8BF0A42CFCE98EF0A42CFC02
:100AA3008AF0EDA42CFCEA8EF0A4CDA8F08BF0A480
:100AB3002DCC3825F0FDE98FF0A42CCD35F0FCEBDF
:100AC3008EF0A4FEA9F0EB8FF0A4CFC5F02ECD39A4
:0F0AD300FEE43CFCEAA42DCE35F0FDE43CFC2211
:100AE20075F008758200EF2FFFEE33FECD33CDCCCB
:100AF20033CCC58233C5829BED9AEC99E58298404E
:100B02000CF582EE9BFEED9AFDEC99FC0FD5F0D62A
:100B1200E4CEFBE4CDFAE4CCF9A88222B800C1B954
:100B22000059BA002DEC8BF084CFCECDFCE5F0CB92
:100B3200F97818EF2FFFEE33FEED33FDEC33FCEBCB
:100B420033FB10D703994004EB99FB0FD8E5E4F986
:100B5200FA227818EF2FFFEE33FEED33FDEC33FC73
:100B6200C933C910D7059BE99A4007EC9BFCE99A67
:100B7200F90FD8E0E4C9FAE4CCFB2275F010EF2FAC
:100B8200FFEE33FEED33FDCC33CCC833C810D707AC
:100B92009BEC9AE899400AED9BFDEC9AFCE899F8E7
:0E0BA2000FD5F0DAE4CDFBE4CCFAE4C8F9227A
:0E0BB000C3E49FFFE49EFEE49DFDE49CFC2256
:100BBE00EB9FF5F0EA9E42F0E99D42F0E89C45F08D
:010BCE002204
:100BCF00E8600FECC313FCED13FDEE13FEEF13FF04
:030BDF00D8F12228
:100BE200E8600FEFC333FFEE33FEED33FDEC33FC71
:030BF200D8F12215
:0C0BF500ECF0A3EDF0A3EEF0A3EFF02273
:100C0100A8828583F0D083D082120C18120C18129E
:100C11000C18120C18E473E493A3C583C5F0C583C3
:100C2100C8C582C8F0A3C583C5F0C583C8C582C83D
:010C310022A0
:00000001FF
