:03000000021D21BD
:0C1D2100787FE4F6D8FD758178021D681B
:1017AC00041C000000004100050041003B0C4100FE
:1017BC003C404400330000000044001500000000D1
:1017CC0044001900000000440056000000004400D2
:1017DC00400000000044005B0000000042002700B5
:1017EC0001420013000041000B0041003100420097
:1017FC0060000042000C00004100000841003E0067
:10180C0041002F0041003000410012004100210135
:10181C004100290A41003F0041003D0A41002E00D1
:10182C004100320042000900004100020002770032
:10183C000002750000410006004200030000410058
:10184C00010041002B005000460000000000000089
:0E185C00000000000000000000420007000035
:10251F008E218F228B238A248925AF051DEF6026FC
:10252F000522E522AE217002052114F5828E83E487
:10253F0093FFAB230525E525AA247002052414F982
:07254F00EF120CD680D4222C
:102617008F828E83E4F51FF51EF51DF51CAF82AE84
:1026270083E4FCFDAB1FAA1EA91DA81CC3120E73D1
:08263700500543BD1080E622AE
:0927B600E0FF7C2F12263F7F6436
:1027BF00E4FDFCC3ED9FEC9E50070DBD00010C80A6
:0127CF00F217
:0127D00022E6
:10000300758E5190FE917401F0A37410F075BD5F6D
:0700130090FEA07420F02212
:10277A00E490FE80F0758901758DFA758BCB43A8BC
:0E278A0008438840758CCB758AEB438810227B
:1025BA0090FF10E054F04408F090FF02E054F04419
:1025CA0002F0D28490FFA07420F0A37404F075CCBA
:1025DA000675CEFF75CD98759E0275981043A810A2
:0125EA0022CE
:1028040043B40343B4807F147E001227BF75B5011F
:0728140090FE9B744BF022C3
:1027D10090FF08E04488F090FF00E0540F4430F08F
:0A27E10090FF11E054F04403F022D1
:0B28B1008F99E59830E1FB5398FD2261
:102352008FB543B440E5B430E5FB53B4DF7F647E10
:10236200001227BFE4FBFAF943B440E5B430E5FBC1
:1023720053B4DFE5B62BFBE5B73AFA7F147E0012C1
:1023820027BF09B910E275B501A9027F647E001268
:0423920027BFAF01B1
:012396002224
:101600007B017A0079467D107F007E2F12251F9086
:101610000046E0FFE4FCFDFE90000E120EAA9000D2
:101620000EE0FCA3E0FDA3E0FEA3E0FF7808120EAD
:101630009790000E120EAA90000EE0F8A3E0F9A316
:10164000E0FAA3E0FB900047E0FFE4FCFDFEEB2F97
:10165000FFEE3AFEED39FDEC38FC90000E120EAABA
:1016600090000EE0FCA3E0FDA3E0FEA3E0FFE47B1E
:10167000E87A03F9F8120D3290000E120EAAE47FF8
:10168000307E75FDFC90000EE0F8A3E0F9A3E0FACF
:10169000A3E0FBC3120E7340177F007E097D3D7CE3
:1016A0000090000EE0F8A3A3A3E0D3120E73400A4B
:1016B00090000E120EB600009C40900048E0900092
:1016C0005FF07002800790005FE0B4FE0374FFF0EB
:1016D000900049E0FF90002CE4F0A3EFF0E0F8E484
:1016E000F0E890002CF090004AE0FF90002DE02FF1
:1016F000F090002CE03400F0E0FEA3E0FF4E600923
:10170000D3EF9408EE9407400990002CE4F0A37402
:1017100005F090004BE0900029F0900032F090002E
:101720004CE0900022F06006E0D394FF4006900069
:10173000227401F090004DE0F45401900021F090EB
:10174000004FE05401900012F07B017A0079077D90
:10175000027F807E2F12251F900007E090002EF060
:10176000900008E0900006F07F807E2F1226B27F66
:10177000107E271227BF90002EE004F0E0FF7D804E
:101780007C2F12263F7F647E001227BF900006E068
:1017900070030226D7900006E0FFB4010E7D817C25
:0C17A0002F12263F7F647E001227BF221C
:1000260090002FE060030208F543B440E5B430E5E4
:10003600FB53B4DF85B72185B622900014E004F0A7
:100046007006900013E004F090005BE0F8A3E0F97E
:10005600A3E0FAA3E0FBE4FCFDEB2522FFEA352151
:10006600FEED39FDEC38FC90005B120EAA900044C0
:10007600E0FEA3E0FFC39522EE9521500DC3E522D5
:100086009FF522E5219EF521800BC3EF9522F522EF
:10009600EE9521F521900019E0F8A3E0F9A3E0FA26
:1000A600A3E0FBE4FCFDEB2522FFEA3521FEED395A
:1000B600FDEC38FC900019120EAA900013E05401D2
:1000C600FEA3E04E7061D3900061E0940090006062
:1000D600E09400401790003DE094645042E0240212
:1000E600F0E0D3946440387464F0803390000CE000
:1000F6007004A3E06401702F900029E0FF90003D9A
:10010600E0FED39F4019EE94024004E024FEF090F6
:10011600003DE0C39F5008900029E090003DF0901C
:10012600003DE0FF1221D9C3900013E09420500354
:1001360002094243BD10E4F0A3F090003EE004F053
:10014600900040E0FCA3E0FDA3E0FEA3E0FF9000EA
:100156005BE0F8A3E0F9A3E0FAA3E0FBEF2BFFEEE8
:100166003AFEED39FDEC38FC900040120EAA9000E4
:100176003EE0C394084043E4F0900040E0FCA3E076
:10018600FDA3E0FEA3E0FF7810120E84900040125B
:100196000EAA900040A3A3E0FEA3E0FF900045E076
:1001A6002FF0900044E03EF0E0C313F0A3E013F01C
:1001B600900040120EB600000000900000E0C394CC
:1001C600085005E004F08056900060E07002A3E05D
:1001D600704C7F0A12235290002AEFF090005AE0EA
:1001E600FE2402FDE433FCEFD39DEC6480F87480BA
:1001F60098501E90002AE02402FDE433FCEED39DC5
:10020600EC6480F8748098500890005AE090002AB8
:10021600F090002AE090005AF0E4900000F0E4FF2D
:10022600FEFDFC900015E0F8A3E0F9A3E0FAA3E0D8
:10023600FBC3120E73704F900019E0FCA3E0FDA300
:10024600E0FEA3E02488FFEE3413FEE43DFDE43C2B
:10025600FC900015120EAA900027E07002A3E07031
:10026600257F407E427D0FFC900015E0F8A3E0F963
:10027600A3E0FAA3E0FBD3120E73400A9000151216
:100286000EB6000F4240900005E0701E900019E087
:10029600FCA3E0FDA3E0FEA3E0FF900033120EAA4C
:1002A600900023120EB600000001900023E0FCA38C
:1002B600E0FDA3E0FEA3E0FF900019E0F8A3E0F95B
:1002C600A3E0FAA3E02FFFEA3EFEE93DFDE83CFC91
:1002D600900033E0F8A3E0F9A3E0FAA3E0FBC31231
:1002E6000E7340030206AE900023E0FCA3E0FDA3DC
:1002F600E0FEA3E0FF900033E0F8A3A3A3E02FFF06
:10030600EA3EFEE93DFDE83CFC900019E0F8A3E07A
:10031600F9A3E0FAA3E0FBC3120E7340030206AE94
:10032600900005E004F0900056E0FCA3E0FDA3E099
:10033600FEA3E0FF900019E0F8EF2BFFEE3AFEED8A
:1003460039FDEC38FC900056120EAA900005E0FB31
:10035600E4FAF9F8900056E0FCA3E0FDA3E0FEA362
:10036600E0FF120DBD900033120EAA900033E0FCA0
:10037600A3E0FDA3E0FEA3E0FF7803120E84900045
:1003860023120EAAE47F207E4EFDFC900023E0F8A7
:10039600A3E0F9A3E0FAA3E0FBC3120E73500A90A0
:1003A6000023120EB600004E20E47F607EEAFDFCBC
:1003B600900023E0F8A3E0F9A3E0FAA3E0FBD31250
:1003C6000E73400A900023120EB60000EA609000F9
:1003D60033E0FCA3E0FDA3E0FEA3E0FF900015E000
:1003E600F8A3E0F9A3E0FAA3E0FBD3120E7340737F
:1003F600900033E0F8A3E0F9A3E0FAA3E0FB900055
:1004060015E0FCA3E0FDA3E0FEA3E09BFFEE9AFE51
:10041600ED99FDEC98FC90005B120EAA7F807E3869
:100426007D017C0090005BE0F8A3E0F9A3E0FAA36D
:10043600E0FBD3120E73400890003B7406F080294F
:10044600E47F407E9CFDFC90005BE0F8A3E0F9A30E
:10045600E0FAA3E0FBD3120E7390003B4008740948
:10046600F0800690003B740CF090003BE0FF90009B
:1004760005E0C39F5003020546900015E0FCA3E08B
:10048600FDA3E0FEA3E0FF900033E0F8A3E0F9A3AC
:10049600E0FAA3E0FB120E73400302054690003C0F
:1004A600E0941050030206BD90003BE0D39409503F
:1004B60010900033E0FCA3E0FDA3E0FEA3E0FF8084
:1004C60076900033E0FCA3E0FDA3E0FEA3E024A0C9
:1004D600FFEE340FFEE43DFDE43CFC900015E0F831
:1004E600A3E0F9A3E0FAA3E0FBD3120E73500302D4
:1004F60006AE900015E0FCA3E0FDA3E0FEA3E0FF3E
:10050600900033E0F8A3E0F9A3E0FAA3E0FBEF2BB9
:10051600FFEE3AFEED39FDEC38FC900015120EAAFE
:10052600900015E0FCA3E0FDA3E0FEA3E0FFE47B62
:1005360002FAF9F8120DBD900015120EAA0206AEC7
:1005460090003CE0FF900005E0C39F50030206BD0B
:10055600900015E0FCA3E0FDA3E0FEA3E024A0FFCD
:10056600EE340FFEE43DFDE43CFC900033E0F8A3DE
:10057600E0F9A3E0FAA3E0FBD3120E7350030206E0
:100586009E900015E0F8A3E0F9A3E0FAA3E0FB9043
:100596000033E0FCA3E0FDA3E0FEA3E09BFFEE9AA0
:1005A600FEED99FDEC98FC90005B120EAA7F007E92
:1005B600127D7A7C00900033E0F8A3E0F9A3E0FA1C
:1005C600A3E0FBC3120E73400302069E7F807E1AD1
:1005D6007D067C0090005BE0F8A3E0F9A3E0FAA3B7
:1005E600E0FBC3120E73400302069E90003CE094AB
:1005F60010400280587FE07E937D047C0090005B73
:10060600E0F8A3E0F9A3E0FAA3E0FBD3120E7340EF
:100616000890003C7410F080277FF07E497D027CB4
:100626000090005BE0F8A3E0F9A3E0FAA3E0FBD3B7
:10063600120E7390003C4005740CF080037408F0B1
:1006460090003CE0FF900005E0C39F404B900015F2
:10065600E0FCA3E0FDA3E0FEA3E0FF900033E0F89A
:10066600A3E0F9A3E0FAA3E0FBEF2BFFEE3AFEEDE1
:1006760039FDEC38FC900015120EAA900015E0FC2E
:10068600A3E0FDA3E0FEA3E0FFE47B02FAF9F81283
:100696000DBD900015120EAA90003CE0FF900005DB
:1006A600E0C39F4012E48004E4900005F0900056F9
:1006B600120EB600000000900031E0D39400500303
:1006C600020751E014F0900037E0FCA3E0FDA3E040
:1006D600FEA3E02470FFEE3417FEE43DFDE43CFC8F
:1006E600900015E0F8A3E0F9A3E0FAA3E0FBD3122B
:1006F6000E7350030208A3900037E0FCA3E0FDA3AD
:10070600E0FEA3E02498FFEE343AFEE43DFDE43C2F
:10071600FC900019E0F8A3E0F9A3E0FAA3E0FBC31C
:10072600120E7340030208A3900037E0FCA3E0FD1D
:10073600A3E0FEA3E02470FFEE3417FEE43DFDE4E3
:100746003CFC900015120EAA0208A3D3900028E0E4
:100756009400900027E094005003020812A3E024BE
:10076600FFF0900027E034FFF0D3A3E09400900060
:1007760027E0940050030208127F007E127D7A7CE7
:1007860000900015E0F8A3E0F9A3E0FAA3E0FBD39C
:10079600120E73400C90000E120EB6000C3500803F
:1007A6006B90000EE0FCA3E0FDA3E0FEA3E0FF904B
:1007B6000015E0F8A3E0F9A3E0FAA3E02FFFEA3E74
:1007C600FEE93DFDE83CFC90005B120EAA7F407EF0
:1007D600547D897C0090005BE0F8A3E0F9A3E0FA81
:1007E600A3E0FBD3120E734023900015E0F8A3E0BC
:1007F600F9A3E0FAA3E0FB74409BFF74549AFE74DD
:100806008999FDE498FC90000E120EAA90000EE065
:10081600FCA3E0FDA3E0FEA3E0FF900015E0F8A333
:10082600E0F9A3E0FAA3E02FFFEA3EFEE93DFDE88A
:100836003CFCA3E0F8A3E0F9A3E0FAA3E0FBD312A3
:100846000E73405990005FE0FF90002AE0D39F406E
:100856000FD3900028E09400900027E09400403DDC
:10086600900060E07002A3E07014900015E0FCA315
:10087600E0FDA3E0FEA3E0FF900037120EAA900071
:1008860060E4F0A304F090003C7408F0E490000CDF
:10089600F0A3F07877F608F67875F608F690001962
:1008A600E0FCA3E0FDA3E0FEA3E0FFA3120EAA90E6
:1008B600005B120EB600000000900019120EB60082
:1008C600000000900060E0FEA3E0FFD39400EE94E9
:1008D60000406990002CE0FCA3E0FDD3EF9DEE9C68
:1008E600405AE4900060F0A3F090002F04F02290AC
:1008F600000CE4F0A304F0E490002FF0900009F05F
:10090600A3F0900002F07FFAFE1226179000401224
:100916000EB600000000E490003EF090003C7440EB
:10092600F09000317402F09000007406F0E490003C
:0C09360005F0900056120EB60000000004
:010942002292
:101DAD00E4F52290005B120EB600000000E4F52170
:101DBD0043B440E5B430E5FB53B4DF90005BE0F88D
:101DCD00A3E0F9A3E0FAA3E0FBAFB6AEB7E4FCFDE8
:101DDD00EB2FFFEA3EFEED39FDEC38FC90005B1277
:101DED000EAA0521E521B480C77F907E011226172A
:101DFD0090005BE0FCA3E0FDA3E0FEA3E0FF780B09
:101E0D00120E848F21E521D3940C400CE521948D85
:101E1D005006E5229414500A0522E522D394504031
:021E2D0082220F
:011E2F002290
:101E300090005B120EB600000000E4F521E4F524EA
:101E4000F52543B440E5B430E5FB53B4DF85B72254
:101E500085B62390005BE0F8A3E0F9A3E0FAA3E0E5
:101E6000FBE4FCFDEB2523FFEA3522FEED39FDEC1A
:101E700038FC90005B120EAA0525E52570020524AA
:101E8000B400BFE524B420BA43BD100521E521B458
:101E900008AB90005BE0FCA3E0FDA3E0FEA3E0FF45
:0D1EA0007810120E84900044EEF0A3EFF0D5
:011EAD002212
:1021D900BF0104E4FE80397E007C007DFF120D0AF8
:1021E900AC06AD07E4120AE0E4FBFA79C8784212BA
:1021F9000A3E8F268E258D248C23E4FFFEFD7C3F2D
:10220900AB26AA25A924A82312094A120B19AE073D
:1022190090FF9C7410F075DEFF8EDF75DD947F00F2
:012229002292
:1012670012275B1200031227D112277A1225BA120E
:10127700280475BBAA90FEA774FFF053BBF7D2AF43
:101287007FC87E001226177F0A12235290002AEF8A
:10129700F090005AF0C2AF1216007F641221D9D223
:1012A700AF121DAD900029E0FF90003DF01221D94B
:1012B7007F2C7E01122617121E3090005B120EB68D
:1012C70000000000E490002BF090002EE0D3940380
:1012D70040161226D790002EE0D3940C4003121E1E
:1012E700AEE490002EF08003121A5890002BE070A5
:1012F70023900001E0B4011CE4F090001DE0FCA382
:10130700E0FDA3E0FEA3E0F5508E4F8D4E8C4D7FA0
:1013170078121C8B43BD1090002FE0700B900014C7
:10132700E0541F700312206D900021E064016003F8
:101337000213F3900030E0703F90002FF0A304F009
:10134700900029E090003DF0900040120EB600009A
:101357000000E490003EF090003C7440F0900031B3
:101367007402F09000007406F0E4900005F090001D
:1013770056120EB600000000120026D390000DE0B2
:10138700940090000CE094004032900002E0B40119
:101397002BE4F090000DE004F0700690000CE004E0
:1013A700F0900022E0FFC390000DE09F90000CE05A
:1013B70094004008E4F0A3F0FF1221D9D390006114
:1013C700E09400900060E0940050030212F27876F7
:1013D700E66401184660030212F2F608F6A3E00479
:1013E700F07006900060E004F00212F2E490003022
:1013F700F0900012E07007FF1221D90212F290005C
:1014070032E0FF1221D9E490002FF0900029E090FC
:10141700003DF0900040120EB600000000E490007E
:101427003EF090003C7440F09000317402F0900060
:10143700007406F0E4900005F0900056120EB60016
:061447000000000212F299
:03001B00021B22A3
:101B2200C0E0C0F0C083C082C0D075D000C000C089
:101B320001C002C003C004C005C006C007AF1FAE8B
:101B42001EAD1DAC1CEF2401F51FE43EF51EE43D65
:101B5200F51DE43CF51C90000AE004F070069000CC
:101B620009E004F0900009E0FEA3E0FFE4FCFD7B45
:101B7200607AEAF9F8D3120E5D500C900009E4F095
:101B8200A3F090000204F0787806E618700106C30C
:101B92007878E694E818E69403400C76000876001C
:101BA20078757600087601900004E004F0700690E3
:101BB2000003E004F0C3900004E094E8900003E026
:101BC20094034009E4F0A3F090000104F0D007D0A0
:101BD20006D005D004D003D002D001D000D0D0D09E
:081BE20082D083D0F0D0E03284
:030023000222C4F2
:1022C400C0E0C0F0C083C082C0D075D000C000C0E0
:0D22D40001C002C003C004C005C006C00761
:0F22E100E59830E00AAF99121F925398FED2AFE2
:1022F000D007D006D005D004D003D002D001D00042
:0B230000D0D0D082D083D0F0D0E032EB
:1026B20053BBF7C280E5BB20E3F6D280C2AF75FD03
:1026C200F075FC0F8EFA8FF975FDD275FC2D75FD34
:0526D200E175FC1E2271
:10263F0053BBF7C280E5BB20E3F6D280C2AF8FFB5E
:10264F0075FDF075FC0F8CFA8DF975FDB475FC4BAB
:07265F0075FDE175FC1E2270
:101A58007F007E2F1226B27F107E271227BFE47BDD
:101A6800E87A03F9F890000EE0FCA3E0FDA3E0FE9D
:101A7800A3E0FF120DBD7808120E847D007C2F12A2
:101A8800263F7F647E001227BFE47BE87A03F9F8DB
:101A980090000EE0FCA3E0FDA3E0FEA3E0FF120D22
:101AA800BD7D017C2F12263F7F647E001227BF90E8
:101AB800005F7D021227B690002C7D031227B6A383
:101AC800E0FF7D041227B8900029E0FF7D0512276A
:101AD800B8900022E0FF7D061227B8900021E0F4BC
:101AE800FF7D071227B8900012E0FF7D091227B882
:101AF8007F807E2F1226B27F107E271227BF7D801F
:101B08007C2FE4FF12263F7F647E001227BF7D8171
:091B18007C2F7F011227BAD2AF25
:011B210022A1
:10186A000172004300D00000004200CE0000420096
:07187A00CC00000270000029
:101F2100EFC39430400CEFD39439500674D02FFF97
:101F31008022EFC39441400CEFD394465006EF2426
:101F4100C9FF8010EFC39461400AEFD39466500437
:101F5100EF24A9FFEF540FC454F0FFEDC3943040B8
:101F61000CEDD39439500674D02DFD801EEDC39431
:101F7100414008EDD394465002800CEDC39461407A
:101F81000AEDD394665004ED24A9FDED540F4207E8
:011F9100222D
:062131008B4D8A4E894F20
:10213700E4F553F552F551F550E94A4B7005FFFEAA
:10214700FDFC22E4F553F552F551F550AB4D054F23
:10215700E54FAA4E7002054E14F9120C906017E570
:10216700532401F553E43552F552E43551F551E462
:0E2177003550F55080D6AF53AE52AD51AC503E
:012185002237
:0E2279007B017A0079D0752A00752B03E4FDF5
:062287008B268A2789283E
:10228D008B2C8A2D892EE94A4B7004FBFAF922E535
:10229D002B152BAE2A7002152A4E6014AB2C052E71
:1022AD00E52EAA2D7002052D14F9ED120CD680DF46
:0622BD00AB26AA27A928A8
:0122C30022F8
:061987008B548A558956BD
:10198D008B5C8A5D895E85575F855860855961E9F5
:10199D004A4B6008E5594558455770077B007A005A
:1019AD00790022D3856083856182E55E9582E55D50
:1019BD0095834019E561255BF9E560355AFA8A830F
:1019CD008982D3E55E9582E55D95834038E4F562C5
:1019DD00F563C3E563955BE562955A5067AB5FAA06
:1019ED0060A961856382856283120CA9AB5CAA5DD7
:1019FD00A95E856382856283120CE80563E56370D9
:101A0D00D1056280CD855A62855B63D3E563940011
:101A1D00E5629400402EAB5FAA60A961E56324FFE7
:101A2D00FFE56234FFFE8F82F583120CA9AB5CAA31
:101A3D005DA95E8F828E83120CE8E563156370CB12
:0A1A4D00156280C7AB54AA55A956D4
:011A5700226C
:102003008B4C8A4D894EE55345527003FEFF22E502
:10201300531553700215521445526033AB4FAA50F7
:10202300A951120C90FFAB4CAA4DA94E120C90B5BE
:10203300071DE92401F9E43A8B4CF54D894EE5512E
:102043002401F9E43550854F4FF550895180C0ABD9
:102053004FAA50A951120C90FFAB4CAA4DA94E1296
:0A2063000C90C39FFFE49400FE22DE
:10273C00E48B508A518952600AAF4FAE4EAD4DAC0E
:0E274C004C800BAF4FAE4EAD4DAC4C120E4F4D
:01275A00225C
:101BEA00E4F56FF56EF56DF56C120C90FFE48F6FEE
:101BFA00F56EF56DF56CAE6EAD6DAC6C7808120EC7
:101C0A00978F6F8E6E8D6D8C6C900001120CA9FFF0
:101C1A00E56F4FF56FE56EF56EE56DF56DE56CF503
:101C2A006CAF6FAE6EAD6DFC7808120E978F6F8E2B
:101C3A006E8D6D8C6C900002120CA9FFE56F4FF54A
:101C4A006FE56EF56EE56DF56DE56CF56CAF6FAE33
:101C5A006EAD6DFC7808120E978F6F8E6E8D6D8C3F
:101C6A006C900003120CA9FFE56F4FF56FE56EF556
:101C7A006EE56DF56DE56CF56CAF6FAE6EAD6DFC36
:011C8A002237
:0628F60090007CE0FF22CF
:0C28A500E490007CF0FDFC7F0402218622
:0628FC00900079E0FF22CC
:04222A008D5AAB0717
:10222E00E4FDFC90007BE0B401037F0122AF05AE1C
:10223E0004AD0312286BAC067D0112286BAC06E4CC
:10224E00FD12286BAC067D0112286BAC06AD07E5BE
:10225E005A7003FD8006AF05AE047D0112286BACEB
:0A226E0006AD077F071221867F01ED
:012278002243
:021C8B00AB07A5
:101C8D00E4FDFC90007BE0B401037F0122AF05AEC3
:101C9D0004AD0312286BAC067D0212286BAC06E472
:101CAD00FD12286BAC067D0412286BC006C007AF71
:101CBD0050AE4FAD4EAC4D7818120E84AD07D00717
:101CCD00D00612286BC006C007AF50AE4FAD4EAC5C
:101CDD004D7810120E84AD07D007D00612286BC0B8
:101CED0006C007AF50AE4FAD4EAC4D7808120E8406
:101CFD00AD07D007D00612286BAC06C007E550FF24
:101D0D00E4AD07D00712286BAC06AD077F07122193
:031D1D00867F01BD
:011D200022A0
:04241F008D5AAB0720
:10242300E4FDFC90007BE0B401037F0122AF05AE25
:1024330004AD0312286BAC067D0412286BAC06E4D2
:10244300FD12286BAC067D0112286BAC06AD5A1247
:0D245300286BAC06AD077F071221867F01C4
:012460002259
:02189F00AD0793
:1018A100E4F51AF51B90007BE0B401037F0122AF40
:1018B1001BAE1A12286B8E1A8F1B7D0512286B8E98
:1018C1001A8F1BE4FD12286B8E1A8F1B74FFFFE524
:1018D10018FEE517FDE516FCE47BFFFAF9F8C312E3
:1018E1000E7370117D01AF1BAE1A12286B8E1A8F09
:1018F1001BAD19807E74FFFFFEE517FDE516FCE4C4
:101901007BFF7AFFF9F8C3120E7370047D028036F3
:101911007D04AF1BAE1A12286B8E1A8F1BAF19AE46
:1019210018AD17AC167818120E84AD07AF1BAE1A9E
:1019310012286B8E1A8F1BAF19AE18AD17AC167823
:1019410010120E84AD07AF1BAE1A12286B8E1A8FC0
:101951001BAF19AE18AD17AC167808120E84AD077F
:10196100AF1BAE1A12286B8E1A8F1BE519FFE4AD5F
:1019710007AF1B12286B8E1A8F1BAD1BAC1A7F078A
:051981001221867F0128
:01198600223E
:0828BC008C5A8D5B120C90FF99
:0128C40022F1
:0828C5008C5A8D5B120C90FF90
:0128CD0022E8
:0728CE008C738D74121BEAEC
:0128D50022E0
:101F92008F64D3856A83856B82E5689582E5679550
:101FA200834015E568956BFFE567956AFEC3EF947C
:101FB20017EE648094805048C3856A83856B82E5FE
:101FC200689582E5679583500DC3E56B9568FFE5DB
:101FD2006A95674F602AC3900079E5689582E56744
:101FE20095834009756601756700756862AB660581
:101FF20068E568AA677002056714F9E564120CD6F1
:0120020022BB
:02144D008F25E9
:10144F00C2009000D1E09000D0F09000D2E0900068
:10145F00D1F0A3E525F09000D0E064557056A3E0DD
:10146F0064AA7050A3E0704C7B017A00797DF52A55
:10147F00752B1FFD1222877557017558007559D0AE
:10148F00755A00755B037B017A00797D1219877B92
:10149F00017A0079D0752A00752B031222879000EC
:1014AF00CCE4F0A37403F0757201E49000CEF0A3C6
:1014BF00F0A20022E57270030215FD24FE603514C0
:1014CF00605114700302158C1470030215BF2404AD
:1014DF0060030215DC9000CCE475F001120D1CFEC8
:1014EF00747D25F0F58274003EF583E525F0757265
:1014FF00020215FD9000CCE475F001120D1CFE7474
:10150F007D25F0F58274003EF583E525F0757203B5
:10151F000215FD9000CCE475F001120D1CFE747DD8
:10152F0025F0F58274003EF583E525F09000CCE0C0
:10153F00FEA3E0247BF58274003EF583E0FE90006D
:10154F00CCE0FCA3E0247CF58274003CF583E0FD45
:10155F00EDFF9000CEEEF0A3EFF0D3E0941F9000DC
:10156F00CEE0940040028065D39000CFE0940090CD
:10157F0000CEE0940040347572040215FD9000CC4B
:10158F00E475F001120D1CFE747D25F0F5827400D8
:10159F003EF583E525F09000CFE024FFF09000CEDC
:1015AF00E034FFF0E07002A3E07043757205803EF7
:1015BF009000CCE475F001120D1CFE747D25F0F542
:1015CF008274003EF583E525F0D200802112227946
:1015DF007B017A00797D752A00752B1F122287E413
:1015EF009000CCF0A3F0F5729000CEF0A3F0A20023
:0115FF0022C9
:10206D00E4F521F522F523F524C3E571941FE57000
:10207D009400504F122798EFD394004046122461DC
:10208D0012144D503EE4FFFE120F0D900081E0FE44
:10209D00A3E07C002400FFEC3ECF2407F524E43FB1
:1020AD00F5231222797B017A00797D752A00752B33
:1020BD001F122287E49000CCF0A3F0F5729000CEB1
:0320CD00F0A3F08D
:0120D00022ED
:10275B007A00796275660175670075686275690143
:0F276B00756A00756B6290007974FFF0020000D0
:101881004100BF004400BB000000004C00C06701E4
:0A1891007802790296049A04A0027E
:1026D7007F551228B17FAA1228B1E4FF1228B17FD3
:1026E700041228B1E4FF1228B1E4FF1228B17F03D6
:0326F7000228B105
:032902000228B1F7
:1024A300E4FD7F6712222AE4F550F54FF54EF54D12
:1024B3007F78121C8BE4F550F54FF54EF54D7F797F
:1024C300121C8BE4FD7F9612241FE4FD7F9A1224D5
:0F24D3001FE4F550F54FF54EF54D7FA0021C8B21
:102556001228BC900021E06F6006E4FE0EBE08FC67
:10256600EF9000217003F080037401F0121A589066
:102576000021E0FD7F6712222ABF01037F01227F2F
:012586000054
:012587002231
:10287F001228C5AD077F9612241FBF01037F0122C7
:02288F007F00C8
:012891002224
:102892001228C5AD077F9A12241FBF01037F0122B0
:0228A2007F00B5
:0128A4002211
:06230B008B548A5589562F
:10231100EF246A601924FC602624337031AB54AA7F
:1023210055A956AD58AC571225568F598020AB543C
:10233100AA55A956AD58AC5712287F8F59800FABBB
:1023410054AA55A956AD58AC571228928F59AF5976
:012351002269
:032905007F062228
:0828D600E4FDFC7F09022186EC
:0828DE00E4FDFC7F0E022186DF
:02001E008F4C05
:020020008D4D04
:0100220022BB
:0227EB008F0855
:1027ED00E4F510F511F512850E13850F14850B10F8
:0627FD00850C11850D1290
:0128030022B2
:01001A0022C3
:02281B00AB0709
:10281D00E4FCFFFEAD0312286BAC06AD077FE102B1
:02282D00218602
:02282F00AB07F5
:10283100E4FCFFFEAD0312286BAC06AD077FE2029C
:022841002186EE
:032908008F4C22CF
:02284300AB07E1
:10284500E4FCFFFEAD0312286BAC06AD077FE40286
:022855002186DA
:03290B008F4C22CC
:02285700AB07CD
:10285900E4FCFFFEAD0312286BAC06AD077FE50271
:022869002186C6
:03290E008F4C22C9
:02266600AF05BE
:10266800E4FDFCEF640860037F0022AF05AE04754B
:1026780052007553081223A5AC06AD077FE6122158
:03268800867F004A
:01268B00222C
:032911008F4C22C6
:0828E600E4FDFC7FE7022186FE
:032914008F4C22C3
:1025EB00E4FDFCFFFEFBFAF9F5527553031223A52C
:1025FB00AC06AD077B007A0079007552007553036A
:0C260B001223A5AC06AD077FE902218672
:01291700229D
:101EAE00E4F5217F807E2E1226B27F107E27122728
:101EBE00BF7D807C2E7F0112263F7F647E0012271D
:101ECE00BFE4F5217F647E001227BF0521E521C303
:101EDE00940840F07F647E001227BF7F647E00125C
:101EEE0027BF7F647E001227BF7F647E001227BF4C
:101EFE007F647E001227BF7F647E001227BF7F643F
:101F0E007E001227BF7F647E001227BF7F647E0093
:031F1E000227BFD8
:1026FA0078673377306C6F6800312E302E30007473
:10270A007275650030303030303030303030303033
:02271A000000BD
:03189B00016500E4
:10286B0074A22FF974003EFA7B01ED120CD60FBF48
:03287B0000010E4B
:01287E002237
:0E2397007E007B007A007900755200755303BA
:0A23A5008E4D8F4E8B4F8A508951E8
:1023AF0074A22FF974003EFA7B01854F5785505860
:1023BF0085515985525A85535B121987E553254E1E
:0B23CF00F54EE552354DF54DFEAF4ECA
:0123DA0022E0
:1024E2008B5D8A5E895F8C608D61E94A4B602DE568
:1024F2006145606027E5611561AE60700215604E4E
:10250200601AAB5DAA5EA95F120C90FF12290274D9
:0D25120001255FF55FE4355EF55E80D9229E
:0A2588008B5D8A5E895F8C608D61B7
:10259200E4FFFDFCC3ED9561EC9560501AAB5D055F
:1025A2005FE55FAA5E7002055E14F9120C902FFFC0
:0725B2000DBD00010C80DDEE
:0125B90022FF
:042186008C5B8D5C85
:10218A0090009C7455F0A374AAF0E4A3F0A3EFF0B6
:10219A00E55BA3F0E55CA3F02407F55CE4355BF5A9
:1021AA005B7B017A00799CE55C24FFFDE55B34FFEB
:1021BA00FC122588749B255CF5827400355BF583D7
:0F21CA00EFF07B017A00799CAD5CAC5B0224E204
:10271C00E4FFE565700AFEFD12286B756501800704
:10272C007E007D0112286BEFFD7C00E4FF02218608
:1023DB00E4F54C7BFF7A2679FA1221318E528F531A
:1023EB00AF4C7E007BFF7A2679FA1223A58F4C7BAC
:1023FB00FF7A2779031221318E528F53AF4C7E0017
:10240B007BFF7A2779031223A58F4CEFFD7C007F8E
:04241B000102218613
:0828EE00E4FDFC7F02022186DB
:02268C008F536A
:10268E00122905E4FEEEC39F501775F002EEA42446
:10269E00C0F582E5F03400F583E0655360030E80EB
:0326AE00E4AF0690
:0126B1002206
:0620D1008B4C8A4D894E84
:1020D700120C90F54F900001120CA9F550900002D8
:1020E700120CA9755200F551900003120CA9255244
:1020F700F552E43551F551AF4F12268C75F002EFCA
:10210700A424C1F582E5F03400F583E0655060034F
:102117007F0022AB4CE54E2404F9E4354DFA855196
:0921270057855258AF4F12230BEB
:01213000228C
:040F0D008E258F2678
:100F1100E4F52974802FF58274003EF583E0F52F06
:100F2100783A7C007D007BFF7A27790E7E007F0E68
:100F3100120C6AE52F120EE70F70000F73010F7686
:100F4100020F79030F9C040FA30610420810450EEF
:100F51001263A11098E010A9E111F9E2120AE4125A
:100F61001BE5122CE6123DE7124EE8000012660264
:100F7100271C0223DB0228EE74832526F5827400E8
:100F81003525F583E0900079F064016003E070039A
:100F9100120000E4FDFC7F0302126090007C7401EA
:100FA100F02274812526F58274003525F583E075DC
:100FB1002E00F52D74822526F58274003525F583E2
:100FC100E0252EF52EE4352DF52DE4F52BF52CC37A
:100FD100E52C952EE52B952D4003021266E526257D
:100FE1002CFDE525352BFC74852DF58274003CF52F
:100FF10083E0752800F52774862DF58274003CF591
:1010010083E02528F528E43527F52774832526F97B
:1010110074003525FA7B01E9252CF9EA352BFA1202
:1010210020D18F2AE52AB40103121A58E528240495
:10103100FFE43527FEEF252CF52CEE352BF52B8023
:101041008E0224A3748A2526F974003525FA7B01C2
:10105100754FFF755027755109755200755304126C
:101061002003EF4E702B74982526F58274003525E8
:10107100F583E024D075F00AA4FF74992526F58242
:1010810074003525F583E024D02FF404FD7F018021
:1010910003E4FDFF02001E74832526F582740035EA
:1010A10025F583E0FF02001A74832526F58274007A
:1010B1003525F583E0F52A6003021266748425263E
:1010C100F58274003525F583E0701274852526F5C7
:1010D1008274003525F583E024E2021172748425BF
:1010E10026F58274003525F583E06401706074850E
:1010F1002526F974003525755701F5588959755A12
:1011010000755B0D7B007A00793A1219877B007AB2
:1011110000793A12273C8F4B8E4A8D498C48749244
:101121002526F58274003525F583E0C39408E494FF
:10113100007E0050047F0180027F0074932526F514
:101141008274003525F583E07C002F0211F274844E
:101151002526F58274003525F583E06402600302DB
:10116100126674852526F58274003525F583E02401
:10117100D0F531E43407F53074862526F582740004
:101181003525F583E0F53274872526F5827400351F
:1011910025F583E0F53374882526F582740035251D
:1011A100F583E0F53474892526F58274003525F53B
:1011B10083E0F535748A2526F58274003525F5839B
:1011C100E0F536748B2526F58274003525F583E02C
:1011D100F537748C2526F58274003525F583E0FEFC
:1011E100748D2526F58274003525F583E07C002475
:1011F10000F539EC3EF5382274832526F58274001A
:101201003525F583E0FF02290874832526F58274CC
:10121100003525F583E0FF02290B74832526F5822D
:1012210074003525F583E0FF02290E74832526F528
:101231008274003525F583E0FF0229117483252688
:10124100F58274003525F583E0FF022914AF2912D8
:1012510023978F291223978F29EFFD7C007FE802C6
:0512610021861229178F
:011266002265
:10279800E569856A83856B826566700AE568658286
:0E27A8007004E567658360037F01227F0022D5
:10246100E5668567838568826569700AE56B6582C3
:102471007004E56A65836029C3900079E56B9582F4
:10248100E56A95834009756901756A00756B62ABF0
:1024910069056BE56BAA6A7002056A14F9120C9062
:0124A100FF3B
:0124A2002217
:10094300020B85E86480F8E933E83360110460F052
:10095300ED33EC337009E8FCE9FDEAFEEBFF22041A
:1009630060DED3EB9FEA9EE99DE8C2E78CF0C2F715
:1009730095F0400CE8CCF8E9CDF9EACEFAEBCFFBE1
:10098300120B5085D0F05804700320D5B3E80470DF
:10099300075002B2D5020B8F92D5EC0460F7E4CC7A
:1009A300C0E0C398F8603B94186008400DD0E0FBAA
:1009B300020B67E4FBFAC9FC8028E830E406E4C9CB
:1009C300FBE4CAFCE830E305E4C9CACBFCE85407FE
:1009D3006010F8C3E913F9EA13FAEB13FBEC13FC09
:1009E300D8F130F52FC3E49CFCEF9BFFEE9AFEEDAC
:1009F30099FDD0E0FBEF4E4D4C701222DB03020B4E
:100A03008CEC2CFCEF33FFEE33FEED33FDED30E7E2
:100A1300EB020B67EF2BFFEE3AFEED39FDD0E0FB67
:100A230050130BBB0003020B8FED13FDEE13FEEF10
:080A330013FFEC13FC020B673A
:100A3B00020B8FEC5D046005E859047003020B8513
:100A4B00120B50580460F6EC4860F2EC7004FDFE9B
:100A5B00FF22C860DB2481C85009C398600250068E
:100A6B00020B8C9850CAF582E9294B4A7005AB8270
:100A7B00020B7B75F0007C1A7880C3EF9BEE9AED2E
:100A8B0099400DC3EF9BFFEE9AFEED99FDE842F006
:100A9B00DC23ACF0D0E0FFD0E0FED0E0FDAB822059
:100AAB00E7101BEB60BAEC2CFCEF33FFEE33FEEDE3
:100ABB0033FD020B67E803F830E705C0F075F00073
:100ACB00EF2FFFEE33FEED33FD40B830E7C280AAC7
:100ADB0075F020800E75F010800575F0087D007E96
:100AEB00007F003392D530D503120E4FEC334010FC
:100AFB00EF33FFEE33FEED33FDEC33FCD5F0ED229F
:0E0B0B00E5F0247EA2D513CC92E7CDCEFF22DA
:100B1900EDD2E7CD33EC3392D524814006E4FFFED4
:100B2900FDFC22FCE4CFCECDCC24E0501174FF8033
:100B3900EDC3CC13CCCD13CDCE13CECF13CF0470D0
:070B4900F030D5DE020E4F73
:100B5000E9D2E7C933E833F892D5EDD2E7CD33ECEB
:070B600033FC5002B2D52264
:100B6700EC30E7100FBF000C0EBE00080DBD0004EF
:100B77000BEB6014A2D5EB13FCED92E7FD2274FF9B
:100B8700FCFDFEFF22E480F8A2D574FF13FC7D80F4
:030B9700E480EF08
:101D2D00021267E493A3F8E493A34003F68001F253
:101D3D0008DFF48029E493A3F85407240CC8C333B7
:101D4D00C4540F4420C8834004F456800146F6DF86
:101D5D00E4800B01020408102040809017ACE47E53
:101D6D00019360BCA3FF543F30E509541FFEE4937B
:101D7D00A360010ECF54C025E060A840B8E493A342
:101D8D00FAE493A3F8E493A3C8C582C8CAC583CA6D
:101D9D00F0A3C8C582C8CAC583CADFE9DEE780BE25
:01189E000049
:100B9A00E709F608DFFA8046E709F208DFFA803E3D
:100BAA0088828C83E709F0A3DFFA8032E309F6082A
:100BBA00DFFA8078E309F208DFFA807088828C8392
:100BCA00E309F0A3DFFA806489828A83E0A3F60846
:100BDA00DFFA805889828A83E0A3F208DFFA804C20
:100BEA0080D280FA80C680D4806980F280338010F7
:100BFA0080A680EA809A80A880DA80E280CA803360
:100C0A0089828A83ECFAE493A3C8C582C8CCC583D7
:100C1A00CCF0A3C8C582C8CCC583CCDFE9DEE780A7
:100C2A000D89828A83E493A3F608DFF9ECFAA9F026
:100C3A00EDFB2289828A83ECFAE0A3C8C582C8CC7C
:100C4A00C583CCF0A3C8C582C8CCC583CCDFEADE95
:100C5A00E880DB89828A83E493A3F208DFF980CCF7
:100C6A0088F0EF60010E4E60C388F0ED2402B404F0
:100C7A000050B9F582EB2402B4040050AF23234597
:060C8A008223900BEA73C7
:100C9000BB010689828A83E0225002E722BBFE0262
:090CA000E32289828A83E4932295
:100CA900BB010CE58229F582E5833AF583E0225000
:100CB90006E92582F8E622BBFE06E92582F8E2224A
:0D0CC900E58229F582E5833AF583E4932264
:100CD600BB010689828A83F0225002F722BBFE01FD
:020CE600F322F7
:100CE800F8BB010DE58229F582E5833AF583E8F042
:100CF800225006E92582C8F622BBFE05E92582C8EE
:020D0800F222D5
:100D0A00EF8DF0A4A8F0CF8CF0A428CE8DF0A42EFD
:020D1A00FE22B7
:100D1C00A3F8E0C5F025F0F0E5821582700215838A
:060D2C00E0C838F0E822E7
:100D3200E88FF0A4CC8BF0A42CFCE98EF0A42CFC60
:100D42008AF0EDA42CFCEA8EF0A4CDA8F08BF0A4DE
:100D52002DCC3825F0FDE98FF0A42CCD35F0FCEB3D
:100D62008EF0A4FEA9F0EB8FF0A4CFC5F02ECD3902
:0F0D7200FEE43CFCEAA42DCE35F0FDE43CFC226F
:100D810075F008758200EF2FFFEE33FECD33CDCC29
:100D910033CCC58233C5829BED9AEC99E5829840AC
:100DA1000CF582EE9BFEED9AFDEC99FC0FD5F0D689
:100DB100E4CEFBE4CDFAE4CCF9A88222B800C1B9B3
:100DC1000059BA002DEC8BF084CFCECDFCE5F0CBF1
:100DD100F97818EF2FFFEE33FEED33FDEC33FCEB2A
:100DE10033FB10D703994004EB99FB0FD8E5E4F9E5
:100DF100FA227818EF2FFFEE33FEED33FDEC33FCD2
:100E0100C933C910D7059BE99A4007EC9BFCE99AC5
:100E1100F90FD8E0E4C9FAE4CCFB2275F010EF2F0A
:100E2100FFEE33FEED33FDCC33CCC833C810D7070A
:100E31009BEC9AE899400AED9BFDEC9AFCE899F845
:0E0E41000FD5F0DAE4CDFBE4CCFAE4C8F922D8
:0E0E4F00C3E49FFFE49EFEE49DFDE49CFC22B4
:100E5D00EB9FF5F0EA9E42F0E99D42F0EC6480C80C
:060E6D0064809845F022AC
:100E7300EB9FF5F0EA9E42F0E99D42F0E89C45F0D5
:010E8300224C
:100E8400E8600FECC313FCED13FDEE13FEEF13FF4C
:030E9400D8F12270
:100E9700E8600FEFC333FFEE33FEED33FDEC33FCB9
:030EA700D8F1225D
:0C0EAA00ECF0A3EDF0A3EEF0A3EFF022BB
:100EB600A8828583F0D083D082120ECD120ECD1279
:100EC6000ECD120ECDE473E493A3C583C5F0C5839E
:100ED600C8C582C8F0A3C583C5F0C583C8C582C886
:010EE60022E9
:100EE700D083D082F8E4937012740193700DA3A39A
:100EF70093F8740193F5828883E4737402936860AE
:060F0700EFA3A3A380DFAD
:00000001FF
