:03000000021C7A65
:0C1C7A00787FE4F6D8FD758178021CC16B
:10173700041C000000004100050041003C0C410072
:101747003D40440034000000004400150000000044
:101757004400190000000044005700000000440046
:10176700410000000044005C000000004200280027
:1017770001420013000041000B004100320042000B
:1017870061000042000C00004100000841003F00DA
:1017970041003000410031004100120041002101A9
:1017A70041002A0A4100400041003E0A41002F0043
:1017B70041003300420009000041000200027700A7
:1017C70000027500004100060042000300004100CE
:1017D70001004100270041002C0050004700000095
:1017E70000000000000000000000000000420007A9
:0217F7000000F0
:10236F008E218F228B238A248925AF051DEF6026AE
:10237F000522E522AE217002052114F5828E83E439
:10238F0093FFAB230525E525AA247002052414F934
:07239F00EF120CEC80D422C8
:06243B00D2AF7FF47E0128
:102441008F828E83E4F51FF51EF51DF51CAF82AE5C
:1024510083E4FCFDAB1FAA1EA91DA81CC3120E8993
:08246100500543BD1080E62286
:0925CE007C2F1224997F647E0029
:1025D700E4FDFCC3ED9FEC9E50070DBD00010C8090
:0125E700F201
:0125E80022D0
:10000300758E5190FE917401F0A37410F075BD5F6D
:0700130090FEA07420F02212
:10259200E490FE80F0758901758DFA758BCB43A8A6
:0E25A20008438840758CCB758AEB4388102265
:10240A0090FF10E054F04408F090FF02E054F044CA
:10241A0002F0D28490FFA07420F0A37404F075CC6B
:10242A000675CEFF75CD98759E0275981043A81053
:01243A00227F
:10261C0043B40343B4807F147E001225D775B501F3
:07262C0090FE9B744BF022AD
:1025E90090FF08E04488F090FF00E0540F4430F079
:0A25F90090FF11E054F04403F022BB
:0B26E9008F99E59830E1FB5398FD222B
:1022F5008FB543B440E5B430E5FB53B4DF1225D3C5
:10230500E4FBFAF943B440E5B430E5FB53B4DFE54B
:10231500B62BFBE5B73AFA7F147E001225D709B92B
:0C23250010E275B501A9021225D3AF012A
:012331002289
:10160E007B017A0079477D107F007E2F12236F9029
:10161E000047E0FFE4FCFDFE90000E120EC09000AD
:10162E000EE0FCA3E0FDA3E0FEA3E0FF7808120E9F
:10163E00AD90000E120EC090000EE0F8A3E0F9A3DC
:10164E00E0FAA3E0FB900048E0FFE4FCFDFEEB2F88
:10165E00FFEE3AFEED39FDEC38FC90000E120EC096
:10166E0090000EE0FCA3E0FDA3E0FEA3E0FFE47B10
:10167E00E87A03F9F8120D4890000E120EC0E47FBE
:10168E00307E75FDFC90000EE0F8A3E0F9A3E0FAC1
:10169E00A3E0FBC3120E8940177F007E097D3D7CBF
:1016AE000090000EE0F8A3A3A3E0D3120E89400A27
:1016BE0090000E120ECC00009C40900049E090006D
:1016CE0060F0700374FFF090004EE0F4540190004F
:1016DE0021F07B017A0079077D027F807E2F122315
:1016EE006F900007E090002FF0900008E090000649
:1016FE00F07F807E2F12250C7F107E271225D7902B
:10170E00002FE004F07D801224951225D390000660
:10171E00E0700302270E900006E0FFB4010A7D81FF
:09172E007C2F1224991225D3220C
:10002600900030E0600302090B43B440E5B430E5CC
:10003600FB53B4DF85B72185B622900014E004F0A7
:100046007006900013E004F090005CE0F8A3E0F97D
:10005600A3E0FAA3E0FBE4FCFDEB2522FFEA352151
:10006600FEED39FDEC38FC90005C120EC0900045A8
:10007600E0FEA3E0FFC39522EE9521500DC3E522D5
:100086009FF522E5219EF521800BC3EF9522F522EF
:10009600EE9521F521900019E0F8A3E0F9A3E0FA26
:1000A600A3E0FBE4FCFDEB2522FFEA3521FEED395A
:1000B600FDEC38FC900019120EC0900013E05401BC
:1000C600FEA3E04E7061D3900062E0940090006160
:1000D600E09400401790003EE094645042E0240211
:1000E600F0E0D3946440387464F0803390000CE000
:1000F6007004A3E06401702F90002AE0FF90003E98
:10010600E0FED39F4019EE94024004E024FEF090F6
:10011600003EE0C39F500890002AE090003EF09019
:10012600003EE0FF122031C3900013E094205003FC
:1001360002095843BD10E4F0A3F090003FE004F03C
:10014600900041E0FCA3E0FDA3E0FEA3E0FF9000E9
:100156005CE0F8A3E0F9A3E0FAA3E0FBEF2BFFEEE7
:100166003AFEED39FDEC38FC900041120EC09000CD
:100176003FE0C394084043E4F0900041E0FCA3E074
:10018600FDA3E0FEA3E0FF7810120E9A9000411244
:100196000EC0900041A3A3E0FEA3E0FF900046E05E
:1001A6002FF0900045E03EF0E0C313F0A3E013F01B
:1001B600900041120ECC00000000900000E0C394B5
:1001C600085005E004F08056900061E07002A3E05C
:1001D600704C7F0A1222F590002BEFF090005BE046
:1001E600FE2402FDE433FCEFD39DEC6480F87480BA
:1001F60098501E90002BE02402FDE433FCEED39DC4
:10020600EC6480F8748098500890005BE090002BB6
:10021600F090002BE090005BF0E4900000F0E4FF2B
:10022600FEFDFC900015E0F8A3E0F9A3E0FAA3E0D8
:10023600FBC3120E89704F900019E0FCA3E0FDA3EA
:10024600E0FEA3E02488FFEE3413FEE43DFDE43C2B
:10025600FC900015120EC0900028E07002A3E0701A
:10026600257F407E427D0FFC900015E0F8A3E0F963
:10027600A3E0FAA3E0FBD3120E89400A9000151200
:100286000ECC000F4240900005E0701E900019E071
:10029600FCA3E0FDA3E0FEA3E0FF900034120EC035
:1002A600900023120ECC00000001900023E0FCA376
:1002B600E0FDA3E0FEA3E0FF900019E0F8A3E0F95B
:1002C600A3E0FAA3E02FFFEA3EFEE93DFDE83CFC91
:1002D600900034E0F8A3E0F9A3E0FAA3E0FBC31230
:1002E6000E8940030206AE900023E0FCA3E0FDA3C6
:1002F600E0FEA3E0FF900034E0F8A3A3A3E02FFF05
:10030600EA3EFEE93DFDE83CFC900019E0F8A3E07A
:10031600F9A3E0FAA3E0FBC3120E8940030206AE7E
:10032600900005E004F0900057E0FCA3E0FDA3E098
:10033600FEA3E0FF900019E0F8EF2BFFEE3AFEED8A
:1003460039FDEC38FC900057120EC0900005E0FB1A
:10035600E4FAF9F8900057E0FCA3E0FDA3E0FEA361
:10036600E0FF120DD3900034120EC0900034E0FC72
:10037600A3E0FDA3E0FEA3E0FF7803120E9A90002F
:1003860023120EC0E47F207E4EFDFC900023E0F891
:10039600A3E0F9A3E0FAA3E0FBC3120E89500A908A
:1003A6000023120ECC00004E20E47F607EEAFDFCA6
:1003B600900023E0F8A3E0F9A3E0FAA3E0FBD31250
:1003C6000E89400A900023120ECC0000EA609000CD
:1003D60034E0FCA3E0FDA3E0FEA3E0FF900015E0FF
:1003E600F8A3E0F9A3E0FAA3E0FBD3120E89407369
:1003F600900034E0F8A3E0F9A3E0FAA3E0FB900054
:1004060015E0FCA3E0FDA3E0FEA3E09BFFEE9AFE51
:10041600ED99FDEC98FC90005C120EC07F807E3852
:100426007D017C0090005CE0F8A3E0F9A3E0FAA36C
:10043600E0FBD3120E89400890003C7406F0802938
:10044600E47F407E9CFDFC90005CE0F8A3E0F9A30D
:10045600E0FAA3E0FBD3120E8990003C4008740931
:10046600F0800690003C740CF090003CE0FF900099
:1004760005E0C39F5003020546900015E0FCA3E08B
:10048600FDA3E0FEA3E0FF900034E0F8A3E0F9A3AB
:10049600E0FAA3E0FB120E89400302054690003DF8
:1004A600E0941050030206BD90003CE0D39409503E
:1004B60010900034E0FCA3E0FDA3E0FEA3E0FF8083
:1004C60076900034E0FCA3E0FDA3E0FEA3E024A0C8
:1004D600FFEE340FFEE43DFDE43CFC900015E0F831
:1004E600A3E0F9A3E0FAA3E0FBD3120E89500302BE
:1004F60006AE900015E0FCA3E0FDA3E0FEA3E0FF3E
:10050600900034E0F8A3E0F9A3E0FAA3E0FBEF2BB8
:10051600FFEE3AFEED39FDEC38FC900015120EC0E8
:10052600900015E0FCA3E0FDA3E0FEA3E0FFE47B62
:1005360002FAF9F8120DD3900015120EC00206AE9B
:1005460090003DE0FF900005E0C39F50030206BD0A
:10055600900015E0FCA3E0FDA3E0FEA3E024A0FFCD
:10056600EE340FFEE43DFDE43CFC900034E0F8A3DD
:10057600E0F9A3E0FAA3E0FBD3120E8950030206CA
:100586009E900015E0F8A3E0F9A3E0FAA3E0FB9043
:100596000034E0FCA3E0FDA3E0FEA3E09BFFEE9A9F
:1005A600FEED99FDEC98FC90005C120EC07F007E7B
:1005B600127D7A7C00900034E0F8A3E0F9A3E0FA1B
:1005C600A3E0FBC3120E89400302069E7F807E1ABB
:1005D6007D067C0090005CE0F8A3E0F9A3E0FAA3B6
:1005E600E0FBC3120E89400302069E90003DE09494
:1005F60010400280587FE07E937D047C0090005C72
:10060600E0F8A3E0F9A3E0FAA3E0FBD3120E8940D9
:100616000890003D7410F080277FF07E497D027CB3
:100626000090005CE0F8A3E0F9A3E0FAA3E0FBD3B6
:10063600120E8990003D4005740CF080037408F09A
:1006460090003DE0FF900005E0C39F404B900015F1
:10065600E0FCA3E0FDA3E0FEA3E0FF900034E0F899
:10066600A3E0F9A3E0FAA3E0FBEF2BFFEE3AFEEDE1
:1006760039FDEC38FC900015120EC0900015E0FC18
:10068600A3E0FDA3E0FEA3E0FFE47B02FAF9F81283
:100696000DD3900015120EC090003DE0FF900005AE
:1006A600E0C39F4012E48004E4900005F0900057F8
:1006B600120ECC00000000900032E0D394005003EC
:1006C600020751E014F0900038E0FCA3E0FDA3E03F
:1006D600FEA3E02470FFEE3417FEE43DFDE43CFC8F
:1006E600900015E0F8A3E0F9A3E0FAA3E0FBD3122B
:1006F6000E8950030208B9900038E0FCA3E0FDA380
:10070600E0FEA3E02498FFEE343AFEE43DFDE43C2F
:10071600FC900019E0F8A3E0F9A3E0FAA3E0FBC31C
:10072600120E8940030208B9900038E0FCA3E0FDF0
:10073600A3E0FEA3E02470FFEE3417FEE43DFDE4E3
:100746003CFC900015120EC00208B9D3900029E0B7
:100756009400900028E094005003020812A3E024BD
:10076600FFF0900028E034FFF0D3A3E0940090005F
:1007760028E0940050030208127F007E127D7A7CE6
:1007860000900015E0F8A3E0F9A3E0FAA3E0FBD39C
:10079600120E89400C90000E120ECC000C35008013
:1007A6006B90000EE0FCA3E0FDA3E0FEA3E0FF904B
:1007B6000015E0F8A3E0F9A3E0FAA3E02FFFEA3E74
:1007C600FEE93DFDE83CFC90005C120EC07F407ED9
:1007D600547D897C0090005CE0F8A3E0F9A3E0FA80
:1007E600A3E0FBD3120E894023900015E0F8A3E0A6
:1007F600F9A3E0FAA3E0FB74409BFF74549AFE74DD
:100806008999FDE498FC90000E120EC090000EE04F
:10081600FCA3E0FDA3E0FEA3E0FF900015E0F8A333
:10082600E0F9A3E0FAA3E02FFFEA3EFEE93DFDE88A
:100836003CFCA3E0F8A3E0F9A3E0FAA3E0FBD312A3
:100846000E89406F900060E0FF90002BE0D39F4040
:100856000FD3900029E09400900028E094004053C4
:10086600900061E07002A3E07014900015E0FCA314
:10087600E0FDA3E0FEA3E0FF900038120EC090005A
:1008860061E4F0A304F0900027F0900019E0FCA3C7
:10089600E0FDA3E0FEA3E0FFA3120EC090003D74AE
:1008A60008F0E490000CF0A3F07877F608F6787577
:1008B600F608F6900019E0FCA3E0FDA3E0FEA3E035
:1008C600FFA3120EC090005C120ECC000000009038
:1008D6000019120ECC00000000900061E0FEA3E0BB
:1008E600FFD39400EE9400406990002DE0FCA3E055
:1008F600FDD3EF9DEE9C405AE4900061F0A3F0908A
:10090600003004F02290000CE4F0A304F0E4900020
:1009160030F0900009F0A3F0900002F07FFAFE128A
:100926002441900041120ECC00000000E490003FEC
:10093600F090003D7440F09000327402F090000098
:100946007406F0E4900005F0900057120ECC0000FB
:0209560000009F
:01095800227C
:10203100BF0104E4FE80397E007C007DFF120D208B
:10204100AC06AD07E4120AF6E4FBFA79C87842124D
:102051000A548F268E258D248C23E4FFFEFD7C3FC0
:10206100AB26AA25A924A823120960120B2FAE07BB
:1020710090FF9C7410F075DEFF8EDF75DD947F009C
:01208100223C
:0D26D00075BBAA90FEA774FFF053BBF72264
:10127D001226971200031225E912259212240A1242
:10128D00261C1226D0E4FF12203112243BC2AF12CD
:10129D00160E7F6412203112243BE4FF1220319090
:1012AD00005C120ECC00000000E490002CF09000C9
:1012BD002FE0D39403401612270E90002FE0D39405
:1012CD000C4003121D06E490002FF08003121BE664
:1012DD0090002CE07046900001E0B4013FE4F090E6
:1012ED000027E0B40136E4F090001DE0FCA3E0FD22
:1012FD00A3E0FEA3E0F5508E4F8D4E8C4D7F7812FE
:10130D001B50900015E0FCA3E0FDA3E0FEA3E0F56B
:10131D00508E4F8D4E8C4D7F79121B5043BD1090CA
:10132D000030E0700B900014E0541F7003121EC5C6
:10133D00900021E064016003021401900031E0701F
:10134D003F900030F0A304F090002AE090003EF0B2
:10135D00900041120ECC00000000E490003FF09090
:10136D00003D7440F09000327402F090000074065D
:10137D00F0E4900005F0900057120ECC0000000034
:10138D00120026D390000DE0940090000CE0940024
:10139D004032900002E0B4012BE4F090000DE00427
:1013AD00F0700690000CE004F0900022E0FFC39076
:1013BD00000DE09F90000CE094004008E4F0A3F0D5
:1013CD00FF122031D3900062E09400900061E09410
:1013DD000050030212DD7876E664011846600302C0
:1013ED0012DDF608F6A3E004F07006900061E0044B
:1013FD00F00212DDE4900031F0900012E07007FF72
:10140D001220310212DD900033E0FF122031E49002
:10141D000030F090002AE090003EF0900041120E56
:10142D00CC00000000E490003FF090003D7440F0CF
:10143D009000327402F09000007406F0E490000504
:0E144D00F0900057120ECC000000000212DDDD
:03001B000219E7E0
:1019E700C0E0C0F0C083C082C0D075D000C000C0C6
:1019F70001C002C003C004C005C006C007AF1FAEC8
:101A07001EAD1DAC1CEF2401F51FE43EF51EE43DA1
:101A1700F51DE43CF51C90000AE004F07006900008
:101A270009E004F0900009E0FEA3E0FFE4FCFD7B81
:101A3700607AEAF9F8D3120E73500C900009E4F0BB
:101A4700A3F090000204F0787806E618700106C348
:101A57007878E694E818E69403400C760008760058
:101A670078757600087601900004E004F07006901F
:101A77000003E004F0C3900004E094E8900003E062
:101A870094034009E4F0A3F090000104F0D007D0DC
:101A970006D005D004D003D002D001D000D0D0D0DA
:081AA70082D083D0F0D0E032C0
:0300230002211C9B
:10211C00C0E0C0F0C083C082C0D075D000C000C089
:0D212C0001C002C003C004C005C006C0070A
:0F213900E59830E00AAF99121DEA5398FED2AF35
:10214800D007D006D005D004D003D002D001D000EB
:0B215800D0D0D082D083D0F0D0E03295
:10250C0053BBF7C280E5BB20E3F6D280C2AF75FDAA
:10251C00F075FC0F8EFA8FF975FDD275FC2D75FDDB
:05252C00E175FC1E2218
:04249500E0FF7C2FB9
:1024990053BBF7C280E5BB20E3F6D280C2AF8FFB06
:1024A90075FDF075FC0F8CFA8DF975FDB475FC4B53
:0724B90075FDE175FC1E2218
:101BE6007F007E2F12250C7F107E271225D7E47BDF
:101BF600E87A03F9F890000EE0FCA3E0FDA3E0FE0E
:101C0600A3E0FF120DD37808120E9A7D001225CE9E
:101C1600E47BE87A03F9F890000EE0FCA3E0FDA36C
:101C2600E0FEA3E0FF120DD37D011225CE900060E9
:101C36007D021224957F641225D7900021E0F4FFDF
:101C46007D077C2F1224997F641225D77F807E2FF3
:101C560012250C7F107E271225D77D807C2FE4FF6E
:101C66001225D07D817C2F7F011224997F64122555
:031C7600D7D2AF13
:011C79002248
:1017F9000172004300D10000004200CF0000420006
:07180900CD00000270000099
:101D7900EFC39430400CEFD39439500674D02FFF41
:101D89008022EFC39441400CEFD394465006EF24D0
:101D9900C9FF8010EFC39461400AEFD394665004E1
:101DA900EF24A9FFEF540FC454F0FFEDC394304062
:101DB9000CEDD39439500674D02DFD801EEDC394DB
:101DC900414008EDD394465002800CEDC394614024
:101DD9000AEDD394665004ED24A9FDED540F420792
:011DE90022D7
:061F89008B4D8A4E894FCA
:101F8F00E4F553F552F551F550E94A4B7005FFFE54
:101F9F00FDFC22E4F553F552F551F550AB4D054FCD
:101FAF00E54FAA4E7002054E14F9120CA66017E504
:101FBF00532401F553E43552F552E43551F551E40C
:0E1FCF003550F55080D6AF53AE52AD51AC50E8
:011FDD0022E1
:0E20D1007B017A0079D1752A00752B03E4FD9E
:0620DF008B268A278928E8
:1020E5008B2C8A2D892EE94A4B7004FBFAF922E5DF
:1020F5002B152BAE2A7002152A4E6014AB2C052E1B
:10210500E52EAA2D7002052D14F9ED120CEC80DFD9
:06211500AB26AA27A92851
:01211B0022A1
:061916008B548A5589562E
:10191C008B5C8A5D895E85575F855860855961E966
:10192C004A4B6008E5594558455770077B007A00CB
:10193C00790022D3856083856182E55E9582E55DC1
:10194C0095834019E561255BF9E560355AFA8A8380
:10195C008982D3E55E9582E55D95834038E4F56236
:10196C00F563C3E563955BE562955A5067AB5FAA77
:10197C0060A961856382856283120CBFAB5CAA5D32
:10198C00A95E856382856283120CFE0563E5637034
:10199C00D1056280CD855A62855B63D3E563940083
:1019AC00E5629400402EAB5FAA60A961E56324FF59
:1019BC00FFE56234FFFE8F82F583120CBFAB5CAA8D
:1019CC005DA95E8F828E83120CFEE563156370CB6E
:0A19DC00156280C7AB54AA55A95646
:0119E60022DE
:101E5B008B4C8A4D894EE55345527003FEFF22E5AC
:101E6B00531553700215521445526033AB4FAA50A1
:101E7B00A951120CA6FFAB4CAA4DA94E120CA6B53C
:101E8B00071DE92401F9E43A8B4CF54D894EE551D8
:101E9B002401F9E43550854F4FF550895180C0AB83
:101EAB004FAA50A951120CA6FFAB4CAA4DA94E122A
:0A1EBB000CA6C39FFFE49400FE2272
:10257300E48B508A518952600AAF4FAE4EAD4DACD9
:0E2583004C800BAF4FAE4EAD4DAC4C120E6502
:012591002227
:101AAF00E4F56FF56EF56DF56C120CA6FFE48F6F14
:101ABF00F56EF56DF56CAE6EAD6DAC6C7808120E03
:101ACF00AD8F6F8E6E8D6D8C6C900001120CBFFF01
:101ADF00E56F4FF56FE56EF56EE56DF56DE56CF540
:101AEF006CAF6FAE6EAD6DFC7808120EAD8F6F8E52
:101AFF006E8D6D8C6C900002120CBFFFE56F4FF571
:101B0F006FE56EF56EE56DF56DE56CF56CAF6FAE6F
:101B1F006EAD6DFC7808120EAD8F6F8E6E8D6D8C65
:101B2F006C900003120CBFFFE56F4FF56FE56EF57C
:101B3F006EE56DF56DE56CF56CAF6FAE6EAD6DFC72
:011B4F002273
:0627360090007DE0FF228F
:0C26DD00E490007DF0FDFC7F04021FDE95
:06273C0090007AE0FF228C
:042082008D5AAB07C1
:10208600E4FDFC90007CE0B401037F0122AF05AEC5
:1020960004AD03122683AC067D01122683AC06E44A
:1020A600FD122683AC067D01122683AC06AD07E53C
:1020B6005A7003FD8006AF05AE047D01122683AC7F
:0A20C60006AD077F07121FDE7F0141
:0120D00022ED
:021B5000AB07E1
:101B5200E4FDFC90007CE0B401037F0122AF05AEFE
:101B620004AD03122683AC067D02122683AC06E482
:101B7200FD122683AC067D04122683C006C007AF81
:101B820050AE4FAD4EAC4D7818120E9AAD07D0073D
:101B9200D006122683C006C007AF50AE4FAD4EAC82
:101BA2004D7810120E9AAD07D007D006122683C0C8
:101BB20006C007AF50AE4FAD4EAC4D7808120E9A2C
:101BC200AD07D007D006122683AC06C007E550FF4A
:101BD200E4AD07D007122683AC06AD077F07121FBC
:031BE200DE7F01A2
:011BE50022DD
:042232008D5AAB070F
:10223600E4FDFC90007CE0B401037F0122AF05AE13
:1022460004AD03122683AC067D04122683AC06E495
:10225600FD122683AC067D01122683AC06AD5A120A
:0D2266002683AC06AD077F07121FDE7F0147
:012273002248
:02182E00AD0704
:10183000E4F51AF51B90007CE0B401037F0122AFB0
:101840001BAE1A1226838E1A8F1B7D051226838EDD
:101850001A8F1BE4FD1226838E1A8F1B74FFFFE57F
:1018600018FEE517FDE516FCE47BFFFAF9F8C31254
:101870000E8970117D01AF1BAE1A1226838E1A8F4E
:101880001BAD19807E74FFFFFEE517FDE516FCE435
:101890007BFF7AFFF9F8C3120E8970047D0280364F
:1018A0007D04AF1BAE1A1226838E1A8F1BAF19AEA2
:1018B00018AD17AC167818120E9AAD07AF1BAE1AFA
:1018C0001226838E1A8F1BAF19AE18AD17AC16787F
:1018D00010120E9AAD07AF1BAE1A1226838E1A8F06
:1018E0001BAF19AE18AD17AC167808120E9AAD07DB
:1018F000AF1BAE1A1226838E1A8F1BE519FFE4ADBB
:1019000007AF1B1226838E1A8F1BAD1BAC1A7F07E5
:05191000121FDE7F0143
:0119150022AF
:0826F4008C5A8D5B120CA6FF4D
:0126FC0022BB
:0826FD008C5A8D5B120CA6FF44
:0127050022B1
:072706008C738D74121AAFF1
:01270D0022A9
:101DEA008F64D3856A83856B82E5689582E56795FA
:101DFA00834015E568956BFFE567956AFEC3EF9426
:101E0A0017EE648094805048C3856A83856B82E5A7
:101E1A00689582E5679583500DC3E56B9568FFE584
:101E2A006A95674F602AC390007AE5689582E567EC
:101E3A0095834009756601756700756863AB660529
:101E4A0068E568AA677002056714F9E564120CEC84
:011E5A002265
:02145B008F25DB
:10145D00C2009000D2E09000D1F09000D3E0900057
:10146D00D2F0A3E525F09000D1E064557056A3E0CD
:10147D0064AA7050A3E0704C7B017A00797EF52A46
:10148D00752B1FFD1220DF7557017558007559D149
:10149D00755A00755B037B017A00797E1219167BF4
:1014AD00017A0079D1752A00752B031220DF900087
:1014BD00CDE4F0A37403F0757201E49000CFF0A3B6
:1014CD00F0A20022E572700302160B24FE603514A3
:1014DD00605114700302159A1470030215CD240483
:1014ED0060030215EA9000CDE475F001120D32FE95
:1014FD00747E25F0F58274003EF583E525F0757256
:10150D000202160B9000CDE475F001120D32FE743F
:10151D007E25F0F58274003EF583E525F0757203A6
:10152D0002160B9000CDE475F001120D32FE747EA3
:10153D0025F0F58274003EF583E525F09000CDE0B1
:10154D00FEA3E0247CF58274003EF583E0FE90005E
:10155D00CDE0FCA3E0247DF58274003CF583E0FD35
:10156D00EDFF9000CFEEF0A3EFF0D3E0941F9000CD
:10157D00CFE0940040028065D39000D0E0940090BD
:10158D0000CFE09400403475720402160B9000CD2C
:10159D00E475F001120D32FE747E25F0F5827400B3
:1015AD003EF583E525F09000D0E024FFF09000CFCC
:1015BD00E034FFF0E07002A3E07043757205803EE9
:1015CD009000CDE475F001120D32FE747E25F0F51C
:1015DD008274003EF583E525F0D20080211220D1E2
:1015ED007B017A00797E752A00752B1F1220DFE4AE
:1015FD009000CDF0A3F0F5729000CFF0A3F0A20013
:01160D0022BA
:101EC500E4F521F522F523F524C3E571941FE570AA
:101ED5009400504F1225B0EFD3940040461222745F
:101EE50012145B503EE4FFFE120F23900082E0FEC9
:101EF500A3E07C002400FFEC3ECF2407F524E43F5B
:101F0500F5231220D17B017A00797E752A00752B85
:101F15001F1220DFE49000CDF0A3F0F5729000CF02
:031F2500F0A3F036
:011F28002296
:10269700756601756700756863756901756A007508
:0326A7006B632240
:101810004100C0004400BC000000004C00C1670152
:0A1820007802790296049A04A002EF
:08270E00E4FDFC7F04021FDE64
:032742000226E983
:1022B600E4FD7F67122082E4F550F54FF54EF54DAB
:1022C6007F78121B50E4F550F54FF54EF54D7F79AA
:1022D600121B50E4FD7F96122232E4FD7F9A1222F1
:0F22E60032E4F550F54FF54EF54D7FA0021B5039
:1023A6001226F4900021E06F6006E4FE0EBE08FCE3
:1023B600EF9000217003F080037401F0121BE69089
:1023C6000021E0FD7F67122082BF01037F01227F8B
:0123D6000006
:0123D70022E3
:1026AA001226FDAD077F96122232BF01037F012257
:0226BA007F009F
:0126BC0022FB
:1026BD001226FDAD077F9A122232BF01037F012240
:0226CD007F008C
:0126CF0022E8
:062163008B548A558956D9
:10216900EF246A601924FC602624337031AB54AA29
:1021790055A956AD58AC571223A68F598020AB5498
:10218900AA55A956AD58AC571226AA8F59800FAB3C
:1021990054AA55A956AD58AC571226BD8F59AF59F7
:0121A9002213
:032745007F0622EA
:08271600E4FDFC7F09021FDE57
:08271E00E4FDFC7F0E021FDE4A
:02001E008F4C05
:020020008D4D04
:0100220022BB
:022603008F083E
:10260500E4F510F511F512850E13850F14850B10E1
:06261500850C11850D1279
:01261B00229C
:01001A0022C3
:02263300AB07F3
:10263500E4FCFFFEAD03122683AC06AD077FE10285
:022645001FDE96
:02264700AB07DF
:10264900E4FCFFFEAD03122683AC06AD077FE20270
:022659001FDE82
:032748008F4C2291
:02265B00AB07CB
:10265D00E4FCFFFEAD03122683AC06AD077FE4025A
:02266D001FDE6E
:03274B008F4C228E
:02266F00AB07B7
:10267100E4FCFFFEAD03122683AC06AD077FE50245
:022681001FDE5A
:03274E008F4C228B
:0224C000AF0566
:1024C200E4FDFCEF640860037F0022AF05AE0475F3
:1024D20052007553081221B8AC06AD077FE6121FF1
:0324E200DE7F009A
:0124E50022D4
:032751008F4C2288
:08272600E4FDFC7FE7021FDE69
:032754008F4C2285
:10246900E4FDFCFFFEFBFAF9F5527553031221B89E
:10247900AC06AD077B007A007900755200755303ED
:0C2489001221B8AC06AD077FE9021FDE8F
:01275700225F
:101D0600E4F5217F807E2E12250C7F107E2712257A
:101D1600D77D807C2E7F011224997F647E00122558
:101D2600D7E4F5217F647E001225D70521E521C37E
:101D3600940840F07F647E001225D77F647E0012EF
:101D460025D77F647E001225D77F647E001225D7B3
:101D56007F647E001225D77F647E001225D77F64BC
:101D66007E001225D77F647E001225D77F647E0011
:031D76000225D76C
:1025310078673377306C6F6800312E302E3000743D
:1025410072756500303030303030303030303030FE
:02255100000088
:03182A0001650055
:1026830074A32FF974003EFA7B01ED120CEC0FBF1B
:0326930000010E35
:012696002221
:0E21AA007E007B007A007900755200755303A9
:0A21B8008E4D8F4E8B4F8A508951D7
:1021C20074A32FF974003EFA7B01854F578550584E
:1021D20085515985525A85535B121916E553254E7E
:0B21E200F54EE552354DF54DFEAF4EB9
:0121ED0022CF
:102332008B5D8A5E895F8C608D61E94A4B602DE519
:102342006145606027E5611561AE60700215604EFF
:10235200601AAB5DAA5EA95F120CA6FF1227427437
:0D23620001255FF55FE4355EF55E80D92250
:0A23D8008B5D8A5E895F8C608D6169
:1023E200E4FFFDFCC3ED9561EC9560501AAB5D0511
:1023F2005FE55FAA5E7002055E14F9120CA62FFF5C
:072402000DBD00010C80DD9F
:0124090022B0
:041FDE008C5B8D5C2F
:101FE20090009D7455F0A374AAF0E4A3F0A3EFF05F
:101FF200E55BA3F0E55CA3F02407F55CE4355BF553
:102002005B7B017A00799DE55C24FFFDE55B34FF93
:10201200FC1223D8749C255CF5827400355BF58331
:0F202200EFF07B017A00799DAD5CAC5B0223325D
:10255300E4FFE565700AFEFD1226837565018007B9
:102563007E007D01122683EFFD7C00E4FF021FDE67
:1021EE00E4F54C7BFF7A257931121F898E528F537D
:1021FE00AF4C7E007BFF7A2579311221B88F4C7B54
:10220E00FF7A25793A121F898E528F53AF4C7E007A
:10221E007BFF7A25793A1221B88F4CEFFD7C007F37
:04222E0001021FDEAC
:08272E00E4FDFC7F02021FDE46
:0224E6008F5312
:1024E800122745E4FEEEC39F501775F002EEA424B0
:1024F800C1F582E5F03400F583E0655360030E8092
:03250800E4AF0637
:01250B0022AD
:061F29008B4C8A4D894E2D
:101F2F00120CA6F54F900001120CBFF55090000255
:101F3F00120CBF755200F551900003120CBF2552C1
:101F4F00F552E43551F551AF4F1224E675F002EF1B
:101F5F00A424C2F582E5F03400F583E065506003F8
:101F6F007F0022AB4CE54E2404F9E4354DFA855140
:091F7F0057855258AF4F1221633F
:011F88002236
:040F23008E258F2662
:100F2700E4F52974812FF58274003EF583E0F52FEF
:100F3700783A7C007D007BFF7A2579457E007F0E1D
:100F4700120C80E52F120EFD0F86000F89010F8C02
:100F5700020F8F030FB2040FB906105808105B0E6B
:100F67001279A110AEE010BFE1120FE21220E412D5
:100F770031E51242E61253E71264E80000127C02E0
:100F870025530221EE02272E74842526F58274004C
:100F97003525F583E090007AF064016003E0700383
:100FA700120000E4FDFC7F0302127690007D7401BD
:100FB700F02274822526F58274003525F583E075C5
:100FC7002E00F52D74832526F58274003525F583CB
:100FD700E0252EF52EE4352DF52DE4F52BF52CC364
:100FE700E52C952EE52B952D400302127CE5262551
:100FF7002CFDE525352BFC74862DF58274003CF518
:1010070083E0752800F52774872DF58274003CF579
:1010170083E02528F528E43527F52774842526F964
:1010270074003525FA7B01E9252CF9EA352BFA12EC
:101037001F298F2AE52AB40103121BE6E528240499
:10104700FFE43527FEEF252CF52CEE352BF52B800D
:101057008E0222B6748B2526F974003525FA7B019A
:10106700754FFF7550257551407552007553041221
:101077001E5BEF4E702B74992526F582740035257B
:10108700F583E024D075F00AA4FF749A2526F5822B
:1010970074003525F583E024D02FF404FD7F01800B
:1010A70003E4FDFF02001E74842526F582740035D3
:1010B70025F583E0FF02001A74842526F582740063
:1010C7003525F583E0F52A600302127C7485252611
:1010D700F58274003525F583E0701274862526F5B0
:1010E7008274003525F583E024E202118874852592
:1010F70026F58274003525F583E0640170607486F7
:101107002526F974003525755701F5588959755AFB
:1011170000755B0D7B007A00793A1219167B007A0D
:1011270000793A1225738F4B8E4A8D498C487493F8
:101137002526F58274003525F583E0C39408E494E9
:10114700007E0050047F0180027F0074942526F5FD
:101157008274003525F583E07C002F021208748520
:101167002526F58274003525F583E06402600302C5
:10117700127C74862526F58274003525F583E024D4
:10118700D0F531E43407F53074872526F5827400ED
:101197003525F583E0F53274882526F58274003508
:1011A70025F583E0F53374892526F5827400352506
:1011B700F583E0F534748A2526F58274003525F524
:1011C70083E0F535748B2526F58274003525F58384
:1011D700E0F536748C2526F58274003525F583E015
:1011E700F537748D2526F58274003525F583E0FEE5
:1011F700748E2526F58274003525F583E07C00245E
:1012070000F539EC3EF5382274842526F582740002
:101217003525F583E0FF02274874842526F5827477
:10122700003525F583E0FF02274B74842526F582D8
:1012370074003525F583E0FF02274E74842526F5D3
:101247008274003525F583E0FF0227517484252633
:10125700F58274003525F583E0FF022754AF291284
:1012670021AA8F291221AA8F29EFFD7C007FE8028E
:051277001FDE122757E5
:01127C00224F
:1025B000E569856A83856B826566700AE568658270
:0E25C0007004E567658360037F01227F0022BF
:10227400E5668567838568826569700AE56B6582B2
:102284007004E56A65836029C390007AE56B9582E2
:10229400E56A95834009756901756A00756B63ABDE
:1022A40069056BE56BAA6A7002056A14F9120CA63B
:0122B400FF2A
:0122B5002206
:10095900020B9BE86480F8E933E83360110460F026
:10096900ED33EC337009E8FCE9FDEAFEEBFF220404
:1009790060DED3EB9FEA9EE99DE8C2E78CF0C2F7FF
:1009890095F0400CE8CCF8E9CDF9EACEFAEBCFFBCB
:10099900120B6685D0F05804700320D5B3E80470B3
:1009A900075002B2D5020BA592D5EC0460F7E4CC4E
:1009B900C0E0C398F8603B94186008400DD0E0FB94
:1009C900020B7DE4FBFAC9FC8028E830E406E4C99F
:1009D900FBE4CAFCE830E305E4C9CACBFCE85407E8
:1009E9006010F8C3E913F9EA13FAEB13FBEC13FCF3
:1009F900D8F130F52FC3E49CFCEF9BFFEE9AFEED96
:100A090099FDD0E0FBEF4E4D4C701222DB03020B37
:100A1900A2EC2CFCEF33FFEE33FEED33FDED30E7B6
:100A2900EB020B7DEF2BFFEE3AFEED39FDD0E0FB3B
:100A390050130BBB0003020BA5ED13FDEE13FEEFE4
:080A490013FFEC13FC020B7D0E
:100A5100020BA5EC5D046005E859047003020B9BD1
:100A6100120B66580460F6EC4860F2EC7004FDFE6F
:100A7100FF22C860DB2481C85009C3986002500678
:100A8100020BA29850CAF582E9294B4A7005AB8244
:100A9100020B9175F0007C1A7880C3EF9BEE9AED02
:100AA10099400DC3EF9BFFEE9AFEED99FDE842F0F0
:100AB100DC23ACF0D0E0FFD0E0FED0E0FDAB822043
:100AC100E7101BEB60BAEC2CFCEF33FFEE33FEEDCD
:100AD10033FD020B7DE803F830E705C0F075F00047
:100AE100EF2FFFEE33FEED33FD40B830E7C280AAB1
:100AF10075F020800E75F010800575F0087D007E80
:100B0100007F003392D530D503120E65EC334010CF
:100B1100EF33FFEE33FEED33FDEC33FCD5F0ED2288
:0E0B2100E5F0247EA2D513CC92E7CDCEFF22C4
:100B2F00EDD2E7CD33EC3392D524814006E4FFFEBE
:100B3F00FDFC22FCE4CFCECDCC24E0501174FF801D
:100B4F00EDC3CC13CCCD13CDCE13CECF13CF0470BA
:070B5F00F030D5DE020E6547
:100B6600E9D2E7C933E833F892D5EDD2E7CD33ECD5
:070B760033FC5002B2D5224E
:100B7D00EC30E7100FBF000C0EBE00080DBD0004D9
:100B8D000BEB6014A2D5EB13FCED92E7FD2274FF85
:100B9D00FCFDFEFF22E480F8A2D574FF13FC7D80DE
:030BAD00E480EFF2
:101C860002127DE493A3F8E493A34003F68001F2E5
:101C960008DFF48029E493A3F85407240CC8C3335F
:101CA600C4540F4420C8834004F456800146F6DF2E
:101CB600E4800B0102040810204080901737E47E70
:101CC600019360BCA3FF543F30E509541FFEE49323
:101CD600A360010ECF54C025E060A840B8E493A3EA
:101CE600FAE493A3F8E493A3C8C582C8CAC583CA15
:101CF600F0A3C8C582C8CAC583CADFE9DEE780BECD
:01182D0000BA
:100BB000E709F608DFFA8046E709F208DFFA803E27
:100BC00088828C83E709F0A3DFFA8032E309F60814
:100BD000DFFA8078E309F208DFFA807088828C837C
:100BE000E309F0A3DFFA806489828A83E0A3F60830
:100BF000DFFA805889828A83E0A3F208DFFA804C0A
:100C000080D280FA80C680D4806980F280338010E0
:100C100080A680EA809A80A880DA80E280CA803349
:100C200089828A83ECFAE493A3C8C582C8CCC583C1
:100C3000CCF0A3C8C582C8CCC583CCDFE9DEE78091
:100C40000D89828A83E493A3F608DFF9ECFAA9F010
:100C5000EDFB2289828A83ECFAE0A3C8C582C8CC66
:100C6000C583CCF0A3C8C582C8CCC583CCDFEADE7F
:100C7000E880DB89828A83E493A3F208DFF980CCE1
:100C800088F0EF60010E4E60C388F0ED2402B404DA
:100C90000050B9F582EB2402B4040050AF23234581
:060CA0008223900C00739A
:100CA600BB010689828A83E0225002E722BBFE024C
:090CB600E32289828A83E493227F
:100CBF00BB010CE58229F582E5833AF583E02250EA
:100CCF0006E92582F8E622BBFE06E92582F8E22234
:0D0CDF00E58229F582E5833AF583E493224E
:100CEC00BB010689828A83F0225002F722BBFE01E7
:020CFC00F322E1
:100CFE00F8BB010DE58229F582E5833AF583E8F02C
:100D0E00225006E92582C8F622BBFE05E92582C8D7
:020D1E00F222BF
:100D2000EF8DF0A4A8F0CF8CF0A428CE8DF0A42EE7
:020D3000FE22A1
:100D3200A3F8E0C5F025F0F0E58215827002158374
:060D4200E0C838F0E822D1
:100D4800E88FF0A4CC8BF0A42CFCE98EF0A42CFC4A
:100D58008AF0EDA42CFCEA8EF0A4CDA8F08BF0A4C8
:100D68002DCC3825F0FDE98FF0A42CCD35F0FCEB27
:100D78008EF0A4FEA9F0EB8FF0A4CFC5F02ECD39EC
:0F0D8800FEE43CFCEAA42DCE35F0FDE43CFC2259
:100D970075F008758200EF2FFFEE33FECD33CDCC13
:100DA70033CCC58233C5829BED9AEC99E582984096
:100DB7000CF582EE9BFEED9AFDEC99FC0FD5F0D673
:100DC700E4CEFBE4CDFAE4CCF9A88222B800C1B99D
:100DD7000059BA002DEC8BF084CFCECDFCE5F0CBDB
:100DE700F97818EF2FFFEE33FEED33FDEC33FCEB14
:100DF70033FB10D703994004EB99FB0FD8E5E4F9CF
:100E0700FA227818EF2FFFEE33FEED33FDEC33FCBB
:100E1700C933C910D7059BE99A4007EC9BFCE99AAF
:100E2700F90FD8E0E4C9FAE4CCFB2275F010EF2FF4
:100E3700FFEE33FEED33FDCC33CCC833C810D707F4
:100E47009BEC9AE899400AED9BFDEC9AFCE899F82F
:0E0E57000FD5F0DAE4CDFBE4CCFAE4C8F922C2
:0E0E6500C3E49FFFE49EFEE49DFDE49CFC229E
:100E7300EB9FF5F0EA9E42F0E99D42F0EC6480C8F6
:060E830064809845F02296
:100E8900EB9FF5F0EA9E42F0E99D42F0E89C45F0BF
:010E99002236
:100E9A00E8600FECC313FCED13FDEE13FEEF13FF36
:030EAA00D8F1225A
:100EAD00E8600FEFC333FFEE33FEED33FDEC33FCA3
:030EBD00D8F12247
:0C0EC000ECF0A3EDF0A3EEF0A3EFF022A5
:100ECC00A8828583F0D083D082120EE3120EE31237
:100EDC000EE3120EE3E473E493A3C583C5F0C5835C
:100EEC00C8C582C8F0A3C583C5F0C583C8C582C870
:010EFC0022D3
:100EFD00D083D082F8E4937012740193700DA3A384
:100F0D0093F8740193F5828883E473740293686097
:060F1D00EFA3A3A380DF97
:00000001FF
